:020000040002F8
:10600000688A0020C1630200C9630200CB630200FA
:10601000CD630200CF630200D163020000000000E4
:10602000000000000000000000000000D363020038
:10603000D563020000000000D7630200D9630200AC
:10604000CDA70200DB630200BDAC0200DB630200EF
:10605000DB630200DB630200C9990200DB6302001C
:10606000DB630200DB630200DB630200DB63020030
:10607000DB63020025A80200DB630200DB63020091
:10608000DB6302004DA80200DB630200DB63020059
:10609000FDA80200DB63020001A90200DB6302002D
:1060A000DB630200DB630200DB630200DB630200F0
:1060B000DB630200DB630200000000000000000060
:1060C000DB630200DB630200DB630200DB630200D0
:1060D000DB630200DB630200DB6302000000000000
:1060E00000000000000000000000000000000000B0
:1060F00000000000000000000000000000000000A0
:10610000000000000000000000000000000000008F
:10611000000000000000000000000000000000007F
:10612000000000000000000000000000000000006F
:10613000000000000000000000000000000000005F
:10614000000000000000000000000000000000004F
:10615000000000000000000000000000000000003F
:10616000000000000000000000000000000000002F
:10617000000000000000000000000000000000001F
:10618000000000000000000000000000000000000F
:1061900000000000000000000000000000000000FF
:1061A00000000000000000000000000000000000EF
:1061B00000000000000000000000000000000000DF
:1061C00000000000000000000000000000000000CF
:1061D00000000000000000000000000000000000BF
:1061E00000000000000000000000000000000000AF
:1061F000000000000000000000000000000000009F
:10620000DFF80CD001F080FB004800471D160300AA
:10621000688A002030B450E8012F93B2C489234427
:106220008489A34228BF1B1B0489A34202BFBFF37A
:106230002F8F002007E0C3EA020340E80134002C5E
:10624000E9D14FF001000A6030BC704750E8012FDF
:10625000C2EA024240E801210029F7D1704730B478
:1062600050E8022F1FFAA2F3C488A34202BFBFF373
:106270002F8F00200DE0C48923448489A34228BFC6
:106280001B1BC2EA034340E80234002CE8D14FF064
:1062900001000A6030BC704750E8022FC2EA224277
:1062A00040E802210029F7D17047034653E8022F46
:1062B000D988B2EB324F4FF0000017BF92B241EADB
:1062C000014142EA014104E05A68B2EB324F08BF93
:1062D000012043E80212002AE8D1704730B4044696
:1062E00054E8000F0D4644E80053002BF8D1156028
:1062F00030BC704730B4044654E8000F40EA010552
:1063000044E80053002BF7D1156030BC704730B41F
:10631000044654E8000F00EA010544E80053002B4E
:10632000F7D1156030BC704730B4044654E8000F14
:1063300080EA010544E80053002BF7D1156030BC1A
:10634000704730B4044654E8000F00EB010544E800
:106350000053002BF7D1156030BC704730B40446B1
:1063600054E8000FA0EB010544E80053002BF7D1DF
:10637000156030BC704770B404464FF0000054E81C
:10638000006F0D68AE4207BF44E80023012044E8D7
:1063900000630E60002B1CBF0020F0E770BC70474C
:1063A00030B4044654E8000F88422CBF451A054615
:1063B00044E80053002BF5D1156030BC7047000055
:1063C0000648804706480047FEE7FEE7FEE7FEE78F
:1063D000FEE7FEE7FEE7FEE7FEE7FEE7A1A9020013
:1063E0000162020030B44FF0000310F8014B11F8C5
:1063F000015B013A84EA050443EA0403F5D1A3F101
:1064000001034FEAD37030BC70474FF0000310F81F
:10641000012B013943EA0203F9D1A3F101034FEA49
:10642000D37070472DE9F00791E8F807B2E8021041
:106430005B1854EB0C04B2E802104D4156EB0C060D
:10644000B2E802104F4158EB0C08B2E8021059EBC9
:1064500001095AEB0C0A4FF0260261EB010122EA16
:1064600001015B1854F1000455F1000556F10006D6
:1064700057F1000758F1000859F100095AF1000AD4
:1064800061EB010122EA01010B4480E8F807BDE855
:10649000F00770472DE9F00791E8F807B2E802101D
:1064A0005B1A74EB0C04B2E802108D4176EB0C061B
:1064B000B2E802108F4178EB0C08B2E8021079EBD9
:1064C00001097AEB0C0A4FF0260261EB010102EAA6
:1064D00001015B1A74F1000475F1000576F1000604
:1064E00077F1000778F1000879F100097AF1000AE4
:1064F00061EB010102EA0101A3EB010380E8F80767
:10650000BDE8F00770470A462DE9F04F92E8F00F1A
:106510002DE9F30F87B091E839000999A0FB0178C4
:106520004FF00009E3FB01894FF0000AE4FB019AF8
:106530004FF0000BE5FB01AB0D994FF0000CE0FBB9
:1065400001BC4FF0000EE3FB01CE4FF00002E4FB74
:1065500001E24FF00006E5FB012600970A994FF093
:106560000007E0FB018719EB07094FF0000747EB35
:106570000707E3FB01971AEB070A4FF0000747EB09
:106580000707E4FB01A71BEB070B4FF0000747EBE6
:106590000707E5FB01B70E991CEB070C4FF000074E
:1065A00047EB0707E0FB01C71EEB070E4FF00007A4
:1065B00047EB0707E3FB01E7D2194FF0000747EB72
:1065C0000707E4FB0127F6194FF0000747EB070721
:1065D000E5FB0167CDF804800B994FF00008E0FB64
:1065E00001981AEB080A4FF0000848EB0808E3FB93
:1065F00001A81BEB080B4FF0000848EB0808E4FB70
:1066000001B81CEB080C4FF0000848EB0808E5FB4C
:1066100001C80F991EEB080E4FF0000848EB080860
:10662000E0FB01E812EB08024FF0000848EB080815
:10663000E3FB012816EB08064FF0000848EB0808BA
:10664000E4FB016817EB08074FF0000848EB080867
:10665000E5FB0178CDF808900C994FF00009E0FBBC
:1066600001A91BEB090B4FF0000949EB0909E3FBFA
:1066700001B91CEB090C4FF0000949EB0909E4FBD7
:1066800001C91EEB090E4FF0000949EB0909E5FBB2
:1066900001E9109912EB09024FF0000949EB0909D1
:1066A000E0FB012916EB09064FF0000949EB090947
:1066B000E3FB016917EB09074FF0000949EB0909F2
:1066C000E4FB017918EB09084FF0000949EB0909CF
:1066D000E5FB0189CDF80CA0089901F1100191E8C2
:1066E000390009994FF0000AE0FB01BA1CEB0A0CD3
:1066F0004FF0000A4AEB0A0AE3FB01CA1EEB0A0E3E
:106700004FF0000A4AEB0A0AE4FB01EA12EB0A0224
:106710004FF0000A4AEB0A0AE5FB012A0D9916EB35
:106720000A064FF0000A4AEB0A0AE0FB016A17EB7F
:106730000A074FF0000A4AEB0A0AE3FB017A18EB5A
:106740000A084FF0000A4AEB0A0AE4FB018A19EB37
:106750000A094FF0000A4AEB0A0AE5FB019ACDF854
:1067600010B00A994FF0000BE0FB01CB1EEB0B0EB3
:106770004FF0000B4BEB0B0BE3FB01EB12EB0B02AF
:106780004FF0000B4BEB0B0BE4FB012B16EB0B0656
:106790004FF0000B4BEB0B0BE5FB016B0E9917EB6E
:1067A0000B074FF0000B4BEB0B0BE0FB017B18EBE7
:1067B0000B084FF0000B4BEB0B0BE3FB018B19EBC2
:1067C0000B094FF0000B4BEB0B0BE4FB019B1AEB9F
:1067D0000B0A4FF0000B4BEB0B0BE5FB01ABCDF8BD
:1067E00014C00B994FF0000CE0FB01EC12EB0C0213
:1067F0004FF0000C4CEB0C0CE3FB012C16EB0C06E1
:106800004FF0000C4CEB0C0CE4FB016C17EB0C078D
:106810004FF0000C4CEB0C0CE5FB017C0F9918EBD6
:106820000C084FF0000C4CEB0C0CE0FB018C19EB4E
:106830000C094FF0000C4CEB0C0CE3FB019C1AEB29
:106840000C0A4FF0000C4CEB0C0CE4FB01AC1BEB06
:106850000C0B4FF0000C4CEB0C0CE5FB01BCCDF825
:1068600018E00C994FF0000EE0FB012E16EB0E061F
:106870004FF0000E4EEB0E0EE3FB016E17EB0E0712
:106880004FF0000E4EEB0E0EE4FB017E18EB0E08EF
:106890004FF0000E4EEB0E0EE5FB018E109919EB3A
:1068A0000E094FF0000E4EEB0E0EE0FB019E1AEBB0
:1068B0000E0A4FF0000E4EEB0E0EE3FB01AE1BEB8B
:1068C0000E0B4FF0000E4EEB0E0EE4FB01BE1CEB68
:1068D0000E0C4FF0000E4EEB0E0EE5FB01CE4FF00E
:1068E0002601DDE900344FF00000E6FB01302418FA
:1068F0004FF0000040EB0000E7FB0140DDE90256ED
:106900002D184FF0000040EB0000E8FB0150361856
:106910004FF0000040EB0000E9FB0160DDE9048975
:1069200018EB00084FF0000040EB0000EAFB01808C
:1069300019EB00094FF0000040EB0000EBFB019069
:10694000DDF818A01AEB000A4FF0000040EB000041
:10695000ECFB01A012184FF0000040EB0000EEFB32
:10696000012000FB01F01B1854F1000455F1000553
:1069700056F1000658F1000759F100085AF10009D4
:1069800052F1000A60EB000021EA0000034407987E
:1069900080E8F80711B0BDE8F08F2DE9F00791E825
:1069A000F0174EF6A1514FEA4101A4FB01234FF02D
:1069B0000004E5FB01344FF00005E6FB01454FF014
:1069C0000006E7FB01564FF00007E8FB01674FF0B8
:1069D0000008E9FB01784FF00009EAFB01894FF05C
:1069E000000AECFB019A4FF026010AFB01FA12EBB8
:1069F0000A0253F1000354F1000455F1000556F169
:106A0000000657F1000758F1000859F100096AEB38
:106A10000A0A21EA0A010A4480E8FC03BDE8F007FB
:106A200070472DE9F00390E8F8134FEAEC7202F09A
:106A300013022CF0004C02F11301591854F100011B
:106A400055F1000156F1000157F1000158F1000124
:106A500059F100015CF100014FEAE17101F013010D
:106A600011445B1854F1000455F1000556F100067D
:106A700057F1000758F1000859F100094CF1000CDA
:106A80002CF0004C80E8F813BDE8F003704700BF1D
:106A90002DE9F00791E8F807B2E802105B1854EB13
:106AA0000C04B2E802104D4156EB0C06B2E802109D
:106AB0004F4158EB0C08B2E8021059EB01095AEBB0
:106AC0000C0A8941B3F1FF3374F1FF3475F1FF35DE
:106AD00076F1000677F1000778F1000879F10109F5
:106AE0007AF1FF3A51F100014A425B184C414D41A5
:106AF00056F1000657F1000758F1000859EB02095A
:106B00005AEB010A80E8F807BDE8F00770472DE965
:106B1000F00791E8F807B2E802105B1A74EB0C0476
:106B2000B2E802108D4176EB0C06B2E802108F41FC
:106B300078EB0C08B2E8021079EB01097AEB0C0A49
:106B400089414A425B184C414D4156F1000657F1CC
:106B5000000758F1000859EB02095AEB010A80E8D6
:106B6000F807BDE8F00770470A462DE9F04F92E8B4
:106B7000F00F2DE9F30F87B091E839000999A0FBD8
:106B800001784FF00009E3FB01894FF0000AE4FBB4
:106B9000019A4FF0000BE5FB01AB0D994FF0000C93
:106BA000E0FB01BC4FF0000EE3FB01CE4FF0000212
:106BB000E4FB01E24FF00006E5FB012600970A998D
:106BC0004FF00007E0FB018719EB07094FF00007C2
:106BD00047EB0707E3FB01971AEB070A4FF00007A3
:106BE00047EB0707E4FB01A71BEB070B4FF0000780
:106BF00047EB0707E5FB01B70E991CEB070C4FF0BD
:106C0000000747EB0707E0FB01C71EEB070E4FF03D
:106C1000000747EB0707E3FB01E7D2194FF0000736
:106C200047EB0707E4FB0127F6194FF0000747EB96
:106C30000707E5FB0167CDF804800B994FF00008CA
:106C4000E0FB01981AEB080A4FF0000848EB08082F
:106C5000E3FB01A81BEB080B4FF0000848EB08080A
:106C6000E4FB01B81CEB080C4FF0000848EB0808E7
:106C7000E5FB01C80F991EEB080E4FF0000848EB2A
:106C80000808E0FB01E812EB08024FF0000848EBAF
:106C90000808E3FB012816EB08064FF0000848EB54
:106CA0000808E4FB016817EB08074FF0000848EB01
:106CB0000808E5FB0178CDF808900C994FF0000921
:106CC000E0FB01A91BEB090B4FF0000949EB090997
:106CD000E3FB01B91CEB090C4FF0000949EB090972
:106CE000E4FB01C91EEB090E4FF0000949EB09094D
:106CF000E5FB01E9109912EB09024FF0000949EB9D
:106D00000909E0FB012916EB09064FF0000949EBE0
:106D10000909E3FB016917EB09074FF0000949EB8B
:106D20000909E4FB017918EB09084FF0000949EB68
:106D30000909E5FB0189CDF80CA0089901F11001C2
:106D400091E8390009994FF0000AE0FB01BA1CEB09
:106D50000A0C4FF0000A4AEB0A0AE3FB01CA1EEBD9
:106D60000A0E4FF0000A4AEB0A0AE4FB01EA12EBB2
:106D70000A024FF0000A4AEB0A0AE5FB012A0D99C4
:106D800016EB0A064FF0000A4AEB0A0AE0FB016A1A
:106D900017EB0A074FF0000A4AEB0A0AE3FB017AF5
:106DA00018EB0A084FF0000A4AEB0A0AE4FB018AD2
:106DB00019EB0A094FF0000A4AEB0A0AE5FB019AAF
:106DC000CDF810B00A994FF0000BE0FB01CB1EEBA1
:106DD0000B0E4FF0000B4BEB0B0BE3FB01EB12EB3D
:106DE0000B024FF0000B4BEB0B0BE4FB012B16EBF4
:106DF0000B064FF0000B4BEB0B0BE5FB016B0E99F9
:106E000017EB0B074FF0000B4BEB0B0BE0FB017B81
:106E100018EB0B084FF0000B4BEB0B0BE3FB018B5C
:106E200019EB0B094FF0000B4BEB0B0BE4FB019B39
:106E30001AEB0B0A4FF0000B4BEB0B0BE5FB01AB16
:106E4000CDF814C00B994FF0000CE0FB01EC12EBF5
:106E50000C024FF0000C4CEB0C0CE3FB012C16EB7E
:106E60000C064FF0000C4CEB0C0CE4FB016C17EB28
:106E70000C074FF0000C4CEB0C0CE5FB017C0F9960
:106E800018EB0C084FF0000C4CEB0C0CE0FB018CE9
:106E900019EB0C094FF0000C4CEB0C0CE3FB019CC4
:106EA0001AEB0C0A4FF0000C4CEB0C0CE4FB01ACA1
:106EB0001BEB0C0B4FF0000C4CEB0C0CE5FB01BC7E
:106EC000CDF818E00C994FF0000EE0FB012E16EB08
:106ED0000E064FF0000E4EEB0E0EE3FB016E17EBAD
:106EE0000E074FF0000E4EEB0E0EE4FB017E18EB8A
:106EF0000E084FF0000E4EEB0E0EE5FB018E1099C2
:106F000019EB0E094FF0000E4EEB0E0EE0FB019E4A
:106F10001AEB0E0A4FF0000E4EEB0E0EE3FB01AE25
:106F20001BEB0E0B4FF0000E4EEB0E0EE4FB01BE02
:106F30001CEB0E0C4FF0000E4EEB0E0EE5FB01CEDF
:106F4000DDE90434069913EB0A0354EB0B0451EB0F
:106F50000C0152EB0E02002040F1000013EB0B037A
:106F600054EB0C0451EB0E0152EB0E024641002093
:106F7000474158EB000859EB0A0940F10000B3EB18
:106F80000E0374F1000471F1000172EB0A0276EB5A
:106F90000B0677EB0C0778EB0A0879EB0C0960F12C
:106FA0000000B2EB0B0276EB0C0677EB0E0778EBEA
:106FB0000B0879EB0E0960F100005FEAE07C7FEAE4
:106FC0000C0CDCF1000EB3EB0C0374EB0C0471EB56
:106FD0000C0172F1000276F1000677F1000778EB00
:106FE0000E0879EB0C0960F100005FEAE07CDCF14F
:106FF000000E13EB0C0354EB0C0451EB0C0152F19B
:10700000000256F1000657F1000758EB0E0859EB45
:107010000C0940F100005FEAE07CDCF1000E13EBAC
:107020000C0354EB0C0451EB0C0152F1000256F12D
:10703000000657F1000758EB0E0859EB0C09DDE983
:1070400000ABDDE902CE1AEB060A5BEB070B5CEB4B
:10705000080C5EEB090E002040F100001AEB070A55
:107060005BEB080B5CEB090C5EEB090E4341002067
:1070700044414141724140F10000BAEB090A7BF101
:10708000000B7CF1000C7EEB060EBB4174EB080498
:10709000B14172EB080260F10000BEEB070E73EB2A
:1070A000080374EB0904B94172EB090260F10000B6
:1070B0005FEAE0787FEA0808D8F10009BAEB080A2D
:1070C0007BEB080B7CEB080C7EF1000E73F10003E8
:1070D00074F1000471EB090172EB080260F1000029
:1070E0005FEAE078D8F100091AEB080A5BEB080BBD
:1070F0005CEB080C5EF1000E53F1000354F1000448
:1071000051EB090152EB080240F100005FEAE07820
:10711000D8F100091AEB080A5BEB080B5CEB080CD2
:107120005EF1000E53F1000354F1000451EB09012C
:1071300052EB08020798A0E8005C18C080E806003F
:1071400011B0BDE8F08F00BF70B491E87800B2E8EC
:1071500002105B1854EB0C04B2E802104D4156EBE0
:107160000C0680E878008041013070BC70472DE942
:10717000F00791E8F807B2E802105B1854EB0C0432
:10718000B2E802104D4156EB0C06B2E802104F4136
:1071900058EB0C08B2E8021059EB01095AEB0C0A43
:1071A00080E8F80780410130BDE8F00770472DE91D
:1071B000F00791E8F807B2E802105B1A74EB0C04D0
:1071C000B2E802108D4176EB0C06B2E802108F4156
:1071D00078EB0C08B2E8021079EB01097AEB0C0AA3
:1071E00080E8F80780414042BDE8F00770472DE98C
:1071F000F007524290E87800B1E880071740DB19A9
:1072000018EA020854EB080419EA020955EB0905CB
:107210001AEA020A56EB0A0678C090E87800B1E84C
:10722000800717407B4118EA020854EB080419EA6A
:10723000020955EB09051AEA020A56EB0A0678C05C
:1072400080410130BDE8F00770472DE9F007524258
:1072500090E87800B1E880071740DB1B18EA0208C5
:1072600074EB080419EA020975EB09051AEA020A27
:1072700076EB0A0678C090E87800B1E880071740FE
:10728000BB4118EA020874EB080419EA020975EB1D
:1072900009051AEA020A76EB0A0678C080414042E4
:1072A000BDE8F007704790E8300091E8C000A31BEC
:1072B0001340E41AF618EB1B1340ED1AFF1830C008
:1072C000C0C17047F0B55242FFF7EDFFFFF7EBFF8B
:1072D000FFF7E9FFFFF7E7FFF0BD2DE9F0073AC937
:1072E0001668A1FB069A4FF0000CE3FB06AC4FF0CA
:1072F0000007E4FB06C74FF00008E5FB067840F8FE
:10730000049B56684FF00009E1FB06A91CEB090C31
:107310004FF0000949EB0909E3FB06C917EB090720
:107320004FF0000949EB0909E4FB067918EB09085D
:107330004FF0000949EB0909E5FB068940F804AB69
:1073400096684FF0000AE1FB06CA17EB0A074FF0F8
:10735000000A4AEB0A0AE3FB067A18EB0A084FF028
:10736000000A4AEB0A0AE4FB068A19EB0A094FF005
:10737000000A4AEB0A0AE5FB069A40F804CBD668F5
:107380004FF0000CE1FB067C18EB0C084FF0000CF2
:107390004CEB0C0CE3FB068C19EB0C094FF0000CCA
:1073A0004CEB0C0CE4FB069C1AEB0C0A4FF0000CA7
:1073B0004CEB0C0CE5FB06AC80E88017BDE8F00751
:1073C00070470A462DE9F04F92E8F00F2DE9F30FD0
:1073D00087B091E839000999A0FB01784FF00009C6
:1073E000E3FB01894FF0000AE4FB019A4FF0000B28
:1073F000E5FB01AB0D994FF0000CE0FB01BC4FF039
:10740000000EE3FB01CE4FF00002E4FB01E24FF07F
:107410000006E5FB012600970A994FF00007E0FB04
:10742000018719EB07094FF0000747EB0707E3FB5C
:1074300001971AEB070A4FF0000747EB0707E4FB39
:1074400001A71BEB070B4FF0000747EB0707E5FB16
:1074500001B70E991CEB070C4FF0000747EB07072D
:10746000E0FB01C71EEB070E4FF0000747EB0707D5
:10747000E3FB01E7D2194FF0000747EB0707E4FBF6
:107480000127F6194FF0000747EB0707E5FB0167F7
:10749000CDF804800B994FF00008E0FB01981AEB3F
:1074A000080A4FF0000848EB0808E3FB01A81BEBB3
:1074B000080B4FF0000848EB0808E4FB01B81CEB90
:1074C000080C4FF0000848EB0808E5FB01C80F99CD
:1074D0001EEB080E4FF0000848EB0808E0FB01E83F
:1074E00012EB08024FF0000848EB0808E3FB012804
:1074F00016EB08064FF0000848EB0808E4FB0168AB
:1075000017EB08074FF0000848EB0808E5FB017887
:10751000CDF808900C994FF00009E0FB01A91BEB96
:10752000090B4FF0000949EB0909E3FB01B91CEB1A
:10753000090C4FF0000949EB0909E4FB01C91EEBF6
:10754000090E4FF0000949EB0909E5FB01E9109923
:1075500012EB09024FF0000949EB0909E0FB012990
:1075600016EB09064FF0000949EB0909E3FB016935
:1075700017EB09074FF0000949EB0909E4FB017912
:1075800018EB09084FF0000949EB0909E5FB0189EF
:10759000CDF80CA0089901F1100191E83900099982
:1075A0004FF0000AE0FB01BA1CEB0A0C4FF0000A96
:1075B0004AEB0A0AE3FB01CA1EEB0A0E4FF0000A6F
:1075C0004AEB0A0AE4FB01EA12EB0A024FF0000A56
:1075D0004AEB0A0AE5FB012A0D9916EB0A064FF061
:1075E000000A4AEB0A0AE0FB016A17EB0A074FF0B0
:1075F000000A4AEB0A0AE3FB017A18EB0A084FF08B
:10760000000A4AEB0A0AE4FB018A19EB0A094FF067
:10761000000A4AEB0A0AE5FB019ACDF810B00A9974
:107620004FF0000BE0FB01CB1EEB0B0E4FF0000BFD
:107630004BEB0B0BE3FB01EB12EB0B024FF0000BE0
:107640004BEB0B0BE4FB012B16EB0B064FF0000B87
:107650004BEB0B0BE5FB016B0E9917EB0B074FF098
:10766000000B4BEB0B0BE0FB017B18EB0B084FF017
:10767000000B4BEB0B0BE3FB018B19EB0B094FF0F2
:10768000000B4BEB0B0BE4FB019B1AEB0B0A4FF0CF
:10769000000B4BEB0B0BE5FB01ABCDF814C00B99CA
:1076A0004FF0000CE0FB01EC12EB0C024FF0000C71
:1076B0004CEB0C0CE3FB012C16EB0C064FF0000C12
:1076C0004CEB0C0CE4FB016C17EB0C074FF0000CBF
:1076D0004CEB0C0CE5FB017C0F9918EB0C084FF000
:1076E000000C4CEB0C0CE0FB018C19EB0C094FF07F
:1076F000000C4CEB0C0CE3FB019C1AEB0C0A4FF05A
:10770000000C4CEB0C0CE4FB01AC1BEB0C0B4FF036
:10771000000C4CEB0C0CE5FB01BCCDF818E00C990F
:107720004FF0000EE0FB012E16EB0E064FF0000EA0
:107730004EEB0E0EE3FB016E17EB0E074FF0000E43
:107740004EEB0E0EE4FB017E18EB0E084FF0000E20
:107750004EEB0E0EE5FB018E109919EB0E094FF062
:10776000000E4EEB0E0EE0FB019E1AEB0E0A4FF0E0
:10777000000E4EEB0E0EE3FB01AE1BEB0E0B4FF0BB
:10778000000E4EEB0E0EE4FB01BE1CEB0E0C4FF098
:10779000000E4EEB0E0EE5FB01CE079800F11C012A
:1077A00081E8C45FBDE8F80380E8F8030AB0BDE8EB
:1077B000F08F00BF2DE9F05F0546002092469B4602
:1077C00088460646814640241BE0284641464746F7
:1077D000224600F088F853465A46C01A914110D309
:1077E00011461846224600F016F82D1A67EB0108DC
:1077F0004F4622460120002100F00DF817EB00094A
:107800004E41201EA4F10104DFDC484631462A46E1
:107810004346BDE8F09F202A04DB203A00FA02F13B
:10782000002070479140C2F1200320FA03F319436E
:1078300090407047004870478CD6030010B5441A3A
:107840000346944209D28418114403E011F8013D23
:1078500004F8013D521EF9D210BD40EA0104A4070C
:1078600003D009E010C9121F10C3042AFAD203E0A2
:1078700011F8014B03F8014B521EF9D210BDD2B2E0
:1078800001E000F8012B491EFBD270470022F6E709
:1078900010B513460A4604461946FFF7F0FF204686
:1078A00010BD421C10F8011B0029FBD1801A704743
:1078B00030B504460020034600E05B1C934203D22F
:1078C000E05CCD5C401BF8D030BD10B548430446A9
:1078D00009F08AFF002805D00021002C02D0641E88
:1078E0000155FAE710BD202A04DB203A21FA02F004
:1078F0000021704721FA02F3D040C2F120029140EA
:107900000843194670470000064C074D06E0E06842
:1079100040F0010394E8070098471034AC42F6D3D6
:10792000FEF772FCE0F6030000F7030070B58C1858
:1079300010F8015B15F0070301D110F8013B2A1183
:1079400006D110F8012B03E010F8016B01F8016B70
:107950005B1EF9D12B0705D40023521E0DD401F86C
:10796000013BFAE710F8013BCB1A921C03E013F835
:10797000015B01F8015B521EF9D5A142D8D300206A
:1079800070BD00002DE9F047CA17A0B0064600F10F
:1079900020098C180F46544001464A46684606F1B5
:1079A000400A06F16008FEF7AFFD5146424608A8BE
:1079B000FEF7AAFD651E5246494610A8FEF7A4FD33
:1079C000ED174246314618A8FEF79EFDED43064AE4
:1079D0002C40FB0F6946304602EB841200F0B2F8EF
:1079E00020B0BDE8F08700BF00F003002DE9F047AC
:1079F000CA17A0B0054600F1200A8C180F46544063
:107A000001465246684605F1400905F16008FEF757
:107A10007BFD4946424608A8FEF776FD661E4A46AB
:107A2000514610A8FEF770FDF6174246294618A8E1
:107A3000FEF76AFDF6430834054A3440FB0F6946F9
:107A4000284602EB841200F07DF820B0BDE8F087F4
:107A500000F003002DE9F047CA17A0B0054600F179
:107A6000200A8C180F46544001465246684605F1DC
:107A7000400905F16008FEF747FD4946424608A85F
:107A8000FEF742FD661E4A46514610A8FEF73CFD31
:107A9000F6174246294618A8FEF736FDF64310347D
:107AA000054A3440FB0F6946284602EB841200F079
:107AB00049F820B0BDE8F08700F0030070B5A0B031
:107AC000044601F1200668460D46FEF71CFD3146CE
:107AD00008A8FEF718FD05F1400110A8FEF713FDF8
:107AE00010AA11461046FEF79DFC694618A800F042
:107AF00091FB324629462046FEF794FC214620465B
:107B0000FEF701FD6A4621462046FEF7C3FC04F15C
:107B1000400508AA21462046FEF7BCFC284608AAD4
:107B200018A9FEF77FFC10AA294604F12000FEF7F1
:107B3000B1FC08AA18A904F16000FEF7ABFC20B064
:107B400070BD00BF2DE9F0430D46A1B001F1200941
:107B50001646044649462A466846984606F12007D6
:107B6000FEF798FC49462A4608A8FEF75BFC394612
:107B7000324610A8FEF78EFC3946324618A8FEF7AA
:107B800051FC424618A910A8FFF79CFB10AA6946B1
:107B90006846FEF7B9FC08A918AA0846FEF7B4FC27
:107BA0003A46314610A8FEF7AFFC10A905F1600275
:107BB0000846FEF7A9FC10A90846144AFEF7A4FCE3
:107BC00005F14002114618A8FEF72CFC6A4608A9E8
:107BD0002046FEF75FFC04F120056A4608A904F17F
:107BE0006000FEF71FFC4034284610AA18A9FEF7D3
:107BF00051FC10AA18A92046FEF714FC424629465B
:107C00002046FFF75FFB21B0BDE8F08340F603009C
:107C10002DE9F047CC7F0D78C0B00B4625F0070565
:107C200004F03F0493F8028049788DF8405044F006
:107C300040041D7F93F803C0D3F804E09F68D3F895
:107C400010A0DE688DF841108DF85F4011469C69E8
:107C50005A698DF842808DF85C5093F81D809B7FA7
:107C60008DF843C081466D466846CDF844E01297D2
:107C7000CDF850A0159216948DF85D808DF85E3089
:107C8000139600F0A1FA0FCD18AC0FC495E80F00C1
:107C900084E80F006846012100F0B2FA18AD08A888
:107CA000002100F0ADFA0FCD20AC0FC495E80F0015
:107CB00084E80F0028A8012100F0A2FA18AF0DF106
:107CC00040084FF0060A002417F8016D46FA0AF53D
:107CD00005F001056C40224620A96846FFF7F2FA3C
:107CE000224628A908A8FFF7EDFA08AA694630A895
:107CF000FEF798FB08AA10466946FEF7CBFB28AAB8
:107D000020A938A8FEF78EFB28AA104620A9FEF766
:107D1000C1FB38A9084608AAFEF7F6FB28A90846C1
:107D200030AAFEF7F1FB38AA28A920A8FEF77AFBB3
:107D300028A938AA0846FEF7ADFB20A90846FEF799
:107D4000E2FB28A90846FEF7DEFB28A918AA084688
:107D5000FEF7DAFB30A90846FEF7D5FB08A938A8DC
:107D6000FEF7D1FB38AA30A96846FEF7CDFB30A953
:107D700038AA0846FEF78EFB30A908A8FEF70DFECC
:107D800008A9084638AAFEF74DFB08A90AF1FF3AF0
:107D900030AA0846FEF7B8FBBAF1FF3F2C4695D152
:107DA00047454FF0070A8FD108A90846012200F085
:107DB00043FA08AA69466846FEF7A6FB69464846A4
:107DC00000F048FB40B0BDE8F08700BF014AFFF774
:107DD0001FBF00BFDCEC030070B500F1200590B0C0
:107DE0000E46044600F072FB06F12001284600F022
:107DF0006DFB214608A8FEF7B7FE08A908460C4A05
:107E0000FEF746FE08A922460846FEF7AEFE08A980
:107E10000846084AFEF73CFE29466846FEF7A4FEDF
:107E2000694608A82022FEF7DDFA013810B070BDBF
:107E300060F6030080F603002DE9F047B8B08A46EB
:107E40008146114610A8514AFFF7B1F95049024640
:107E500010A8FFF7CCF9179F4C4900EAD777804666
:107E6000C7F1010210A8FFF7C2F9179D524628A9D1
:107E700018A8ED4301F0CEF8ED0F20A9C5F10102DD
:107E8000084600F0FFFAC8F10108FE266A4618A964
:107E900028A801F073F8731138AA02EB830306F0E7
:107EA0001F0253F8A04CD44004F0010465402A4658
:107EB00028A918A8FFF706FA2A4630A920A8FFF734
:107EC00001FA013E28A918A800F0F2FF731C25460C
:107ED000DCD1C4F1010208A820A900F0D3FA7D404A
:107EE0006A4618A928A801F049F828A92A4618A81E
:107EF000FFF7E8F92A4630A920A8FFF7E3F908A917
:107F00006A460846FEF731FE08A9084600F0F8FA6E
:107F100008A909F120040AF120020846FEF725FE0F
:107F200020A908AA2046FEF720FE08AA18A968463C
:107F3000FEF71BFE69466846FEF716FE18AA69465C
:107F400008A8FEF712FE21466846FEF70DFE08AAB5
:107F500069461046FEF7DBFD08A90E4A6846FEF7A3
:107F6000D6FD20462021FEF750FA08A943420246DA
:107F7000684643EA0808FFF7A5F948466946064AF5
:107F8000FEF7F3FD404638B0BDE8F087C0F60300C9
:107F9000C0EF030080F603007C2E00200A46014952
:107FA000FFF74ABFFCEC030000F05ABB38B50446AB
:107FB0000D4600F055FB05F1200104F12000BDE85D
:107FC000384000F04DBB00BF30B5A9B0144605469F
:107FD000684600F0B7FB214618A8FFF7FDFE6A4689
:107FE00018A9044608A8FFF727FF08A90443284654
:107FF000FFF7DAFF204629B030BD00BF30B599B099
:108000000546684600F09EFB694608A8FFF7C6FFD4
:1080100008A904462846FFF7C9FF204619B030BD1D
:1080200010B52022B0B004460DEB020000F0B4FB06
:108030009DF83F309DF8202003F07F0343F040037C
:1080400022F0070208A968468DF83F308DF82020FD
:1080500000F020FB694618A800F028F818A920466F
:1080600000F002F830B010BD30B599B004460D46AE
:1080700010A84031012200F0DFF810AA2946684616
:10808000FEF742FA10AA05F1200108A8FEF73CFA13
:1080900008A9204600F0DEF9684600F0A9F8E37F61
:1080A00083EAC010E07719B030BD00BF2DE9F04180
:1080B000B0B00446684600F025FB9DF93F30414DC5
:1080C000DA1713445340012B03F110021346B8BFD3
:1080D000002305EB83150FCD27460FC70FCD0FC724
:1080E0000FCD0FC795E80F0004F1400687E80F0099
:1080F0003046012100F084F8E84604F120070DF134
:108100001505214610A8FFF7D9FC18AA10A920468A
:10811000FEF7FAF928AA20A93846FEF7F5F920AAB1
:1081200018A93046FEF7F0F9214610A8FFF7C6FC63
:1081300018AA10A92046FEF7E7F928AA20A9384670
:10814000FEF7E2F920AA18A93046FEF7DDF921462C
:1081500010A8FFF7B3FC18AA10A92046FEF7D4F91F
:1081600028AA20A93846FEF7CFF920AA18A9304638
:10817000FEF7CAF9214610A8FFF7A0FC15F9011D6A
:1081800010A8FFF7FFFB95F9151010A8FFF72EFCBC
:1081900095F92A1010A8FFF75DFC18AA10A920462F
:1081A000FEF7B2F928AA20A93846FEF7ADF920AAB1
:1081B00018A93046FEF7A8F9A845A2D130B0BDE80D
:1081C000F08100BF00F003000B6803604B68436060
:1081D0008B688360CB68C3600B6903614B69436143
:1081E0008B698361CB6923F00043C361704700BF93
:1081F00010B50446FEF715FC206800F0010010BD24
:10820000002380E80A008360C360036143618361E7
:10821000C361704700B589B000230A4669460093E0
:108220000193029303930493059306930793FEF738
:1082300031F909B05DF804FBF0B5A1B00546684618
:1082400017460E46FEF75FF9694618A8FEF75BF978
:1082500018A90846FEF757F9324618A908A8FEF7EC
:1082600053F96A4608A96846FEF74EF9694618A808
:10827000FEF749F908AA104618A9FEF745F908A91A
:1082800018A8FEF740F918A90846FEF73CF918A906
:108290000846FEF738F918A90846FEF734F918A978
:1082A0000846FEF730F908AA18A91046FEF72CF97F
:1082B000022408A918A8FEF726F918A90846FEF70F
:1082C00022F918A90846FEF71EF918A90846FEF774
:1082D0001AF918A90846FEF716F9013C18A9E9D1C0
:1082E00010A808AAFEF710F9042410A918A8FEF790
:1082F0000AF918A90846FEF706F918A90846FEF774
:1083000002F918A90846FEF7FEF818A90846FEF774
:10831000FAF8013C18A9E9D110AA0846FEF7F4F8CA
:10832000022418A90846FEF7EEF818A90846FEF739
:10833000EAF818A90846FEF7E6F818A90846FEF775
:10834000E2F818A90846FEF7DEF8013CE9D118A9C1
:1083500008AA10A8FEF7D8F80A2410A918A8FEF752
:10836000D2F818A90846FEF7CEF818A90846FEF775
:10837000CAF818A90846FEF7C6F818A90846FEF775
:10838000C2F8013C18A9E9D110AA08A8FEF7BCF868
:10839000142408A918A8FEF7B6F818A90846FEF78D
:1083A000B2F818A90846FEF7AEF818A90846FEF775
:1083B000AAF818A90846FEF7A6F8013C18A9E9D1C1
:1083C00008AA0846FEF7A0F80A2418A90846FEF7EE
:1083D0009AF818A90846FEF796F818A90846FEF775
:1083E00092F818A90846FEF78EF818A90846FEF775
:1083F0008AF8013CE9D118A9084610AAFEF784F8CA
:1084000018A9084667B9FEF77EF818A90846FEF7CE
:108410007AF8324618A92846FEF776F821B0F0BD62
:10842000FEF771F818A90846FEF76DF818A9084676
:10843000FEF769F818A90846FEF765F818A9084676
:10844000FEF761F86A4618A92846FEF75DF821B0E4
:10845000F0BD00BF38B50C4605460846FEF7E1FA08
:1084600023682B6063686B60A368AB60E368EB60B4
:1084700023692B6163696B61A369AB61E369EB619C
:1084800038BD00BF2DE9F0410D4606460F46904627
:108490000FCD34460FC495E80F0088B084E80F0074
:1084A00000233A466946684600930193029303937A
:1084B0000493059306930793FEF729FB424669460A
:1084C0003046FEF7FFFE08B0BDE8F0810B681BBA2E
:1084D000C3614B681BBA83618B681BBA4361CB686D
:1084E0001BBA03610B691BBAC3604B691BBA83607B
:1084F0008B691BBA4360CB691BBA0360704700BF2E
:1085000070B598B00D46064610A8FEF72DFB2A461A
:1085100010A96846FEF729FB694610A8FEF724FB60
:1085200010A90846FEF720FB6A4610A908A8FEF726
:108530001CFB08A910A8FEF717FB10A90846FEF7B8
:1085400013FB10A90846FEF70FFB10A90846FEF71B
:108550000BFB10A908AA0846FEF707FB10A908465E
:10856000FEF702FB10A90846FEF7FEFA10A96A46BC
:1085700008A8FEF7FAFA052408A910A8FEF7F4FAED
:1085800010A90846FEF7F0FA013C10A9F5D108AA97
:108590000846FEF7EAFA052410A90846FEF7E4FAB1
:1085A00010A90846FEF7E0FA013CF5D110A908AA87
:1085B0000846FEF7DAFA10A908A8FEF7D5FA08A9C6
:1085C0000846FEF7D1FA08A96A466846FEF7CDFAD2
:1085D0001024694610A8FEF7C7FA10A90846FEF74E
:1085E000C3FA013C10A9F5D12A460846FEF7BDFAA8
:1085F000402410A90846FEF7B7FA10A90846FEF76E
:10860000B3FA013CF5D110A96A460846FEF7ADFA67
:10861000102410A90846FEF7A7FA10A90846FEF78D
:10862000A3FA013CF5D110A96A460846FEF79DFA67
:10863000102410A90846FEF797FA10A90846FEF77D
:1086400093FA013CF5D110A908AA0846FEF78DFA65
:108650002A4610A93046FEF788FA18B070BD00BF50
:10866000CB691BBA03608B691BBA43604B691BBAA9
:1086700083600B691BBAC360CB681BBA03618B684C
:108680001BBA43614B681BBA83610B681BBAC36199
:10869000704700BFF0B50B4699B0DA69184D1492D7
:1086A00018A9120F04465F689E68186941F85C2D8E
:1086B000DA68D3F800E00E970F965F699E69109212
:1086C00000232A46119005A8CDF834E0179316939D
:1086D000159304930393029312971396FEF7FDFDEF
:1086E000019B05AA1B070DA920460C93FEF75FFD11
:1086F000E2692946D20F2046FEF779FD19B0F0BD98
:10870000E0EF0300F0B40025471E2C462A46E3089C
:1087100014F0070F08BF51F8235005F00F0313445E
:1087200003F1080212090134D6B2A3EB06133F2C61
:108730004FEA151507F8013FE9D1354480F83F505D
:10874000F0BC704738B50B68114D1BBAC3614B685C
:108750001BBA83618B681BBA4361CB681BBA036188
:108760000B691BBAC3604B691BBA83608B691BBA68
:108770004360CB691BBA2A46036001460446FEF7F4
:1087800016FD294602462046BDE83840FEF72FBDBB
:10879000A0F60300000000002DE9F04F0FF2B83BF7
:1087A000DBE900ABEEA7D7E90067B3B0EEA5D5E9EA
:1087B0000045CDE900ABCDE902670FF2B43BDBE940
:1087C00000ABEDA7D7E90067CDE90445ECA5D5E9F5
:1087D0000045CDE906ABCDE908670FF2AC3BDBE91C
:1087E00000ABEBA7D7E90067CDE90A450024804636
:1087F0001546CDE90CABCDE90E6731923094002AD5
:1088000040F0798180238DF8403032ABC3F187038B
:1088100003F0030302224FF041094FF07A0E0124C6
:108820006E4610AF2046002B40F030817B2AAEEB25
:10883000030EC0F17A00AEF1040188BF0020890860
:10884000C01A013102284FEA810C0CD903EB09024E
:1088500000233244184601338B4242F8040BFAD30A
:10886000F445644412D032A9631C214400227B2BBE
:1088700001F8882C0AD032A90B4402347B2C03F86F
:10888000882C03D032AB1C4404F8882C6A0B6B098B
:1088900039466C0D30466E0FED008DF8BB608DF8DB
:1088A000BC408DF8BD208DF8BE308DF8BF5000F073
:1088B000F5FD04A80FC893FA83F9089B029D039C59
:1088C000009F019EC8F8189093FA83FE099BC8F890
:1088D00024E02DBA24BA00BA09BA12BA93FA83FC7A
:1088E000C8F80C50C8F808400A9D0B9CC8F8140042
:1088F000C8F810100C980D99C8F81C200F9B0E9A00
:10890000C8F820C03FBA36BA2DBA24BA00BA09BA9C
:1089100012BA1BBAC8F80470C8F80060C8F82C5026
:10892000C8F82840C8F83400C8F83010C8F83C200F
:10893000C8F8383033B0BDE8F08F224610AF32A807
:1089400010440C7800F8884C501C83420CD932AC8F
:10895000204402324C7800F8884C934204D932A863
:108960000244897802F8881C32AA581C1A448021D3
:108970007028309302F8881C73D97F286BD832AAEC
:108980001044991C0022802900F8882C63D032A85A
:108990000844D91C802900F8882C5CD032A80844EF
:1089A000191D802900F8882C55D032A80844591D7B
:1089B000802900F8882C4ED032A80844991D8029BF
:1089C00000F8882C47D032A80844D91D802900F827
:1089D000882C40D032A8084403F10801802900F80F
:1089E000882C38D032A8084403F10901802900F806
:1089F000882C30D032AA501803F10A0100228029B5
:108A000000F8882C27D032A8084403F10B018029F4
:108A100000F8882C1FD032A8084403F10C018029EB
:108A200000F8882C17D032A8084403F10D018029E2
:108A300000F8882C0FD032A8084403F10E018029D9
:108A400000F8882C07D032A80144702B01F8882C3C
:108A500001D18DF8BF203946304600F01FFD7A283D
:108A60006CD800F1400906EB0901421C7B2AC1F1D8
:108A70000001C0F17B0301F0030188BF012399428B
:108A800028BF1946062B319D9E4659D832AC044466
:108A90000021012B04F8881C4ED00DF1C80C944421
:108AA000022B02F101040CF8881C20D00DF1C80C37
:108AB000A444032B02F102040CF8881C17D00DF11A
:108AC000C80CA444042B02F103040CF8881C0ED03B
:108AD0000DF1C80CA444062B02F104040CF8881C08
:108AE00005D10DF1C80CA444541D0CF8881C734525
:108AF0007FF49CAECAE668460F4600F0E7FA291AF2
:108B00006E4603463944F0B1043880085D1E0130DA
:108B1000022D4FEA80027FF610AF10AFBE460D4621
:108B2000013455F804CB4EF804CB8442F8D39A4272
:108B300011447FF404AF17E71446D8E7319DA5E64A
:108B400004460B466EE632AF8022309007F8882D3F
:108B5000012086E7AFF3008008C9BCF367E6096A25
:108B60003BA7CA8485AE67BB2BF894FE72F36E3CBC
:108B7000F1361D5F3AF54FA5D182E6AD7F520E5119
:108B80001F6C3E2B8C68059B6BBD41FBABD9831FD3
:108B900079217E1319CDE05B2DE9F04F9FB0A1F153
:108BA00008031C93D2E90E34CDE91634D2E90C3413
:108BB000CDE90234D2E90A34CDE90034D2E90634F1
:108BC000CDE91834D2E90234CDE90634D2E90434CF
:108BD000CDE9043400F18003D2E908ABD2E9008981
:108BE0001D9309909646014606E0CDE90689B246F6
:108BF0008946BB4680461946F1E802451C9F09910B
:108C00004FEA9A3242EA8B42F7E902010A924FEAAE
:108C10009A434FEA9B364FEA9B4243EA8B3346EA3C
:108C20008A4642EA8A320C930D924FEACB530B9656
:108C3000CDE91A0143EA5A22DDE90C011C974FEAFB
:108C4000CA53DDE90A670F9243EA5B220E9246405F
:108C50004F40DDE90E017040794006460F464FEA6D
:108C60001873DDE91A0143EA09124FEA8973109279
:108C700043EA9802001913924FEA887269414FEA59
:108C8000197342EA9902CDE91A0143EA0815DDE9B0
:108C900000011292DDE902234FEA4964119544EA8A
:108CA000D81515954240DDE902454B40DDE91A0132
:108CB00003EA0B03801902EA0A0285EA03054FEA78
:108CC000486C79415440DDE906672B464CEAD915DA
:108CD00014952246DDE9044546EA080647EA0907F5
:108CE000121804EA060405EA07054B4126462F46FA
:108CF000DDE91001DDE912456040694004460D469A
:108D0000DDE914016040694004460D46DDE90601D5
:108D100000EA080001EA090130433943DDE916673A
:108D2000B6185F4132463B46DDE9186700196941D4
:108D3000B6185F4180185941DDE90023DDE902459D
:108D4000CEE90C23DDE90423CEE90E45CEE9062366
:108D5000CDE91645DDE90623DDE90445CEE9042326
:108D6000CDE90423CDE91845099B1D9ADDE90045AD
:108D70009342CEE90AABCEE90289CEE90867CDE994
:108D80000245CEE90001CDE900AB7FF42EAF1FB064
:108D9000BDE8F08F2DE9F04F8FB0A0F108014FF042
:108DA000000E03917346AEF102020EF1010E02F0C5
:108DB0000F020EF00F0400EBC20600EBC40550F8E2
:108DC00034706D68746850F832604FEA172AF909F8
:108DD00000914FEAD64C4AEA056106914CEA4431CB
:108DE000089100994FEA550B41EA45614FEA152A6F
:108DF00000914BEAC7717A0805914AEA0761039F1F
:108E00000791D7E902AB42EAC5724FEAD44C4CEA6B
:108E100046310492F700E20042EA56724FEA961891
:108E2000CDE90CAB0991DDE906AB47EA5471DDE908
:108E300004670B920A9186EA0A06E90987EA0B079A
:108E400048EA8468DDE90AAB4FEA9419DDE9084590
:108E5000019184EA0A0485EA0B05DDE900AB073BD2
:108E600003F00F038AEA060A8BEA070B00EBC30341
:108E7000D3E9002356465F46DDE90CAB1AEB020A44
:108E80004BEB030B84EA08041AEB06024BEB0703D7
:108E90000399121985EA09056B41E1E90223BEF144
:108EA000100F03917FF47EAF0FB0BDE8F08F00BFCD
:108EB000F0B599B004460E460A4601466846FDF7ED
:108EC00026FE69466846FDF74FFE6A46214608A819
:108ED00006F1200504F12007FDF747FE6A463146FA
:108EE0006846FDF742FE39462A4610A8FDF7D0FD38
:108EF0002A4639462846FDF70AFE29463046FDF740
:108F000033FE6A4608A92046FDF7C2FD22463146D7
:108F10003046FDF7FCFD6A4608A96846FDF7F7FDF7
:108F20006A4639463846FDF720FE324608A96846AB
:108F3000FDF7EDFD6A4629462846FDF716FE3A463E
:108F400029462846FDF7E3FD10A96846FDF70CFE0B
:108F5000224669462046FDF7DAFD08A92246084662
:108F6000FDF7D5FD10A908AA0846FDF7FEFD3A4613
:108F700010A93846FDF7CBFD19B0F0BD2DE9F04141
:108F80000C4688B005469046014622466846FDF7E5
:108F9000BEFD69466846FDF7E7FD6A462946284654
:108FA00004F12006FDF7E1FD05F120076A462146A0
:108FB0006846FDF7DAFD324630463946FDF7A7FD33
:108FC00031462046FDF7D0FD2A4621462046FDF7D2
:108FD0009EFD6A4621462046FDF799FD6A462946D0
:108FE0004046FDF794FD424639463846FDF7BDFD43
:108FF000224629466846FDF78AFD6A4631463046D4
:10900000FDF7B3FD3A4631463046FDF780FD08B026
:10901000BDE8F0812DE9F04188B00D46074602F128
:109020002001684607F120069046FDF79DFD6A463F
:1090300069466846FDF72CFD30466946FDF794FD0C
:1090400032463146304605F12004FDF721FD6A46DF
:1090500069466846FDF71CFD20464146FDF784FD44
:109060006A4641463846FDF780FD2246214668465D
:10907000FDF70EFD224669466846FDF709FD694683
:109080006846114AFDF704FD69462846FDF76CFD68
:109090003A4629462846FDF73AFD3A4629462846EB
:1090A000FDF735FD2A4639462046FDF730FD6A4674
:1090B00021462046FDF759FD324621462046FDF760
:1090C00026FD08B0BDE8F08160F603002DE9F04F01
:1090D000E3B07F2A2F9240F2D981D0E90467CDE92D
:1090E0000067D0E90667CDE90267D0E90867CDE9F6
:1090F0000467D0E90A67CDE90667D0E90C678B46BB
:10910000D0E902451146CDE92C67D0E90023D0E92A
:109110000E67CDE90A23CDE90867CDE90C45814604
:109120002E91DBF80000DBF80810DBF81060DBF8AC
:109130000CA0DBF814C0DBF81CE0DBF834200BBA21
:1091400090FA80F8DBF81800DBF820100F9333BAA0
:109150001193DBF8286003BA1393DBF830000BBAE5
:109160001593DBF8381033BA179303BA19930BBA77
:109170001B93DDE90A34CDE93234DDE90C340027F4
:10918000DBF82400DBF82C100E97CDE9343410976F
:1091900012971497169718971A97DBF83C30DBF85C
:1091A0000460DDE90045CDE93645DDE90245CDE95C
:1091B0003845DDE90E459AFA8AFA44EA0A040DF5C3
:1091C000887ACAE90045DDE90445CDE93A45DDE99B
:1091D00010459CFA8CFC44EA0C040DF58C7CCCE91F
:1091E0000045DDE912459EFA8EFE44EA0E040DF5B7
:1091F000907ECEE90045DDE90645CDE93C45DDE957
:10920000144500BA44EA00044AA8C0E90045DDE973
:10921000164509BA44EA01044CA9C1E90045DDE953
:109220002C01DDE91845CDE93E01DDE91A0112BA4C
:109230001BBA44EA020440EA0300DDE9082336BA17
:109240000DF5807ECEE9002347EA06024EAEC6E960
:10925000004550ACC4E90001434642A9C1E90023DE
:10926000DBF84030DBF844200C93DBF848A0DBF857
:10927000501000911BBA1D93009BDBF85800029020
:109280001BBA2193029BDBF8604004941BBA239322
:10929000049BDBF8685006951BBA2593069BDBF808
:1092A000706008961BBA2793089BDBF878100A9128
:1092B0009AFA8AFA1BBADBF84C40DBF85450DBF818
:1092C0005C60DBF864E0DBF86CC0DBF87400DBF8B2
:1092D0007C10CDF87CA029930A9B1C971BBA2B937A
:1092E00094FA84FADDE91C3412BA43EA02031E97A9
:1092F00052AAC2E90034DDE91E34209743EA0A038A
:1093000054AAC2E90034DDE920342DBA43EA05034A
:10931000229756AAC2E90034DDE9223436BA43EA7C
:109320000603249758AAC2E90034DDE924349EFAE2
:109330008EFE43EA0E0326975AAAC2E90034DDE9FD
:1093400026349CFA8CFC43EA0C0328975CAAC2E9F9
:1093500000342A97DDE92834DDE92A5600BA43EAC9
:10936000000309BA5EAAC2E9003445EA010560AB10
:1093700032AA42A94748474CC3E90056FFF70CFC04
:109380000BF1800B803442A8FFF704FD204632AA7F
:1093900042A9FFF701FC404B9C42F3D1D9E90001FF
:1093A000DDE93223D9E90245CDE90045141843EB44
:1093B0000105D9E90A23DDE90001CDE90623DDE94C
:1093C00034238018594102460B46CDE90C23DDE9D0
:1093D0003601D9E9042312184B41CDE90A45CDE9FC
:1093E0000023D9E90601DDE93834C0186141CDE92F
:1093F0000201DDE93A34D9E90801C0186141CDE93B
:109400000401DDE90634DDE93C011B184C41184636
:10941000214640ABD9E90C45CDE90601D3E900016D
:10942000DDE93E23A4185D41D9E90E2312184B4112
:109430002E9ECDE90823DDE90A12803EC9E900121B
:109440002E96CDE92C45DDE90C23DDE90201C9E9C1
:109450000223C9E90601DDE90023DDE90401C9E9C8
:109460000423C9E90801DDE90823DDE906017F2EAF
:10947000C9E90A01C9E90C45C9E90E233FF651AE15
:109480002F9B03F07F0063B0BDE8F08F104663B000
:10949000BDE8F08F40ED030040EF03002DE9F04FF1
:1094A0000E68D1F808C0D1F80C908D69D1F810E0A1
:1094B000D1F82080B5B0044633BA00200193009063
:1094C000DDE900AB9CFA8CF399FA89F94AEA0906BE
:1094D000C869D1F814C01F46CDE916672FBA4D6A86
:1094E0009EFA8EF300BA0026002246EA00069B464A
:1094F0002DBA98FA88F3D4E90089CDE91A679CFA65
:109500008CFC42EA05061F464AEA0C0A4868CDE987
:109510001C67DDE90067CDE918ABCDE90489D4E922
:1095200002ABD4E9068900BA46EA0006CDE9146721
:10953000CDE906ABD4E90467D4E908ABCDE90A89E3
:10954000D4E90C89CDE90867CDE90CABD4E90A6709
:10955000D4E90EABCDE91089D1F82C908D6AD1F801
:1095600030C0886B0B6CD1F850E0D1F8588099FA74
:1095700089F9CDE90E6742EA0906D1F83490CDE9C0
:1095800012AB95FA85FB5F4699FA89F9CDE91E671A
:1095900042EA0906D1F83C908D6CD1F870A09CFA93
:1095A0008CFB5F4699FA89F990FA80FBCDE9206738
:1095B0001BBA42EA09065F46CDE922671F464B6C9B
:1095C000D1F860C0886E16461BBA46EA03062BBA6D
:1095D000CDE924671F46CB6C8D6F002216461BBA5F
:1095E00046EA03069EFA8EF3CDE926671F464B6DC9
:1095F000D1F85CE0002216461BBA46EA030698FA48
:1096000088F3DDE90089CDE928679EFA8EFE1F46C2
:1096100046464B6E46EA0E06CDE92A671BBA9CFA0F
:109620008CF748EA0308B94690FA80FCCDE92C890A
:10963000C86ED1F874E0CB6F4FF0000B01BA4BEA63
:1096400001069AFA8AF2DDE900AB9EFA8EFE1BBA99
:1096500091463F482ABA4AEA0E0867464AEA030A90
:10966000934614A904AACDE92E670546CDE93089B1
:10967000CDE932ABFFF790FA05F50076803514A8F6
:10968000FFF788FB284604AA14A9FFF785FAB5421C
:10969000F4D1D4E90001D4E90256DDE90423CDE98F
:1096A0000056161843EB0107DDE90689DDE90023C2
:1096B00012EB080243EB0903D4E904ABCDE9002324
:1096C000DDE9082312EB0A0243EB0B03DDE90A0193
:1096D00092469B46D4E9062312184B41D4E90889E7
:1096E000C4E90623DDE90C2312EB080243EB09036E
:1096F000DDE90E0190469946D4E90A2312184B4140
:1097000010461946C4E90067DDE91023D4E90C5678
:10971000AD185E41CDE90256DDE90056D4E90E23CD
:10972000C4E90256DDE9126792197B4116461F46CD
:10973000DDE90223C4E90A010020C4E904ABC4E95D
:109740000889C4E90C23C4E90E6735B0BDE8F08F81
:1097500040ED03002DE9F047DFF86880089D1746CB
:109760000E46044602F00F091BB1C8F8043000F0A1
:10977000E5FE0DB1C8F80850002510E01022314672
:109780002046FEF75BF8C8F8004000F09DFC20463C
:1097900001F09AFA10341035C8F808601036BD424E
:1097A000ECD3B9F100000AD0024631462046FEF75C
:1097B00045F8C8F80040BDE8F04700F085BCBDE8BA
:1097C000F0870000642E00202DE9F047174C089E1A
:1097D00017468846054602F00F0913B1636000F092
:1097E000ADFE06B1A66000260FE0404601F06CFA1F
:1097F000102241462846FEF721F8256000F0C0F807
:10980000A560103508F110081036BE42EDD3B9F14D
:10981000000009D0024641462846FEF70FF82560B1
:10982000BDE8F04700F0ACB8BDE8F087642E00203A
:1098300070B514460D4601461A462046FDF7FEFF58
:109840000448C0E9004500F079FEBDE8704000F032
:1098500097B80000642E0020F0B50D490D4E00228F
:109860000C68002102EB800504EB820301EB850C00
:109870005F5C16F80CC087EA0C075F54491CC9B23C
:109880000429F3D3521CD2B2042AEAD3F0BD00005B
:10989000642E0020B84900202DE9F04389B00C4621
:1098A000804620216846FDF7F1FF1E4F1BA01C4992
:1098B00020220668FB6889460020984718B10720D7
:1098C00009B0BDE8F083022000F030F905001BD09C
:1098D00015483969FDF7DAFF202249461248FDF79D
:1098E000ADFF1148224641462030FDF7A7FF0E4844
:1098F0006B46204404F1240206620B49284606F018
:10990000D9FE18B10A20DBE70920D9E704489DE811
:109910001E002C3880E81E000020D1E70000000166
:1099200058490020402E0020544700207CB50220DA
:1099300000F0FCF8040013D00E4801690E48FDF752
:10994000A5FF0D4D1020CDE9000505F50D73202272
:10995000A3F18C01204606F0BDFE18B10B207CBDA2
:1099600009207CBD95E81E00044880E81E00002008
:109970007CBD0000402E0020544700201C490020E0
:1099800010B50020FFF768FF5FF0010400F0F0FF62
:1099900000F0D0FF00F02EFE2046FFF75DFF641CB4
:1099A000E4B20A2CF2D300F0E3FF00F0C3FFBDE8FD
:1099B00010400A20FFF750BF7047002201E000F876
:1099C000012B491EFBD270472DE9F04700268AB0D3
:1099D000DFF85091B0464FF4807501243746069663
:1099E00028460AF037FA38B1D9F80403204203D0E8
:1099F00028460AF025FA26432D1D64007F1CADB2CF
:109A0000082FEDD34FF4BE7420460AF023FA48B174
:109A100020460AF015FA46F0004606AA0121002069
:109A20000AF0FAF9404D16F0FF0F15D00127002477
:109A300037420DD009EB8401D1F81005D1F810158B
:109A4000C0F3042055F82420C1F3014102B190472E
:109A50007F00641C082CEBD3002E5FDA4FF0FF3040
:109A6000CDF8108054E0281910F8507F90F90000CC
:109A700027F0C008401C3BD007A9404608F09DFED7
:109A800010B34FEA9719404603F0D8FE55F82070FE
:109A90001FB1B9F1030F03D006E0B9F1030F27D1CD
:109AA00004A9404608F091FE4FF0A04101EB880068
:109AB000D0F8000706A9C0F3014A404608F07DFE31
:109AC00018B1BAF1020F03D012E0BAF1030F0FD1AF
:109AD000B9F1030F08D1BAF1020F1DD0022140469F
:109AE0000AF07EF9761CF6B217B149464046B847EF
:109AF000641C042CB7D3002E10D06A46012100202C
:109B00000AF08AF906990098884207D006900498CE
:109B1000002634460790A6E70321E0E70AB0BDE837
:109B2000F087000000600040683D0020012803D05D
:109B3000022803D000207047014870470148704751
:109B4000F0D2030018D303002DE9FE4314468846E3
:109B50000546FFF7EBFE002837D13D4800273D4E74
:109B60008766C76607674767A0F5C0703169FDF76C
:109B70008DFE06F110003849CDE9001001F5F471B1
:109B80004246A1F12000234602978946804606F00E
:109B90008BFB074631493248081AC108032000EB05
:109BA000014430A120460AF0AFFB20461022414676
:109BB0000AF056FB204630A10AF0A6FB20461022F0
:109BC00049460AF04DFB17B10320BDE8FE83102182
:109BD000CDE90081204A336902F5157006F0F0F9ED
:109BE00028B1204629A10AF08FFB0C20EDE72F4B6E
:109BF0002A461948316900F099FD28B9A87F08283C
:109C000002D16A7B102A05D0204629A10AF07CFBEC
:109C10000220DAE70E4905F10E00A431FDF748FEF7
:109C200008B10D2507E00A492A797C31681DFDF746
:109C30003FFE30B10E25204625A10AF065FB2846DF
:109C4000C3E70349D5F880000C31C8660020BCE7A3
:109C5000D4480020402E002054470020D8F70300AD
:109C600018F7030073746174656D2E4B6579696E26
:109C7000666F2E56434B3A0073746174656D2E4BBC
:109C80006579696E666F2E5353433A00696E676556
:109C9000656B5F416573436D616356657269667993
:109CA0003A6572726F72203100000000BCD403006C
:109CB00050424465636F64655F636C69656E745F91
:109CC000646174613A6572726F7220310000000045
:109CD0005665726966795F73657373696F6E5F4706
:109CE0003A6572726F7220310000000019481A49FB
:109CF00038B5401AC108032000EB0140044617A103
:109D00000AF002FB06F0FCFB8DF800000122694618
:109D10004FF6F17003F076F91649174806F006FD84
:109D200010B1204615A106E0124D083DA8681D2877
:109D3000204603D01CA10AF0E7FA38BD21A10AF0A1
:109D4000E3FA28890C4982B24FF6F27003F05AF90F
:109D500038BD0000D8F7030018F7030048616E64AF
:109D60006C655F6163746976652066756E6374699E
:109D70006F6E0000982B00208C32002048616E64CA
:109D80006C655F6163746976653A696E6765656B7A
:109D90005F70756C6C5F696E666F204E6F742053D8
:109DA000756363657373000048616E646C655F6121
:109DB00063746976653A6F75746C656E20213D2019
:109DC0003239000048616E646C655F616374697666
:109DD000653A696E6765656B5F70756C6C5F696E1F
:109DE000666F2053756363657373000008B50123C4
:109DF0001A4606F0E7FC06F083FBC0B28DF80000BF
:109E0000022805D1012269464FF6F17003F0FAF8F5
:109E100008BD00000F48104910B5401AC1080320C2
:109E200000EB014004460DA10AF06EFA06F068FB53
:109E30000246FF2806D00AB1012809D1BDE810402A
:109E4000FFF754BF2046BDE810400DA10AF060BAEC
:109E500010BD0000D8F7030018F7030048616E64D6
:109E60006C655F62726F6164636173742066756EA6
:109E70006374696F6E3D3D3D3D3D3D3D3D3D3D0063
:109E800073746174757320257800000010B592B06A
:109E900001224FF47A74521CA242FCDB6A4606F09F
:109EA0005FFA0220401CA042FCDB00980F49C2B2BE
:109EB0000D48401AC008032101EB00400CA10AF034
:109EC00027FA0098C0B205F06DFE11AA294668462F
:109ED00006F0A0FA1198294682B24FF6F57003F009
:109EE00091F812B010BD0000D8F7030018F7030076
:109EF0000A48616E646C655F636D645F636F6D6D6E
:109F0000616E643A202564200A00000010B506F056
:109F10007BFD06F0F5FA024608480949401AC108D7
:109F2000032000EB0140044606A10AF0F1F92046A7
:109F3000BDE8104006A10AF0E7B90000D8F7030019
:109F400018F703007374617475732025780000009E
:109F500048616E646C655F646973636F6E6E6563A0
:109F6000742066756E6374696F6E3D3D3D3D3D3D89
:109F70003D3D3D3D0000000008B506F075FC06F0D3
:109F8000BFFA8DF80000012269464FF6F17003F028
:109F900039F80749074806F0C9FB0548054908385C
:109FA000008982B24FF6F27003F02CF808BD000071
:109FB000982B00208C320020F8B50D4606468AB258
:109FC00014481549401AC108032000EB014004461B
:109FD00031460AF045F920462A4610A10AF098F9C0
:109FE000184B194A2946304606F07AFC06F088FAE2
:109FF0008DF80000012269464FF6F17003F002F877
:10A00000104811490C38808982B24FF6F47002F082
:10A01000F9FFF8BDD8F7030018F7030061626F7607
:10A02000652069732073657373696F6E2064617452
:10A03000612C646174615F6C656E206973202564B6
:10A04000000000009C2B0020A93200202DE9FF41D8
:10A0500004461B480025142106460395FDF716FC0F
:10A060001122211D3046FDF7E9FB164E0022112179
:10A07000B368201D984738B904F11900B368217EF0
:10A0800020220746984718B1052004B0BDE8F081AA
:10A090000B4803A914383A468566C56605674567C7
:10A0A00028308DE8230000F14001237E201D06F0BA
:10A0B000FBF810B903992029E7D00320E5E7000059
:10A0C000E8480020402E002010B50A20FFF7C4FB0E
:10A0D0005FF0090400F0FCF900F018FA2046FFF7E1
:10A0E000BBFB00F00DF8641E14F0FF04F2D100F089
:10A0F000EFF900F00BFABDE810400020FFF7ACBB11
:10A100002DE9F05FDFF8C4B3002400BFDBF80000E6
:10A1100010F8246000EB840090F8019090F802A001
:10A1200090F80380304610F0D4FB10F0D2FB10F012
:10A13000D0FB10F0CEFB404610F0CBFB504610F0A9
:10A14000C8FB484610F0C5FB10F0C3FB484610F0B2
:10A15000C0FB10F0BEFB10F0BCFB10F0BAFB404699
:10A1600010F0B7FB10F0B5FB10F0B3FB10F0B1FB33
:10A17000404610F0AEFB10F0ACFB504610F0A9FBCF
:10A1800010F0A7FB10F0A5FB10F0A3FB304610F079
:10A19000A0FB0546304610F09CFB10F09AFB4540B2
:10A1A000304610F096FB10F094FB10F092FB454007
:10A1B000484610F08EFB80EA0907484610F089FBFC
:10A1C00010F087FB10F085FB47407D40504610F0B3
:10A1D00080FB10F07EFB80EA0A07504610F079FB06
:10A1E00010F077FB10F075FB47407D40404610F0C3
:10A1F00070FB10F06EFB10F06CFB80EA0801DBF8DE
:10A2000000004D4000F82450304610F062FB4046FC
:10A2100010F05FFB504610F05CFB10F05AFB484614
:10A2200010F057FB10F055FB10F053FB10F051FBF2
:10A23000304610F04EFB10F04CFB10F04AFB10F0D3
:10A2400048FB304610F045FB10F043FB404610F051
:10A2500040FB10F03EFB10F03CFB10F03AFB504688
:10A2600010F037FB10F035FB10F033FB10F031FB32
:10A27000304610F02EFB10F02CFB10F02AFB80EA89
:10A280000605484610F025FB0746484610F021FB1E
:10A2900010F01FFB4740484610F01BFB10F019FB65
:10A2A00010F017FB47407D40504610F012FB80EA4B
:10A2B0000A07504610F00DFB10F00BFB10F009FBE5
:10A2C00047406F40404610F004FB10F002FB05468B
:10A2D000404685EA080510F0FCFA10F0FAFA10F092
:10A2E000F8FA4540DBF800006F4000EB840047704F
:10A2F000304610F0EEFA404610F0EBFA10F0E9FAB2
:10A30000504610F0E6FA10F0E4FA10F0E2FA10F01D
:10A31000E0FA484610F0DDFA304610F0DAFA10F0B4
:10A32000D8FA10F0D6FA10F0D4FA404610F0D1FA6C
:10A3300010F0CFFA10F0CDFA10F0CBFA484610F03A
:10A34000C8FA10F0C6FA10F0C4FA10F0C2FA484683
:10A3500010F0BFFA10F0BDFA304610F0BAFA10F063
:10A36000B8FA80EA0605304610F0B3FA10F0B1FAF8
:10A3700010F0AFFA4540484610F0ABFA10F0A9FAD9
:10A3800010F0A7FA80EA09004540504610F0A1FA03
:10A390000746504610F09DFA10F09BFA4740504691
:10A3A00010F097FA10F095FA10F093FA47407D40BC
:10A3B000404610F08EFA0746404687EA080710F03C
:10A3C00088FA10F086FA10F084FA4740DBF80000B3
:10A3D0007D4000EB84008570304610F07AFA10F072
:10A3E00078FA404610F075FA10F073FA10F071FA2E
:10A3F00010F06FFA504610F06CFA484610F069FA07
:10A40000304610F066FA10F064FA10F062FA10F0BC
:10A4100060FA504610F05DFA10F05BFA10F059FA4D
:10A4200010F057FA504610F054FA10F052FA48461D
:10A4300010F04FFA10F04DFA10F04BFA10F049FA04
:10A44000304610F046FA80EA0605304610F041FA30
:10A4500010F03FFA10F03DFA4540484610F039FA46
:10A4600010F037FA80EA0906484610F032FA10F088
:10A4700030FA10F02EFA46407540504610F029FA96
:10A4800010F027FA10F025FA80EA0A00454040460D
:10A4900010F01FFA0646404610F01BFA10F019FAA9
:10A4A0004640404610F015FA10F013FA10F011FA79
:10A4B0004640DBF80000754000EB8400641CC5706A
:10A4C000042CFFF623AEBDE8F09F0000642E0020B0
:10A4D0000D480068417B427A427342794272427869
:10A4E000427141708178827A827081728179827B37
:10A4F00082718173C178C279C270C27AC271C27B23
:10A50000C272C17370470000642E002030B5094943
:10A51000094C00200B68002103EB8102491C155CEB
:10A52000C9B20429655D1554F6D3401CC0B2042895
:10A53000F1D330BD642E0020E4D10300F0B52A4AE7
:10A540002A4E0021526800BF12F8213006F821304F
:10A5500002EB810306EB81045D7865709D78A57040
:10A56000DB78491CE3700429EED339E006EB810265
:10A570008F0712F8043C12F8035C63F3070012F82B
:10A58000024C65F30F2012F801CC64F317406CF312
:10A590001F6013D1164F3C5DFB5C64F30F2017F86E
:10A5A0000C407D5D64F3174063F31F6007F5007393
:10A5B00003EB91031B785D4065F3070012F8103D33
:10A5C000434006F821305378491C83EA1023537422
:10A5D000937883EA10439374D37883EA1063D37437
:10A5E0002C29C3D3F0BD0000642E0020B849002000
:10A5F000E4D003002DE9F04323480024D0F800C044
:10A600000CEB84071CF824107E78BB7881EA0602E4
:10A61000FD784FEAD21883EA050908EBC80882EAF8
:10A62000090008EB480888EA420242404A400CF818
:10A63000242086EA03024FEAD21808EBC80808EB88
:10A64000480888EA4202424056404FEAD91202EBDB
:10A65000C20202EB420282EA49024240534085EACA
:10A660000102D10901EBC10101EB410181EA420183
:10A6700041407E704D40641CBB70E4B2FD70042C00
:10A68000BED3BDE8F0830000642E0020054A0123FC
:10A690001370507000209070D37011710521104616
:10A6A00000F002B8E52B00200A4601460448054B9D
:10A6B00092B2C01AC008032303EB004009F0D0BDDA
:10A6C000D8F7030018F7030000F01F0201219140A2
:10A6D0004009800000F1E020C0F88012704700F0CF
:10A6E0001F02012191404009800000F1E020C0F8E4
:10A6F0000011704700F01F020121914040098000C5
:10A7000000F1E020C0F8001270474907090E002848
:10A7100006DA00F00F0000F1E02080F8141D704709
:10A7200000F1E02080F80014704700007FB5144667
:10A730000A4601461D4668460CF02AFA224629467A
:10A7400068460BF06FFD10B1002004B070BD039897
:10A7500008B1014600E003A104A0FFF72DF9132082
:10A76000F3E70000286E6F6E652900007062446593
:10A77000636F64652025730A0000000030B514463D
:10A780000A4685B001461D4668460CF04BFA224643
:10A79000294668460CF004F810B1039805B030BDA6
:10A7A000049808B1014600E002A104A0FFF704F9F3
:10A7B0001320F3E7286E6F6E652900007062456E06
:10A7C000636F64652025730A0000000070B54FF4C4
:10A7D0008076304608F076FA114CB50560B1304607
:10A7E00008F077FA0120C5F80803607920B9012044
:10A7F00060712168002088474FF48276304608F067
:10A8000061FA00280AD0304608F063FA0220C5F841
:10A8100008032168BDE870400120084770BD0000B2
:10A82000442D0020064882B000210160006800909D
:10A83000044800680449C0B2496802B008470000F3
:10A8400000D1004008D50040542D002007480021C9
:10A85000C0F84011C0F84411C0F84811C0F84C11BC
:10A86000C0F80011C0F804110FF0C4B90010014085
:10A8700070B50E46144815491546401AC108032004
:10A8800000EB0140044612A109F03EFD082D02D064
:10A89000202D08D011E01248416B3160806B706050
:10A8A000204610A107E00E49202234313046FCF743
:10A8B000C5FF20460EA109F027FDAAB22046314669
:10A8C00009F0CEFC002070BDD8F7030018F7030094
:10A8D000202052616E645F4342312020000000005E
:10A8E000902B002052414E44444154412D380000E9
:10A8F00052414E44444154412D3332000FF0C8B808
:10A900000AF056B9F0B50A7800238726D709012442
:10A910000F228D5C4FEAD51C43EA4503DDB2855416
:10A92000634617B1754085540026521E641C102CD6
:10A93000EFDDF0BD0D480068417842794270427AFF
:10A940004271427B427241738178827A8270817255
:10A950008179827B82718173C178C27BC270C27A35
:10A96000C273C279C272C17170470000642E0020A8
:10A9700030B50949094C00200B68002103EB810226
:10A98000491C155CC9B20429655D1554F6D3401CF9
:10A99000C0B20428F1D330BD642E0020E4D00300FF
:10A9A000F0B5B5480023021D0178101D01254FF0B8
:10A9B000805406290BD11678360708D10678C6F3DD
:10A9C0000316032E06D0042E04D0052E02D006292D
:10A9D00007D00EE0B4F82463A84FC6F304263E6007
:10A9E00002E01678360704D10678C6F30316032E64
:10A9F00002D0062904D00FE0A24FA14E7E670EE0E0
:10AA00001678360708D10678C6F30316032E06D04B
:10AA1000042E04D0052E02D0062907D00EE0D4F86B
:10AA20004462994FC6F342363E6002E0167836071C
:10AA300004D10678C6F30316032E02D0062906D0E9
:10AA400011E0924E376827F0807737600EE0167875
:10AA5000360708D10678C6F30316032E06D0042E57
:10AA600004D0052E02D006290AD011E04FF080460E
:10AA7000C6F80C31C6F81031834E361F336002E041
:10AA80001678360704D10678C6F30316032E02D0D3
:10AA9000062905D00CE07C4F032664373E600AE0AF
:10AAA0001678360704D10678C6F30316032E02D0B3
:10AAB00006290DD014E0764F05263E60744E783698
:10AAC0003560734E083633603F263F1D3E6002E01E
:10AAD0001678360704D10678C6F30316052E02D081
:10AAE000062957D062E06B4E36686B4F3E60694E68
:10AAF000361D36683F1D3E60664E083636683F1D7F
:10AB00003E60644E0C3636683F1D3E60614E103626
:10AB100036683F1D3E605F4E143636683F1D3E600E
:10AB20005C4E183636685C4F20373E60594E1C36F6
:10AB300036683F1D3E60574E203636683F1D3E60EA
:10AB4000544E243636683F1D3E60524E28363668D5
:10AB50003F1D3E604F4E2C3636683F1D3E604D4EC9
:10AB6000303636684C4F40373E604A4E3436366891
:10AB70003F1D3E60474E383636683F1D3E60454EAD
:10AB80003C3636683F1D3E60424E403636683F1DBB
:10AB90003E6002E01678360708D10678C6F3031641
:10ABA000032E06D0042E04D0052E02D0062907D08D
:10ABB00019E0D4F85812394A01F04F01116002E04F
:10ABC000117809070FD10078C0F30310032803D0D0
:10ABD000042801D0052806D131480168C90702D0F0
:10ABE0006FF001010160D4F83001062808D1D4F8D3
:10ABF0003401062804D12B48016841F480610160CA
:10AC000022487438016841F470010160BFF34F8F2E
:10AC1000BFF36F8F4FF01021D1F80002002803DB43
:10AC2000D1F80402002822DA1F4A15601F48046880
:10AC3000002CFCD01524C1F800420568002DFCD082
:10AC4000C1F8044201680029FCD0136001680029A2
:10AC5000FCD0BFF34F8F0D48F0380168144A01F45F
:10AC6000E06111430160BFF34F8F00BFFDE7124960
:10AC700010480860F0BD0000E00F00F040350140D2
:10AC80000DF0ADBA00C007403C050040FCED00E00F
:10AC9000105600400404001020C50040E40E00409F
:10ACA000000400403C17004004E5014000E401407E
:10ACB0000400FA050090D003702E002001480068BF
:10ACC000004700004C2D0020064A10B59268002174
:10ACD000435C545C63404354491CC9B21029F7D308
:10ACE00010BD0000642E002002E008C8121F08C139
:10ACF000002AFAD170477047002001E001C1121FFD
:10AD0000002AFBD1704700000121202803DA81408E
:10AD10000548014003E0402802DA2038814009B1AB
:10AD20000120704700207047FC06FFBD2DE9F84365
:10AD3000804643F2020659B969460CF0BDFCB042A8
:10AD400002D008B100F0BAF99DF80000800744D4A1
:10AD5000002140460CF0ECFC05003ED0112D3CD00B
:10AD60001F482049401AC708022000EB07440D2D58
:10AD70000AD00B2D1DD0B5421FD11B49204642469B
:10AD8000BDE8F84309F0C4BA20464246174909F025
:10AD9000BFFA1321404676DF00281ED009F09AFF43
:10ADA000024601B020464346BDE8F04310A109F039
:10ADB000B6BA204642461C49E2E7284609F08AFF17
:10ADC0000246012000EB0740434618A109F0A7FA0C
:10ADD0002846BDE8F84300F071B9BDE8F8830000EB
:10ADE00060F7030018F70300E8DE030074DE0300D9
:10ADF00073645F626C655F6761705F646973636FE2
:10AE00006E6E65637428292072657475726E656450
:10AE1000202573206F6E20636F6E6E5F68616E64B5
:10AE20006C652025642E000034DF030041737365D8
:10AE30007274696E672E20706D5F636F6E6E5F73E4
:10AE4000656375726528292072657475726E656414
:10AE5000202573206F6E20636F6E6E5F68616E6475
:10AE60006C652025642E000010B560B159B10278E0
:10AE70000B785208B2EB530F05D10622401C491C37
:10AE8000FCF716FD08B1002010BD012010BD8007A1
:10AE900001D00020704701207047C3688B4206D85C
:10AEA00011440069491E814201D8012070470020E9
:10AEB000704710B501220221002002F085FA08B186
:10AEC000072810D107220221012002F07DFA08B1E3
:10AED000072808D100210A22084602F075FA08B1B5
:10AEE000072800D1002010BD10B560B10B480C49F7
:10AEF000401AC008032101EB00400AA109F004FA3E
:10AF00000DF062F903E003210A4800F01EFF00285B
:10AF100003D0BDE8104000F0D1B810BDD8F7030051
:10AF200018F70300457261736520626F6E647321C8
:10AF3000000000000430002070B58CB015460E46AD
:10AF400000236C46C3F10F01415CE1545B1C102BE4
:10AF5000F8D30D2104F11000FCF798FC0020C0F19B
:10AF60000F02315C2244401C11740328F7D3684659
:10AF700046DF0020C0F10F01214491F82010295430
:10AF8000401C0328F6D30CB070BD022002F026B995
:10AF90000149C97801F038B9C02C002070B50024EF
:10AFA000064D06E06868012110F8340009F0F6FE4D
:10AFB000641C28788442F5D3002070BD682D0020E1
:10AFC000F8B515460C460646052A01D20720F8BDFD
:10AFD00009F0E0FF18B909F0A5FF0028F7D11249E0
:10AFE00000224E600C708D60C1E90422C1E9062286
:10AFF0000E4D0DE006EBC4002968009181788DF8B4
:10B00000011000780A4A694609F01AFF0028DED1CB
:10B01000641EE4B2EED2BDE8F84004480021054ABF
:10B02000001D00F061B80000682D00203CAC03005A
:10B03000F9F7020061E3020072B609F025FA00BFD9
:10B0400008F0F4FF0028FBD111481249401AC40847
:10B05000012000EB044010A109F056F911480068E6
:10B06000C00700D000BE022000EB04400EA109F092
:10B070004BF9BFF34F8F0B48E43801680E4A01F4D7
:10B08000E06111430160BFF34F8F00BFFDE7000097
:10B09000D8F7030018F70300466174616C206572ED
:10B0A000726F7200F0ED00E053797374656D207279
:10B0B00065736574000000000400FA050EB50021F8
:10B0C0000091CDE901106A4644F20100FFF7B4FF98
:10B0D0000EBD401A20F07F40704700000148006814
:10B0E0007047000004150140084B9B7823B12AB13A
:10B0F00020B10068037C1BB108207047072070470F
:10B10000002303744174426118467047E43E0020F6
:10B1100070B50DF011FD104800240B21047044702F
:10B120000E4D817014206C602C706C70FFF7CCFA9F
:10B1300006211420FFF7E9FA1420FFF7D0FA084897
:10B14000046006211120FFF7E0FA0548001F00689F
:10B15000A860002070BD0000E43E0020882D002083
:10B16000081501402DE9FC47DFF8789099F8023086
:10B1700073B368B3052902D20720BDE8FC87436991
:10B1800033B3437C012B25D0002704460025884695
:10B1900016468DF80050684600F038F801A80FF008
:10B1A00005F8C8B1012101700F4944600968C0E980
:10B1B0000218C0E904769DF8040089F801009DF8A2
:10B1C000000000F047F81420FFF794FA2846D4E76F
:10B1D0000820D2E70F46D8E704259DF8000000F0CC
:10B1E00039F8F3E7E43E0020041501400649897868
:10B1F00039B130B1416921B10021017402210EF051
:10B20000D5BC082070470000E43E002030B5EFF3C5
:10B21000108172B60D4A9468012324B1037000298D
:10B2200000D162B630BD93604FF0E023D3F8805177
:10B23000074C25401560C3F88041D3F88441546021
:10B240005A17C3F8842100220270E8E7F03F00207B
:10B25000FC06FFBD0B498A68002A11D000280FD1D7
:10B26000EFF3108072B60B684FF0E022C2F80031A5
:10B270004B68C2F8043100228A60002800D162B60F
:10B2800070470000F03F002010B5144C00224FF42E
:10B2900080312068FFF766FF08B1FFF70FFF00223B
:10B2A0004FF400416068FFF75DFF08B1FFF706FF4C
:10B2B000002242F26661A068FFF754FF08B1FFF771
:10B2C000FDFE00224FF42031E068FFF74BFF00281D
:10B2D00003D0BDE81040FFF7F1BE10BDE4A80300A5
:10B2E0002DE9F041064608680C46411C4FF0A04786
:10B2F0004FF0010506D005FA00F1C7F808152068DF
:10B3000008F05AFD6068411C02D0002108F042FD9F
:10B310003168A069C1F82405607D227D3168104341
:10B32000C1F86C05D4E900123068C0F81425C0F8E3
:10B330000C15207D012815D1A068411C02D00021E8
:10B3400008F028FDE068411C05D08540C7F8085585
:10B35000E06808F031FDD4E902123068C0F8082531
:10B36000C0F81015BDE8F0812DE9F04106460868E7
:10B370000C46411C4FF0A0474FF0010506D005FADE
:10B3800000F1C7F80815206808F020FD6068411C2E
:10B3900002D0002108F007FD3168A069C1F824053A
:10B3A000607D217D32680843C2F86C05D4E9001243
:10B3B0003068C0F80C15C0F81425207D012815D17F
:10B3C000A068411C02D0002108F0EDFCE068411C9F
:10B3D00005D08540C7F80855E06808F0F7FCD4E9C7
:10B3E00002123068C0F80825C0F81015BDE8F081D9
:10B3F00005F0E4BF2DE9FC5F04464FF008084FF06C
:10B400000109694604F022FC02004F484F49A0EBB5
:10B4100001004FEAD0014FF0020000EB01450AD0D5
:10B42000104609F057FC024628462346484908F0D2
:10B4300076FFBDE8FC9FDFF81CB1DBF80000FFF7EA
:10B44000D5FE28B109F046FC0246284642A177E025
:10B45000FFF744FE484E3168FFF73BFE00F066FA06
:10B460000446FFF73BFEDFF814A10027C6F80000F2
:10B4700007EB87000AEB8006B07C58B30622711CEC
:10B480000DF10100FCF714FA18BB307C4FF47A611F
:10B4900001FA00F2B2F57A4F00DA401C3074002253
:10B4A0008140C817B260C20342EA5142C8034FF458
:10B4B000FA71401842F100014FF47A720023FCF750
:10B4C00079F9F060A04200D80446012070744FF072
:10B4D000000900E0B8467F1C082FC9D3B9F1000F5E
:10B4E0001FD0B8F1080F18D208EB88010AEB8100D1
:10B4F00000990160BDF8041081809DF806108171EB
:10B500000021017481604FF40031C1608C4200D38E
:10B510000C4601214174817403E019A1284608F00A
:10B52000F3FE601C85D022461146DBF80000FFF7D1
:10B5300019FE0028F6D009F0CDFB02461AA12846D4
:10B5400008F0E6FE75E7000018F7030018F703009F
:10B550002CD7030028A903006170705F74696D65C2
:10B56000725F73746F7028292072657475726E65CE
:10B5700064202573000000000C2C0020FC34002007
:10B580004E6F20737061636520746F20626C61631D
:10B590006B6C69737420616E6F746865722070657E
:10B5A00065722049440000006170705F74696D65C8
:10B5B000725F737461727428292072657475726E7B
:10B5C0006564202573000000024A00210248FFF74D
:10B5D0008BBD0000B9B8020028A903002DE9FC4189
:10B5E0000446694604F032FB70B109F073FB024671
:10B5F000124813492346401AC008022101EB0040BB
:10B60000104908F08CFE11E00F4E00244FEA0D07A0
:10B6100004EB840006EB8005A87C50B10622691C6F
:10B62000781CFCF745F920B9687C10B10120BDE811
:10B63000FC81641C082CEBD30020F8E718F703000A
:10B6400018F703002CD70300FC3400202DE9F04745
:10B65000814605884A484FF000088AB00178424682
:10B66000284600F0E9FD99F80500400701D40021C3
:10B6700076E005F58077B8B201AB012207210BF027
:10B680008FFC04003F48404A4FF00101A0EB02004C
:10B690004FEAD00001EB00460AD0204609F01AFB21
:10B6A000024630462B46394908F039FE214629E04A
:10B6B000284604F00BFC4FF6FF71044688422BD15C
:10B6C0008A46029804F06CFB0446504510D00146AF
:10B6D000284604F0DBFB2846FFF75AFCE0B9284671
:10B6E0000DF048FC2846FFF753FC0028BFD013E0BC
:10B6F0000BF022FE0446504508D1304624A108F044
:10B7000003FE042128460DF063FCB0E701462846FD
:10B7100004F0BCFB4FF00108B8B2224607210BF041
:10B72000B7FC07001BD0862F1ED009F0D3FA0246C3
:10B7300030462B462349009408F0F9FD3946284647
:10B740000DF046FC002148460AF0F4FAB8F1000F6B
:10B7500002D0204604F0A4FB0AB0BDE8F087012126
:10B7600048460AF0E7FAF7E71822174903A8FCF75A
:10B7700065F8ADF80E5003A803F0D0F8EFE700002D
:10B78000C02C002068F7030018F70300ECE1030069
:10B79000436F756C64206E6F7420616C6C6F6361B5
:10B7A0007465206E657720706565725F69642066D8
:10B7B0006F7220696E636F6D696E6720626F6E6471
:10B7C0002E00000048E203007CAA030070B5044686
:10B7D00090B0087B0D468DF83800202105A8FCF7B5
:10B7E00055F842F61920ADF814000120ADF8180004
:10B7F000ADF81A000EA80790617C9DF82100A21DEB
:10B8000061F3041040F002008DF82100A87B8DF850
:10B810002700687B8DF82500A08805A902F046F86E
:10B8200000281CD1A968E1B10FA801F004FC06466C
:10B8300014216846FCF72AF842F60810ADF800001B
:10B84000E87B8DF806000FA8ADF80A60ADF80E6031
:10B850000490E08804F10E02694602F02BFD10B05E
:10B8600070BD0020E081FAE710B50D490D480DF0DC
:10B87000EBFBC1B24FF6FE720B4800F07DFB0028D7
:10B880000DD008280BD0132809D0112807D043F277
:10B890000141884203D0BDE81040FFF70FBC10BD46
:10B8A0005C320020A02B0020D02F00200A46014649
:10B8B0001046AEDF7047000010B500F037F80446C0
:10B8C000FFF70CFC0D490860601C16D00C4822469E
:10B8D00011460068FFF746FC00280ED009F0FAF97F
:10B8E000024608480849BDE81040401AC008022135
:10B8F00001EB004005A108F00BBD10BD0C2C002091
:10B9000028A9030018F7030018F703006170705F9F
:10B9100074696D65725F7374617274282920726531
:10B920007475726E6564202573000000F0B50446DE
:10B9300000221C4E4FF0FF3013464FF4A02500BFED
:10B9400002EB820106EB81018F7C27B34F7C7FB134
:10B95000CF68A74205D93F1BCF6087421BD8384626
:10B9600019E04B740F7CD7B1A84214D3284612E0DB
:10B970000F7CA7B18F6827448F60AF4206D30F7C3E
:10B980007F1E0F748F68A7F5A0278F60C7F5A021D1
:10B99000814200D80846521C082AD1D3F0BD8B74CE
:10B9A000F9E70000FC3400202DE9FC47002517884A
:10B9B0000646158090F82D001446894630B13A4667
:10B9C0002146484600F062FC051E09D1B0784FF0D0
:10B9D0000C0A18B32088C846001DB84202D9504648
:10B9E000BDE8FC87684679DF0028F9D1208803216B
:10B9F00008F8001020881921401C80B2208008F827
:10BA000000102088401C80B2208000EB0801BDF8A7
:10BA100000000EF0EBFA218808442080F078022222
:10BA2000C8B1218896F9033001F1030C4846BC45A2
:10BA3000D5D8425421884FF0010C491C89B221808D
:10BA400000F801C02188491C89B2218009F8013021
:10BA50002088401C20807068B8B1218890F900309F
:10BA600001F1030C4846BC45B9D8425421880A224A
:10BA7000491C89B2218042542188491C89B2218005
:10BA800009F801302088401C2080308950B1CDE970
:10BA900000474B460622022106F108000EF09EFBED
:10BAA000051E9DD1308A50B1CDE900474B46072293
:10BAB000032106F110000EF091FB051E90D1308B92
:10BAC00050B1CDE900474B461522142106F118006C
:10BAD0000EF084FB051E83D1306A30B13B4622460E
