:020000040002F8
:10600000D8870020C1630200C9630200CB6302008D
:10601000CD630200CF630200D163020000000000E4
:10602000000000000000000000000000D363020038
:10603000D563020000000000D7630200D9630200AC
:1060400049A90200DB630200D9AD0200DB63020054
:10605000DB630200DB630200C9990200DB6302001C
:10606000DB630200DB630200DB630200DB63020030
:10607000DB630200A1A90200DB630200DB63020014
:10608000DB630200C9A90200DB630200DB630200DC
:1060900019AA0200DB6302001DAA0200DB630200F2
:1060A000DB630200DB630200DB630200DB630200F0
:1060B000DB630200DB630200000000000000000060
:1060C000DB630200DB630200DB630200DB630200D0
:1060D000DB630200DB630200DB6302000000000000
:1060E00000000000000000000000000000000000B0
:1060F00000000000000000000000000000000000A0
:10610000000000000000000000000000000000008F
:10611000000000000000000000000000000000007F
:10612000000000000000000000000000000000006F
:10613000000000000000000000000000000000005F
:10614000000000000000000000000000000000004F
:10615000000000000000000000000000000000003F
:10616000000000000000000000000000000000002F
:10617000000000000000000000000000000000001F
:10618000000000000000000000000000000000000F
:1061900000000000000000000000000000000000FF
:1061A00000000000000000000000000000000000EF
:1061B00000000000000000000000000000000000DF
:1061C00000000000000000000000000000000000CF
:1061D00000000000000000000000000000000000BF
:1061E00000000000000000000000000000000000AF
:1061F000000000000000000000000000000000009F
:10620000DFF80CD001F080FB004800472D0F0300A1
:10621000D887002030B450E8012F93B2C4892344BA
:106220008489A34228BF1B1B0489A34202BFBFF37A
:106230002F8F002007E0C3EA020340E80134002C5E
:10624000E9D14FF001000A6030BC704750E8012FDF
:10625000C2EA024240E801210029F7D1704730B478
:1062600050E8022F1FFAA2F3C488A34202BFBFF373
:106270002F8F00200DE0C48923448489A34228BFC6
:106280001B1BC2EA034340E80234002CE8D14FF064
:1062900001000A6030BC704750E8022FC2EA224277
:1062A00040E802210029F7D17047034653E8022F46
:1062B000D988B2EB324F4FF0000017BF92B241EADB
:1062C000014142EA014104E05A68B2EB324F08BF93
:1062D000012043E80212002AE8D1704730B4044696
:1062E00054E8000F0D4644E80053002BF8D1156028
:1062F00030BC704730B4044654E8000F40EA010552
:1063000044E80053002BF7D1156030BC704730B41F
:10631000044654E8000F00EA010544E80053002B4E
:10632000F7D1156030BC704730B4044654E8000F14
:1063300080EA010544E80053002BF7D1156030BC1A
:10634000704730B4044654E8000F00EB010544E800
:106350000053002BF7D1156030BC704730B40446B1
:1063600054E8000FA0EB010544E80053002BF7D1DF
:10637000156030BC704770B404464FF0000054E81C
:10638000006F0D68AE4207BF44E80023012044E8D7
:1063900000630E60002B1CBF0020F0E770BC70474C
:1063A00030B4044654E8000F88422CBF451A054615
:1063B00044E80053002BF5D1156030BC7047000055
:1063C0000648804706480047FEE7FEE7FEE7FEE78F
:1063D000FEE7FEE7FEE7FEE7FEE7FEE7BDAA0200F6
:1063E0000162020030B44FF0000310F8014B11F8C5
:1063F000015B013A84EA050443EA0403F5D1A3F101
:1064000001034FEAD37030BC70474FF0000310F81F
:10641000012B013943EA0203F9D1A3F101034FEA49
:10642000D37070472DE9F00791E8F807B2E8021041
:106430005B1854EB0C04B2E802104D4156EB0C060D
:10644000B2E802104F4158EB0C08B2E8021059EBC9
:1064500001095AEB0C0A4FF0260261EB010122EA16
:1064600001015B1854F1000455F1000556F10006D6
:1064700057F1000758F1000859F100095AF1000AD4
:1064800061EB010122EA01010B4480E8F807BDE855
:10649000F00770472DE9F00791E8F807B2E802101D
:1064A0005B1A74EB0C04B2E802108D4176EB0C061B
:1064B000B2E802108F4178EB0C08B2E8021079EBD9
:1064C00001097AEB0C0A4FF0260261EB010102EAA6
:1064D00001015B1A74F1000475F1000576F1000604
:1064E00077F1000778F1000879F100097AF1000AE4
:1064F00061EB010102EA0101A3EB010380E8F80767
:10650000BDE8F00770470A462DE9F04F92E8F00F1A
:106510002DE9F30F87B091E839000999A0FB0178C4
:106520004FF00009E3FB01894FF0000AE4FB019AF8
:106530004FF0000BE5FB01AB0D994FF0000CE0FBB9
:1065400001BC4FF0000EE3FB01CE4FF00002E4FB74
:1065500001E24FF00006E5FB012600970A994FF093
:106560000007E0FB018719EB07094FF0000747EB35
:106570000707E3FB01971AEB070A4FF0000747EB09
:106580000707E4FB01A71BEB070B4FF0000747EBE6
:106590000707E5FB01B70E991CEB070C4FF000074E
:1065A00047EB0707E0FB01C71EEB070E4FF00007A4
:1065B00047EB0707E3FB01E7D2194FF0000747EB72
:1065C0000707E4FB0127F6194FF0000747EB070721
:1065D000E5FB0167CDF804800B994FF00008E0FB64
:1065E00001981AEB080A4FF0000848EB0808E3FB93
:1065F00001A81BEB080B4FF0000848EB0808E4FB70
:1066000001B81CEB080C4FF0000848EB0808E5FB4C
:1066100001C80F991EEB080E4FF0000848EB080860
:10662000E0FB01E812EB08024FF0000848EB080815
:10663000E3FB012816EB08064FF0000848EB0808BA
:10664000E4FB016817EB08074FF0000848EB080867
:10665000E5FB0178CDF808900C994FF00009E0FBBC
:1066600001A91BEB090B4FF0000949EB0909E3FBFA
:1066700001B91CEB090C4FF0000949EB0909E4FBD7
:1066800001C91EEB090E4FF0000949EB0909E5FBB2
:1066900001E9109912EB09024FF0000949EB0909D1
:1066A000E0FB012916EB09064FF0000949EB090947
:1066B000E3FB016917EB09074FF0000949EB0909F2
:1066C000E4FB017918EB09084FF0000949EB0909CF
:1066D000E5FB0189CDF80CA0089901F1100191E8C2
:1066E000390009994FF0000AE0FB01BA1CEB0A0CD3
:1066F0004FF0000A4AEB0A0AE3FB01CA1EEB0A0E3E
:106700004FF0000A4AEB0A0AE4FB01EA12EB0A0224
:106710004FF0000A4AEB0A0AE5FB012A0D9916EB35
:106720000A064FF0000A4AEB0A0AE0FB016A17EB7F
:106730000A074FF0000A4AEB0A0AE3FB017A18EB5A
:106740000A084FF0000A4AEB0A0AE4FB018A19EB37
:106750000A094FF0000A4AEB0A0AE5FB019ACDF854
:1067600010B00A994FF0000BE0FB01CB1EEB0B0EB3
:106770004FF0000B4BEB0B0BE3FB01EB12EB0B02AF
:106780004FF0000B4BEB0B0BE4FB012B16EB0B0656
:106790004FF0000B4BEB0B0BE5FB016B0E9917EB6E
:1067A0000B074FF0000B4BEB0B0BE0FB017B18EBE7
:1067B0000B084FF0000B4BEB0B0BE3FB018B19EBC2
:1067C0000B094FF0000B4BEB0B0BE4FB019B1AEB9F
:1067D0000B0A4FF0000B4BEB0B0BE5FB01ABCDF8BD
:1067E00014C00B994FF0000CE0FB01EC12EB0C0213
:1067F0004FF0000C4CEB0C0CE3FB012C16EB0C06E1
:106800004FF0000C4CEB0C0CE4FB016C17EB0C078D
:106810004FF0000C4CEB0C0CE5FB017C0F9918EBD6
:106820000C084FF0000C4CEB0C0CE0FB018C19EB4E
:106830000C094FF0000C4CEB0C0CE3FB019C1AEB29
:106840000C0A4FF0000C4CEB0C0CE4FB01AC1BEB06
:106850000C0B4FF0000C4CEB0C0CE5FB01BCCDF825
:1068600018E00C994FF0000EE0FB012E16EB0E061F
:106870004FF0000E4EEB0E0EE3FB016E17EB0E0712
:106880004FF0000E4EEB0E0EE4FB017E18EB0E08EF
:106890004FF0000E4EEB0E0EE5FB018E109919EB3A
:1068A0000E094FF0000E4EEB0E0EE0FB019E1AEBB0
:1068B0000E0A4FF0000E4EEB0E0EE3FB01AE1BEB8B
:1068C0000E0B4FF0000E4EEB0E0EE4FB01BE1CEB68
:1068D0000E0C4FF0000E4EEB0E0EE5FB01CE4FF00E
:1068E0002601DDE900344FF00000E6FB01302418FA
:1068F0004FF0000040EB0000E7FB0140DDE90256ED
:106900002D184FF0000040EB0000E8FB0150361856
:106910004FF0000040EB0000E9FB0160DDE9048975
:1069200018EB00084FF0000040EB0000EAFB01808C
:1069300019EB00094FF0000040EB0000EBFB019069
:10694000DDF818A01AEB000A4FF0000040EB000041
:10695000ECFB01A012184FF0000040EB0000EEFB32
:10696000012000FB01F01B1854F1000455F1000553
:1069700056F1000658F1000759F100085AF10009D4
:1069800052F1000A60EB000021EA0000034407987E
:1069900080E8F80711B0BDE8F08F2DE9F00791E825
:1069A000F0174EF6A1514FEA4101A4FB01234FF02D
:1069B0000004E5FB01344FF00005E6FB01454FF014
:1069C0000006E7FB01564FF00007E8FB01674FF0B8
:1069D0000008E9FB01784FF00009EAFB01894FF05C
:1069E000000AECFB019A4FF026010AFB01FA12EBB8
:1069F0000A0253F1000354F1000455F1000556F169
:106A0000000657F1000758F1000859F100096AEB38
:106A10000A0A21EA0A010A4480E8FC03BDE8F007FB
:106A200070472DE9F00390E8F8134FEAEC7202F09A
:106A300013022CF0004C02F11301591854F100011B
:106A400055F1000156F1000157F1000158F1000124
:106A500059F100015CF100014FEAE17101F013010D
:106A600011445B1854F1000455F1000556F100067D
:106A700057F1000758F1000859F100094CF1000CDA
:106A80002CF0004C80E8F813BDE8F003704700BF1D
:106A90002DE9F00791E8F807B2E802105B1854EB13
:106AA0000C04B2E802104D4156EB0C06B2E802109D
:106AB0004F4158EB0C08B2E8021059EB01095AEBB0
:106AC0000C0A8941B3F1FF3374F1FF3475F1FF35DE
:106AD00076F1000677F1000778F1000879F10109F5
:106AE0007AF1FF3A51F100014A425B184C414D41A5
:106AF00056F1000657F1000758F1000859EB02095A
:106B00005AEB010A80E8F807BDE8F00770472DE965
:106B1000F00791E8F807B2E802105B1A74EB0C0476
:106B2000B2E802108D4176EB0C06B2E802108F41FC
:106B300078EB0C08B2E8021079EB01097AEB0C0A49
:106B400089414A425B184C414D4156F1000657F1CC
:106B5000000758F1000859EB02095AEB010A80E8D6
:106B6000F807BDE8F00770470A462DE9F04F92E8B4
:106B7000F00F2DE9F30F87B091E839000999A0FBD8
:106B800001784FF00009E3FB01894FF0000AE4FBB4
:106B9000019A4FF0000BE5FB01AB0D994FF0000C93
:106BA000E0FB01BC4FF0000EE3FB01CE4FF0000212
:106BB000E4FB01E24FF00006E5FB012600970A998D
:106BC0004FF00007E0FB018719EB07094FF00007C2
:106BD00047EB0707E3FB01971AEB070A4FF00007A3
:106BE00047EB0707E4FB01A71BEB070B4FF0000780
:106BF00047EB0707E5FB01B70E991CEB070C4FF0BD
:106C0000000747EB0707E0FB01C71EEB070E4FF03D
:106C1000000747EB0707E3FB01E7D2194FF0000736
:106C200047EB0707E4FB0127F6194FF0000747EB96
:106C30000707E5FB0167CDF804800B994FF00008CA
:106C4000E0FB01981AEB080A4FF0000848EB08082F
:106C5000E3FB01A81BEB080B4FF0000848EB08080A
:106C6000E4FB01B81CEB080C4FF0000848EB0808E7
:106C7000E5FB01C80F991EEB080E4FF0000848EB2A
:106C80000808E0FB01E812EB08024FF0000848EBAF
:106C90000808E3FB012816EB08064FF0000848EB54
:106CA0000808E4FB016817EB08074FF0000848EB01
:106CB0000808E5FB0178CDF808900C994FF0000921
:106CC000E0FB01A91BEB090B4FF0000949EB090997
:106CD000E3FB01B91CEB090C4FF0000949EB090972
:106CE000E4FB01C91EEB090E4FF0000949EB09094D
:106CF000E5FB01E9109912EB09024FF0000949EB9D
:106D00000909E0FB012916EB09064FF0000949EBE0
:106D10000909E3FB016917EB09074FF0000949EB8B
:106D20000909E4FB017918EB09084FF0000949EB68
:106D30000909E5FB0189CDF80CA0089901F11001C2
:106D400091E8390009994FF0000AE0FB01BA1CEB09
:106D50000A0C4FF0000A4AEB0A0AE3FB01CA1EEBD9
:106D60000A0E4FF0000A4AEB0A0AE4FB01EA12EBB2
:106D70000A024FF0000A4AEB0A0AE5FB012A0D99C4
:106D800016EB0A064FF0000A4AEB0A0AE0FB016A1A
:106D900017EB0A074FF0000A4AEB0A0AE3FB017AF5
:106DA00018EB0A084FF0000A4AEB0A0AE4FB018AD2
:106DB00019EB0A094FF0000A4AEB0A0AE5FB019AAF
:106DC000CDF810B00A994FF0000BE0FB01CB1EEBA1
:106DD0000B0E4FF0000B4BEB0B0BE3FB01EB12EB3D
:106DE0000B024FF0000B4BEB0B0BE4FB012B16EBF4
:106DF0000B064FF0000B4BEB0B0BE5FB016B0E99F9
:106E000017EB0B074FF0000B4BEB0B0BE0FB017B81
:106E100018EB0B084FF0000B4BEB0B0BE3FB018B5C
:106E200019EB0B094FF0000B4BEB0B0BE4FB019B39
:106E30001AEB0B0A4FF0000B4BEB0B0BE5FB01AB16
:106E4000CDF814C00B994FF0000CE0FB01EC12EBF5
:106E50000C024FF0000C4CEB0C0CE3FB012C16EB7E
:106E60000C064FF0000C4CEB0C0CE4FB016C17EB28
:106E70000C074FF0000C4CEB0C0CE5FB017C0F9960
:106E800018EB0C084FF0000C4CEB0C0CE0FB018CE9
:106E900019EB0C094FF0000C4CEB0C0CE3FB019CC4
:106EA0001AEB0C0A4FF0000C4CEB0C0CE4FB01ACA1
:106EB0001BEB0C0B4FF0000C4CEB0C0CE5FB01BC7E
:106EC000CDF818E00C994FF0000EE0FB012E16EB08
:106ED0000E064FF0000E4EEB0E0EE3FB016E17EBAD
:106EE0000E074FF0000E4EEB0E0EE4FB017E18EB8A
:106EF0000E084FF0000E4EEB0E0EE5FB018E1099C2
:106F000019EB0E094FF0000E4EEB0E0EE0FB019E4A
:106F10001AEB0E0A4FF0000E4EEB0E0EE3FB01AE25
:106F20001BEB0E0B4FF0000E4EEB0E0EE4FB01BE02
:106F30001CEB0E0C4FF0000E4EEB0E0EE5FB01CEDF
:106F4000DDE90434069913EB0A0354EB0B0451EB0F
:106F50000C0152EB0E02002040F1000013EB0B037A
:106F600054EB0C0451EB0E0152EB0E024641002093
:106F7000474158EB000859EB0A0940F10000B3EB18
:106F80000E0374F1000471F1000172EB0A0276EB5A
:106F90000B0677EB0C0778EB0A0879EB0C0960F12C
:106FA0000000B2EB0B0276EB0C0677EB0E0778EBEA
:106FB0000B0879EB0E0960F100005FEAE07C7FEAE4
:106FC0000C0CDCF1000EB3EB0C0374EB0C0471EB56
:106FD0000C0172F1000276F1000677F1000778EB00
:106FE0000E0879EB0C0960F100005FEAE07CDCF14F
:106FF000000E13EB0C0354EB0C0451EB0C0152F19B
:10700000000256F1000657F1000758EB0E0859EB45
:107010000C0940F100005FEAE07CDCF1000E13EBAC
:107020000C0354EB0C0451EB0C0152F1000256F12D
:10703000000657F1000758EB0E0859EB0C09DDE983
:1070400000ABDDE902CE1AEB060A5BEB070B5CEB4B
:10705000080C5EEB090E002040F100001AEB070A55
:107060005BEB080B5CEB090C5EEB090E4341002067
:1070700044414141724140F10000BAEB090A7BF101
:10708000000B7CF1000C7EEB060EBB4174EB080498
:10709000B14172EB080260F10000BEEB070E73EB2A
:1070A000080374EB0904B94172EB090260F10000B6
:1070B0005FEAE0787FEA0808D8F10009BAEB080A2D
:1070C0007BEB080B7CEB080C7EF1000E73F10003E8
:1070D00074F1000471EB090172EB080260F1000029
:1070E0005FEAE078D8F100091AEB080A5BEB080BBD
:1070F0005CEB080C5EF1000E53F1000354F1000448
:1071000051EB090152EB080240F100005FEAE07820
:10711000D8F100091AEB080A5BEB080B5CEB080CD2
:107120005EF1000E53F1000354F1000451EB09012C
:1071300052EB08020798A0E8005C18C080E806003F
:1071400011B0BDE8F08F00BF70B491E87800B2E8EC
:1071500002105B1854EB0C04B2E802104D4156EBE0
:107160000C0680E878008041013070BC70472DE942
:10717000F00791E8F807B2E802105B1854EB0C0432
:10718000B2E802104D4156EB0C06B2E802104F4136
:1071900058EB0C08B2E8021059EB01095AEB0C0A43
:1071A00080E8F80780410130BDE8F00770472DE91D
:1071B000F00791E8F807B2E802105B1A74EB0C04D0
:1071C000B2E802108D4176EB0C06B2E802108F4156
:1071D00078EB0C08B2E8021079EB01097AEB0C0AA3
:1071E00080E8F80780414042BDE8F00770472DE98C
:1071F000F007524290E87800B1E880071740DB19A9
:1072000018EA020854EB080419EA020955EB0905CB
:107210001AEA020A56EB0A0678C090E87800B1E84C
:10722000800717407B4118EA020854EB080419EA6A
:10723000020955EB09051AEA020A56EB0A0678C05C
:1072400080410130BDE8F00770472DE9F007524258
:1072500090E87800B1E880071740DB1B18EA0208C5
:1072600074EB080419EA020975EB09051AEA020A27
:1072700076EB0A0678C090E87800B1E880071740FE
:10728000BB4118EA020874EB080419EA020975EB1D
:1072900009051AEA020A76EB0A0678C080414042E4
:1072A000BDE8F007704790E8300091E8C000A31BEC
:1072B0001340E41AF618EB1B1340ED1AFF1830C008
:1072C000C0C17047F0B55242FFF7EDFFFFF7EBFF8B
:1072D000FFF7E9FFFFF7E7FFF0BD2DE9F0073AC937
:1072E0001668A1FB069A4FF0000CE3FB06AC4FF0CA
:1072F0000007E4FB06C74FF00008E5FB067840F8FE
:10730000049B56684FF00009E1FB06A91CEB090C31
:107310004FF0000949EB0909E3FB06C917EB090720
:107320004FF0000949EB0909E4FB067918EB09085D
:107330004FF0000949EB0909E5FB068940F804AB69
:1073400096684FF0000AE1FB06CA17EB0A074FF0F8
:10735000000A4AEB0A0AE3FB067A18EB0A084FF028
:10736000000A4AEB0A0AE4FB068A19EB0A094FF005
:10737000000A4AEB0A0AE5FB069A40F804CBD668F5
:107380004FF0000CE1FB067C18EB0C084FF0000CF2
:107390004CEB0C0CE3FB068C19EB0C094FF0000CCA
:1073A0004CEB0C0CE4FB069C1AEB0C0A4FF0000CA7
:1073B0004CEB0C0CE5FB06AC80E88017BDE8F00751
:1073C00070470A462DE9F04F92E8F00F2DE9F30FD0
:1073D00087B091E839000999A0FB01784FF00009C6
:1073E000E3FB01894FF0000AE4FB019A4FF0000B28
:1073F000E5FB01AB0D994FF0000CE0FB01BC4FF039
:10740000000EE3FB01CE4FF00002E4FB01E24FF07F
:107410000006E5FB012600970A994FF00007E0FB04
:10742000018719EB07094FF0000747EB0707E3FB5C
:1074300001971AEB070A4FF0000747EB0707E4FB39
:1074400001A71BEB070B4FF0000747EB0707E5FB16
:1074500001B70E991CEB070C4FF0000747EB07072D
:10746000E0FB01C71EEB070E4FF0000747EB0707D5
:10747000E3FB01E7D2194FF0000747EB0707E4FBF6
:107480000127F6194FF0000747EB0707E5FB0167F7
:10749000CDF804800B994FF00008E0FB01981AEB3F
:1074A000080A4FF0000848EB0808E3FB01A81BEBB3
:1074B000080B4FF0000848EB0808E4FB01B81CEB90
:1074C000080C4FF0000848EB0808E5FB01C80F99CD
:1074D0001EEB080E4FF0000848EB0808E0FB01E83F
:1074E00012EB08024FF0000848EB0808E3FB012804
:1074F00016EB08064FF0000848EB0808E4FB0168AB
:1075000017EB08074FF0000848EB0808E5FB017887
:10751000CDF808900C994FF00009E0FB01A91BEB96
:10752000090B4FF0000949EB0909E3FB01B91CEB1A
:10753000090C4FF0000949EB0909E4FB01C91EEBF6
:10754000090E4FF0000949EB0909E5FB01E9109923
:1075500012EB09024FF0000949EB0909E0FB012990
:1075600016EB09064FF0000949EB0909E3FB016935
:1075700017EB09074FF0000949EB0909E4FB017912
:1075800018EB09084FF0000949EB0909E5FB0189EF
:10759000CDF80CA0089901F1100191E83900099982
:1075A0004FF0000AE0FB01BA1CEB0A0C4FF0000A96
:1075B0004AEB0A0AE3FB01CA1EEB0A0E4FF0000A6F
:1075C0004AEB0A0AE4FB01EA12EB0A024FF0000A56
:1075D0004AEB0A0AE5FB012A0D9916EB0A064FF061
:1075E000000A4AEB0A0AE0FB016A17EB0A074FF0B0
:1075F000000A4AEB0A0AE3FB017A18EB0A084FF08B
:10760000000A4AEB0A0AE4FB018A19EB0A094FF067
:10761000000A4AEB0A0AE5FB019ACDF810B00A9974
:107620004FF0000BE0FB01CB1EEB0B0E4FF0000BFD
:107630004BEB0B0BE3FB01EB12EB0B024FF0000BE0
:107640004BEB0B0BE4FB012B16EB0B064FF0000B87
:107650004BEB0B0BE5FB016B0E9917EB0B074FF098
:10766000000B4BEB0B0BE0FB017B18EB0B084FF017
:10767000000B4BEB0B0BE3FB018B19EB0B094FF0F2
:10768000000B4BEB0B0BE4FB019B1AEB0B0A4FF0CF
:10769000000B4BEB0B0BE5FB01ABCDF814C00B99CA
:1076A0004FF0000CE0FB01EC12EB0C024FF0000C71
:1076B0004CEB0C0CE3FB012C16EB0C064FF0000C12
:1076C0004CEB0C0CE4FB016C17EB0C074FF0000CBF
:1076D0004CEB0C0CE5FB017C0F9918EB0C084FF000
:1076E000000C4CEB0C0CE0FB018C19EB0C094FF07F
:1076F000000C4CEB0C0CE3FB019C1AEB0C0A4FF05A
:10770000000C4CEB0C0CE4FB01AC1BEB0C0B4FF036
:10771000000C4CEB0C0CE5FB01BCCDF818E00C990F
:107720004FF0000EE0FB012E16EB0E064FF0000EA0
:107730004EEB0E0EE3FB016E17EB0E074FF0000E43
:107740004EEB0E0EE4FB017E18EB0E084FF0000E20
:107750004EEB0E0EE5FB018E109919EB0E094FF062
:10776000000E4EEB0E0EE0FB019E1AEB0E0A4FF0E0
:10777000000E4EEB0E0EE3FB01AE1BEB0E0B4FF0BB
:10778000000E4EEB0E0EE4FB01BE1CEB0E0C4FF098
:10779000000E4EEB0E0EE5FB01CE079800F11C012A
:1077A00081E8C45FBDE8F80380E8F8030AB0BDE8EB
:1077B000F08F00BF2DE9F05F0546002092469B4602
:1077C00088460646814640241BE0284641464746F7
:1077D000224600F088F853465A46C01A914110D309
:1077E00011461846224600F016F82D1A67EB0108DC
:1077F0004F4622460120002100F00DF817EB00094A
:107800004E41201EA4F10104DFDC484631462A46E1
:107810004346BDE8F09F202A04DB203A00FA02F13B
:10782000002070479140C2F1200320FA03F319436E
:107830009040704700487047DCCB030010B5441AF5
:107840000346944209D28418114403E011F8013D23
:1078500004F8013D521EF9D210BD40EA0104A4070C
:1078600003D009E010C9121F10C3042AFAD203E0A2
:1078700011F8014B03F8014B521EF9D210BDD2B2E0
:1078800001E000F8012B491EFBD270470022F6E709
:1078900010B513460A4604461946FFF7F0FF204686
:1078A00010BD421C10F8011B0029FBD1801A704743
:1078B00030B504460020034600E05B1C934203D22F
:1078C000E05CCD5C401BF8D030BD10B548430446A9
:1078D00009F060FC002805D00021002C02D0641EB5
:1078E0000155FAE710BD202A04DB203A21FA02F004
:1078F0000021704721FA02F3D040C2F120029140EA
:107900000843194670470000064C074D06E0E06842
:1079100040F0010394E8070098471034AC42F6D3D6
:10792000FEF772FCE8F3030008F4030070B58C184E
:1079300010F8015B15F0070301D110F8013B2A1183
:1079400006D110F8012B03E010F8016B01F8016B70
:107950005B1EF9D12B0705D40023521E0DD401F86C
:10796000013BFAE710F8013BCB1A921C03E013F835
:10797000015B01F8015B521EF9D5A142D8D300206A
:1079800070BD00002DE9F047CA17A0B0064600F10F
:1079900020098C180F46544001464A46684606F1B5
:1079A000400A06F16008FEF7AFFD5146424608A8BE
:1079B000FEF7AAFD651E5246494610A8FEF7A4FD33
:1079C000ED174246314618A8FEF79EFDED43064AE4
:1079D0002C40FB0F6946304602EB841200F0B2F8EF
:1079E00020B0BDE8F08700BF08ED03002DE9F047A7
:1079F000CA17A0B0054600F1200A8C180F46544063
:107A000001465246684605F1400905F16008FEF757
:107A10007BFD4946424608A8FEF776FD661E4A46AB
:107A2000514610A8FEF770FDF6174246294618A8E1
:107A3000FEF76AFDF6430834054A3440FB0F6946F9
:107A4000284602EB841200F07DF820B0BDE8F087F4
:107A500008ED03002DE9F047CA17A0B0054600F174
:107A6000200A8C180F46544001465246684605F1DC
:107A7000400905F16008FEF747FD4946424608A85F
:107A8000FEF742FD661E4A46514610A8FEF73CFD31
:107A9000F6174246294618A8FEF736FDF64310347D
:107AA000054A3440FB0F6946284602EB841200F079
:107AB00049F820B0BDE8F08708ED030070B5A0B02C
:107AC000044601F1200668460D46FEF71CFD3146CE
:107AD00008A8FEF718FD05F1400110A8FEF713FDF8
:107AE00010AA11461046FEF79DFC694618A800F042
:107AF00091FB324629462046FEF794FC214620465B
:107B0000FEF701FD6A4621462046FEF7C3FC04F15C
:107B1000400508AA21462046FEF7BCFC284608AAD4
:107B200018A9FEF77FFC10AA294604F12000FEF7F1
:107B3000B1FC08AA18A904F16000FEF7ABFC20B064
:107B400070BD00BF2DE9F0430D46A1B001F1200941
:107B50001646044649462A466846984606F12007D6
:107B6000FEF798FC49462A4608A8FEF75BFC394612
:107B7000324610A8FEF78EFC3946324618A8FEF7AA
:107B800051FC424618A910A8FFF79CFB10AA6946B1
:107B90006846FEF7B9FC08A918AA0846FEF7B4FC27
:107BA0003A46314610A8FEF7AFFC10A905F1600275
:107BB0000846FEF7A9FC10A90846144AFEF7A4FCE3
:107BC00005F14002114618A8FEF72CFC6A4608A9E8
:107BD0002046FEF75FFC04F120056A4608A904F17F
:107BE0006000FEF71FFC4034284610AA18A9FEF7D3
:107BF00051FC10AA18A92046FEF714FC424629465B
:107C00002046FFF75FFB21B0BDE8F08348F3030097
:107C10002DE9F047CC7F0D78C0B00B4625F0070565
:107C200004F03F0493F8028049788DF8405044F006
:107C300040041D7F93F803C0D3F804E09F68D3F895
:107C400010A0DE688DF841108DF85F4011469C69E8
:107C50005A698DF842808DF85C5093F81D809B7FA7
:107C60008DF843C081466D466846CDF844E01297D2
:107C7000CDF850A0159216948DF85D808DF85E3089
:107C8000139600F0A1FA0FCD18AC0FC495E80F00C1
:107C900084E80F006846012100F0B2FA18AD08A888
:107CA000002100F0ADFA0FCD20AC0FC495E80F0015
:107CB00084E80F0028A8012100F0A2FA18AF0DF106
:107CC00040084FF0060A002417F8016D46FA0AF53D
:107CD00005F001056C40224620A96846FFF7F2FA3C
:107CE000224628A908A8FFF7EDFA08AA694630A895
:107CF000FEF798FB08AA10466946FEF7CBFB28AAB8
:107D000020A938A8FEF78EFB28AA104620A9FEF766
:107D1000C1FB38A9084608AAFEF7F6FB28A90846C1
:107D200030AAFEF7F1FB38AA28A920A8FEF77AFBB3
:107D300028A938AA0846FEF7ADFB20A90846FEF799
:107D4000E2FB28A90846FEF7DEFB28A918AA084688
:107D5000FEF7DAFB30A90846FEF7D5FB08A938A8DC
:107D6000FEF7D1FB38AA30A96846FEF7CDFB30A953
:107D700038AA0846FEF78EFB30A908A8FEF70DFECC
:107D800008A9084638AAFEF74DFB08A90AF1FF3AF0
:107D900030AA0846FEF7B8FBBAF1FF3F2C4695D152
:107DA00047454FF0070A8FD108A90846012200F085
:107DB00043FA08AA69466846FEF7A6FB69464846A4
:107DC00000F048FB40B0BDE8F08700BF014AFFF774
:107DD0001FBF00BFE4E9030070B500F1200590B0BB
:107DE0000E46044600F072FB06F12001284600F022
:107DF0006DFB214608A8FEF7B7FE08A908460C4A05
:107E0000FEF746FE08A922460846FEF7AEFE08A980
:107E10000846084AFEF73CFE29466846FEF7A4FEDF
:107E2000694608A82022FEF7DDFA013810B070BDBF
:107E300068F3030088F303002DE9F047B8B08A46E1
:107E40008146114610A8514AFFF7B1F95049024640
:107E500010A8FFF7CCF9179F4C4900EAD777804666
:107E6000C7F1010210A8FFF7C2F9179D524628A9D1
:107E700018A8ED4301F0CEF8ED0F20A9C5F10102DD
:107E8000084600F0FFFAC8F10108FE266A4618A964
:107E900028A801F073F8731138AA02EB830306F0E7
:107EA0001F0253F8A04CD44004F0010465402A4658
:107EB00028A918A8FFF706FA2A4630A920A8FFF734
:107EC00001FA013E28A918A800F0F2FF731C25460C
:107ED000DCD1C4F1010208A820A900F0D3FA7D404A
:107EE0006A4618A928A801F049F828A92A4618A81E
:107EF000FFF7E8F92A4630A920A8FFF7E3F908A917
:107F00006A460846FEF731FE08A9084600F0F8FA6E
:107F100008A909F120040AF120020846FEF725FE0F
:107F200020A908AA2046FEF720FE08AA18A968463C
:107F3000FEF71BFE69466846FEF716FE18AA69465C
:107F400008A8FEF712FE21466846FEF70DFE08AAB5
:107F500069461046FEF7DBFD08A90E4A6846FEF7A3
:107F6000D6FD20462021FEF750FA08A943420246DA
:107F7000684643EA0808FFF7A5F948466946064AF5
:107F8000FEF7F3FD404638B0BDE8F087C8F30300C4
:107F9000C8EC030088F303005C2F00200A46014967
:107FA000FFF74ABF04EA030000F05ABB38B50446A5
:107FB0000D4600F055FB05F1200104F12000BDE85D
:107FC000384000F04DBB00BF30B5A9B0144605469F
:107FD000684600F0B7FB214618A8FFF7FDFE6A4689
:107FE00018A9044608A8FFF727FF08A90443284654
:107FF000FFF7DAFF204629B030BD00BF30B599B099
:108000000546684600F09EFB694608A8FFF7C6FFD4
:1080100008A904462846FFF7C9FF204619B030BD1D
:1080200010B52022B0B004460DEB020000F0B4FB06
:108030009DF83F309DF8202003F07F0343F040037C
:1080400022F0070208A968468DF83F308DF82020FD
:1080500000F020FB694618A800F028F818A920466F
:1080600000F002F830B010BD30B599B004460D46AE
:1080700010A84031012200F0DFF810AA2946684616
:10808000FEF742FA10AA05F1200108A8FEF73CFA13
:1080900008A9204600F0DEF9684600F0A9F8E37F61
:1080A00083EAC010E07719B030BD00BF2DE9F04180
:1080B000B0B00446684600F025FB9DF93F30414DC5
:1080C000DA1713445340012B03F110021346B8BFD3
:1080D000002305EB83150FCD27460FC70FCD0FC724
:1080E0000FCD0FC795E80F0004F1400687E80F0099
:1080F0003046012100F084F8E84604F120070DF134
:108100001505214610A8FFF7D9FC18AA10A920468A
:10811000FEF7FAF928AA20A93846FEF7F5F920AAB1
:1081200018A93046FEF7F0F9214610A8FFF7C6FC63
:1081300018AA10A92046FEF7E7F928AA20A9384670
:10814000FEF7E2F920AA18A93046FEF7DDF921462C
:1081500010A8FFF7B3FC18AA10A92046FEF7D4F91F
:1081600028AA20A93846FEF7CFF920AA18A9304638
:10817000FEF7CAF9214610A8FFF7A0FC15F9011D6A
:1081800010A8FFF7FFFB95F9151010A8FFF72EFCBC
:1081900095F92A1010A8FFF75DFC18AA10A920462F
:1081A000FEF7B2F928AA20A93846FEF7ADF920AAB1
:1081B00018A93046FEF7A8F9A845A2D130B0BDE80D
:1081C000F08100BF08ED03000B6803604B6843605B
:1081D0008B688360CB68C3600B6903614B69436143
:1081E0008B698361CB6923F00043C361704700BF93
:1081F00010B50446FEF715FC206800F0010010BD24
:10820000002380E80A008360C360036143618361E7
:10821000C361704700B589B000230A4669460093E0
:108220000193029303930493059306930793FEF738
:1082300031F909B05DF804FBF0B5A1B00546684618
:1082400017460E46FEF75FF9694618A8FEF75BF978
:1082500018A90846FEF757F9324618A908A8FEF7EC
:1082600053F96A4608A96846FEF74EF9694618A808
:10827000FEF749F908AA104618A9FEF745F908A91A
:1082800018A8FEF740F918A90846FEF73CF918A906
:108290000846FEF738F918A90846FEF734F918A978
:1082A0000846FEF730F908AA18A91046FEF72CF97F
:1082B000022408A918A8FEF726F918A90846FEF70F
:1082C00022F918A90846FEF71EF918A90846FEF774
:1082D0001AF918A90846FEF716F9013C18A9E9D1C0
:1082E00010A808AAFEF710F9042410A918A8FEF790
:1082F0000AF918A90846FEF706F918A90846FEF774
:1083000002F918A90846FEF7FEF818A90846FEF774
:10831000FAF8013C18A9E9D110AA0846FEF7F4F8CA
:10832000022418A90846FEF7EEF818A90846FEF739
:10833000EAF818A90846FEF7E6F818A90846FEF775
:10834000E2F818A90846FEF7DEF8013CE9D118A9C1
:1083500008AA10A8FEF7D8F80A2410A918A8FEF752
:10836000D2F818A90846FEF7CEF818A90846FEF775
:10837000CAF818A90846FEF7C6F818A90846FEF775
:10838000C2F8013C18A9E9D110AA08A8FEF7BCF868
:10839000142408A918A8FEF7B6F818A90846FEF78D
:1083A000B2F818A90846FEF7AEF818A90846FEF775
:1083B000AAF818A90846FEF7A6F8013C18A9E9D1C1
:1083C00008AA0846FEF7A0F80A2418A90846FEF7EE
:1083D0009AF818A90846FEF796F818A90846FEF775
:1083E00092F818A90846FEF78EF818A90846FEF775
:1083F0008AF8013CE9D118A9084610AAFEF784F8CA
:1084000018A9084667B9FEF77EF818A90846FEF7CE
:108410007AF8324618A92846FEF776F821B0F0BD62
:10842000FEF771F818A90846FEF76DF818A9084676
:10843000FEF769F818A90846FEF765F818A9084676
:10844000FEF761F86A4618A92846FEF75DF821B0E4
:10845000F0BD00BF38B50C4605460846FEF7E1FA08
:1084600023682B6063686B60A368AB60E368EB60B4
:1084700023692B6163696B61A369AB61E369EB619C
:1084800038BD00BF2DE9F0410D4606460F46904627
:108490000FCD34460FC495E80F0088B084E80F0074
:1084A00000233A466946684600930193029303937A
:1084B0000493059306930793FEF729FB424669460A
:1084C0003046FEF7FFFE08B0BDE8F0810B681BBA2E
:1084D000C3614B681BBA83618B681BBA4361CB686D
:1084E0001BBA03610B691BBAC3604B691BBA83607B
:1084F0008B691BBA4360CB691BBA0360704700BF2E
:1085000070B598B00D46064610A8FEF72DFB2A461A
:1085100010A96846FEF729FB694610A8FEF724FB60
:1085200010A90846FEF720FB6A4610A908A8FEF726
:108530001CFB08A910A8FEF717FB10A90846FEF7B8
:1085400013FB10A90846FEF70FFB10A90846FEF71B
:108550000BFB10A908AA0846FEF707FB10A908465E
:10856000FEF702FB10A90846FEF7FEFA10A96A46BC
:1085700008A8FEF7FAFA052408A910A8FEF7F4FAED
:1085800010A90846FEF7F0FA013C10A9F5D108AA97
:108590000846FEF7EAFA052410A90846FEF7E4FAB1
:1085A00010A90846FEF7E0FA013CF5D110A908AA87
:1085B0000846FEF7DAFA10A908A8FEF7D5FA08A9C6
:1085C0000846FEF7D1FA08A96A466846FEF7CDFAD2
:1085D0001024694610A8FEF7C7FA10A90846FEF74E
:1085E000C3FA013C10A9F5D12A460846FEF7BDFAA8
:1085F000402410A90846FEF7B7FA10A90846FEF76E
:10860000B3FA013CF5D110A96A460846FEF7ADFA67
:10861000102410A90846FEF7A7FA10A90846FEF78D
:10862000A3FA013CF5D110A96A460846FEF79DFA67
:10863000102410A90846FEF797FA10A90846FEF77D
:1086400093FA013CF5D110A908AA0846FEF78DFA65
:108650002A4610A93046FEF788FA18B070BD00BF50
:10866000CB691BBA03608B691BBA43604B691BBAA9
:1086700083600B691BBAC360CB681BBA03618B684C
:108680001BBA43614B681BBA83610B681BBAC36199
:10869000704700BFF0B50B4699B0DA69184D1492D7
:1086A00018A9120F04465F689E68186941F85C2D8E
:1086B000DA68D3F800E00E970F965F699E69109212
:1086C00000232A46119005A8CDF834E0179316939D
:1086D000159304930393029312971396FEF7FDFDEF
:1086E000019B05AA1B070DA920460C93FEF75FFD11
:1086F000E2692946D20F2046FEF779FD19B0F0BD98
:10870000E8EC0300F0B40025471E2C462A46E30897
:1087100014F0070F08BF51F8235005F00F0313445E
:1087200003F1080212090134D6B2A3EB06133F2C61
:108730004FEA151507F8013FE9D1354480F83F505D
:10874000F0BC704738B50B68114D1BBAC3614B685C
:108750001BBA83618B681BBA4361CB681BBA036188
:108760000B691BBAC3604B691BBA83608B691BBA68
:108770004360CB691BBA2A46036001460446FEF7F4
:1087800016FD294602462046BDE83840FEF72FBDBB
:10879000A8F30300000000002DE9F04F0FF2B83BF2
:1087A000DBE900ABEEA7D7E90067B3B0EEA5D5E9EA
:1087B0000045CDE900ABCDE902670FF2B43BDBE940
:1087C00000ABEDA7D7E90067CDE90445ECA5D5E9F5
:1087D0000045CDE906ABCDE908670FF2AC3BDBE91C
:1087E00000ABEBA7D7E90067CDE90A450024804636
:1087F0001546CDE90CABCDE90E6731923094002AD5
:1088000040F0798180238DF8403032ABC3F187038B
:1088100003F0030302224FF041094FF07A0E0124C6
:108820006E4610AF2046002B40F030817B2AAEEB25
:10883000030EC0F17A00AEF1040188BF0020890860
:10884000C01A013102284FEA810C0CD903EB09024E
:1088500000233244184601338B4242F8040BFAD30A
:10886000F445644412D032A9631C214400227B2BBE
:1088700001F8882C0AD032A90B4402347B2C03F86F
:10888000882C03D032AB1C4404F8882C6A0B6B098B
:1088900039466C0D30466E0FED008DF8BB608DF8DB
:1088A000BC408DF8BD208DF8BE308DF8BF5000F073
:1088B000F5FD04A80FC893FA83F9089B029D039C59
:1088C000009F019EC8F8189093FA83FE099BC8F890
:1088D00024E02DBA24BA00BA09BA12BA93FA83FC7A
:1088E000C8F80C50C8F808400A9D0B9CC8F8140042
:1088F000C8F810100C980D99C8F81C200F9B0E9A00
:10890000C8F820C03FBA36BA2DBA24BA00BA09BA9C
:1089100012BA1BBAC8F80470C8F80060C8F82C5026
:10892000C8F82840C8F83400C8F83010C8F83C200F
:10893000C8F8383033B0BDE8F08F224610AF32A807
:1089400010440C7800F8884C501C83420CD932AC8F
:10895000204402324C7800F8884C934204D932A863
:108960000244897802F8881C32AA581C1A448021D3
:108970007028309302F8881C73D97F286BD832AAEC
:108980001044991C0022802900F8882C63D032A85A
:108990000844D91C802900F8882C5CD032A80844EF
:1089A000191D802900F8882C55D032A80844591D7B
:1089B000802900F8882C4ED032A80844991D8029BF
:1089C00000F8882C47D032A80844D91D802900F827
:1089D000882C40D032A8084403F10801802900F80F
:1089E000882C38D032A8084403F10901802900F806
:1089F000882C30D032AA501803F10A0100228029B5
:108A000000F8882C27D032A8084403F10B018029F4
:108A100000F8882C1FD032A8084403F10C018029EB
:108A200000F8882C17D032A8084403F10D018029E2
:108A300000F8882C0FD032A8084403F10E018029D9
:108A400000F8882C07D032A80144702B01F8882C3C
:108A500001D18DF8BF203946304600F01FFD7A283D
:108A60006CD800F1400906EB0901421C7B2AC1F1D8
:108A70000001C0F17B0301F0030188BF012399428B
:108A800028BF1946062B319D9E4659D832AC044466
:108A90000021012B04F8881C4ED00DF1C80C944421
:108AA000022B02F101040CF8881C20D00DF1C80C37
:108AB000A444032B02F102040CF8881C17D00DF11A
:108AC000C80CA444042B02F103040CF8881C0ED03B
:108AD0000DF1C80CA444062B02F104040CF8881C08
:108AE00005D10DF1C80CA444541D0CF8881C734525
:108AF0007FF49CAECAE668460F4600F0E7FA291AF2
:108B00006E4603463944F0B1043880085D1E0130DA
:108B1000022D4FEA80027FF610AF10AFBE460D4621
:108B2000013455F804CB4EF804CB8442F8D39A4272
:108B300011447FF404AF17E71446D8E7319DA5E64A
:108B400004460B466EE632AF8022309007F8882D3F
:108B5000012086E7AFF3008008C9BCF367E6096A25
:108B60003BA7CA8485AE67BB2BF894FE72F36E3CBC
:108B7000F1361D5F3AF54FA5D182E6AD7F520E5119
:108B80001F6C3E2B8C68059B6BBD41FBABD9831FD3
:108B900079217E1319CDE05B2DE9F04F9FB0A1F153
:108BA00008031C93D2E90E34CDE91634D2E90C3413
:108BB000CDE90234D2E90A34CDE90034D2E90634F1
:108BC000CDE91834D2E90234CDE90634D2E90434CF
:108BD000CDE9043400F18003D2E908ABD2E9008981
:108BE0001D9309909646014606E0CDE90689B246F6
:108BF0008946BB4680461946F1E802451C9F09910B
:108C00004FEA9A3242EA8B42F7E902010A924FEAAE
:108C10009A434FEA9B364FEA9B4243EA8B3346EA3C
:108C20008A4642EA8A320C930D924FEACB530B9656
:108C3000CDE91A0143EA5A22DDE90C011C974FEAFB
:108C4000CA53DDE90A670F9243EA5B220E9246405F
:108C50004F40DDE90E017040794006460F464FEA6D
:108C60001873DDE91A0143EA09124FEA8973109279
:108C700043EA9802001913924FEA887269414FEA59
:108C8000197342EA9902CDE91A0143EA0815DDE9B0
:108C900000011292DDE902234FEA4964119544EA8A
:108CA000D81515954240DDE902454B40DDE91A0132
:108CB00003EA0B03801902EA0A0285EA03054FEA78
:108CC000486C79415440DDE906672B464CEAD915DA
:108CD00014952246DDE9044546EA080647EA0907F5
:108CE000121804EA060405EA07054B4126462F46FA
:108CF000DDE91001DDE912456040694004460D469A
:108D0000DDE914016040694004460D46DDE90601D5
:108D100000EA080001EA090130433943DDE916673A
:108D2000B6185F4132463B46DDE9186700196941D4
:108D3000B6185F4180185941DDE90023DDE902459D
:108D4000CEE90C23DDE90423CEE90E45CEE9062366
:108D5000CDE91645DDE90623DDE90445CEE9042326
:108D6000CDE90423CDE91845099B1D9ADDE90045AD
:108D70009342CEE90AABCEE90289CEE90867CDE994
:108D80000245CEE90001CDE900AB7FF42EAF1FB064
:108D9000BDE8F08F2DE9F04F8FB0A0F108014FF042
:108DA000000E03917346AEF102020EF1010E02F0C5
:108DB0000F020EF00F0400EBC20600EBC40550F8E2
:108DC00034706D68746850F832604FEA172AF909F8
:108DD00000914FEAD64C4AEA056106914CEA4431CB
:108DE000089100994FEA550B41EA45614FEA152A6F
:108DF00000914BEAC7717A0805914AEA0761039F1F
:108E00000791D7E902AB42EAC5724FEAD44C4CEA6B
:108E100046310492F700E20042EA56724FEA961891
:108E2000CDE90CAB0991DDE906AB47EA5471DDE908
:108E300004670B920A9186EA0A06E90987EA0B079A
:108E400048EA8468DDE90AAB4FEA9419DDE9084590
:108E5000019184EA0A0485EA0B05DDE900AB073BD2
:108E600003F00F038AEA060A8BEA070B00EBC30341
:108E7000D3E9002356465F46DDE90CAB1AEB020A44
:108E80004BEB030B84EA08041AEB06024BEB0703D7
:108E90000399121985EA09056B41E1E90223BEF144
:108EA000100F03917FF47EAF0FB0BDE8F08F00BFCD
:108EB000F0B599B004460E460A4601466846FDF7ED
:108EC00026FE69466846FDF74FFE6A46214608A819
:108ED00006F1200504F12007FDF747FE6A463146FA
:108EE0006846FDF742FE39462A4610A8FDF7D0FD38
:108EF0002A4639462846FDF70AFE29463046FDF740
:108F000033FE6A4608A92046FDF7C2FD22463146D7
:108F10003046FDF7FCFD6A4608A96846FDF7F7FDF7
:108F20006A4639463846FDF720FE324608A96846AB
:108F3000FDF7EDFD6A4629462846FDF716FE3A463E
:108F400029462846FDF7E3FD10A96846FDF70CFE0B
:108F5000224669462046FDF7DAFD08A92246084662
:108F6000FDF7D5FD10A908AA0846FDF7FEFD3A4613
:108F700010A93846FDF7CBFD19B0F0BD2DE9F04141
:108F80000C4688B005469046014622466846FDF7E5
:108F9000BEFD69466846FDF7E7FD6A462946284654
:108FA00004F12006FDF7E1FD05F120076A462146A0
:108FB0006846FDF7DAFD324630463946FDF7A7FD33
:108FC00031462046FDF7D0FD2A4621462046FDF7D2
:108FD0009EFD6A4621462046FDF799FD6A462946D0
:108FE0004046FDF794FD424639463846FDF7BDFD43
:108FF000224629466846FDF78AFD6A4631463046D4
:10900000FDF7B3FD3A4631463046FDF780FD08B026
:10901000BDE8F0812DE9F04188B00D46074602F128
:109020002001684607F120069046FDF79DFD6A463F
:1090300069466846FDF72CFD30466946FDF794FD0C
:1090400032463146304605F12004FDF721FD6A46DF
:1090500069466846FDF71CFD20464146FDF784FD44
:109060006A4641463846FDF780FD2246214668465D
:10907000FDF70EFD224669466846FDF709FD694683
:109080006846114AFDF704FD69462846FDF76CFD68
:109090003A4629462846FDF73AFD3A4629462846EB
:1090A000FDF735FD2A4639462046FDF730FD6A4674
:1090B00021462046FDF759FD324621462046FDF760
:1090C00026FD08B0BDE8F08168F303002DE9F04FFC
:1090D000E3B07F2A2F9240F2D981D0E90467CDE92D
:1090E0000067D0E90667CDE90267D0E90867CDE9F6
:1090F0000467D0E90A67CDE90667D0E90C678B46BB
:10910000D0E902451146CDE92C67D0E90023D0E92A
:109110000E67CDE90A23CDE90867CDE90C45814604
:109120002E91DBF80000DBF80810DBF81060DBF8AC
:109130000CA0DBF814C0DBF81CE0DBF834200BBA21
:1091400090FA80F8DBF81800DBF820100F9333BAA0
:109150001193DBF8286003BA1393DBF830000BBAE5
:109160001593DBF8381033BA179303BA19930BBA77
:109170001B93DDE90A34CDE93234DDE90C340027F4
:10918000DBF82400DBF82C100E97CDE9343410976F
:1091900012971497169718971A97DBF83C30DBF85C
:1091A0000460DDE90045CDE93645DDE90245CDE95C
:1091B0003845DDE90E459AFA8AFA44EA0A040DF5C3
:1091C000887ACAE90045DDE90445CDE93A45DDE99B
:1091D00010459CFA8CFC44EA0C040DF58C7CCCE91F
:1091E0000045DDE912459EFA8EFE44EA0E040DF5B7
:1091F000907ECEE90045DDE90645CDE93C45DDE957
:10920000144500BA44EA00044AA8C0E90045DDE973
:10921000164509BA44EA01044CA9C1E90045DDE953
:109220002C01DDE91845CDE93E01DDE91A0112BA4C
:109230001BBA44EA020440EA0300DDE9082336BA17
:109240000DF5807ECEE9002347EA06024EAEC6E960
:10925000004550ACC4E90001434642A9C1E90023DE
:10926000DBF84030DBF844200C93DBF848A0DBF857
:10927000501000911BBA1D93009BDBF85800029020
:109280001BBA2193029BDBF8604004941BBA239322
:10929000049BDBF8685006951BBA2593069BDBF808
:1092A000706008961BBA2793089BDBF878100A9128
:1092B0009AFA8AFA1BBADBF84C40DBF85450DBF818
:1092C0005C60DBF864E0DBF86CC0DBF87400DBF8B2
:1092D0007C10CDF87CA029930A9B1C971BBA2B937A
:1092E00094FA84FADDE91C3412BA43EA02031E97A9
:1092F00052AAC2E90034DDE91E34209743EA0A038A
:1093000054AAC2E90034DDE920342DBA43EA05034A
:10931000229756AAC2E90034DDE9223436BA43EA7C
:109320000603249758AAC2E90034DDE924349EFAE2
:109330008EFE43EA0E0326975AAAC2E90034DDE9FD
:1093400026349CFA8CFC43EA0C0328975CAAC2E9F9
:1093500000342A97DDE92834DDE92A5600BA43EAC9
:10936000000309BA5EAAC2E9003445EA010560AB10
:1093700032AA42A94748474CC3E90056FFF70CFC04
:109380000BF1800B803442A8FFF704FD204632AA7F
:1093900042A9FFF701FC404B9C42F3D1D9E90001FF
:1093A000DDE93223D9E90245CDE90045141843EB44
:1093B0000105D9E90A23DDE90001CDE90623DDE94C
:1093C00034238018594102460B46CDE90C23DDE9D0
:1093D0003601D9E9042312184B41CDE90A45CDE9FC
:1093E0000023D9E90601DDE93834C0186141CDE92F
:1093F0000201DDE93A34D9E90801C0186141CDE93B
:109400000401DDE90634DDE93C011B184C41184636
:10941000214640ABD9E90C45CDE90601D3E900016D
:10942000DDE93E23A4185D41D9E90E2312184B4112
:109430002E9ECDE90823DDE90A12803EC9E900121B
:109440002E96CDE92C45DDE90C23DDE90201C9E9C1
:109450000223C9E90601DDE90023DDE90401C9E9C8
:109460000423C9E90801DDE90823DDE906017F2EAF
:10947000C9E90A01C9E90C45C9E90E233FF651AE15
:109480002F9B03F07F0063B0BDE8F08F104663B000
:10949000BDE8F08F48EA030048EC03002DE9F04FE7
:1094A0000E68D1F808C0D1F80C908D69D1F810E0A1
:1094B000D1F82080B5B0044633BA00200193009063
:1094C000DDE900AB9CFA8CF399FA89F94AEA0906BE
:1094D000C869D1F814C01F46CDE916672FBA4D6A86
:1094E0009EFA8EF300BA0026002246EA00069B464A
:1094F0002DBA98FA88F3D4E90089CDE91A679CFA65
:109500008CFC42EA05061F464AEA0C0A4868CDE987
:109510001C67DDE90067CDE918ABCDE90489D4E922
:1095200002ABD4E9068900BA46EA0006CDE9146721
:10953000CDE906ABD4E90467D4E908ABCDE90A89E3
:10954000D4E90C89CDE90867CDE90CABD4E90A6709
:10955000D4E90EABCDE91089D1F82C908D6AD1F801
:1095600030C0886B0B6CD1F850E0D1F8588099FA74
:1095700089F9CDE90E6742EA0906D1F83490CDE9C0
:1095800012AB95FA85FB5F4699FA89F9CDE91E671A
:1095900042EA0906D1F83C908D6CD1F870A09CFA93
:1095A0008CFB5F4699FA89F990FA80FBCDE9206738
:1095B0001BBA42EA09065F46CDE922671F464B6C9B
:1095C000D1F860C0886E16461BBA46EA03062BBA6D
:1095D000CDE924671F46CB6C8D6F002216461BBA5F
:1095E00046EA03069EFA8EF3CDE926671F464B6DC9
:1095F000D1F85CE0002216461BBA46EA030698FA48
:1096000088F3DDE90089CDE928679EFA8EFE1F46C2
:1096100046464B6E46EA0E06CDE92A671BBA9CFA0F
:109620008CF748EA0308B94690FA80FCCDE92C890A
:10963000C86ED1F874E0CB6F4FF0000B01BA4BEA63
:1096400001069AFA8AF2DDE900AB9EFA8EFE1BBA99
:1096500091463F482ABA4AEA0E0867464AEA030A90
:10966000934614A904AACDE92E670546CDE93089B1
:10967000CDE932ABFFF790FA05F50076803514A8F6
:10968000FFF788FB284604AA14A9FFF785FAB5421C
:10969000F4D1D4E90001D4E90256DDE90423CDE98F
:1096A0000056161843EB0107DDE90689DDE90023C2
:1096B00012EB080243EB0903D4E904ABCDE9002324
:1096C000DDE9082312EB0A0243EB0B03DDE90A0193
:1096D00092469B46D4E9062312184B41D4E90889E7
:1096E000C4E90623DDE90C2312EB080243EB09036E
:1096F000DDE90E0190469946D4E90A2312184B4140
:1097000010461946C4E90067DDE91023D4E90C5678
:10971000AD185E41CDE90256DDE90056D4E90E23CD
:10972000C4E90256DDE9126792197B4116461F46CD
:10973000DDE90223C4E90A010020C4E904ABC4E95D
:109740000889C4E90C23C4E90E6735B0BDE8F08F81
:1097500048EA03002DE9F047DFF86880089D1746C6
:109760000E46044602F00F091BB1C8F8043000F0A1
:1097700099FF0DB1C8F80850002510E010223146BD
:109780002046FEF75BF8C8F8004000F051FD204687
:1097900001F028FB10341035C8F808601036BD42BF
:1097A000ECD3B9F100000AD0024631462046FEF75C
:1097B00045F8C8F80040BDE8F04700F039BDBDE805
:1097C000F0870000442F00202DE9F047174C089E39
:1097D00017468846054602F00F0913B1636000F092
:1097E00061FF06B1A66000260FE0404601F0FAFADC
:1097F000102241462846FEF721F8256000F0C0F807
:10980000A560103508F110081036BE42EDD3B9F14D
:10981000000009D0024641462846FEF70FF82560B1
:10982000BDE8F04700F0ACB8BDE8F087442F002059
:1098300070B514460D4601461A462046FDF7FEFF58
:109840000448C0E9004500F02DFFBDE8704000F07D
:1098500097B80000442F0020F0B50D490D4E0022AE
:109860000C68002102EB800504EB820301EB850C00
:109870005F5C16F80CC087EA0C075F54491CC9B23C
:109880000429F3D3521CD2B2042AEAD3F0BD00005B
:10989000442F0020244700202DE9F04389B00C46D6
:1098A000804620216846FDF7F1FF1E4F1BA01C4992
:1098B00020220668FB6889460020984718B10720D7
:1098C00009B0BDE8F083022000F030F905001BD09C
:1098D00015483969FDF7DAFF202249461248FDF79D
:1098E000ADFF1148224641462030FDF7A7FF0E4844
:1098F0006B46204404F1240206620B49284606F018
:10990000ADFB18B10A20DBE70920D9E704489DE840
:109910001E002C3880E81E000020D1E70000000166
:10992000C4460020202F0020C04400207CB5022027
:1099300000F0FCF8040013D00E4801690E48FDF752
:10994000A5FF0D4D1020CDE9000505F50D73202272
:10995000A3F18C01204606F091FB18B10B207CBDD1
:1099600009207CBD95E81E00044880E81E00002008
:109970007CBD0000202F0020C0440020884600202D
:1099800010B50020FFF768FF5FF0010401F07EF8DA
:1099900001F05EF800F0E2FE2046FFF75DFF641C78
:1099A000E4B20A2CF2D301F071F801F051F8BDE8ED
:1099B00010400A20FFF750BF7047002201E000F876
:1099C000012B491EFBD270472DE9F04700268AB0D3
:1099D000DFF85091B0464FF4807501243746069663
:1099E000284609F05DFE38B1D9F80403204203D0BF
:1099F000284609F04BFE26432D1D64007F1CADB2A6
:109A0000082FEDD34FF4BE74204609F049FE48B14B
:109A1000204609F03BFE46F0004606AA0121002040
:109A200009F020FE404D16F0FF0F15D0012700244D
:109A300037420DD009EB8401D1F81005D1F810158B
:109A4000C0F3042055F82420C1F3014102B190472E
:109A50007F00641C082CEBD3002E5FDA4FF0FF3040
:109A6000CDF8108054E0281910F8507F90F90000CC
:109A700027F0C008401C3BD007A9404608F073FB04
:109A800010B34FEA9719404603F09CFD55F820703B
:109A90001FB1B9F1030F03D006E0B9F1030F27D1CD
:109AA00004A9404608F067FB4FF0A04101EB880095
:109AB000D0F8000706A9C0F3014A404608F053FB5E
:109AC00018B1BAF1020F03D012E0BAF1030F0FD1AF
:109AD000B9F1030F08D1BAF1020F1DD0022140469F
:109AE00009F0A4FD761CF6B217B149464046B847C6
:109AF000641C042CB7D3002E10D06A46012100202C
:109B000009F0B0FD06990098884207D006900498A5
:109B1000002634460790A6E70321E0E70AB0BDE837
:109B2000F087000000600040743B0020012803D053
:109B3000022803D000207047014870470148704751
:109B400040C8030068C803002DE9FE431746884655
:109B50000446FFF7EBFE00281CD12A4800252A4EB8
:109B60008566C56605674567A0F5C0703169FDF774
:109B70008DFE06F110002549CDE9001001F5F471C4
:109B80000295A1F120003B464246054606F060F8EA
:109B900010B10320BDE8FE831020CDE900501B4A20
:109BA000014602F51570336905F00EFF08B10C206F
:109BB000F0E7174B22461548316900F075FE28B9C9
:109BC000A07F082802D1627B102A01D00220E1E7A1
:109BD0000C4904F10E00A431FDF76AFE08B10D2016
:109BE000D8E7084922797C31601DFDF761FE08B194
:109BF0000E20CFE70349D4F880000C31C86600205E
:109C0000C8E7000040460020202F0020C04400206C
:109C10000CCA030008B506F07FFB06F08FFB69460F
:109C2000204606F057FA0A490A4A891AC908032247
:109C300002EB014210B1104607A106E000981D2872
:109C4000104601D00FA100E015A109F083FF08BD67
:109C5000E0F4030020F4030048616E646C655F610A
:109C600063746976653A696E6765656B5F70756C7C
:109C70006C5F696E666F204E6F7420537563636509
:109C80007373000048616E646C655F61637469762C
:109C9000653A6F75746C656E20213D203239000085
:109CA00048616E646C655F6163746976653A696E7C
:109CB0006765656B5F70756C6C5F696E666F20536E
:109CC000756363657373000070B50D46064606F054
:109CD000EBF802460F481049401AC108032000EB78
:109CE00001440E49204609F039FF01231A4629464E
:109CF000304606F03BFA02462046094909F02EFF9D
:109D000006F0D2F802462046BDE87040054909F049
:109D100025BF0000E0F4030020F403004CCF030053
:109D2000B0CC030020D0030010B506F0BDF8024609
:109D30000E480F49401AC008032101EB0043FF2AD7
:109D40000CD0501EFE2801D3002A0DD1184609A1BF
:109D500009F004FFBDE81040FFF75CBFBDE810400C
:109D6000184604A109F0FABE10BD0000E0F403009B
:109D700020F4030048616E646C655F62726F616419
:109D8000636173743A7374617475733A696E67656D
:109D9000656B5F6765745F7365635F73746174752A
:109DA000732025780000000070B592B00D4606467D
:109DB00006F07AF802461C481C49401AC1080320E4
:109DC00000EB01441A49204609F0C8FE6A462946BC
:109DD000304605F099FF02462046164909F0BEFEBE
:109DE00006F062F802462046134909F0B7FE0098D3
:109DF00012A1C2B2204609F0B1FE11AA2946684656
:109E000005F0DCFF02462046134909F0A7FE204674
:109E100012A109F09FFE1198294682B2204609F04E
:109E200045FE12B070BD0000E0F4030020F4030012
:109E3000F0D003003CCD030060D103000A48616EFE
:109E4000646C655F636D645F66756E6374696F6E85
:109E50003A202578200A00008CCD03000A48616E64
:109E6000646C655F636D64206973206F6B202C697F
:109E70006E6765656B5F636F6D6D616E645F696E64
:109E80007075745F616374696F6E2C707265706C4D
:109E9000795F646174613A0A0000000010B506F051
:109EA00003F8024617481849401AC108032000EB7E
:109EB00001441649204609F051FE06F02DFA0246EB
:109EC000204613A109F04AFE05F0EEFF02462046A7
:109ED0001D4909F043FE05F0E7FF024620461B49F5
:109EE00009F03CFE06F02AFA0246204618A109F0C5
:109EF00035FE05F0D9FF02462046BDE81040224954
:109F000009F02CBEE0F4030020F40300D0D10300DC
:109F10000A696E6765656B5F73655F66696E616C24
:109F20003A72657475726E2073746174757320690A
:109F3000732025782E20696620302C69742069737F
:109F40002072696768740A00E0CB0300DCCD03006F
:109F50000A696E6765656B5F73655F696E69743A00
:109F600072657475726E2073746174757320697391
:109F70002025782E20696620302C69742069732092
:109F800072696768740A000040CE0300F0B5A7B09C
:109F90000E4607466D4605F087FF024625482649CE
:109FA000401AC108032000EB01442449204609F06F
:109FB000D5FD3146384606F02BF9024620462049A9
:109FC00009F0CCFD05F070FF024620461D4909F05E
:109FD000C5FD3146384606F01BF910B120461AA1DE
:109FE00014E005F061FF002814D120461FA109F0FC
:109FF000B1FD26A9284606F06DF810B1204625A12E
:10A0000004E026981D2805D020462BA109F0A2FDCA
:10A0100027B0F0BD05F048FF0128F9D120462BA15B
:10A0200009F098FD2698294682B2204609F03EFDA7
:10A03000EEE70000E0F4030020F4030044CC03004A
:10A04000A0CE0300E8CE03006572726F723A696EAB
:10A050006765656B5F707573685F696E666F204ECC
:10A060006F7420537563636573732E00696E676543
:10A07000656B5F6765745F7365635F737461747547
:10A080007320697320434152494E464F5F56414CFD
:10A0900049442E006572726F723A696E6765656B2E
:10A0A0005F70756C6C5F696E666F204E6F742053C5
:10A0B0007563636573732E006572726F723A6F75A4
:10A0C000746C656E20213D2032392E00696E666FFA
:10A0D000206973206F6B202C696E6765656B5F70FC
:10A0E000756C6C5F696E666F2C707265706C795FF1
:10A0F000646174613A0A0000F8B50D46064605F041
:10A10000D3FE024613481449401AC108032000EB4D
:10A1100001441249204609F021FD2A466B461146AA
:10A12000304606F0B1F8024620460D4909F016FD0A
:10A1300005F0BAFE024620460A4909F00FFD204606
:10A1400009A109F007FD0098294682B2204609F0CE
:10A15000ADFCF8BDE0F4030020F40300B4CF03002D
:10A16000F4CC030088D003000A48616E646C655F1C
:10A1700073657373696F6E206973206F6B202C6930
:10A180006E6765656B5F707573685F736573736920
:10A190006F6E2C707265706C795F646174613A0ADD
:10A1A00000000000F0B589B0002504461E48039564
:10A1B000049505950695142106460795FDF766FB5F
:10A1C0001122211D3046FDF739FB184E04F119000C
:10A1D000217EB36840220746984728B90022112102
:10A1E000B368201D984710B1052009B0F0BD201DAF
:10A1F00004AE0FC886E80F000B4803A914383A468E
:10A200008566C5660567456728308DE8230000F13F
:10A210004001237E04A805F01BFD10B903992029F5
:10A22000E3D00320E1E7000054460020202F002067
:10A2300010B50A20FFF710FB5FF0090400F0FCF9ED
:10A2400000F018FA2046FFF707FB00F00DF8641E37
:10A2500014F0FF04F2D100F0EFF900F00BFABDE8C2
:10A2600010400020FFF7F8BA2DE9F05FDFF8C4B323
:10A27000002400BFDBF8000010F8246000EB84002D
:10A2800090F8019090F802A090F8038030460FF00B
:10A29000CAFD0FF0C8FD0FF0C6FD0FF0C4FD40462B
:10A2A0000FF0C1FD50460FF0BEFD48460FF0BBFD5C
:10A2B0000FF0B9FD48460FF0B6FD0FF0B4FD0FF0FA
:10A2C000B2FD0FF0B0FD40460FF0ADFD0FF0ABFD5D
:10A2D0000FF0A9FD0FF0A7FD40460FF0A4FD0FF011
:10A2E000A2FD50460FF09FFD0FF09DFD0FF09BFD6E
:10A2F0000FF099FD30460FF096FD054630460FF001
:10A3000092FD0FF090FD454030460FF08CFD0FF0B0
:10A310008AFD0FF088FD454048460FF084FD80EA35
:10A32000090748460FF07FFD0FF07DFD0FF07BFD24
:10A3300047407D4050460FF076FD0FF074FD80EAF7
:10A340000A0750460FF06FFD0FF06DFD0FF06BFD2B
:10A3500047407D4040460FF066FD0FF064FD0FF072
:10A3600062FD80EA0801DBF800004D4000F824504F
:10A3700030460FF058FD40460FF055FD50460FF0A7
:10A3800052FD0FF050FD48460FF04DFD0FF04BFD14
:10A390000FF049FD0FF047FD30460FF044FD0FF080
:10A3A00042FD0FF040FD0FF03EFD30460FF03BFD4B
:10A3B0000FF039FD40460FF036FD0FF034FD0FF081
:10A3C00032FD0FF030FD50460FF02DFD0FF02BFD4C
:10A3D0000FF029FD0FF027FD30460FF024FD0FF0A0
:10A3E00022FD0FF020FD80EA060548460FF01BFD18
:10A3F000074648460FF017FD0FF015FD4740484649
:10A400000FF011FD0FF00FFD0FF00DFD47407D40E7
:10A4100050460FF008FD80EA0A0750460FF003FD92
:10A420000FF001FD0FF0FFFC47406F4040460FF07A
:10A43000FAFC0FF0F8FC0546404685EA08050FF0E7
:10A44000F2FC0FF0F0FC0FF0EEFC4540DBF80000F2
:10A450006F4000EB8400477030460FF0E4FC40464C
:10A460000FF0E1FC0FF0DFFC50460FF0DCFC0FF0CA
:10A47000DAFC0FF0D8FC0FF0D6FC48460FF0D3FC06
:10A4800030460FF0D0FC0FF0CEFC0FF0CCFC0FF0FC
:10A49000CAFC40460FF0C7FC0FF0C5FC0FF0C3FC30
:10A4A0000FF0C1FC48460FF0BEFC0FF0BCFC0FF0F3
:10A4B000BAFC0FF0B8FC48460FF0B5FC0FF0B3FC47
:10A4C00030460FF0B0FC0FF0AEFC80EA06053046D7
:10A4D0000FF0A9FC0FF0A7FC0FF0A5FC4540484683
:10A4E0000FF0A1FC0FF09FFC0FF09DFC80EA09002B
:10A4F000454050460FF097FC074650460FF093FC3E
:10A500000FF091FC474050460FF08DFC0FF08BFC94
:10A510000FF089FC47407D4040460FF084FC074621
:10A52000404687EA08070FF07EFC0FF07CFC0FF036
:10A530007AFC4740DBF800007D4000EB840085702A
:10A5400030460FF070FC0FF06EFC40460FF06BFCD5
:10A550000FF069FC0FF067FC0FF065FC50460FF040
:10A5600062FC48460FF05FFC30460FF05CFC0FF0D9
:10A570005AFC0FF058FC0FF056FC50460FF053FCFD
:10A580000FF051FC0FF04FFC0FF04DFC50460FF058
:10A590004AFC0FF048FC48460FF045FC0FF043FC26
:10A5A0000FF041FC0FF03FFC30460FF03CFC80EA1E
:10A5B000060530460FF037FC0FF035FC0FF033FC8A
:10A5C000454048460FF02FFC0FF02DFC80EA0906AD
:10A5D00048460FF028FC0FF026FC0FF024FC464004
:10A5E000754050460FF01FFC0FF01DFC0FF01BFCD8
:10A5F00080EA0A00454040460FF015FC06464046FA
:10A600000FF011FC0FF00FFC464040460FF00BFC22
:10A610000FF009FC0FF007FC4640DBF80000754026
:10A6200000EB8400641CC570042CFFF623AEBDE86B
:10A63000F09F0000442F00200D480068417B427AC3
:10A640004273427942724278427141708178827AD3
:10A65000827081728179827B82718173C178C279C3
:10A66000C270C27AC271C27BC272C17370470000ED
:10A67000442F002030B50949094C00200B68002107
:10A6800003EB8102491C155CC9B20429655D1554B0
:10A69000F6D3401CC0B20428F1D330BD442F0020B3
:10A6A00034C70300F0B52A4A2A4E0021526800BF81
:10A6B00012F8213006F8213002EB810306EB810409
:10A6C0005D7865709D78A570DB78491CE37004297E
:10A6D000EED339E006EB81028F0712F8043C12F842
:10A6E000035C63F3070012F8024C65F30F2012F8C5
:10A6F00001CC64F317406CF31F6013D1164F3C5D1F
:10A70000FB5C64F30F2017F80C407D5D64F3174089
:10A7100063F31F6007F5007303EB91031B785D4043
:10A7200065F3070012F8103D434006F821305378D6
:10A73000491C83EA10235374937883EA104393747B
:10A74000D37883EA1063D3742C29C3D3F0BD0000FF
:10A75000442F00202447002034C603002DE9F04395
:10A7600023480024D0F800C00CEB84071CF8241008
:10A770007E78BB7881EA0602FD784FEAD21883EA38
:10A78000050908EBC80882EA090008EB480888EACE
:10A79000420242404A400CF8242086EA03024FEA73
:10A7A000D21808EBC80808EB480888EA4202424081
:10A7B00056404FEAD91202EBC20202EB420282EA91
:10A7C00049024240534085EA0102D10901EBC1012F
:10A7D00001EB410181EA420141407E704D40641C21
:10A7E000BB70E4B2FD70042CBED3BDE8F083000062
:10A7F000442F00201CB57E228DF8002001228DF808
:10A8000001208DF8020000208DF804208DF803004F
:10A810008DF80510FF208DF806000721684600F02E
:10A8200001F81CBD0A4601460448054B92B2C01A05
:10A83000C008032303EB004009F038B9E0F403003B
:10A8400020F4030000F01F02012191404009800024
:10A8500000F1E020C0F88012704700F01F020121D3
:10A8600091404009800000F1E020C0F800117047DD
:10A8700000F01F02012191404009800000F1E0201A
:10A88000C0F8001270474907090E002806DA00F0E8
:10A890000F0000F1E02080F8141D704700F1E02067
:10A8A00080F80014704700007FB514460A46014640
:10A8B0001D4668460BF05AFD2246294668460BF0B5
:10A8C000A1F810B1002004B070BD039808B1014692
:10A8D00000E003A104A0FFF76FF81320F3E70000E6
:10A8E000286E6F6E6529000070624465636F646551
:10A8F0002025730A0000000030B514460A4685B0D2
:10A9000001461D4668460BF07BFD224629466846F7
:10A910000BF036FB10B1039805B030BD049808B1B8
:10A92000014600E002A104A0FFF746F81320F3E778
:10A93000286E6F6E652900007062456E636F6465F6
:10A940002025730A0000000070B54FF48076304671
:10A9500007F08EFE114CB50560B1304607F08FFE52
:10A960000120C5F80803607920B9012060712168D1
:10A97000002088474FF48276304607F079FE0028A1
:10A980000AD0304607F07BFE0220C5F80803216894
:10A99000BDE870400120084770BD0000202E002057
:10A9A000064882B0002101600068009004480068F9
:10A9B0000449C0B2496802B00847000000D1004015
:10A9C00008D50040302E002007480021C0F8401173
:10A9D000C0F84411C0F84811C0F84C11C0F800117B
:10A9E000C0F804110EF042BC0010014010B508463A
:10A9F000082A02D0202A06D00AE00649CA6A026064
:10AA0000096B416004E0034920222C31FCF716FF5A
:10AA1000002010BD902B00200EF076BB09F0F0BC9A
:10AA2000F0B50A7800238726D70901240F228D5C10
:10AA30004FEAD51C43EA4503DDB28554634617B19E
:10AA4000754085540026521E641C102CEFDDF0BDAD
:10AA50000D480068417842794270427A4271427BE7
:10AA6000427241738178827A827081728179827BAD
:10AA700082718173C178C27BC270C27AC273C2799B
:10AA8000C272C17170470000442F002030B50949DF
:10AA9000094C00200B68002103EB8102491C155C66
:10AAA000C9B20429655D1554F6D3401CC0B2042810
:10AAB000F1D330BD442F002034C60300F0B5B548B3
:10AAC0000023021D0178101D01254FF08054062936
:10AAD0000BD11678360708D10678C6F30316032E75
:10AAE00006D0042E04D0052E02D0062907D00EE091
:10AAF000B4F82463A84FC6F304263E6002E016783B
:10AB0000360704D10678C6F30316032E02D00629B1
:10AB100004D00FE0A24FA14E7E670EE016783607F4
:10AB200008D10678C6F30316032E06D0042E04D0EF
:10AB3000052E02D0062907D00EE0D4F84462994FC2
:10AB4000C6F342363E6002E01678360704D1067836
:10AB5000C6F30316032E02D0062906D011E0924E4A
:10AB6000376827F0807737600EE01678360708D10F
:10AB70000678C6F30316032E06D0042E04D0052E45
:10AB800002D006290AD011E04FF08046C6F80C31F9
:10AB9000C6F81031834E361F336002E01678360750
:10ABA00004D10678C6F30316032E02D0062905D079
:10ABB0000CE07C4F032664373E600AE016783607C7
:10ABC00004D10678C6F30316032E02D006290DD051
:10ABD00014E0764F05263E60744E78363560734E2D
:10ABE000083633603F263F1D3E6002E01678360788
:10ABF00004D10678C6F30316052E02D0062957D0D5
:10AC000062E06B4E36686B4F3E60694E361D3668AB
:10AC10003F1D3E60664E083636683F1D3E60644EFE
:10AC20000C3636683F1D3E60614E103636683F1D5B
:10AC30003E605F4E143636683F1D3E605C4E1836EF
:10AC400036685C4F20373E60594E1C3636683F1DD3
:10AC50003E60574E203636683F1D3E60544E2436C7
:10AC600036683F1D3E60524E283636683F1D3E60B6
:10AC70004F4E2C3636683F1D3E604D4E303636689E
:10AC80004C4F40373E604A4E343636683F1D3E607A
:10AC9000474E383636683F1D3E60454E3C36366876
:10ACA0003F1D3E60424E403636683F1D3E6002E02A
:10ACB0001678360708D10678C6F30316032E06D099
:10ACC000042E04D0052E02D0062907D019E0D4F8AE
:10ACD0005812394A01F04F01116002E0117809075A
:10ACE0000FD10078C0F30310032803D0042801D04B
:10ACF000052806D131480168C90702D06FF001016B
:10AD00000160D4F83001062808D1D4F834010628AF
:10AD100004D12B48016841F48061016022487438F5
:10AD2000016841F470010160BFF34F8FBFF36F8F73
:10AD30004FF01021D1F80002002803DBD1F8040203
:10AD4000002822DA1F4A15601F480468002CFCD036
:10AD50001524C1F800420568002DFCD0C1F804425A
:10AD600001680029FCD0136001680029FCD0BFF302
:10AD70004F8F0D48F0380168144A01F4E061114327
:10AD80000160BFF34F8F00BFFDE712491048086014
:10AD9000F0BD0000E00F00F0403501400DF0ADBA0D
:10ADA00000C007403C050040FCED00E010560040AC
:10ADB0000404001020C50040E40E004000040040E0
:10ADC0003C17004004E5014000E401400400FA059E
:10ADD0000090D003502F0020014800680047000079
:10ADE000282E0020064A10B592680021435C545C6E
:10ADF00063404354491CC9B21029F7D310BD000069
:10AE0000442F002002E008C8121F08C1002AFAD10E
:10AE100070477047002001E001C1121F002AFBD1DA
:10AE2000704700000121202803DA814005480140D5
:10AE300003E0402802DA2038814009B10120704740
:10AE400000207047FC06FFBD2DE9F843804643F221
:10AE5000020659B969460CF01DF8B04202D008B19B
:10AE600000F0BAF99DF80000800744D40021404664
:10AE70000CF04CF805003ED0112D3CD01F48204965
:10AE8000401AC708022000EB07440D2D0AD00B2DF5
:10AE90001DD0B5421FD11B4920464246BDE8F843AC
:10AEA00008F05CBE20464246174908F057FE1321C1
:10AEB000404676DF00281ED009F034FB024601B080
:10AEC00020464346BDE8F04310A108F04EBE2046A0
:10AED00042461C49E2E7284609F024FB02460120CD
:10AEE00000EB0740434618A108F03FFE2846BDE8A6
:10AEF000F84300F071B9BDE8F883000068F403007E
:10AF000020F40300F0DB03007CDB030073645F626A
:10AF10006C655F6761705F646973636F6E6E6563B4
:10AF20007428292072657475726E656420257320FB
:10AF30006F6E20636F6E6E5F68616E646C65202556
:10AF4000642E00003CDC0300417373657274696E0B
:10AF5000672E20706D5F636F6E6E5F7365637572D1
:10AF60006528292072657475726E656420257320CA
:10AF70006F6E20636F6E6E5F68616E646C65202516
:10AF8000642E000010B560B159B102780B785208F8
:10AF9000B2EB530F05D10622401C491CFCF788FC7C
:10AFA00008B1002010BD012010BD800701D0002095
:10AFB000704701207047C3688B4206D8114400696E
:10AFC000491E814201D8012070470020704710B50A
:10AFD00001220221002002F0BBF808B1072810D19D
:10AFE00007220221012002F0B3F808B1072808D196
:10AFF00000210A22084602F0ABF808B1072800D168
:10B00000002010BD10B560B10B480C49401AC008B3
:10B01000032101EB00400AA108F09CFD0CF0C2FCEA
:10B0200003E003210A4800F01EFF002803D0BDE81A
:10B03000104000F0D1B810BDE0F4030020F403008C
:10B04000457261736520626F6E64732100000000B9
:10B05000D030002070B58CB015460E4600236C46EB
:10B06000C3F10F01415CE1545B1C102BF8D30D219F
:10B0700004F11000FCF70AFC0020C0F10F02315C63
:10B080002244401C11740328F7D3684646DF002091
:10B09000C0F10F01214491F820102954401C0328CD
:10B0A000F6D30CB070BD022001F05CBF0149C97835
:10B0B00001F038B9A82C002070B50024064D06E038
:10B0C0006868012110F8340009F090FA641C2878AF
:10B0D0008442F5D3002070BD382E0020F8B5154607
:10B0E0000C460646052A01D20720F8BD09F07AFB76
:10B0F00018B909F03FFB0028F7D1124900224E6031
:10B100000C708D60C1E90422C1E906220E4D0DE0EC
:10B1100006EBC4002968009181788DF80110007851
:10B120000A4A694609F0B4FA0028DED1641EE4B286
:10B13000EED2BDE8F84004480021054A001D00F0A9
:10B1400061B80000382E002000A10300A9F1020020
:10B15000E9E0020072B608F0BDFD00BF08F08CFB0C
:10B160000028FBD111481249401AC408012000EB05
:10B17000044010A108F0EEFC11480068C00700D0A0
:10B1800000BE022000EB04400EA108F0E3FCBFF378
:10B190004F8F0B48E43801680E4A01F4E061114317
:10B1A0000160BFF34F8F00BFFDE70000E0F4030034
:10B1B00020F40300466174616C206572726F720046
:10B1C000F0ED00E053797374656D207265736574FA
:10B1D000000000000400FA050EB500210091CDE941
:10B1E00001106A4644F20100FFF7B4FF0EBD401A99
:10B1F00020F07F4070470000014800687047000061
:10B2000004150140084B9B7823B12AB120B1006896
:10B21000037C1BB10820704707207047002303748C
:10B220004174426118467047403C002070B50CF0F4
:10B23000F5FF104800240B21047044700E4D8170FE
:10B2400014206C602C706C70FFF7FCFA062114203F
:10B25000FFF719FB1420FFF700FB084804600621E4
:10B260001120FFF710FB0548001F0068A8600020B0
:10B2700070BD0000403C0020582E00200815014001
:10B280002DE9FC47DFF8789099F8023073B368B382
:10B29000052902D20720BDE8FC87436933B3437C0C
:10B2A000012B25D0002704460025884616468DF838
:10B2B0000050684600F038F801A80EF0B3FAC8B1A3
:10B2C000012101700F4944600968C0E90218C0E912
:10B2D00004769DF8040089F801009DF8000000F054
:10B2E00047F81420FFF7C4FA2846D4E70820D2E72D
:10B2F0000F46D8E704259DF8000000F039F8F3E781
:10B30000403C0020041501400649897839B130B12C
:10B31000416921B10021017402210DF083BF082091
:10B3200070470000403C002030B5EFF3108172B64A
:10B330000D4A9468012324B10370002900D162B63C
:10B3400030BD93604FF0E023D3F88051074C254087
:10B350001560C3F88041D3F8844154605A17C3F88C
:10B36000842100220270E8E74C3D0020FC06FFBD6E
:10B370000B498A68002A11D000280FD1EFF3108002
:10B3800072B60B684FF0E022C2F800314B68C2F889
:10B39000043100228A60002800D162B670470000A4
:10B3A0004C3D002010B5144C00224FF48031206831
:10B3B000FFF766FF08B1FFF70FFF00224FF40041CF
:10B3C0006068FFF75DFF08B1FFF706FF002242F259
:10B3D0006661A068FFF754FF08B1FFF7FDFE002289
:10B3E0004FF42031E068FFF74BFF002803D0BDE8A1
:10B3F0001040FFF7F1BE10BD389E03002DE9F0416B
:10B40000064608680C46411C4FF0A0474FF0010566
:10B4100006D005FA00F1C7F80815206808F0F2F820
:10B420006068411C02D0002108F0DAF83168A06998
:10B43000C1F82405607D227D31681043C1F86C0598
:10B44000D4E900123068C0F81425C0F80C15207D2E
:10B45000012815D1A068411C02D0002108F0C0F8D5
:10B46000E068411C05D08540C7F80855E06808F041
:10B47000C9F8D4E902123068C0F80825C0F81015E0
:10B48000BDE8F0812DE9F041064608680C46411CF4
:10B490004FF0A0474FF0010506D005FA00F1C7F8BC
:10B4A0000815206808F0B8F86068411C02D0002137
:10B4B00008F09FF83168A069C1F82405607D217DFE
:10B4C00032680843C2F86C05D4E900123068C0F84D
:10B4D0000C15C0F81425207D012815D1A068411C49
:10B4E00002D0002108F085F8E068411C05D08540B5
:10B4F000C7F80855E06808F08FF8D4E90212306800
:10B50000C0F80825C0F81015BDE8F08105F0DEBBD5
:10B510002DE9FC5F04464FF008084FF00109694629
:10B5200004F098F802004F484F49A0EB01004FEAA1
:10B53000D0014FF0020000EB01450AD0104608F0A0
:10B54000F1FF024628462346484908F00EFBBDE8B5
:10B55000FC9FDFF81CB1DBF80000FFF7D5FE28B137
:10B5600008F0E0FF0246284642A177E0FFF744FEDC
:10B57000484E3168FFF73BFE00F066FA0446FFF7DD
:10B580003BFEDFF814A10027C6F8000007EB870098
:10B590000AEB8006B07C58B30622711C0DF1010045
:10B5A000FCF786F918BB307C4FF47A6101FA00F29F
:10B5B000B2F57A4F00DA401C307400228140C8177F
:10B5C000B260C20342EA5142C8034FF4FA71401814
:10B5D00042F100014FF47A720023FCF7EBF8F060BF
:10B5E000A04200D80446012070744FF0000900E02A
:10B5F000B8467F1C082FC9D3B9F1000F1FD0B8F18E
:10B60000080F18D208EB88010AEB8100009901604D
:10B61000BDF8041081809DF806108171002101742D
:10B6200081604FF40031C1608C4200D30C4601218F
:10B630004174817403E019A1284608F08BFA601C5C
:10B6400085D022461146DBF80000FFF719FE0028DE
:10B65000F6D008F067FF02461AA1284608F07EFAE5
:10B6600075E7000020F4030020F4030034D4030045
:10B670007C9E03006170705F74696D65725F7374A6
:10B680006F7028292072657475726E656420257349
:10B6900000000000F42B0020443400204E6F207383
:10B6A0007061636520746F20626C61636B6C697399
:10B6B0007420616E6F7468657220706565722049D0
:10B6C000440000006170705F74696D65725F73742F
:10B6D00061727428292072657475726E6564202504
:10B6E00073000000024A00210248FFF78BBD0000F2
:10B6F000D5B902007C9E03002DE9FC410446694651
:10B7000003F0A8FF70B108F00DFF0246124813497C
:10B710002346401AC008022101EB0040104908F0FE
:10B7200024FA11E00F4E00244FEA0D0704EB8400C9
:10B7300006EB8005A87C50B10622691C781CFCF73A
:10B74000B7F820B9687C10B10120BDE8FC81641C09
:10B75000082CEBD30020F8E720F4030020F40300CA
:10B7600034D40300443400202DE9F0478146058895
:10B770004A484FF000088AB001784246284600F057
:10B78000E9FD99F80500400701D4002176E005F5B0
:10B790008077B8B201AB012207210AF0EFFF040065
:10B7A0003F48404A4FF00101A0EB02004FEAD000B1
:10B7B00001EB00460AD0204608F0B4FE02463046AF
:10B7C0002B46394908F0D1F9214629E0284604F0F2
:10B7D00081F84FF6FF71044688422BD18A460298C1
:10B7E00003F0E2FF0446504510D00146284604F01D
:10B7F00051F82846FFF75AFCE0B928460CF02CFF18
:10B800002846FFF753FC0028BFD013E00BF082F965
:10B810000446504508D1304624A108F09BF9042184
:10B8200028460CF047FFB0E70146284604F032F8FE
:10B830004FF00108B8B2224607210BF017F80700B5
:10B840001BD0862F1ED008F06DFE024630462B46D8
:10B850002349009408F091F9394628460CF02AFF54
:10B860000021484609F054FEB8F1000F02D02046EE
:10B8700004F01AF80AB0BDE8F0870121484609F043
:10B8800047FEF7E71822174903A8FBF7D7FFADF8E3
:10B890000E5003A802F004FFEFE70000A82C0020E0
:10B8A00070F4030020F40300F4DE0300436F756CB2
:10B8B00064206E6F7420616C6C6F63617465206EC0
:10B8C000657720706565725F696420666F722069B4
:10B8D0006E636F6D696E6720626F6E642E0000008C
:10B8E00050DF0300D09F030070B5044690B0087B82
:10B8F0000D468DF83800202105A8FBF7C7FF42F65A
:10B900001920ADF814000120ADF81800ADF81A00A8
:10B910000EA80790617C9DF82100A21D61F3041020
:10B9200040F002008DF82100A87B8DF82700687B8D
:10B930008DF82500A08805A901F07CFE00281CD107
:10B94000A968E1B10FA801F03AFA06461421684649
:10B95000FBF79CFF42F60810ADF80000E87B8DF87D
:10B9600006000FA8ADF80A60ADF80E600490E088FC
:10B9700004F10E02694602F061FB10B070BD0020B8
:10B98000E081FAE710B50D490D480CF00AFFC1B28D
:10B990004FF6FE720B4800F07DFB00280DD0082802
:10B9A0000BD0132809D0112807D043F20141884257
:10B9B00003D0BDE81040FFF70FBC10BD28330020B6
:10B9C000982B00209C3000200A4601461046AEDF2E
:10B9D0007047000010B500F037F80446FFF70CFC84
:10B9E0000D490860601C16D00C48224611460068BC
:10B9F000FFF746FC00280ED008F094FD02460848E8
:10BA00000849BDE81040401AC008022101EB00407F
:10BA100005A108F0A3B810BDF42B00207C9E030004
:10BA200020F4030020F403006170705F74696D6599
:10BA3000725F737461727428292072657475726EF6
:10BA40006564202573000000F0B5044600221C4EFA
:10BA50004FF0FF3013464FF4A02500BF02EB8201E8
:10BA600006EB81018F7C27B34F7C7FB1CF68A74263
:10BA700005D93F1BCF6087421BD8384619E04B746D
:10BA80000F7CD7B1A84214D3284612E00F7CA7B18F
:10BA90008F6827448F60AF4206D30F7C7F1E0F74E0
:10BAA0008F68A7F5A0278F60C7F5A021814200D835
:10BAB0000846521C082AD1D3F0BD8B74F9E7000068
:10BAC000443400202DE9FC470025178806461580E0
:10BAD00090F82D001446894630B13A462146484632
