:020000040002F8
:1060000010900020C1630200C9630200CB6302004C
:10601000CD630200CF630200D163020000000000E4
:10602000000000000000000000000000D363020038
:10603000D563020000000000D7630200D9630200AC
:10604000D1A70200DB63020021AD0200DB63020086
:10605000DB630200DB630200D9990200DB6302000C
:10606000DB630200DB630200DB630200DB63020030
:10607000DB63020029A80200DB630200DB6302008D
:10608000DB63020051A80200DB630200DB63020055
:1060900061A90200DB63020065A90200DB63020064
:1060A000DB630200DB630200DB630200DB630200F0
:1060B000DB630200DB630200000000000000000060
:1060C000DB630200DB630200DB630200DB630200D0
:1060D000DB630200DB630200DB6302000000000000
:1060E00000000000000000000000000000000000B0
:1060F00000000000000000000000000000000000A0
:10610000000000000000000000000000000000008F
:10611000000000000000000000000000000000007F
:10612000000000000000000000000000000000006F
:10613000000000000000000000000000000000005F
:10614000000000000000000000000000000000004F
:10615000000000000000000000000000000000003F
:10616000000000000000000000000000000000002F
:10617000000000000000000000000000000000001F
:10618000000000000000000000000000000000000F
:1061900000000000000000000000000000000000FF
:1061A00000000000000000000000000000000000EF
:1061B00000000000000000000000000000000000DF
:1061C00000000000000000000000000000000000CF
:1061D00000000000000000000000000000000000BF
:1061E00000000000000000000000000000000000AF
:1061F000000000000000000000000000000000009F
:10620000DFF80CD001F088FB004800471D160300A2
:106210001090002030B450E8012F93B2C489234479
:106220008489A34228BF1B1B0489A34202BFBFF37A
:106230002F8F002007E0C3EA020340E80134002C5E
:10624000E9D14FF001000A6030BC704750E8012FDF
:10625000C2EA024240E801210029F7D1704730B478
:1062600050E8022F1FFAA2F3C488A34202BFBFF373
:106270002F8F00200DE0C48923448489A34228BFC6
:106280001B1BC2EA034340E80234002CE8D14FF064
:1062900001000A6030BC704750E8022FC2EA224277
:1062A00040E802210029F7D17047034653E8022F46
:1062B000D988B2EB324F4FF0000017BF92B241EADB
:1062C000014142EA014104E05A68B2EB324F08BF93
:1062D000012043E80212002AE8D1704730B4044696
:1062E00054E8000F0D4644E80053002BF8D1156028
:1062F00030BC704730B4044654E8000F40EA010552
:1063000044E80053002BF7D1156030BC704730B41F
:10631000044654E8000F00EA010544E80053002B4E
:10632000F7D1156030BC704730B4044654E8000F14
:1063300080EA010544E80053002BF7D1156030BC1A
:10634000704730B4044654E8000F00EB010544E800
:106350000053002BF7D1156030BC704730B40446B1
:1063600054E8000FA0EB010544E80053002BF7D1DF
:10637000156030BC704770B404464FF0000054E81C
:10638000006F0D68AE4207BF44E80023012044E8D7
:1063900000630E60002B1CBF0020F0E770BC70474C
:1063A00030B4044654E8000F88422CBF451A054615
:1063B00044E80053002BF5D1156030BC7047000055
:1063C0000648804706480047FEE7FEE7FEE7FEE78F
:1063D000FEE7FEE7FEE7FEE7FEE7FEE705AA0200AE
:1063E0000162020030B44FF0000310F8014B11F8C5
:1063F000015B013A84EA050443EA0403F5D1A3F101
:1064000001034FEAD37030BC70474FF0000310F81F
:10641000012B013943EA0203F9D1A3F101034FEA49
:10642000D37070472DE9F00791E8F807B2E8021041
:106430005B1854EB0C04B2E802104D4156EB0C060D
:10644000B2E802104F4158EB0C08B2E8021059EBC9
:1064500001095AEB0C0A4FF0260261EB010122EA16
:1064600001015B1854F1000455F1000556F10006D6
:1064700057F1000758F1000859F100095AF1000AD4
:1064800061EB010122EA01010B4480E8F807BDE855
:10649000F00770472DE9F00791E8F807B2E802101D
:1064A0005B1A74EB0C04B2E802108D4176EB0C061B
:1064B000B2E802108F4178EB0C08B2E8021079EBD9
:1064C00001097AEB0C0A4FF0260261EB010102EAA6
:1064D00001015B1A74F1000475F1000576F1000604
:1064E00077F1000778F1000879F100097AF1000AE4
:1064F00061EB010102EA0101A3EB010380E8F80767
:10650000BDE8F00770470A462DE9F04F92E8F00F1A
:106510002DE9F30F87B091E839000999A0FB0178C4
:106520004FF00009E3FB01894FF0000AE4FB019AF8
:106530004FF0000BE5FB01AB0D994FF0000CE0FBB9
:1065400001BC4FF0000EE3FB01CE4FF00002E4FB74
:1065500001E24FF00006E5FB012600970A994FF093
:106560000007E0FB018719EB07094FF0000747EB35
:106570000707E3FB01971AEB070A4FF0000747EB09
:106580000707E4FB01A71BEB070B4FF0000747EBE6
:106590000707E5FB01B70E991CEB070C4FF000074E
:1065A00047EB0707E0FB01C71EEB070E4FF00007A4
:1065B00047EB0707E3FB01E7D2194FF0000747EB72
:1065C0000707E4FB0127F6194FF0000747EB070721
:1065D000E5FB0167CDF804800B994FF00008E0FB64
:1065E00001981AEB080A4FF0000848EB0808E3FB93
:1065F00001A81BEB080B4FF0000848EB0808E4FB70
:1066000001B81CEB080C4FF0000848EB0808E5FB4C
:1066100001C80F991EEB080E4FF0000848EB080860
:10662000E0FB01E812EB08024FF0000848EB080815
:10663000E3FB012816EB08064FF0000848EB0808BA
:10664000E4FB016817EB08074FF0000848EB080867
:10665000E5FB0178CDF808900C994FF00009E0FBBC
:1066600001A91BEB090B4FF0000949EB0909E3FBFA
:1066700001B91CEB090C4FF0000949EB0909E4FBD7
:1066800001C91EEB090E4FF0000949EB0909E5FBB2
:1066900001E9109912EB09024FF0000949EB0909D1
:1066A000E0FB012916EB09064FF0000949EB090947
:1066B000E3FB016917EB09074FF0000949EB0909F2
:1066C000E4FB017918EB09084FF0000949EB0909CF
:1066D000E5FB0189CDF80CA0089901F1100191E8C2
:1066E000390009994FF0000AE0FB01BA1CEB0A0CD3
:1066F0004FF0000A4AEB0A0AE3FB01CA1EEB0A0E3E
:106700004FF0000A4AEB0A0AE4FB01EA12EB0A0224
:106710004FF0000A4AEB0A0AE5FB012A0D9916EB35
:106720000A064FF0000A4AEB0A0AE0FB016A17EB7F
:106730000A074FF0000A4AEB0A0AE3FB017A18EB5A
:106740000A084FF0000A4AEB0A0AE4FB018A19EB37
:106750000A094FF0000A4AEB0A0AE5FB019ACDF854
:1067600010B00A994FF0000BE0FB01CB1EEB0B0EB3
:106770004FF0000B4BEB0B0BE3FB01EB12EB0B02AF
:106780004FF0000B4BEB0B0BE4FB012B16EB0B0656
:106790004FF0000B4BEB0B0BE5FB016B0E9917EB6E
:1067A0000B074FF0000B4BEB0B0BE0FB017B18EBE7
:1067B0000B084FF0000B4BEB0B0BE3FB018B19EBC2
:1067C0000B094FF0000B4BEB0B0BE4FB019B1AEB9F
:1067D0000B0A4FF0000B4BEB0B0BE5FB01ABCDF8BD
:1067E00014C00B994FF0000CE0FB01EC12EB0C0213
:1067F0004FF0000C4CEB0C0CE3FB012C16EB0C06E1
:106800004FF0000C4CEB0C0CE4FB016C17EB0C078D
:106810004FF0000C4CEB0C0CE5FB017C0F9918EBD6
:106820000C084FF0000C4CEB0C0CE0FB018C19EB4E
:106830000C094FF0000C4CEB0C0CE3FB019C1AEB29
:106840000C0A4FF0000C4CEB0C0CE4FB01AC1BEB06
:106850000C0B4FF0000C4CEB0C0CE5FB01BCCDF825
:1068600018E00C994FF0000EE0FB012E16EB0E061F
:106870004FF0000E4EEB0E0EE3FB016E17EB0E0712
:106880004FF0000E4EEB0E0EE4FB017E18EB0E08EF
:106890004FF0000E4EEB0E0EE5FB018E109919EB3A
:1068A0000E094FF0000E4EEB0E0EE0FB019E1AEBB0
:1068B0000E0A4FF0000E4EEB0E0EE3FB01AE1BEB8B
:1068C0000E0B4FF0000E4EEB0E0EE4FB01BE1CEB68
:1068D0000E0C4FF0000E4EEB0E0EE5FB01CE4FF00E
:1068E0002601DDE900344FF00000E6FB01302418FA
:1068F0004FF0000040EB0000E7FB0140DDE90256ED
:106900002D184FF0000040EB0000E8FB0150361856
:106910004FF0000040EB0000E9FB0160DDE9048975
:1069200018EB00084FF0000040EB0000EAFB01808C
:1069300019EB00094FF0000040EB0000EBFB019069
:10694000DDF818A01AEB000A4FF0000040EB000041
:10695000ECFB01A012184FF0000040EB0000EEFB32
:10696000012000FB01F01B1854F1000455F1000553
:1069700056F1000658F1000759F100085AF10009D4
:1069800052F1000A60EB000021EA0000034407987E
:1069900080E8F80711B0BDE8F08F2DE9F00791E825
:1069A000F0174EF6A1514FEA4101A4FB01234FF02D
:1069B0000004E5FB01344FF00005E6FB01454FF014
:1069C0000006E7FB01564FF00007E8FB01674FF0B8
:1069D0000008E9FB01784FF00009EAFB01894FF05C
:1069E000000AECFB019A4FF026010AFB01FA12EBB8
:1069F0000A0253F1000354F1000455F1000556F169
:106A0000000657F1000758F1000859F100096AEB38
:106A10000A0A21EA0A010A4480E8FC03BDE8F007FB
:106A200070472DE9F00390E8F8134FEAEC7202F09A
:106A300013022CF0004C02F11301591854F100011B
:106A400055F1000156F1000157F1000158F1000124
:106A500059F100015CF100014FEAE17101F013010D
:106A600011445B1854F1000455F1000556F100067D
:106A700057F1000758F1000859F100094CF1000CDA
:106A80002CF0004C80E8F813BDE8F003704700BF1D
:106A90002DE9F00791E8F807B2E802105B1854EB13
:106AA0000C04B2E802104D4156EB0C06B2E802109D
:106AB0004F4158EB0C08B2E8021059EB01095AEBB0
:106AC0000C0A8941B3F1FF3374F1FF3475F1FF35DE
:106AD00076F1000677F1000778F1000879F10109F5
:106AE0007AF1FF3A51F100014A425B184C414D41A5
:106AF00056F1000657F1000758F1000859EB02095A
:106B00005AEB010A80E8F807BDE8F00770472DE965
:106B1000F00791E8F807B2E802105B1A74EB0C0476
:106B2000B2E802108D4176EB0C06B2E802108F41FC
:106B300078EB0C08B2E8021079EB01097AEB0C0A49
:106B400089414A425B184C414D4156F1000657F1CC
:106B5000000758F1000859EB02095AEB010A80E8D6
:106B6000F807BDE8F00770470A462DE9F04F92E8B4
:106B7000F00F2DE9F30F87B091E839000999A0FBD8
:106B800001784FF00009E3FB01894FF0000AE4FBB4
:106B9000019A4FF0000BE5FB01AB0D994FF0000C93
:106BA000E0FB01BC4FF0000EE3FB01CE4FF0000212
:106BB000E4FB01E24FF00006E5FB012600970A998D
:106BC0004FF00007E0FB018719EB07094FF00007C2
:106BD00047EB0707E3FB01971AEB070A4FF00007A3
:106BE00047EB0707E4FB01A71BEB070B4FF0000780
:106BF00047EB0707E5FB01B70E991CEB070C4FF0BD
:106C0000000747EB0707E0FB01C71EEB070E4FF03D
:106C1000000747EB0707E3FB01E7D2194FF0000736
:106C200047EB0707E4FB0127F6194FF0000747EB96
:106C30000707E5FB0167CDF804800B994FF00008CA
:106C4000E0FB01981AEB080A4FF0000848EB08082F
:106C5000E3FB01A81BEB080B4FF0000848EB08080A
:106C6000E4FB01B81CEB080C4FF0000848EB0808E7
:106C7000E5FB01C80F991EEB080E4FF0000848EB2A
:106C80000808E0FB01E812EB08024FF0000848EBAF
:106C90000808E3FB012816EB08064FF0000848EB54
:106CA0000808E4FB016817EB08074FF0000848EB01
:106CB0000808E5FB0178CDF808900C994FF0000921
:106CC000E0FB01A91BEB090B4FF0000949EB090997
:106CD000E3FB01B91CEB090C4FF0000949EB090972
:106CE000E4FB01C91EEB090E4FF0000949EB09094D
:106CF000E5FB01E9109912EB09024FF0000949EB9D
:106D00000909E0FB012916EB09064FF0000949EBE0
:106D10000909E3FB016917EB09074FF0000949EB8B
:106D20000909E4FB017918EB09084FF0000949EB68
:106D30000909E5FB0189CDF80CA0089901F11001C2
:106D400091E8390009994FF0000AE0FB01BA1CEB09
:106D50000A0C4FF0000A4AEB0A0AE3FB01CA1EEBD9
:106D60000A0E4FF0000A4AEB0A0AE4FB01EA12EBB2
:106D70000A024FF0000A4AEB0A0AE5FB012A0D99C4
:106D800016EB0A064FF0000A4AEB0A0AE0FB016A1A
:106D900017EB0A074FF0000A4AEB0A0AE3FB017AF5
:106DA00018EB0A084FF0000A4AEB0A0AE4FB018AD2
:106DB00019EB0A094FF0000A4AEB0A0AE5FB019AAF
:106DC000CDF810B00A994FF0000BE0FB01CB1EEBA1
:106DD0000B0E4FF0000B4BEB0B0BE3FB01EB12EB3D
:106DE0000B024FF0000B4BEB0B0BE4FB012B16EBF4
:106DF0000B064FF0000B4BEB0B0BE5FB016B0E99F9
:106E000017EB0B074FF0000B4BEB0B0BE0FB017B81
:106E100018EB0B084FF0000B4BEB0B0BE3FB018B5C
:106E200019EB0B094FF0000B4BEB0B0BE4FB019B39
:106E30001AEB0B0A4FF0000B4BEB0B0BE5FB01AB16
:106E4000CDF814C00B994FF0000CE0FB01EC12EBF5
:106E50000C024FF0000C4CEB0C0CE3FB012C16EB7E
:106E60000C064FF0000C4CEB0C0CE4FB016C17EB28
:106E70000C074FF0000C4CEB0C0CE5FB017C0F9960
:106E800018EB0C084FF0000C4CEB0C0CE0FB018CE9
:106E900019EB0C094FF0000C4CEB0C0CE3FB019CC4
:106EA0001AEB0C0A4FF0000C4CEB0C0CE4FB01ACA1
:106EB0001BEB0C0B4FF0000C4CEB0C0CE5FB01BC7E
:106EC000CDF818E00C994FF0000EE0FB012E16EB08
:106ED0000E064FF0000E4EEB0E0EE3FB016E17EBAD
:106EE0000E074FF0000E4EEB0E0EE4FB017E18EB8A
:106EF0000E084FF0000E4EEB0E0EE5FB018E1099C2
:106F000019EB0E094FF0000E4EEB0E0EE0FB019E4A
:106F10001AEB0E0A4FF0000E4EEB0E0EE3FB01AE25
:106F20001BEB0E0B4FF0000E4EEB0E0EE4FB01BE02
:106F30001CEB0E0C4FF0000E4EEB0E0EE5FB01CEDF
:106F4000DDE90434069913EB0A0354EB0B0451EB0F
:106F50000C0152EB0E02002040F1000013EB0B037A
:106F600054EB0C0451EB0E0152EB0E024641002093
:106F7000474158EB000859EB0A0940F10000B3EB18
:106F80000E0374F1000471F1000172EB0A0276EB5A
:106F90000B0677EB0C0778EB0A0879EB0C0960F12C
:106FA0000000B2EB0B0276EB0C0677EB0E0778EBEA
:106FB0000B0879EB0E0960F100005FEAE07C7FEAE4
:106FC0000C0CDCF1000EB3EB0C0374EB0C0471EB56
:106FD0000C0172F1000276F1000677F1000778EB00
:106FE0000E0879EB0C0960F100005FEAE07CDCF14F
:106FF000000E13EB0C0354EB0C0451EB0C0152F19B
:10700000000256F1000657F1000758EB0E0859EB45
:107010000C0940F100005FEAE07CDCF1000E13EBAC
:107020000C0354EB0C0451EB0C0152F1000256F12D
:10703000000657F1000758EB0E0859EB0C09DDE983
:1070400000ABDDE902CE1AEB060A5BEB070B5CEB4B
:10705000080C5EEB090E002040F100001AEB070A55
:107060005BEB080B5CEB090C5EEB090E4341002067
:1070700044414141724140F10000BAEB090A7BF101
:10708000000B7CF1000C7EEB060EBB4174EB080498
:10709000B14172EB080260F10000BEEB070E73EB2A
:1070A000080374EB0904B94172EB090260F10000B6
:1070B0005FEAE0787FEA0808D8F10009BAEB080A2D
:1070C0007BEB080B7CEB080C7EF1000E73F10003E8
:1070D00074F1000471EB090172EB080260F1000029
:1070E0005FEAE078D8F100091AEB080A5BEB080BBD
:1070F0005CEB080C5EF1000E53F1000354F1000448
:1071000051EB090152EB080240F100005FEAE07820
:10711000D8F100091AEB080A5BEB080B5CEB080CD2
:107120005EF1000E53F1000354F1000451EB09012C
:1071300052EB08020798A0E8005C18C080E806003F
:1071400011B0BDE8F08F00BF70B491E87800B2E8EC
:1071500002105B1854EB0C04B2E802104D4156EBE0
:107160000C0680E878008041013070BC70472DE942
:10717000F00791E8F807B2E802105B1854EB0C0432
:10718000B2E802104D4156EB0C06B2E802104F4136
:1071900058EB0C08B2E8021059EB01095AEB0C0A43
:1071A00080E8F80780410130BDE8F00770472DE91D
:1071B000F00791E8F807B2E802105B1A74EB0C04D0
:1071C000B2E802108D4176EB0C06B2E802108F4156
:1071D00078EB0C08B2E8021079EB01097AEB0C0AA3
:1071E00080E8F80780414042BDE8F00770472DE98C
:1071F000F007524290E87800B1E880071740DB19A9
:1072000018EA020854EB080419EA020955EB0905CB
:107210001AEA020A56EB0A0678C090E87800B1E84C
:10722000800717407B4118EA020854EB080419EA6A
:10723000020955EB09051AEA020A56EB0A0678C05C
:1072400080410130BDE8F00770472DE9F007524258
:1072500090E87800B1E880071740DB1B18EA0208C5
:1072600074EB080419EA020975EB09051AEA020A27
:1072700076EB0A0678C090E87800B1E880071740FE
:10728000BB4118EA020874EB080419EA020975EB1D
:1072900009051AEA020A76EB0A0678C080414042E4
:1072A000BDE8F007704790E8300091E8C000A31BEC
:1072B0001340E41AF618EB1B1340ED1AFF1830C008
:1072C000C0C17047F0B55242FFF7EDFFFFF7EBFF8B
:1072D000FFF7E9FFFFF7E7FFF0BD2DE9F0073AC937
:1072E0001668A1FB069A4FF0000CE3FB06AC4FF0CA
:1072F0000007E4FB06C74FF00008E5FB067840F8FE
:10730000049B56684FF00009E1FB06A91CEB090C31
:107310004FF0000949EB0909E3FB06C917EB090720
:107320004FF0000949EB0909E4FB067918EB09085D
:107330004FF0000949EB0909E5FB068940F804AB69
:1073400096684FF0000AE1FB06CA17EB0A074FF0F8
:10735000000A4AEB0A0AE3FB067A18EB0A084FF028
:10736000000A4AEB0A0AE4FB068A19EB0A094FF005
:10737000000A4AEB0A0AE5FB069A40F804CBD668F5
:107380004FF0000CE1FB067C18EB0C084FF0000CF2
:107390004CEB0C0CE3FB068C19EB0C094FF0000CCA
:1073A0004CEB0C0CE4FB069C1AEB0C0A4FF0000CA7
:1073B0004CEB0C0CE5FB06AC80E88017BDE8F00751
:1073C00070470A462DE9F04F92E8F00F2DE9F30FD0
:1073D00087B091E839000999A0FB01784FF00009C6
:1073E000E3FB01894FF0000AE4FB019A4FF0000B28
:1073F000E5FB01AB0D994FF0000CE0FB01BC4FF039
:10740000000EE3FB01CE4FF00002E4FB01E24FF07F
:107410000006E5FB012600970A994FF00007E0FB04
:10742000018719EB07094FF0000747EB0707E3FB5C
:1074300001971AEB070A4FF0000747EB0707E4FB39
:1074400001A71BEB070B4FF0000747EB0707E5FB16
:1074500001B70E991CEB070C4FF0000747EB07072D
:10746000E0FB01C71EEB070E4FF0000747EB0707D5
:10747000E3FB01E7D2194FF0000747EB0707E4FBF6
:107480000127F6194FF0000747EB0707E5FB0167F7
:10749000CDF804800B994FF00008E0FB01981AEB3F
:1074A000080A4FF0000848EB0808E3FB01A81BEBB3
:1074B000080B4FF0000848EB0808E4FB01B81CEB90
:1074C000080C4FF0000848EB0808E5FB01C80F99CD
:1074D0001EEB080E4FF0000848EB0808E0FB01E83F
:1074E00012EB08024FF0000848EB0808E3FB012804
:1074F00016EB08064FF0000848EB0808E4FB0168AB
:1075000017EB08074FF0000848EB0808E5FB017887
:10751000CDF808900C994FF00009E0FB01A91BEB96
:10752000090B4FF0000949EB0909E3FB01B91CEB1A
:10753000090C4FF0000949EB0909E4FB01C91EEBF6
:10754000090E4FF0000949EB0909E5FB01E9109923
:1075500012EB09024FF0000949EB0909E0FB012990
:1075600016EB09064FF0000949EB0909E3FB016935
:1075700017EB09074FF0000949EB0909E4FB017912
:1075800018EB09084FF0000949EB0909E5FB0189EF
:10759000CDF80CA0089901F1100191E83900099982
:1075A0004FF0000AE0FB01BA1CEB0A0C4FF0000A96
:1075B0004AEB0A0AE3FB01CA1EEB0A0E4FF0000A6F
:1075C0004AEB0A0AE4FB01EA12EB0A024FF0000A56
:1075D0004AEB0A0AE5FB012A0D9916EB0A064FF061
:1075E000000A4AEB0A0AE0FB016A17EB0A074FF0B0
:1075F000000A4AEB0A0AE3FB017A18EB0A084FF08B
:10760000000A4AEB0A0AE4FB018A19EB0A094FF067
:10761000000A4AEB0A0AE5FB019ACDF810B00A9974
:107620004FF0000BE0FB01CB1EEB0B0E4FF0000BFD
:107630004BEB0B0BE3FB01EB12EB0B024FF0000BE0
:107640004BEB0B0BE4FB012B16EB0B064FF0000B87
:107650004BEB0B0BE5FB016B0E9917EB0B074FF098
:10766000000B4BEB0B0BE0FB017B18EB0B084FF017
:10767000000B4BEB0B0BE3FB018B19EB0B094FF0F2
:10768000000B4BEB0B0BE4FB019B1AEB0B0A4FF0CF
:10769000000B4BEB0B0BE5FB01ABCDF814C00B99CA
:1076A0004FF0000CE0FB01EC12EB0C024FF0000C71
:1076B0004CEB0C0CE3FB012C16EB0C064FF0000C12
:1076C0004CEB0C0CE4FB016C17EB0C074FF0000CBF
:1076D0004CEB0C0CE5FB017C0F9918EB0C084FF000
:1076E000000C4CEB0C0CE0FB018C19EB0C094FF07F
:1076F000000C4CEB0C0CE3FB019C1AEB0C0A4FF05A
:10770000000C4CEB0C0CE4FB01AC1BEB0C0B4FF036
:10771000000C4CEB0C0CE5FB01BCCDF818E00C990F
:107720004FF0000EE0FB012E16EB0E064FF0000EA0
:107730004EEB0E0EE3FB016E17EB0E074FF0000E43
:107740004EEB0E0EE4FB017E18EB0E084FF0000E20
:107750004EEB0E0EE5FB018E109919EB0E094FF062
:10776000000E4EEB0E0EE0FB019E1AEB0E0A4FF0E0
:10777000000E4EEB0E0EE3FB01AE1BEB0E0B4FF0BB
:10778000000E4EEB0E0EE4FB01BE1CEB0E0C4FF098
:10779000000E4EEB0E0EE5FB01CE079800F11C012A
:1077A00081E8C45FBDE8F80380E8F8030AB0BDE8EB
:1077B000F08F00BF2DE9F05F0546002092469B4602
:1077C00088460646814640241BE0284641464746F7
:1077D000224600F091F853465A46C01A914110D300
:1077E00011461846224600F016F82D1A67EB0108DC
:1077F0004F4622460120002100F00DF817EB00094A
:107800004E41201EA4F10104DFDC484631462A46E1
:107810004346BDE8F09F202A04DB203A00FA02F13B
:10782000002070479140C2F1200320FA03F319436E
:10783000904070470048704788D6030010B5441A3E
:107840000346944209D28418114403E011F8013D23
:1078500004F8013D521EF9D210BD40EA0104A4070C
:1078600003D009E010C9121F10C3042AFAD203E0A2
:1078700011F8014B03F8014B521EF9D210BDD2B2E0
:1078800001E000F8012B491EFBD270470022F6E709
:1078900010B513460A4604461946FFF7F0FF204686
:1078A00010BD421C10F8011B0029FBD1801A704743
:1078B00030B504460020034600E05B1C934203D22F
:1078C000E05CCD5C401BF8D030BD034611F8012BC5
:1078D00000F8012B002AF9D11846704710B548432B
:1078E000044609F0A1FF002805D00021002C02D099
:1078F000641E0155FAE710BD202A04DB203A21FA64
:1079000002F00021704721FA02F3D040C2F12002B8
:107910009140084319467047064C074D06E0E06861
:1079200040F0010394E8070098471034AC42F6D3C6
:10793000FEF76AFC40F8030060F8030070B58C188D
:1079400010F8015B15F0070301D110F8013B2A1173
:1079500006D110F8012B03E010F8016B01F8016B60
:107960005B1EF9D12B0705D40023521E0DD401F85C
:10797000013BFAE710F8013BCB1A921C03E013F825
:10798000015B01F8015B521EF9D5A142D8D300205A
:1079900070BD00002DE9F047CA17A0B0064600F1FF
:1079A00020098C180F46544001464A46684606F1A5
:1079B000400A06F16008FEF7A7FD5146424608A8B6
:1079C000FEF7A2FD651E5246494610A8FEF79CFD33
:1079D000ED174246314618A8FEF796FDED43064ADC
:1079E0002C40FB0F6946304602EB841200F0B2F8DF
:1079F00020B0BDE8F08700BF60F103002DE9F0473B
:107A0000CA17A0B0054600F1200A8C180F46544052
:107A100001465246684605F1400905F16008FEF747
:107A200073FD4946424608A8FEF76EFD661E4A46AB
:107A3000514610A8FEF768FDF6174246294618A8D9
:107A4000FEF762FDF6430834054A3440FB0F6946F1
:107A5000284602EB841200F07DF820B0BDE8F087E4
:107A600060F103002DE9F047CA17A0B0054600F108
:107A7000200A8C180F46544001465246684605F1CC
:107A8000400905F16008FEF73FFD4946424608A857
:107A9000FEF73AFD661E4A46514610A8FEF734FD31
:107AA000F6174246294618A8FEF72EFDF643103475
:107AB000054A3440FB0F6946284602EB841200F069
:107AC00049F820B0BDE8F08760F1030070B5A0B0C0
:107AD000044601F1200668460D46FEF714FD3146C6
:107AE00008A8FEF710FD05F1400110A8FEF70BFDF8
:107AF00010AA11461046FEF795FC694618A800F03A
:107B000091FB324629462046FEF78CFC2146204652
:107B1000FEF7F9FC6A4621462046FEF7BBFC04F15D
:107B2000400508AA21462046FEF7B4FC284608AACC
:107B300018A9FEF777FC10AA294604F12000FEF7E9
:107B4000A9FC08AA18A904F16000FEF7A3FC20B064
:107B500070BD00BF2DE9F0430D46A1B001F1200931
:107B60001646044649462A466846984606F12007C6
:107B7000FEF790FC49462A4608A8FEF753FC394612
:107B8000324610A8FEF786FC3946324618A8FEF7A2
:107B900049FC424618A910A8FFF794FB10AA6946B1
:107BA0006846FEF7B1FC08A918AA0846FEF7ACFC27
:107BB0003A46314610A8FEF7A7FC10A905F160026D
:107BC0000846FEF7A1FC10A90846144AFEF79CFCE3
:107BD00005F14002114618A8FEF724FC6A4608A9E0
:107BE0002046FEF757FC04F120056A4608A904F177
:107BF0006000FEF717FC4034284610AA18A9FEF7CB
:107C000049FC10AA18A92046FEF70CFC424629465A
:107C10002046FFF757FB21B0BDE8F083A0F7030033
:107C20002DE9F047CC7F0D78C0B00B4625F0070555
:107C300004F03F0493F8028049788DF8405044F0F6
:107C400040041D7F93F803C0D3F804E09F68D3F885
:107C500010A0DE688DF841108DF85F4011469C69D8
:107C60005A698DF842808DF85C5093F81D809B7F97
:107C70008DF843C081466D466846CDF844E01297C2
:107C8000CDF850A0159216948DF85D808DF85E3079
:107C9000139600F0A1FA0FCD18AC0FC495E80F00B1
:107CA00084E80F006846012100F0B2FA18AD08A878
:107CB000002100F0ADFA0FCD20AC0FC495E80F0005
:107CC00084E80F0028A8012100F0A2FA18AF0DF1F6
:107CD00040084FF0060A002417F8016D46FA0AF52D
:107CE00005F001056C40224620A96846FFF7EAFA34
:107CF000224628A908A8FFF7E5FA08AA694630A88D
:107D0000FEF790FB08AA10466946FEF7C3FB28AAB7
:107D100020A938A8FEF786FB28AA104620A9FEF75E
:107D2000B9FB38A9084608AAFEF7EEFB28A90846C1
:107D300030AAFEF7E9FB38AA28A920A8FEF772FBB3
:107D400028A938AA0846FEF7A5FB20A90846FEF791
:107D5000DAFB28A90846FEF7D6FB28A918AA084688
:107D6000FEF7D2FB30A90846FEF7CDFB08A938A8DC
:107D7000FEF7C9FB38AA30A96846FEF7C5FB30A953
:107D800038AA0846FEF786FB30A908A8FEF705FECC
:107D900008A9084638AAFEF745FB08A90AF1FF3AE8
:107DA00030AA0846FEF7B0FBBAF1FF3F2C4695D14A
:107DB00047454FF0070A8FD108A90846012200F075
:107DC00043FA08AA69466846FEF79EFB694648469C
:107DD00000F048FB40B0BDE8F08700BF014AFFF764
:107DE0001FBF00BF40EE030070B500F1200590B04A
:107DF0000E46044600F072FB06F12001284600F012
:107E00006DFB214608A8FEF7AFFE08A908460C4AFC
:107E1000FEF73EFE08A922460846FEF7A6FE08A980
:107E20000846084AFEF734FE29466846FEF79CFEDF
:107E3000694608A82022FEF7D5FA013810B070BDB7
:107E4000C0F70300E0F703002DE9F047B8B08A4619
:107E50008146114610A8514AFFF7A9F95049024638
:107E600010A8FFF7C4F9179F4C4900EAD77780465E
:107E7000C7F1010210A8FFF7BAF9179D524628A9C9
:107E800018A8ED4301F0CEF8ED0F20A9C5F10102CD
:107E9000084600F0FFFAC8F10108FE266A4618A954
:107EA00028A801F073F8731138AA02EB830306F0D7
:107EB0001F0253F8A04CD44004F0010465402A4648
:107EC00028A918A8FFF7FEF92A4630A920A8FFF72D
:107ED000F9F9013E28A918A800F0F2FF731C254605
:107EE000DCD1C4F1010208A820A900F0D3FA7D403A
:107EF0006A4618A928A801F049F828A92A4618A80E
:107F0000FFF7E0F92A4630A920A8FFF7DBF908A916
:107F10006A460846FEF729FE08A9084600F0F8FA66
:107F200008A909F120040AF120020846FEF71DFE07
:107F300020A908AA2046FEF718FE08AA18A9684634
:107F4000FEF713FE69466846FEF70EFE18AA69465C
:107F500008A8FEF70AFE21466846FEF705FE08AAB5
:107F600069461046FEF7D3FD08A90E4A6846FEF79B
:107F7000CEFD20462021FEF748FA08A943420246DA
:107F8000684643EA0808FFF79DF948466946064AED
:107F9000FEF7EBFD404638B0BDE8F08720F803005F
:107FA00020F10300E0F70300842E00200A46014977
:107FB000FFF74ABF60EE030000F05ABB38B5044635
:107FC0000D4600F055FB05F1200104F12000BDE84D
:107FD000384000F04DBB00BF30B5A9B0144605468F
:107FE000684600F0B7FB214618A8FFF7FDFE6A4679
:107FF00018A9044608A8FFF727FF08A90443284644
:10800000FFF7DAFF204629B030BD00BF30B599B088
:108010000546684600F09EFB694608A8FFF7C6FFC4
:1080200008A904462846FFF7C9FF204619B030BD0D
:1080300010B52022B0B004460DEB020000F0B4FBF6
:108040009DF83F309DF8202003F07F0343F040036C
:1080500022F0070208A968468DF83F308DF82020ED
:1080600000F020FB694618A800F028F818A920465F
:1080700000F002F830B010BD30B599B004460D469E
:1080800010A84031012200F0DFF810AA2946684606
:10809000FEF73AFA10AA05F1200108A8FEF734FA13
:1080A00008A9204600F0DEF9684600F0A9F8E37F51
:1080B00083EAC010E07719B030BD00BF2DE9F04170
:1080C000B0B00446684600F025FB9DF93F30414DB5
:1080D000DA1713445340012B03F110021346B8BFC3
:1080E000002305EB83150FCD27460FC70FCD0FC714
:1080F0000FCD0FC795E80F0004F1400687E80F0089
:108100003046012100F084F8E84604F120070DF123
:108110001505214610A8FFF7D9FC18AA10A920467A
:10812000FEF7F2F928AA20A93846FEF7EDF920AAB1
:1081300018A93046FEF7E8F9214610A8FFF7C6FC5B
:1081400018AA10A92046FEF7DFF928AA20A9384668
:10815000FEF7DAF920AA18A93046FEF7D5F921462C
:1081600010A8FFF7B3FC18AA10A92046FEF7CCF917
:1081700028AA20A93846FEF7C7F920AA18A9304630
:10818000FEF7C2F9214610A8FFF7A0FC15F9011D62
:1081900010A8FFF7FFFB95F9151010A8FFF72EFCAC
:1081A00095F92A1010A8FFF75DFC18AA10A920461F
:1081B000FEF7AAF928AA20A93846FEF7A5F920AAB1
:1081C00018A93046FEF7A0F9A845A2D130B0BDE805
:1081D000F08100BF60F103000B6803604B684360EF
:1081E0008B688360CB68C3600B6903614B69436133
:1081F0008B698361CB6923F00043C361704700BF83
:1082000010B50446FEF70DFC206800F0010010BD1B
:10821000002380E80A008360C360036143618361D7
:10822000C361704700B589B000230A4669460093D0
:108230000193029303930493059306930793FEF728
:1082400029F909B05DF804FBF0B5A1B00546684610
:1082500017460E46FEF757F9694618A8FEF753F978
:1082600018A90846FEF74FF9324618A908A8FEF7E4
:108270004BF96A4608A96846FEF746F9694618A808
:10828000FEF741F908AA104618A9FEF73DF908A91A
:1082900018A8FEF738F918A90846FEF734F918A906
:1082A0000846FEF730F918A90846FEF72CF918A978
:1082B0000846FEF728F908AA18A91046FEF724F97F
:1082C000022408A918A8FEF71EF918A90846FEF707
:1082D0001AF918A90846FEF716F918A90846FEF774
:1082E00012F918A90846FEF70EF9013C18A9E9D1C0
:1082F00010A808AAFEF708F9042410A918A8FEF788
:1083000002F918A90846FEF7FEF818A90846FEF774
:10831000FAF818A90846FEF7F6F818A90846FEF775
:10832000F2F8013C18A9E9D110AA0846FEF7ECF8CA
:10833000022418A90846FEF7E6F818A90846FEF731
:10834000E2F818A90846FEF7DEF818A90846FEF775
:10835000DAF818A90846FEF7D6F8013CE9D118A9C1
:1083600008AA10A8FEF7D0F80A2410A918A8FEF74A
:10837000CAF818A90846FEF7C6F818A90846FEF775
:10838000C2F818A90846FEF7BEF818A90846FEF775
:10839000BAF8013C18A9E9D110AA08A8FEF7B4F868
:1083A000142408A918A8FEF7AEF818A90846FEF785
:1083B000AAF818A90846FEF7A6F818A90846FEF775
:1083C000A2F818A90846FEF79EF8013C18A9E9D1C1
:1083D00008AA0846FEF798F80A2418A90846FEF7E6
:1083E00092F818A90846FEF78EF818A90846FEF775
:1083F0008AF818A90846FEF786F818A90846FEF775
:1084000082F8013CE9D118A9084610AAFEF77CF8C9
:1084100018A9084667B9FEF776F818A90846FEF7C6
:1084200072F8324618A92846FEF76EF821B0F0BD62
:10843000FEF769F818A90846FEF765F818A9084676
:10844000FEF761F818A90846FEF75DF818A9084676
:10845000FEF759F86A4618A92846FEF755F821B0E4
:10846000F0BD00BF38B50C4605460846FEF7D9FA00
:1084700023682B6063686B60A368AB60E368EB60A4
:1084800023692B6163696B61A369AB61E369EB618C
:1084900038BD00BF2DE9F0410D4606460F46904617
:1084A0000FCD34460FC495E80F0088B084E80F0064
:1084B00000233A466946684600930193029303936A
:1084C0000493059306930793FEF721FB4246694602
:1084D0003046FEF7F7FE08B0BDE8F0810B681BBA26
:1084E000C3614B681BBA83618B681BBA4361CB685D
:1084F0001BBA03610B691BBAC3604B691BBA83606B
:108500008B691BBA4360CB691BBA0360704700BF1D
:1085100070B598B00D46064610A8FEF725FB2A4612
:1085200010A96846FEF721FB694610A8FEF71CFB60
:1085300010A90846FEF718FB6A4610A908A8FEF71E
:1085400014FB08A910A8FEF70FFB10A90846FEF7B8
:108550000BFB10A90846FEF707FB10A90846FEF71B
:1085600003FB10A908AA0846FEF7FFFA10A908465F
:10857000FEF7FAFA10A90846FEF7F6FA10A96A46BD
:1085800008A8FEF7F2FA052408A910A8FEF7ECFAED
:1085900010A90846FEF7E8FA013C10A9F5D108AA8F
:1085A0000846FEF7E2FA052410A90846FEF7DCFAB1
:1085B00010A90846FEF7D8FA013CF5D110A908AA7F
:1085C0000846FEF7D2FA10A908A8FEF7CDFA08A9C6
:1085D0000846FEF7C9FA08A96A466846FEF7C5FAD2
:1085E0001024694610A8FEF7BFFA10A90846FEF746
:1085F000BBFA013C10A9F5D12A460846FEF7B5FAA8
:10860000402410A90846FEF7AFFA10A90846FEF765
:10861000ABFA013CF5D110A96A460846FEF7A5FA67
:10862000102410A90846FEF79FFA10A90846FEF785
:108630009BFA013CF5D110A96A460846FEF795FA67
:10864000102410A90846FEF78FFA10A90846FEF775
:108650008BFA013CF5D110A908AA0846FEF785FA65
:108660002A4610A93046FEF780FA18B070BD00BF48
:10867000CB691BBA03608B691BBA43604B691BBA99
:1086800083600B691BBAC360CB681BBA03618B683C
:108690001BBA43614B681BBA83610B681BBAC36189
:1086A000704700BFF0B50B4699B0DA69184D1492C7
:1086B00018A9120F04465F689E68186941F85C2D7E
:1086C000DA68D3F800E00E970F965F699E69109202
:1086D00000232A46119005A8CDF834E0179316938D
:1086E000159304930393029312971396FEF7F5FDE7
:1086F000019B05AA1B070DA920460C93FEF757FD09
:10870000E2692946D20F2046FEF771FD19B0F0BD8F
:1087100040F10300F0B40025471E2C462A46E3082A
:1087200014F0070F08BF51F8235005F00F0313444E
:1087300003F1080212090134D6B2A3EB06133F2C51
:108740004FEA151507F8013FE9D1354480F83F504D
:10875000F0BC704738B50B68114D1BBAC3614B684C
:108760001BBA83618B681BBA4361CB681BBA036178
:108770000B691BBAC3604B691BBA83608B691BBA58
:108780004360CB691BBA2A46036001460446FEF7E4
:108790000EFD294602462046BDE83840FEF727BDBB
:1087A00000F80300000000002DE9F04F0FF2B83B85
:1087B000DBE900ABEEA7D7E90067B3B0EEA5D5E9DA
:1087C0000045CDE900ABCDE902670FF2B43BDBE930
:1087D00000ABEDA7D7E90067CDE90445ECA5D5E9E5
:1087E0000045CDE906ABCDE908670FF2AC3BDBE90C
:1087F00000ABEBA7D7E90067CDE90A450024804626
:108800001546CDE90CABCDE90E6731923094002AC4
:1088100040F0798180238DF8403032ABC3F187037B
:1088200003F0030302224FF041094FF07A0E0124B6
:108830006E4610AF2046002B40F030817B2AAEEB15
:10884000030EC0F17A00AEF1040188BF0020890850
:10885000C01A013102284FEA810C0CD903EB09023E
:1088600000233244184601338B4242F8040BFAD3FA
:10887000F445644412D032A9631C214400227B2BAE
:1088800001F8882C0AD032A90B4402347B2C03F85F
:10889000882C03D032AB1C4404F8882C6A0B6B097B
:1088A00039466C0D30466E0FED008DF8BB608DF8CB
:1088B000BC408DF8BD208DF8BE308DF8BF5000F063
:1088C000F5FD04A80FC893FA83F9089B029D039C49
:1088D000009F019EC8F8189093FA83FE099BC8F880
:1088E00024E02DBA24BA00BA09BA12BA93FA83FC6A
:1088F000C8F80C50C8F808400A9D0B9CC8F8140032
:10890000C8F810100C980D99C8F81C200F9B0E9AEF
:10891000C8F820C03FBA36BA2DBA24BA00BA09BA8C
:1089200012BA1BBAC8F80470C8F80060C8F82C5016
:10893000C8F82840C8F83400C8F83010C8F83C20FF
:10894000C8F8383033B0BDE8F08F224610AF32A8F7
:1089500010440C7800F8884C501C83420CD932AC7F
:10896000204402324C7800F8884C934204D932A853
:108970000244897802F8881C32AA581C1A448021C3
:108980007028309302F8881C73D97F286BD832AADC
:108990001044991C0022802900F8882C63D032A84A
:1089A0000844D91C802900F8882C5CD032A80844DF
:1089B000191D802900F8882C55D032A80844591D6B
:1089C000802900F8882C4ED032A80844991D8029AF
:1089D00000F8882C47D032A80844D91D802900F817
:1089E000882C40D032A8084403F10801802900F8FF
:1089F000882C38D032A8084403F10901802900F8F6
:108A0000882C30D032AA501803F10A0100228029A4
:108A100000F8882C27D032A8084403F10B018029E4
:108A200000F8882C1FD032A8084403F10C018029DB
:108A300000F8882C17D032A8084403F10D018029D2
:108A400000F8882C0FD032A8084403F10E018029C9
:108A500000F8882C07D032A80144702B01F8882C2C
:108A600001D18DF8BF203946304600F01FFD7A282D
:108A70006CD800F1400906EB0901421C7B2AC1F1C8
:108A80000001C0F17B0301F0030188BF012399427B
:108A900028BF1946062B319D9E4659D832AC044456
:108AA0000021012B04F8881C4ED00DF1C80C944411
:108AB000022B02F101040CF8881C20D00DF1C80C27
:108AC000A444032B02F102040CF8881C17D00DF10A
:108AD000C80CA444042B02F103040CF8881C0ED02B
:108AE0000DF1C80CA444062B02F104040CF8881CF8
:108AF00005D10DF1C80CA444541D0CF8881C734515
:108B00007FF49CAECAE668460F4600F0E7FA291AE1
:108B10006E4603463944F0B1043880085D1E0130CA
:108B2000022D4FEA80027FF610AF10AFBE460D4611
:108B3000013455F804CB4EF804CB8442F8D39A4262
:108B400011447FF404AF17E71446D8E7319DA5E63A
:108B500004460B466EE632AF8022309007F8882D2F
:108B6000012086E7AFF3008008C9BCF367E6096A15
:108B70003BA7CA8485AE67BB2BF894FE72F36E3CAC
:108B8000F1361D5F3AF54FA5D182E6AD7F520E5109
:108B90001F6C3E2B8C68059B6BBD41FBABD9831FC3
:108BA00079217E1319CDE05B2DE9F04F9FB0A1F143
:108BB00008031C93D2E90E34CDE91634D2E90C3403
:108BC000CDE90234D2E90A34CDE90034D2E90634E1
:108BD000CDE91834D2E90234CDE90634D2E90434BF
:108BE000CDE9043400F18003D2E908ABD2E9008971
:108BF0001D9309909646014606E0CDE90689B246E6
:108C00008946BB4680461946F1E802451C9F0991FA
:108C10004FEA9A3242EA8B42F7E902010A924FEA9E
:108C20009A434FEA9B364FEA9B4243EA8B3346EA2C
:108C30008A4642EA8A320C930D924FEACB530B9646
:108C4000CDE91A0143EA5A22DDE90C011C974FEAEB
:108C5000CA53DDE90A670F9243EA5B220E9246404F
:108C60004F40DDE90E017040794006460F464FEA5D
:108C70001873DDE91A0143EA09124FEA8973109269
:108C800043EA9802001913924FEA887269414FEA49
:108C9000197342EA9902CDE91A0143EA0815DDE9A0
:108CA00000011292DDE902234FEA4964119544EA7A
:108CB000D81515954240DDE902454B40DDE91A0122
:108CC00003EA0B03801902EA0A0285EA03054FEA68
:108CD000486C79415440DDE906672B464CEAD915CA
:108CE00014952246DDE9044546EA080647EA0907E5
:108CF000121804EA060405EA07054B4126462F46EA
:108D0000DDE91001DDE912456040694004460D4689
:108D1000DDE914016040694004460D46DDE90601C5
:108D200000EA080001EA090130433943DDE916672A
:108D3000B6185F4132463B46DDE9186700196941C4
:108D4000B6185F4180185941DDE90023DDE902458D
:108D5000CEE90C23DDE90423CEE90E45CEE9062356
:108D6000CDE91645DDE90623DDE90445CEE9042316
:108D7000CDE90423CDE91845099B1D9ADDE900459D
:108D80009342CEE90AABCEE90289CEE90867CDE984
:108D90000245CEE90001CDE900AB7FF42EAF1FB054
:108DA000BDE8F08F2DE9F04F8FB0A0F108014FF032
:108DB000000E03917346AEF102020EF1010E02F0B5
:108DC0000F020EF00F0400EBC20600EBC40550F8D2
:108DD00034706D68746850F832604FEA172AF909E8
:108DE00000914FEAD64C4AEA056106914CEA4431BB
:108DF000089100994FEA550B41EA45614FEA152A5F
:108E000000914BEAC7717A0805914AEA0761039F0E
:108E10000791D7E902AB42EAC5724FEAD44C4CEA5B
:108E200046310492F700E20042EA56724FEA961881
:108E3000CDE90CAB0991DDE906AB47EA5471DDE9F8
:108E400004670B920A9186EA0A06E90987EA0B078A
:108E500048EA8468DDE90AAB4FEA9419DDE9084580
:108E6000019184EA0A0485EA0B05DDE900AB073BC2
:108E700003F00F038AEA060A8BEA070B00EBC30331
:108E8000D3E9002356465F46DDE90CAB1AEB020A34
:108E90004BEB030B84EA08041AEB06024BEB0703C7
:108EA0000399121985EA09056B41E1E90223BEF134
:108EB000100F03917FF47EAF0FB0BDE8F08F00BFBD
:108EC000F0B599B004460E460A4601466846FDF7DD
:108ED0001EFE69466846FDF747FE6A46214608A819
:108EE00006F1200504F12007FDF73FFE6A463146F2
:108EF0006846FDF73AFE39462A4610A8FDF7C8FD38
:108F00002A4639462846FDF702FE29463046FDF737
:108F10002BFE6A4608A92046FDF7BAFD22463146D7
:108F20003046FDF7F4FD6A4608A96846FDF7EFFDF7
:108F30006A4639463846FDF718FE324608A96846A3
:108F4000FDF7E5FD6A4629462846FDF70EFE3A463E
:108F500029462846FDF7DBFD10A96846FDF704FE0B
:108F6000224669462046FDF7D2FD08A9224608465A
:108F7000FDF7CDFD10A908AA0846FDF7F6FD3A4613
:108F800010A93846FDF7C3FD19B0F0BD2DE9F04139
:108F90000C4688B005469046014622466846FDF7D5
:108FA000B6FD69466846FDF7DFFD6A462946284654
:108FB00004F12006FDF7D9FD05F120076A46214698
:108FC0006846FDF7D2FD324630463946FDF79FFD33
:108FD00031462046FDF7C8FD2A4621462046FDF7CA
:108FE00096FD6A4621462046FDF791FD6A462946D0
:108FF0004046FDF78CFD424639463846FDF7B5FD43
:10900000224629466846FDF782FD6A4631463046CB
:10901000FDF7ABFD3A4631463046FDF778FD08B026
:10902000BDE8F0812DE9F04188B00D46074602F118
:109030002001684607F120069046FDF795FD6A4637
:1090400069466846FDF724FD30466946FDF78CFD0C
:1090500032463146304605F12004FDF719FD6A46D7
:1090600069466846FDF714FD20464146FDF77CFD44
:109070006A4641463846FDF778FD22462146684655
:10908000FDF706FD224669466846FDF701FD694683
:109090006846114AFDF7FCFC69462846FDF764FD69
:1090A0003A4629462846FDF732FD3A4629462846E3
:1090B000FDF72DFD2A4639462046FDF728FD6A4674
:1090C00021462046FDF751FD324621462046FDF758
:1090D0001EFD08B0BDE8F081C0F703002DE9F04F98
:1090E000E3B07F2A2F9240F2D981D0E90467CDE91D
:1090F0000067D0E90667CDE90267D0E90867CDE9E6
:109100000467D0E90A67CDE90667D0E90C678B46AA
:10911000D0E902451146CDE92C67D0E90023D0E91A
:109120000E67CDE90A23CDE90867CDE90C458146F4
:109130002E91DBF80000DBF80810DBF81060DBF89C
:109140000CA0DBF814C0DBF81CE0DBF834200BBA11
:1091500090FA80F8DBF81800DBF820100F9333BA90
:109160001193DBF8286003BA1393DBF830000BBAD5
:109170001593DBF8381033BA179303BA19930BBA67
:109180001B93DDE90A34CDE93234DDE90C340027E4
:10919000DBF82400DBF82C100E97CDE9343410975F
:1091A00012971497169718971A97DBF83C30DBF84C
:1091B0000460DDE90045CDE93645DDE90245CDE94C
:1091C0003845DDE90E459AFA8AFA44EA0A040DF5B3
:1091D000887ACAE90045DDE90445CDE93A45DDE98B
:1091E00010459CFA8CFC44EA0C040DF58C7CCCE90F
:1091F0000045DDE912459EFA8EFE44EA0E040DF5A7
:10920000907ECEE90045DDE90645CDE93C45DDE946
:10921000144500BA44EA00044AA8C0E90045DDE963
:10922000164509BA44EA01044CA9C1E90045DDE943
:109230002C01DDE91845CDE93E01DDE91A0112BA3C
:109240001BBA44EA020440EA0300DDE9082336BA07
:109250000DF5807ECEE9002347EA06024EAEC6E950
:10926000004550ACC4E90001434642A9C1E90023CE
:10927000DBF84030DBF844200C93DBF848A0DBF847
:10928000501000911BBA1D93009BDBF85800029010
:109290001BBA2193029BDBF8604004941BBA239312
:1092A000049BDBF8685006951BBA2593069BDBF8F8
:1092B000706008961BBA2793089BDBF878100A9118
:1092C0009AFA8AFA1BBADBF84C40DBF85450DBF808
:1092D0005C60DBF864E0DBF86CC0DBF87400DBF8A2
:1092E0007C10CDF87CA029930A9B1C971BBA2B936A
:1092F00094FA84FADDE91C3412BA43EA02031E9799
:1093000052AAC2E90034DDE91E34209743EA0A0379
:1093100054AAC2E90034DDE920342DBA43EA05033A
:10932000229756AAC2E90034DDE9223436BA43EA6C
:109330000603249758AAC2E90034DDE924349EFAD2
:109340008EFE43EA0E0326975AAAC2E90034DDE9ED
:1093500026349CFA8CFC43EA0C0328975CAAC2E9E9
:1093600000342A97DDE92834DDE92A5600BA43EAB9
:10937000000309BA5EAAC2E9003445EA010560AB00
:1093800032AA42A94748474CC3E90056FFF70CFCF4
:109390000BF1800B803442A8FFF704FD204632AA6F
:1093A00042A9FFF701FC404B9C42F3D1D9E90001EF
:1093B000DDE93223D9E90245CDE90045141843EB34
:1093C0000105D9E90A23DDE90001CDE90623DDE93C
:1093D00034238018594102460B46CDE90C23DDE9C0
:1093E0003601D9E9042312184B41CDE90A45CDE9EC
:1093F0000023D9E90601DDE93834C0186141CDE91F
:109400000201DDE93A34D9E90801C0186141CDE92A
:109410000401DDE90634DDE93C011B184C41184626
:10942000214640ABD9E90C45CDE90601D3E900015D
:10943000DDE93E23A4185D41D9E90E2312184B4102
:109440002E9ECDE90823DDE90A12803EC9E900120B
:109450002E96CDE92C45DDE90C23DDE90201C9E9B1
:109460000223C9E90601DDE90023DDE90401C9E9B8
:109470000423C9E90801DDE90823DDE906017F2E9F
:10948000C9E90A01C9E90C45C9E90E233FF651AE05
:109490002F9B03F07F0063B0BDE8F08F104663B0F0
:1094A000BDE8F08FA0EE0300A0F003002DE9F04F1F
:1094B0000E68D1F808C0D1F80C908D69D1F810E091
:1094C000D1F82080B5B0044633BA00200193009053
:1094D000DDE900AB9CFA8CF399FA89F94AEA0906AE
:1094E000C869D1F814C01F46CDE916672FBA4D6A76
:1094F0009EFA8EF300BA0026002246EA00069B463A
:109500002DBA98FA88F3D4E90089CDE91A679CFA54
:109510008CFC42EA05061F464AEA0C0A4868CDE977
:109520001C67DDE90067CDE918ABCDE90489D4E912
:1095300002ABD4E9068900BA46EA0006CDE9146711
:10954000CDE906ABD4E90467D4E908ABCDE90A89D3
:10955000D4E90C89CDE90867CDE90CABD4E90A67F9
:10956000D4E90EABCDE91089D1F82C908D6AD1F8F1
:1095700030C0886B0B6CD1F850E0D1F8588099FA64
:1095800089F9CDE90E6742EA0906D1F83490CDE9B0
:1095900012AB95FA85FB5F4699FA89F9CDE91E670A
:1095A00042EA0906D1F83C908D6CD1F870A09CFA83
:1095B0008CFB5F4699FA89F990FA80FBCDE9206728
:1095C0001BBA42EA09065F46CDE922671F464B6C8B
:1095D000D1F860C0886E16461BBA46EA03062BBA5D
:1095E000CDE924671F46CB6C8D6F002216461BBA4F
:1095F00046EA03069EFA8EF3CDE926671F464B6DB9
:10960000D1F85CE0002216461BBA46EA030698FA37
:1096100088F3DDE90089CDE928679EFA8EFE1F46B2
:1096200046464B6E46EA0E06CDE92A671BBA9CFAFF
:109630008CF748EA0308B94690FA80FCCDE92C89FA
:10964000C86ED1F874E0CB6F4FF0000B01BA4BEA53
:1096500001069AFA8AF2DDE900AB9EFA8EFE1BBA89
:1096600091463F482ABA4AEA0E0867464AEA030A80
:10967000934614A904AACDE92E670546CDE93089A1
:10968000CDE932ABFFF790FA05F50076803514A8E6
:10969000FFF788FB284604AA14A9FFF785FAB5420C
:1096A000F4D1D4E90001D4E90256DDE90423CDE97F
:1096B0000056161843EB0107DDE90689DDE90023B2
:1096C00012EB080243EB0903D4E904ABCDE9002314
:1096D000DDE9082312EB0A0243EB0B03DDE90A0183
:1096E00092469B46D4E9062312184B41D4E90889D7
:1096F000C4E90623DDE90C2312EB080243EB09035E
:10970000DDE90E0190469946D4E90A2312184B412F
:1097100010461946C4E90067DDE91023D4E90C5668
:10972000AD185E41CDE90256DDE90056D4E90E23BD
:10973000C4E90256DDE9126792197B4116461F46BD
:10974000DDE90223C4E90A010020C4E904ABC4E94D
:109750000889C4E90C23C4E90E6735B0BDE8F08F71
:10976000A0EE03002DE9F047DFF86880089D17465A
:109770000E46044602F00F091BB1C8F8043000F091
:10978000DFFE0DB1C8F80850002510E01022314668
:109790002046FEF753F8C8F8004000F097FC20463A
:1097A00001F0C4FA10341035C8F808601036BD4214
:1097B000ECD3B9F100000AD0024631462046FEF74C
:1097C0003DF8C8F80040BDE8F04700F07FBCBDE8B8
:1097D000F08700006C2E00202DE9F047174C089E02
:1097E00017468846054602F00F0913B1636000F082
:1097F000A7FE06B1A66000260FE0404601F096FAEB
:10980000102241462846FEF719F8256000F0C0F8FE
:10981000A560103508F110081036BE42EDD3B9F13D
:10982000000009D0024641462846FEF707F82560A9
:10983000BDE8F04700F0ACB8BDE8F0876C2E002022
:1098400070B514460D4601461A462046FDF7F6FF50
:109850000448C0E9004500F073FEBDE8704000F028
:1098600097B800006C2E0020F0B50D490D4E002277
:109870000C68002102EB800504EB820301EB850CF0
:109880005F5C16F80CC087EA0C075F54491CC9B22C
:109890000429F3D3521CD2B2042AEAD3F0BD00004B
:1098A0006C2E00205C4F00202DE9F04389B00C465F
:1098B000804620216846FDF7E9FF1E4F1BA01C498A
:1098C00020220668FB6889460020984718B10720C7
:1098D00009B0BDE8F083022000F030F905001BD08C
:1098E00015483969FDF7D2FF202249461248FDF795
:1098F000A5FF1148224641462030FDF79FFF0E4844
:109900006B46204404F1240206620B49284606F007
:1099100013FF18B10A20DBE70920D9E704489DE8C6
:109920001E002C3880E81E000020D1E70000000156
:10993000FC4E0020482E0020F84C00207CB5022070
:1099400000F0FCF8040013D00E4801690E48FDF742
:109950009DFF0D4D1020CDE9000505F50D7320226A
:10996000A3F18C01204606F0F7FE18B10B207CBD58
:1099700009207CBD95E81E00044880E81E000020F8
:109980007CBD0000482E0020F84C0020C04E002076
:1099900010B50020FFF768FF5FF0010401F01AF82E
:1099A00000F0FAFF00F028FE2046FFF75DFF641C80
:1099B000E4B20A2CF2D301F00DF800F0EDFFBDE89F
:1099C00010400A20FFF750BF7047002201E000F866
:1099D000012B491EFBD270472DE9F04700268AB0C3
:1099E000DFF85091B0464FF4807501243746069653
:1099F00028460AF0D7F938B1D9F80403204203D039
:109A000028460AF0C5F926432D1D64007F1CADB21F
:109A1000082FEDD34FF4BE7420460AF0C3F948B1C5
:109A200020460AF0B5F946F0004606AA01210020BA
:109A30000AF09AF9404D16F0FF0F15D001270024C7
:109A400037420DD009EB8401D1F81005D1F810157B
:109A5000C0F3042055F82420C1F3014102B190471E
:109A60007F00641C082CEBD3002E5FDA4FF0FF3030
:109A7000CDF8108054E0281910F8507F90F90000BC
:109A800027F0C008401C3BD007A9404608F0B5FEAF
:109A900010B34FEA9719404604F018F855F82070B3
:109AA0001FB1B9F1030F03D006E0B9F1030F27D1BD
:109AB00004A9404608F0A9FE4FF0A04101EB880040
:109AC000D0F8000706A9C0F3014A404608F095FE09
:109AD00018B1BAF1020F03D012E0BAF1030F0FD19F
:109AE000B9F1030F08D1BAF1020F1DD0022140468F
:109AF0000AF01EF9761CF6B217B149464046B8473F
:109B0000641C042CB7D3002E10D06A46012100201B
:109B10000AF02AF906990098884207D0069004981E
:109B2000002634460790A6E70321E0E70AB0BDE827
:109B3000F08700000060004064400020012803D04E
:109B4000022803D000207047014870470148704741
:109B5000ECD2030014D303002DE9FE4317468846D8
:109B60000446FFF7EBFE00281CD12A4800252A4EA8
:109B70008566C56605674567A0F5C0703169FDF764
:109B800085FE06F110002549CDE9001001F5F471BC
:109B90000295A1F120003B464246054606F0C6FB71
:109BA00010B10320BDE8FE831020CDE900501B4A10
:109BB000014602F51570336906F074FA08B10C20FD
:109BC000F0E7174B22461548316900F0B1FD28B97E
:109BD000A07F082802D1627B102A01D00220E1E791
:109BE0000C4904F10E00A431FDF762FE08B10D200E
:109BF000D8E7084922797C31601DFDF759FE08B18C
:109C00000E20CFE70349D4F880000C31C86600204D
:109C1000C8E70000784E0020482E0020F84C0020B5
:109C2000B8D4030019481A4938B5401AC1080320AE
:109C300000EB0140044617A10AF0F8FA06F0A2FC76
:109C40008DF80000012269464FF6F17003F022FB07
:109C50001649174806F0ACFD10B1204615A106E0E4
:109C6000124D0C3DE8681D28204603D01CA10AF0C7
:109C7000DDFA38BD21A10AF0D9FAA8890C4982B2CF
:109C80004FF6F27003F006FB38BD000038F9030010
:109C900078F8030048616E646C655F61637469768F
:109CA000652066756E6374696F6E00009C2B0020E2
:109CB0008835002048616E646C655F616374697605
:109CC000653A696E6765656B5F70756C6C5F696E30
:109CD000666F204E6F742053756363657373000065
:109CE00048616E646C655F6163746976653A6F752F
:109CF000746C656E20213D203239000048616E642D
:109D00006C655F6163746976653A696E6765656BFA
:109D10005F70756C6C5F696E666F20537563636509
:109D20007373000008B501231A4606F08DFD06F096
:109D300029FCC0B28DF80000022805D10122694635
:109D40004FF6F17003F0A6FA08BD00001148124961
:109D500010B5401AC108032000EB014004460FA1D2
:109D60000AF064FA06F00EFC0246FF280AD00AB197
:109D7000012A0DD1204612A10AF05CFABDE810407C
:109D8000FFF750BF2046BDE810400DA10AF052BABF
:109D900010BD000038F9030078F8030048616E64D4
:109DA0006C655F62726F6164636173742066756E67
:109DB0006374696F6E3D3D3D3D3D3D3D3D3D3D0024
:109DC00073746174757320257800000010B592B02B
:109DD00001224FF47A74521CA242FCDB6A4606F060
:109DE00001FB0220401CA042FCDB00980F49C2B2DC
:109DF0000D48401AC008032101EB00400CA10AF0F5
:109E000019FA0098C0B205F03FFF11AA294668462A
:109E100006F042FB1198294682B24FF6F57003F026
:109E200039FA12B010BD000038F9030078F80300C9
:109E30000A48616E646C655F636D645F636F6D6D2E
:109E4000616E643A202564200A00000010B506F017
:109E5000D1FD06F097FB024608480949401AC1089F
:109E6000032000EB0140044606A10AF0E3F9204676
:109E7000BDE8104006A10AF0D9B9000038F9030086
:109E800078F80300737461747573202578000000FE
:109E900048616E646C655F646973636F6E6E656361
:109EA000742066756E6374696F6E3D3D3D3D3D3D4A
:109EB0003D3D3D3D00000000F8B50D460646184802
:109EC0001849401AC108032000EB0140044616A1BE
:109ED0000AF0ACF92946304606F008FD020003D02E
:109EE000204617A10AF0A6F920461EA10AF09EF905
:109EF00006F048FB8DF80000012269464FF6F1702C
:109F000003F0C8F91D491E4806F052FC1B481C49C5
:109F10000C38808982B24FF6F27003F0BBF9F8BDBD
:109F200038F9030078F803006265666F72653A6974
:109F30006E6765656B5F707573685F696E666F00ED
:109F40006572726F722072657475726E202564205E
:109F50003A696E6765656B5F707573685F696E6699
:109F60006F00000061667465723A696E6765656BC3
:109F70005F707573685F696E666F00009C2B0020D0
:109F8000883500207CB50D46064606F0FBFA0246F1
:109F900019481A49401AC108032000EB0144184926
:109FA00020460AF047F92A4601AB1146304606F032
:109FB000D9FC0246204613490AF03CF906F0E2FAC1
:109FC0000246204610490AF035F920460FA10AF052
:109FD0002DF906F0D7FA8DF80000012269464FF6F8
:109FE000F17003F057F918481849008A82B24FF609
:109FF000F47003F04FF97CBD38F9030078F80300E2
:10A00000D8D603008CD6030044D703000A48616EFB
:10A01000646C655F73657373696F6E206973206F1D
:10A020006B202C696E6765656B5F707573685F7315
:10A03000657373696F6E2C707265706C795F6461A3
:10A0400074613A0A00000000902B0020A535002022
:10A050002DE9FF4104461B480025142106460395BF
:10A06000FDF714FC1122211D3046FDF7E7FB164ECB
:10A0700004F11900217EB36840220746984728B9A9
:10A0800000221121B368201D984718B1052004B0A3
:10A09000BDE8F0810B4803A914383A468566C566C9
:10A0A0000567456728308DE8230000F14001237ED5
:10A0B000201D06F03BF910B903992029E7D00320B1
:10A0C000E5E700008C4E0020482E002010B50A2045
:10A0D000FFF7CAFB5FF0090400F0FCF900F018FA82
:10A0E0002046FFF7C1FB00F00DF8641E14F0FF04DA
:10A0F000F2D100F0EFF900F00BFABDE810400020BB
:10A10000FFF7B2BB2DE9F05FDFF8C4B3002400BF56
:10A11000DBF8000010F8246000EB840090F8019058
:10A1200090F802A090F80380304610F0C2FB10F0C7
:10A13000C0FB10F0BEFB10F0BCFB404610F0B9FBBA
:10A14000504610F0B6FB484610F0B3FB10F0B1FBE0
:10A15000484610F0AEFB10F0ACFB10F0AAFB10F07C
:10A16000A8FB404610F0A5FB10F0A3FB10F0A1FBEC
:10A1700010F09FFB404610F09CFB10F09AFB5046FD
:10A1800010F097FB10F095FB10F093FB10F091FB93
:10A19000304610F08EFB0546304610F08AFB10F07A
:10A1A00088FB4540304610F084FB10F082FB10F035
:10A1B00080FB4540484610F07CFB80EA0907484692
:10A1C00010F077FB10F075FB10F073FB47407D40FB
:10A1D000504610F06EFB10F06CFB80EA0A07504608
:10A1E00010F067FB10F065FB10F063FB47407D400B
:10A1F000404610F05EFB10F05CFB10F05AFB80EA6A
:10A200000801DBF800004D4000F82450304610F003
:10A2100050FB404610F04DFB504610F04AFB10F04A
:10A2200048FB484610F045FB10F043FB10F041FBA3
:10A2300010F03FFB304610F03CFB10F03AFB10F002
:10A2400038FB10F036FB304610F033FB10F031FBDA
:10A25000404610F02EFB10F02CFB10F02AFB10F003
:10A2600028FB504610F025FB10F023FB10F021FBDB
:10A2700010F01FFB304610F01CFB10F01AFB10F022
:10A2800018FB80EA0605484610F013FB07464846CF
:10A2900010F00FFB10F00DFB4740484610F009FB93
:10A2A00010F007FB10F005FB47407D40504610F0D2
:10A2B00000FB80EA0A07504610F0FBFA10F0F9FAAA
:10A2C00010F0F7FA47406F40404610F0F2FA10F0F5
:10A2D000F0FA0546404685EA080510F0EAFA10F063
:10A2E000E8FA10F0E6FA4540DBF800006F4000EBBA
:10A2F00084004770304610F0DCFA404610F0D9FA7E
:10A3000010F0D7FA504610F0D4FA10F0D2FA10F04C
:10A31000D0FA10F0CEFA484610F0CBFA304610F0E2
:10A32000C8FA10F0C6FA10F0C4FA10F0C2FA4046AB
:10A3300010F0BFFA10F0BDFA10F0BBFA10F0B9FA45
:10A34000484610F0B6FA10F0B4FA10F0B2FA10F075
:10A35000B0FA484610F0ADFA10F0ABFA304610F003
:10A36000A8FA10F0A6FA80EA0605304610F0A1FA25
:10A3700010F09FFA10F09DFA4540484610F099FA07
:10A3800010F097FA10F095FA80EA0900454050461F
:10A3900010F08FFA0746504610F08BFA10F089FA49
:10A3A0004740504610F085FA10F083FA10F081FA19
:10A3B00047407D40404610F07CFA0746404687EA19
:10A3C000080710F076FA10F074FA10F072FA4740AD
:10A3D000DBF800007D4000EB84008570304610F013
:10A3E00068FA10F066FA404610F063FA10F061FA6D
:10A3F00010F05FFA10F05DFA504610F05AFA484635
:10A4000010F057FA304610F054FA10F052FA10F0EB
:10A4100050FA10F04EFA504610F04BFA10F049FA8C
:10A4200010F047FA10F045FA504610F042FA10F0DA
:10A4300040FA484610F03DFA10F03BFA10F039FAB5
:10A4400010F037FA304610F034FA80EA060530464C
:10A4500010F02FFA10F02DFA10F02BFA4540484674
:10A4600010F027FA10F025FA80EA0906484610F0A5
:10A4700020FA10F01EFA10F01CFA464075405046C3
:10A4800010F017FA10F015FA10F013FA80EA0A002B
:10A490004540404610F00DFA0646404610F009FAD5
:10A4A00010F007FA4640404610F003FA10F001FAA7
:10A4B00010F0FFF94640DBF80000754000EB840027
:10A4C000641CC570042CFFF623AEBDE8F09F0000AD
:10A4D0006C2E00200D480068417B427A427342791D
:10A4E00042724278427141708178827A82708172C0
:10A4F0008179827B82718173C178C279C270C27A9C
:10A50000C271C27BC272C173704700006C2E002002
:10A5100030B50949094C00200B68002103EB81028A
:10A52000491C155CC9B20429655D1554F6D3401C5D
:10A53000C0B20428F1D330BD6C2E0020E0D103005E
:10A54000F0B52A4A2A4E0021526800BF12F8213085
:10A5500006F8213002EB810306EB81045D7865701B
:10A560009D78A570DB78491CE3700429EED339E0AF
:10A5700006EB81028F0712F8043C12F8035C63F3C8
:10A58000070012F8024C65F30F2012F801CC64F3B7
:10A5900017406CF31F6013D1164F3C5DFB5C64F3F6
:10A5A0000F2017F80C407D5D64F3174063F31F60C4
:10A5B00007F5007303EB91031B785D4065F307001B
:10A5C00012F8103D434006F821305378491C83EAC5
:10A5D00010235374937883EA10439374D37883EAF7
:10A5E0001063D3742C29C3D3F0BD00006C2E00205F
:10A5F0005C4F0020E0D003002DE9F0432348002405
:10A60000D0F800C00CEB84071CF824107E78BB78CF
:10A6100081EA0602FD784FEAD21883EA050908EBC1
:10A62000C80882EA090008EB480888EA420242406A
:10A630004A400CF8242086EA03024FEAD21808EBBD
:10A64000C80808EB480888EA4202424056404FEAF0
:10A65000D91202EBC20202EB420282EA49024240F4
:10A66000534085EA0102D10901EBC10101EB41012F
:10A6700081EA420141407E704D40641CBB70E4B2EF
:10A68000FD70042CBED3BDE8F08300006C2E0020CA
:10A69000054A01231370507000209070D37011711F
:10A6A0000521104600F002B8E92B00200A460146B9
:10A6B0000448054B92B2C01AC008032303EB0040C4
:10A6C00009F060BD38F9030078F8030000F01F02BC
:10A6D000012191404009800000F1E020C0F8801283
:10A6E000704700F01F02012191404009800000F1F5
:10A6F000E020C0F80011704700F01F0201219140D6
:10A700004009800000F1E020C0F8001270474907BE
:10A71000090E002806DA00F00F0000F1E02080F8B2
:10A72000141D704700F1E02080F80014704700000D
:10A730007FB514460A4601461D4668460CF004FAE9
:10A740002246294668460BF049FD10B1002004B0AE
:10A7500070BD039808B1014600E003A104A0FFF713
:10A7600033F91320F3E70000286E6F6E65290000AF
:10A7700070624465636F64652025730A0000000001
:10A7800030B514460A4685B001461D4668460CF0B1
:10A7900025FA2246294668460BF0DEFF10B10398E1
:10A7A00005B030BD049808B1014600E002A104A044
:10A7B000FFF70AF91320F3E7286E6F6E6529000092
:10A7C0007062456E636F64652025730A00000000A7
:10A7D00070B54FF48076304608F094FA114CB50508
:10A7E00060B1304608F095FA0120C5F80803607999
:10A7F00020B9012060712168002088474FF48276DB
:10A80000304608F07FFA00280AD0304608F081FA76
:10A810000220C5F808032168BDE870400120084700
:10A8200070BD0000482D0020064882B00021016064
:10A8300000680090044800680449C0B2496802B04A
:10A840000847000000D1004008D50040582D0020E6
:10A8500007480021C0F84011C0F84411C0F8481161
:10A86000C0F84C11C0F80011C0F804110FF0F4B892
:10A870000010014070B50E46144815491546401A9F
:10A88000C108032000EB0140044612A109F0CEFCF0
:10A89000082D02D0202D08D011E01248816B3160C4
:10A8A000C06B7060204610A107E00E4920223831AD
:10A8B0003046FCF7C3FF20460EA109F0B7FCAAB250
:10A8C0002046314609F05EFC002070BD38F90300D7
:10A8D00078F80300202052616E645F4342312020EB
:10A8E00000000000902B002052414E44444154414E
:10A8F0002D38000052414E44444154412D33320022
:10A9000000F024BA70B50E46144900EB400001EB8C
:10A91000C0051446E86A183520B101280FD0022876
:10A9200005D113E0284600F045FAA04201D20024E8
:10A9300011E022463146284600F074FA0BE0284622
:10A9400000F038FAA042F4D20446F2E73146284635
:10A9500000F03BFA0446204670BD0000704A00201B
:10A960000EF0C8BF0AF0B6B8F0B50A780023872603
:10A97000D70901240F228D5C4FEAD51C43EA450319
:10A98000DDB28554634617B1754085540026521ECA
:10A99000641C102CEFDDF0BD0D4800684178427951
:10A9A0004270427A4271427B427241738178827A6C
:10A9B000827081728179827B82718173C178C27B5E
:10A9C000C270C27AC273C279C272C171704700008C
:10A9D0006C2E002030B50949094C00200B6800217D
:10A9E00003EB8102491C155CC9B20429655D15544D
:10A9F000F6D3401CC0B20428F1D330BD6C2E002029
:10AA0000E0D00300F0B5B5480023021D0178101D09
:10AA100001254FF0805406290BD11678360708D14E
:10AA20000678C6F30316032E06D0042E04D0052E96
:10AA300002D0062907D00EE0B4F82463A84FC6F36D
:10AA400004263E6002E01678360704D10678C6F385
:10AA50000316032E02D0062904D00FE0A24FA14E08
:10AA60007E670EE01678360708D10678C6F303161F
:10AA7000032E06D0042E04D0052E02D0062907D0BE
:10AA80000EE0D4F84462994FC6F342363E6002E0CD
:10AA90001678360704D10678C6F30316032E02D0C3
:10AAA000062906D011E0924E376827F0807737608C
:10AAB0000EE01678360708D10678C6F30316032E83
:10AAC00006D0042E04D0052E02D006290AD011E0AB
:10AAD0004FF08046C6F80C31C6F81031834E361F51
:10AAE000336002E01678360704D10678C6F3031601
:10AAF000032E02D0062905D00CE07C4F03266437D4
:10AB00003E600AE01678360704D10678C6F30316CD
:10AB1000032E02D006290DD014E0764F05263E60A4
:10AB2000744E78363560734E083633603F263F1DCD
:10AB30003E6002E01678360704D10678C6F30316A5
:10AB4000052E02D0062957D062E06B4E36686B4F57
:10AB50003E60694E361D36683F1D3E60664E0836C3
:10AB600036683F1D3E60644E0C3636683F1D3E60C1
:10AB7000614E103636683F1D3E605F4E14363668B3
:10AB80003F1D3E605C4E183636685C4F20373E6095
:10AB9000594E1C3636683F1D3E60574E203636688B
:10ABA0003F1D3E60544E243636683F1D3E60524E77
:10ABB000283636683F1D3E604F4E2C3636683F1DA6
:10ABC0003E604D4E303636684C4F40373E604A4E00
:10ABD000343636683F1D3E60474E383636683F1D76
:10ABE0003E60454E3C3636683F1D3E60424E403624
:10ABF00036683F1D3E6002E01678360708D10678B9
:10AC0000C6F30316032E06D0042E04D0052E02D060
:10AC1000062907D019E0D4F85812394A01F04F013B
:10AC2000116002E0117809070FD10078C0F303101A
:10AC3000032803D0042801D0052806D13148016833
:10AC4000C90702D06FF001010160D4F83001062875
:10AC500008D1D4F83401062804D12B48016841F406
:10AC60008061016022487438016841F4700101601C
:10AC7000BFF34F8FBFF36F8F4FF01021D1F8000259
:10AC8000002803DBD1F80402002822DA1F4A1560ED
:10AC90001F480468002CFCD01524C1F80042056848
:10ACA000002DFCD0C1F8044201680029FCD01360DB
:10ACB00001680029FCD0BFF34F8F0D48F0380168C0
:10ACC000144A01F4E06111430160BFF34F8F00BFEC
:10ACD000FDE7124910480860F0BD0000E00F00F0E9
:10ACE000403501400DF0ADBA00C007403C050040C2
:10ACF000FCED00E0105600400404001020C50040A8
:10AD0000E40E0040000400403C17004004E5014010
:10AD100000E401400400FA050090D003782E0020E2
:10AD20000148006800470000502D0020064A10B579
:10AD300092680021435C545C63404354491CC9B28F
:10AD40001029F7D310BD00006C2E002010B5124C56
:10AD500002202061606111A0A06104F17800E0612F
:10AD60004FF4007020620020A06260620BA1A16419
:10AD7000E06204F51E71E1641021A065C4E91410BD
:10AD8000E06509A1E01DFCF7A0FD08A12046FCF745
:10AD90009CFD2020A07110BD704A00205465726D8A
:10ADA000696E616C000000005254540053454747DF
:10ADB000455200000269C1688A4203D88068401A7F
:10ADC000104400E0501A401E70472DE9F047C46857
:10ADD0001746894606464FF000083069A04201D95F
:10ADE000051B02E0B168201A0D1AB0686D1E001B29
:10ADF000A84200D80546BD4200D33D4670682A46A9
:10AE000020444946FCF71AFDB0687F1B2C44A84437
:10AE1000A944A04200D10024F460002FDDD14046B7
:10AE2000BDE8F0872DE9F04104468846D4E90207E1
:10AE3000C51BE168606816460844B54206D941461C
:10AE4000FCF7FCFCB819E060BDE8F0812A464146F9
:10AE5000FCF7F4FC761B08EB050132466068FCF752
:10AE6000EDFCE660F0E702E008C8121F08C1002A06
:10AE7000FAD170477047002001E001C1121F002A7B
:10AE8000FBD170470121202803DA814005480140A9
:10AE900003E0402802DA2038814009B101207047E0
:10AEA00000207047FC06FFBD2DE9F843804643F2C1
:10AEB000020659B969460CF0DBFBB04202D008B17A
:10AEC00000F0BAF99DF80000800744D40021404604
:10AED0000CF00AFC05003ED0112D3CD01F48204943
:10AEE000401AC708022000EB07440D2D0AD00B2D95
:10AEF0001DD0B5421FD11B4920464246BDE8F8434C
:10AF000009F098B920464246174909F093F91321F0
:10AF1000404676DF00281ED009F06EFE024601B0E2
:10AF200020464346BDE8F04310A109F08AB9204607
:10AF300042461C49E2E7284609F05EFE024601202F
:10AF400000EB0740434618A109F07BF92846BDE80D
:10AF5000F84300F071B9BDE8F8830000C0F80300C1
:10AF600078F8030050E00300DCDF030073645F62E5
:10AF70006C655F6761705F646973636F6E6E656354
:10AF80007428292072657475726E6564202573209B
:10AF90006F6E20636F6E6E5F68616E646C652025F6
:10AFA000642E00009CE00300417373657274696E47
:10AFB000672E20706D5F636F6E6E5F736563757271
:10AFC0006528292072657475726E6564202573206A
:10AFD0006F6E20636F6E6E5F68616E646C652025B6
:10AFE000642E000010B560B159B102780B78520898
:10AFF000B2EB530F05D10622401C491CFCF758FC4C
:10B0000008B1002010BD012010BD800701D0002034
:10B01000704701207047C3688B4206D8114400690D
:10B02000491E814201D8012070470020704710B5A9
:10B0300001220221002002F00FFB08B1072810D1E5
:10B0400007220221012002F007FB08B1072808D1DE
:10B0500000210A22084602F0FFFA08B1072800D1B1
:10B06000002010BD10B560B10B480C49401AC00853
:10B07000032101EB00400AA109F0D8F80DF080F897
:10B0800003E003210A4800F0B2FF002803D0BDE826
:10B09000104000F0D1B810BD38F9030078F8030073
:10B0A000457261736520626F6E6473210000000059
:10B0B0000033002070B58CB015460E4600236C4658
:10B0C000C3F10F01415CE1545B1C102BF8D30D213F
:10B0D00004F11000FCF7DAFB0020C0F10F02315C34
:10B0E0002244401C11740328F7D3684646DF002031
:10B0F000C0F10F01214491F820102954401C03286D
:10B10000F6D30CB070BD022002F0B0B90149C97885
:10B1100001F0CCB9C42C002070B50024064D06E027
:10B120006868012110F8340009F0F0FD641C2878EB
:10B130008442F5D3002070BD682D0020F8B5154677
:10B140000C460646052A01D20720F8BD09F0DAFEB2
:10B1500018B909F09FFE0028F7D1124900224E606D
:10B160000C708D60C1E90422C1E906220E4D0DE08C
:10B1700006EBC4002968009181788DF801100078F1
:10B180000A4A694609F014FE0028DED1641EE4B2C2
:10B19000EED2BDE8F84004480021054A001D00F049
:10B1A00089B80000682D002034AC03009DF802002F
:10B1B000F1E5020072B609F0F9F800BF08F0C8FE28
:10B1C0000028FBD111481249401AC408012000EBA5
:10B1D000044010A109F02AF811480068C00700D007
:10B1E00000BE022000EB04400EA109F01FF8BFF3DF
:10B1F0004F8F0B48E43801680E4A01F4E0611143B7
:10B200000160BFF34F8F00BFFDE7000038F9030076
:10B2100078F80300466174616C206572726F720089
:10B22000F0ED00E053797374656D20726573657499
:10B23000000000000400FA050EB500210091CDE9E0
:10B2400001106A4644F20100FFF7B4FF0EBD10B5CD
:10B250008268C368934203D003F060FE002010BDF3
:10B26000052010BD29B112B1531E134203D009208D
:10B2700070470E2070470160838000218160C160AB
:10B280000846704710B58268C3689A1A83889A4244
:10B2900003D803F04DFE002010BD042010BD401A5D
:10B2A00020F07F40704700000148006870470000B0
:10B2B00004150140084B9B7823B12AB120B10068E6
:10B2C000037C1BB1082070470720704700230374DC
:10B2D00041744261184670470042002070B50DF07D
:10B2E000B5FB104800240B21047044700E4D817092
:10B2F00014206C602C706C70FFF7E8F906211420A4
:10B30000FFF705FA1420FFF7ECF90848046006215E
:10B310001120FFF7FCF90548001F0068A860002015
:10B3200070BD000000420020A42D0020081501403F
:10B330002DE9FC47DFF8789099F8023073B368B3D1
:10B34000052902D20720BDE8FC87436933B3437C5B
:10B35000012B25D0002704460025884616468DF887
:10B360000050684600F0A4F801A80EF06BFFC8B1C9
:10B37000012101700F4944600968C0E90218C0E961
:10B3800004769DF8040089F801009DF8000000F0A3
:10B39000B3F81420FFF7B0F92846D4E70820D2E725
:10B3A0000F46D8E704259DF8000000F0A5F8F3E764
:10B3B00000420020041501400649897839B130B1B6
:10B3C000416921B10021017402210EF021BB082046
:10B3D000704700000042002070B50A4E01460A483E
:10B3E000B578FFF734FF04464DB10020B070711CF2
:10B3F0000122C81D08F0C6F808B1FFF71DFF20465E
:10B4000070BD0000882D0020E0410020F0B5244EE2
:10B4100089B01F460D00044672603FD0A888296895
:10B4200082B22048FFF71EFF002835D1A889A968FD
:10B4300082B21C481030FFF715FF00282CD12022C3
:10B4400019496846FCF7FAF960690690207C00B15A
:10B4500001208DF814008DF81C70607C00B10E2066
:10B460008DF81500E0680290A068039020680190B4
:10B47000606800900A480D4A6946083008F04EF8A6
:10B48000002809D1B0702068401C05D00449012271
:10B49000491CC81D08F076F809B0F0BD0720FBE78D
:10B4A000882D0020E04100203CAC0300699D030092
:10B4B00030B5EFF3108172B60D4A9468012324B1C0
:10B4C0000370002900D162B630BD93604FF0E023D5
:10B4D000D3F88051074C25401560C3F88041D3F85C
:10B4E000844154605A17C3F8842100220270E8E7AF
:10B4F0000C430020FC06FFBD0B498A68002A11D0CE
:10B5000000280FD1EFF3108072B60B684FF0E022E5
:10B51000C2F800314B68C2F8043100228A6000286A
:10B5200000D162B6704700000C43002010B5144CE7
:10B5300000224FF480312068FFF7FAFE08B1FFF7D0
:10B540007BFE00224FF400416068FFF7F1FE08B176
:10B55000FFF772FE002242F26661A068FFF7E8FE84
:10B5600008B1FFF769FE00224FF42031E068FFF7D1
:10B57000DFFE002803D0BDE81040FFF75DBE10BD20
:10B58000C4A803002DE9F041064608680C46411C9A
:10B590004FF0A0474FF0010506D005FA00F1C7F8BB
:10B5A0000815206808F0B0FB6068411C02D000213B
:10B5B00008F098FB3168A069C1F82405607D227D00
:10B5C00031681043C1F86C05D4E900123068C0F846
:10B5D0001425C0F80C15207D012815D1A068411C48
:10B5E00002D0002108F07EFBE068411C05D08540B8
:10B5F000C7F80855E06808F087FBD4E90212306804
:10B60000C0F80825C0F81015BDE8F0812DE9F0411B
:10B61000064608680C46411C4FF0A0474FF0010554
:10B6200006D005FA00F1C7F80815206808F076FB87
:10B630006068411C02D0002108F05DFB3168A06900
:10B64000C1F82405607D217D32680843C2F86C058D
:10B65000D4E900123068C0F80C15C0F81425207D1C
:10B66000012815D1A068411C02D0002108F043FB3D
:10B67000E068411C05D08540C7F80855E06808F02F
:10B680004DFBD4E902123068C0F80825C0F8101547
:10B69000BDE8F08105F092BE2DE9FC5F04464FF055
:10B6A00008084FF00109694604F042FB02004F48C8
:10B6B0004F49A0EB01004FEAD0014FF0020000EB30
:10B6C00001450AD0104609F097FA0246284623465B
:10B6D000484908F0B6FDBDE8FC9FDFF81CB1DBF877
:10B6E0000000FFF769FE28B109F086FA02462846F5
:10B6F00042A177E0FFF7D8FD484E3168FFF7CFFD54
:10B7000000F066FA0446FFF7CFFDDFF814A100272A
:10B71000C6F8000007EB87000AEB8006B07C58B340
:10B720000622711C0DF10100FCF7C2F818BB307C39
:10B730004FF47A6101FA00F2B2F57A4F00DA401C58
:10B74000307400228140C817B260C20342EA5142FD
:10B75000C8034FF4FA71401842F100014FF47A72B5
:10B760000023FCF727F8F060A04200D8044601202F
:10B7700070744FF0000900E0B8467F1C082FC9D351
:10B78000B9F1000F1FD0B8F1080F18D208EB8801EB
:10B790000AEB810000990160BDF8041081809DF8DA
:10B7A000061081710021017481604FF40031C16085
:10B7B0008C4200D30C4601214174817403E019A12D
:10B7C000284608F033FD601C85D022461146DBF880
:10B7D0000000FFF7ADFD0028F6D009F00DFA024693
:10B7E0001AA1284608F026FD75E7000078F8030046
:10B7F00078F8030094D8030020A903006170705FFB
:10B8000074696D65725F73746F7028292072657436
:10B8100075726E656420257300000000102C0020F6
:10B82000F83700204E6F20737061636520746F20BD
:10B83000626C61636B6C69737420616E6F746865B0
:10B840007220706565722049440000006170705F6D
:10B8500074696D65725F73746172742829207265F2
:10B860007475726E6564202573000000024A002121
:10B870000248FFF71FBD00005DBB020020A90300C6
:10B880002DE9FC410446694604F052FA70B109F012
:10B89000B3F90246124813492346401AC008022150
:10B8A00001EB0040104908F0CCFC11E00F4E0024E1
:10B8B0004FEA0D0704EB840006EB8005A87C50B12D
:10B8C0000622691C781CFBF7F3FF20B9687C10B1D5
:10B8D0000120BDE8FC81641C082CEBD30020F8E7B4
:10B8E00078F8030078F8030094D80300F8370020B4
:10B8F0002DE9F047814605884A484FF000088AB094
:10B9000001784246284600F0E9FD99F80500400715
:10B9100001D4002176E005F58077B8B201AB0122B1
:10B9200007210BF019FB04003F48404A4FF001018A
:10B93000A0EB02004FEAD00001EB00460AD02046FF
:10B9400009F05AF9024630462B46394908F079FC8D
:10B95000214629E0284604F02BFB4FF6FF710446F0
:10B9600088422BD18A46029804F08CFA044650454E
:10B9700010D00146284604F0FBFA2846FFF7C6FB24
:10B98000E0B928460DF090FA2846FFF7BFFB0028E3
:10B99000BFD013E00BF0ACFC0446504508D1304654
:10B9A00024A108F043FC042128460DF0ABFAB0E7CF
:10B9B0000146284604F0DCFA4FF00108B8B22246EE
:10B9C00007210BF041FB07001BD0862F1ED009F08A
:10B9D00013F9024630462B462349009408F039FCFF
:10B9E000394628460DF08EFA002148460AF07EF9C5
:10B9F000B8F1000F02D0204604F0C4FA0AB0BDE846
:10BA0000F087012148460AF071F9F7E71822174933
:10BA100003A8FBF713FFADF80E5003A803F0C6F818
:10BA2000EFE70000C42C0020C8F8030078F80300FA
:10BA300054E30300436F756C64206E6F7420616C77
:10BA40006C6F63617465206E657720706565725FE9
:10BA5000696420666F7220696E636F6D696E67201E
:10BA6000626F6E642E000000B0E3030074AA03004E
:10BA700070B5044690B0087B0D468DF83800202143
:10BA800005A8FBF703FF42F61920ADF814000120CA
:10BA9000ADF81800ADF81A000EA80790617C9DF86B
:10BAA0002100A21D61F3041040F002008DF8210076
:10BAB000A87B8DF82700687B8DF82500A08805A954
:10BAC00002F03CF800281CD1A968E1B10FA801F0F0
:10BAD000FAFB064614216846FBF7D8FE42F608102A
