:020000040002F8
:10600000585B0020C1630200C9630200CB63020039
:10601000CD630200CF630200D163020000000000E4
:10602000000000000000000000000000D363020038
:10603000D563020000000000D7630200D9630200AC
:1060400041670200DB630200E16A0200DB630200D9
:10605000DB630200DB63020079650200DB630200A0
:10606000DB630200DB630200DB630200DB63020030
:10607000DB630200DB630200DB630200DB63020020
:10608000DB63020099670200DB630200DB6302004E
:10609000BD670200DB630200C1670200DB63020030
:1060A000DB630200DB630200DB630200DB630200F0
:1060B000DB630200DB630200000000000000000060
:1060C000DB630200DB630200DB630200DB630200D0
:1060D000DB630200DB630200DB6302000000000000
:1060E00000000000000000000000000000000000B0
:1060F00000000000000000000000000000000000A0
:10610000000000000000000000000000000000008F
:10611000000000000000000000000000000000007F
:10612000000000000000000000000000000000006F
:10613000000000000000000000000000000000005F
:10614000000000000000000000000000000000004F
:10615000000000000000000000000000000000003F
:10616000000000000000000000000000000000002F
:10617000000000000000000000000000000000001F
:10618000000000000000000000000000000000000F
:1061900000000000000000000000000000000000FF
:1061A00000000000000000000000000000000000EF
:1061B00000000000000000000000000000000000DF
:1061C00000000000000000000000000000000000CF
:1061D00000000000000000000000000000000000BF
:1061E00000000000000000000000000000000000AF
:1061F000000000000000000000000000000000009F
:10620000DFF80CD000F07AF900480047A9AE020090
:10621000585B002030B450E8012F93B2C489234466
:106220008489A34228BF1B1B0489A34202BFBFF37A
:106230002F8F002007E0C3EA020340E80134002C5E
:10624000E9D14FF001000A6030BC704750E8012FDF
:10625000C2EA024240E801210029F7D1704730B478
:1062600050E8022F1FFAA2F3C488A34202BFBFF373
:106270002F8F00200DE0C48923448489A34228BFC6
:106280001B1BC2EA034340E80234002CE8D14FF064
:1062900001000A6030BC704750E8022FC2EA224277
:1062A00040E802210029F7D17047034653E8022F46
:1062B000D988B2EB324F4FF0000017BF92B241EADB
:1062C000014142EA014104E05A68B2EB324F08BF93
:1062D000012043E80212002AE8D1704730B4044696
:1062E00054E8000F0D4644E80053002BF8D1156028
:1062F00030BC704730B4044654E8000F40EA010552
:1063000044E80053002BF7D1156030BC704730B41F
:10631000044654E8000F00EA010544E80053002B4E
:10632000F7D1156030BC704730B4044654E8000F14
:1063300080EA010544E80053002BF7D1156030BC1A
:10634000704730B4044654E8000F00EB010544E800
:106350000053002BF7D1156030BC704730B40446B1
:1063600054E8000FA0EB010544E80053002BF7D1DF
:10637000156030BC704770B404464FF0000054E81C
:10638000006F0D68AE4207BF44E80023012044E8D7
:1063900000630E60002B1CBF0020F0E770BC70474C
:1063A00030B4044654E8000F88422CBF451A054615
:1063B00044E80053002BF5D1156030BC7047000055
:1063C0000648804706480047FEE7FEE7FEE7FEE78F
:1063D000FEE7FEE7FEE7FEE7FEE7FEE7C567020031
:1063E000016202002DE9F05F0546002092469B46BF
:1063F00088460646814640241BE0284641464746DB
:10640000224600F06BF853465A46C01A914110D309
:1064100011461846224600F016F82D1A67EB0108BF
:106420004F4622460120002100F00DF817EB00092D
:106430004E41201EA4F10104DFDC484631462A46C5
:106440004346BDE8F09F202A04DB203A00FA02F11F
:10645000002070479140C2F1200320FA03F3194352
:1064600090407047004870474017030040EA01031E
:106470009B0703D009E008C9121F08C0042AFAD2FA
:1064800003E011F8013B00F8013B521EF9D27047BE
:10649000D2B201E000F8012B491EFBD27047002266
:1064A000F6E710B513460A4604461946FFF7F0FF13
:1064B000204610BD421C10F8011B0029FBD1801A98
:1064C000704730B504460020034600E05B1C934251
:1064D00003D2E05CCD5C401BF8D030BD202A04DB49
:1064E000203A21FA02F00021704721FA02F3D0404D
:1064F000C2F120029140084319467047064C074DEF
:1065000006E0E06840F0010394E807009847103483
:10651000AC42F6D3FFF778FEFC2C03001C2D0300E1
:1065200070B58C1810F8015B15F0070301D110F855
:10653000013B2A1106D110F8012B03E010F8016B82
:1065400001F8016B5B1EF9D12B0705D40023521E05
:106550000DD401F8013BFAE710F8013BCB1A921C6D
:1065600003E013F8015B01F8015B521EF9D5A1426B
:10657000D8D3002070BD00002DE9F04700268AB076
:10658000DFF85091B0464FF48075012437460696E7
:10659000284605F0A5FD38B1D9F80403204203D000
:1065A000284605F093FD26432D1D64007F1CADB2E7
:1065B000082FEDD34FF4BE74204605F091FD48B18D
:1065C000204605F083FD46F0004606AA0121002082
:1065D00005F068FD404D16F0FF0F15D0012700248F
:1065E00037420DD009EB8401D1F81005D1F8101510
:1065F000C0F3042055F82420C1F3014102B19047B3
:106600007F00641C082CEBD3002E5FDA4FF0FF30C4
:10661000CDF8108054E0281910F8507F90F9000050
:1066200027F0C008401C3BD007A9404604F09BFF60
:1066300010B34FEA9719404602F0E4FA55F820707B
:106640001FB1B9F1030F03D006E0B9F1030F27D151
:1066500004A9404604F08FFF4FF0A04101EB8800F1
:10666000D0F8000706A9C0F3014A404604F07BFFBA
:1066700018B1BAF1020F03D012E0BAF1030F0FD133
:10668000B9F1030F08D1BAF1020F1DD00221404623
:1066900005F0ECFC761CF6B217B149464046B84707
:1066A000641C042CB7D3002E10D06A4601210020B0
:1066B00005F0F8FC06990098884207D006900498E7
:1066C000002634460790A6E70321E0E70AB0BDE8BC
:1066D000F0870000006000400C32002000F01F0234
:1066E000012191404009800000F1E020C0F88012B3
:1066F000704700F01F02012191404009800000F125
:10670000E020C0F80011704700F01F020121914005
:106710004009800000F1E020C0F8001270474907EE
:10672000090E002806DA00F00F0000F1E02080F8E2
:10673000141D704700F1E02080F80014704700003D
:1067400070B54FF48076304605F050F8114CB50521
:1067500060B1304605F051F80120C5F808036079B2
:1067600020B9012060712168002088474FF48276AB
:10677000304605F03BF800280AD0304605F03DF8D9
:106780000220C5F808032168BDE8704001200847D1
:1067900070BD00001026002007480021C0F84011FD
:1067A000C0F84411C0F84811C0F84C11C0F80011ED
:1067B000C0F8041109F0A8BE0010014009F0F2BDB4
:1067C00006F01ABAF0B5B5480023021D0178101D75
:1067D00001254FF0805406290BD11678360708D1D1
:1067E0000678C6F30316032E06D0042E04D0052E19
:1067F00002D0062907D00EE0B4F82463A84FC6F3F0
:1068000004263E6002E01678360704D10678C6F307
:106810000316032E02D0062904D00FE0A24FA14E8A
:106820007E670EE01678360708D10678C6F30316A1
:10683000032E06D0042E04D0052E02D0062907D040
:106840000EE0D4F84462994FC6F342363E6002E04F
:106850001678360704D10678C6F30316032E02D045
:10686000062906D011E0924E376827F0807737600E
:106870000EE01678360708D10678C6F30316032E05
:1068800006D0042E04D0052E02D006290AD011E02D
:106890004FF08046C6F80C31C6F81031834E361FD3
:1068A000336002E01678360704D10678C6F3031683
:1068B000032E02D0062905D00CE07C4F0326643756
:1068C0003E600AE01678360704D10678C6F3031650
:1068D000032E02D006290DD014E0764F05263E6027
:1068E000744E78363560734E083633603F263F1D50
:1068F0003E6002E01678360704D10678C6F3031628
:10690000052E02D0062957D062E06B4E36686B4FD9
:106910003E60694E361D36683F1D3E60664E083645
:1069200036683F1D3E60644E0C3636683F1D3E6043
:10693000614E103636683F1D3E605F4E1436366835
:106940003F1D3E605C4E183636685C4F20373E6017
:10695000594E1C3636683F1D3E60574E203636680D
:106960003F1D3E60544E243636683F1D3E60524EF9
:10697000283636683F1D3E604F4E2C3636683F1D28
:106980003E604D4E303636684C4F40373E604A4E82
:10699000343636683F1D3E60474E383636683F1DF8
:1069A0003E60454E3C3636683F1D3E60424E4036A6
:1069B00036683F1D3E6002E01678360708D106783B
:1069C000C6F30316032E06D0042E04D0052E02D0E3
:1069D000062907D019E0D4F85812394A01F04F01BE
:1069E000116002E0117809070FD10078C0F303109D
:1069F000032803D0042801D0052806D131480168B6
:106A0000C90702D06FF001010160D4F830010628F7
:106A100008D1D4F83401062804D12B48016841F488
:106A20008061016022487438016841F4700101609E
:106A3000BFF34F8FBFF36F8F4FF01021D1F80002DB
:106A4000002803DBD1F80402002822DA1F4A15606F
:106A50001F480468002CFCD01524C1F800420568CA
:106A6000002DFCD0C1F8044201680029FCD013605D
:106A700001680029FCD0BFF34F8F0D48F038016842
:106A8000144A01F4E06111430160BFF34F8F00BF6E
:106A9000FDE7124910480860F0BD0000E00F00F06B
:106AA000403501400DF0ADBA00C007403C05004044
:106AB000FCED00E0105600400404001020C500402A
:106AC000E40E0040000400403C17004004E5014093
:106AD00000E401400400FA050090D00308270020DC
:106AE00001480068004700001826002002E008C89E
:106AF000121F08C1002AFAD170477047002001E038
:106B000001C1121F002AFBD170470000012120287B
:106B100003DA81400548014003E0402802DA2038CA
:106B2000814009B10120704700207047FC06FFBD7D
:106B30002DE9F843804643F2020659B9694607F049
:106B400053FDB04202D008B100F0DAFA9DF800001F
:106B5000800744D40021404607F082FD05003ED066
:106B6000112D3CD01F482049401AC708022000EBD5
:106B700007440D2D0AD00B2D1DD0B5421FD11B4946
:106B800020464246BDE8F84305F0AEBC20464246EA
:106B9000174905F0A9FC1321404676DF00281ED0D6
:106BA00006F0B2F8024601B020464346BDE8F04385
:106BB00010A105F0A0BC204642461C49E2E7284649
:106BC00006F0A2F80246012000EB0740434618A158
:106BD00005F091FC2846BDE8F84300F091BABDE805
:106BE000F88300006C2D03002C2D0300941F03007C
:106BF000201F030073645F626C655F6761705F6490
:106C00006973636F6E6E656374282920726574758D
:106C1000726E6564202573206F6E20636F6E6E5FE9
:106C200068616E646C652025642E0000E01F03001F
:106C3000417373657274696E672E20706D5F636F48
:106C40006E6E5F7365637572652829207265747551
:106C5000726E6564202573206F6E20636F6E6E5FA9
:106C600068616E646C652025642E000010B560B10B
:106C700059B102780B785208B2EB530F05D10622B6
:106C8000401C491CFFF71DFC08B1002010BD01206D
:106C900010BD800701D00020704701207047C368F5
:106CA0008B4206D811440069491E814201D8012057
:106CB00070470020704710B501220221002001F02A
:106CC0005FFD08B1072810D107220221012001F041
:106CD00057FD08B1072808D100210A22084601F013
:106CE0004FFD08B1072800D1002010BD00B5ABB0A2
:106CF000AC216846FFF7D3FB02208DF8000001208D
:106D00008DF8020006218DF803108DF87C0000211B
:106D10008DF87D004FF44860ADF810100591249077
:106D2000282144F250602291259040F6B83108485D
:106D3000239129906946074800F0F8FC08B100F05B
:106D4000DFF90121034800F0EEFC2BB000BD00008C
:106D50006DD402009C27002010B560B10B480C498F
:106D6000401AC008032101EB00400AA105F0B8FB5E
:106D700008F0C2F903E003210A4800F09BFD002857
:106D800003D0BDE8104000F0BBB910BDCC2D03000E
:106D90002C2D0300457261736520626F6E64732150
:106DA000000000009C27002070B58CB015460E46F0
:106DB00000236C46C3F10F01415CE1545B1C102BB6
:106DC000F8D30D2104F11000FFF769FB0020C0F19A
:106DD0000F02315C2244401C11740328F7D368462B
:106DE00046DF0020C0F10F01214491F82010295402
:106DF000401C0328F6D30CB070BD00F081B9000030
:106E000000B585B00F48049004A90F4804F081FC38
:106E100008B100F075F912210C48FFF740FB0C484F
:106E2000009012200290094803900A4801900648F9
:106E30006946703800F0D6FE002801D000F060F9F5
:106E400005B000BD71C8020090270020F429002081
:106E500011D50200FB6D020070B5104800F072FE03
:106E600008B100F04DF90F480F490D4E401AC10806
:106E7000032000EB01400125357004460BA105F00D
:106E80002FFB064800F06BFE08B100F039F9757071
:106E90002046BDE870400CA105F022BB2027002051
:106EA00018220020CC2D03002C2D03004E657720E6
:106EB000416C6572742053746174653A20456E614B
:106EC000626C65642E000000556E7265616420413D
:106ED0006C6572742053746174653A20456E61620A
:106EE0006C65642E00000000022001F04DBB000024
:106EF00070B51849184A164D891AC90868780322CE
:106F000002EB0144022801D001280CD1FF211348D3
:106F100000F08AFF18B1082801D000F0F1F82046EF
:106F20000FA105F0DDFA2878022801D001280ED142
:106F3000FF210A4800F0A0FE18B1082801D000F097
:106F4000DFF82046BDE8704014A105F0C9BA70BD55
:106F500018220020CC2D03002C2D03002027002018
:106F60004E6F746966792074686520556E7265612C
:106F70006420416C6572742063686172616374653A
:106F800072697374696320666F7220616C6C206330
:106F9000617465676F726965732E00004E6F746966
:106FA000667920746865204E657720416C6572743F
:106FB00020636861726163746572697374696320C8
:106FC000666F7220616C6C2063617465676F7269B3
:106FD00065732E000149C97800F0E4BFDC2500206C
:106FE00070B50024064D06E06868012110F83400F1
:106FF00005F0EEFE641C28788442F5D3002070BDB5
:1070000020260020F8B515460C460646052A01D272
:107010000720F8BD05F0D8FF18B905F09DFF00283E
:10702000F7D1124900224E600C708D60C1E9042234
:10703000C1E906220E4D0DE006EBC400296800915F
:1070400081788DF8011000780A4A694605F012FF30
:107050000028DED1641EE4B2EED2BDE8F840044858
:107060000021054A001D00F057B80000202600202E
:10707000AC130300219F02005191020072B605F08B
:10708000E1FA00BF05F012F90028FBD111481249BE
:10709000401AC408012000EB044010A105F020FABA
:1070A00011480068C00700D000BE022000EB044079
:1070B0000EA105F015FABFF34F8F0B48E4380168B5
:1070C0000E4A01F4E06111430160BFF34F8F00BF2E
:1070D000FDE70000CC2D03002C2D030046617461F8
:1070E0006C206572726F7200F0ED00E0537973747A
:1070F000656D207265736574000000000400FA0578
:107100000EB500210091CDE901106A4644F201005C
:10711000FFF7B4FF0EBD0000084B9B7823B12AB1E6
:1071200020B10068037C1BB108207047072070471E
:10713000002303744174426118467047D83200201E
:1071400070B508F025FB104800240B210470447032
:107150000E4D817014206C602C706C70FFF7BEFABD
:1071600006211420FFF7DBFA1420FFF7C2FA0848C3
:10717000046006211120FFF7D2FA0548001F0068BD
:10718000A860002070BD0000D832002040260020FA
:10719000081501402DE9FC47DFF8789099F8023096
:1071A00073B368B3052902D20720BDE8FC874369A1
:1071B00033B3437C012B25D00027044600258846A5
:1071C00016468DF80050684600F038F801A809F01E
:1071D000CDFCC8B1012101700F4944600968C0E9C4
:1071E0000218C0E904769DF8040089F801009DF8B2
:1071F000000000F047F81420FFF786FA2846D4E78D
:107200000820D2E70F46D8E704259DF8000000F0DB
:1072100039F8F3E7D832002004150140064989788F
:1072200039B130B1416921B100210174022109F065
:1072300047B9082070470000D832002030B5EFF37E
:10724000108172B60D4A9468012324B1037000299D
:1072500000D162B630BD93604FF0E023D3F8805187
:10726000074C25401560C3F88041D3F88441546031
:107270005A17C3F8842100220270E8E7E4330020A3
:10728000FC06FFBD0B498A68002A11D000280FD1E7
:10729000EFF3108072B60B684FF0E022C2F80031B5
:1072A0004B68C2F8043100228A60002800D162B61F
:1072B00070470000E43300202DE9F04106460868DD
:1072C0000C46411C4FF0A0474FF0010506D005FACF
:1072D00000F1C7F80815206804F0B4FE6068411C8E
:1072E00002D0002104F09CFE3168A069C1F8240599
:1072F000607D227D31681043C1F86C05D4E900122D
:107300003068C0F81425C0F80C15207D012815D16F
:10731000A068411C02D0002104F082FEE068411CFC
:1073200005D08540C7F80855E06804F08BFED4E925
:1073300002123068C0F80825C0F81015BDE8F081C9
:107340002DE9F041064608680C46411C4FF0A04765
:107350004FF0010506D005FA00F1C7F808152068BE
:1073600004F07AFE6068411C02D0002104F061FE46
:107370003168A069C1F82405607D217D3268084329
:10738000C2F86C05D4E900123068C0F80C15C0F8DA
:107390001425207D012815D1A068411C02D00021B0
:1073A00004F047FEE068411C05D08540C7F8085549
:1073B000E06804F051FED4E902123068C0F80825F4
:1073C000C0F81015BDE8F08103F03EBC2DE9F04790
:1073D000814605884A484FF000088AB00178424645
:1073E000284600F0F7FD99F80500400701D4002178
:1073F00076E005F58077B8B201AB0122072106F0EF
:1074000067FD04003F48404A4FF00101A0EB020035
:107410004FEAD00001EB00460AD0204605F074FC8C
:10742000024630462B46394905F065F8214629E0E9
:10743000284603F0EBF84FF6FF71044688422BD143
:107440008A46029803F04CF80446504510D0014695
:10745000284603F0BBF82846FFF7BCFDE0B92846F4
:1074600008F08CFB2846FFF7B5FD0028BFD013E0DD
:1074700006F0FAFE0446504508D1304624A105F036
:107480002FF80421284608F0A7FBB0E7014628465C
:1074900003F09CF84FF00108B8B22246072106F02D
:1074A0008FFD07001BD0862F1ED005F02DFC024655
:1074B00030462B462349009405F025F839462846E6
:1074C00008F08AFB0021484606F0F6FBB8F1000FF1
:1074D00002D0204603F084F80AB0BDE8F08701210D
:1074E000484606F0E9FBF7E71822174903A8FEF71C
:1074F000BDFFADF80E5003A802F086F8EFE70000DC
:10750000DC250020742D03002C2D0300982203009D
:10751000436F756C64206E6F7420616C6C6F636177
:107520007465206E657720706565725F696420669A
:107530006F7220696E636F6D696E6720626F6E6433
:107540002E00000044230300441303002DE9FC47F0
:10755000002517880646158090F82D0014468946A8
:1075600030B13A462146484600F0E8FD051E09D1F3
:10757000B0784FF00C0A18B32088C846001DB842F6
:1075800002D95046BDE8FC87684679DF0028F9D16A
:107590002088032108F8001020881921401C80B29F
:1075A000208008F800102088401C80B2208000EB6A
:1075B0000801BDF8000009F08FF9218808442080F7
:1075C000F0780222C8B1218896F9033001F1030C4A
:1075D0004846BC45D5D8425421884FF0010C491C7F
:1075E00089B2218000F801C02188491C89B221801C
:1075F00009F801302088401C20807068B8B12188CB
:1076000090F9003001F1030C4846BC45B9D842540A
:1076100021880A22491C89B2218042542188491CB0
:1076200089B2218009F801302088401C20803089EF
:1076300050B1CDE900474B460622022106F1080071
:1076400009F0ACFA051E9DD1308A50B1CDE9004752
:107650004B460722032106F1100009F09FFA051E90
:1076600090D1308B50B1CDE900474B461522142103
:1076700006F1180009F092FA051E83D1306A30B184
:107680003B462246494601F0A4FB051EDBD1706A49
:1076900030B13B462246494603F0DAFC051ED2D102
:1076A00096F82C0038B13B4622464946304608F051
:1076B0006DFB051EC7D1307838B13B46224649469E
:1076C000304603F053FD051EBDD128465AE718B5D4
:1076D00004460020ADF8000013466A46204600F03C
:1076E00006F8002802D0BDF80000204418BD70B58F
:1076F00088B182B10024158803E0065D641C34441F
:10770000A4B2A54203D8061976789E4201D08C42D5
:10771000F3D38C4201D3002070BDA11C1180005D09
:10772000401E80B270BD80F8301070472DE9F047E0
:107730000D00044606D02CB195F87A0000260128E9
:1077400003D006E00E20BDE8F08795F898000128E8
:1077500029D0D5F8A000042825D0D5F89C0004280D
:1077600021D04FF00109A6702C2205F17801201DCF
:10777000FEF77CFE84F83060D5F8A4006063D5F88D
:10778000A800A0634FF6FF70A4F8480204F50D703E
:10779000C4F84402C4F84A62A4F84E6284F8506205
:1077A000207810B104E00720CDE7FF2084F85400D2
:1077B00004F15501C4F8341294F82400EE274FF078
:1077C0001F0801281FD0A4F8388200BF04F50E72EC
:1077D0002846FFF7BBFE0028B5D115F13C0F18D0A5
:1077E00004F24311C4F83C1294F8240001280DD08F
:1077F000A4F8408204F5107205F13C00FFF7A6FEE4
:107800000028A0D109E0A4F83872DFE7A4F840729C
:10781000F0E7C4F83C62A4F8406284F85190208BF1
:10782000A4F8480084F83C90266484F850606069AD
:1078300060644D4604F13C02002104F1540072DF03
:10784000002880D125707EE710B50288102A1BD051
:10785000112A20D0262A1DD1007A0C46012801D0F9
:10786000022817D1A0780521401CB0FBF1F201FBE2
:107870001201204600F01EF800280BD0A16B002951
:1078800008D0BDE810400847C27B012A02D1808899
:10789000A1F8480210BD0C46002184F852128088DD
:1078A000B4F848128842F5D120790028F2D101219C
:1078B000DFE770472DE9F05F044600780F4698B186
:1078C000A7700025C4F84A52A4F84E5284F85052CA
:1078D000A079012608B1012F09D0E07980B1012FEC
:1078E00005D0022F03D00BE00820BDE8F09F616BAC
:1078F00021B184F851620820884701E084F8515290
:1079000004F24B2100200A5C0AB1304603E0401C1F
:107910000628F8D300204FF002084FF0030B012F88
:1079200006D0022F0CD0032F0FD0042F15D110E05A
:10793000A17929B194F8241011B908B130460DE0AD
:10794000E17911B108B1404608E0207A08B1584603
:1079500004E0607A08B1042000E02846A070616B62
:1079600041B1032801D0042804D1607910B194F802
:107970005202A0B184F8535204F13C00182107468A
:10798000FEF78DFD04F12C0084F83C60814606F082
:1079900097FD58B194F82C0084F8510008E084F861
:1079A000545284F8536207208847E5E784F8516011
:1079B00094F8240050B1484606F082FD20B194F8B6
:1079C000280084F8520001E084F8526084F8505096
:1079D000A27804F24A2104F50D794FF0060A052A2F
:1079E00062D2DFE802F07A030F22410084F83160AE
:1079F000C4F84452C4E9101584F83C808020A4F8EF
:107A0000480053E084F8318094F82420384612B1BD
:107A10000722027001E080F800B0228A8281C4F857
:107A200044524160E168B96040E06069B860208B11
:107A3000B88194F824003D4610B184F83CA001E0E0
:107A400084F83C60204609F06DF850B185F8148048
:107A50000421204601F0ACFF30BB052184F8311031
:107A600020E084F831B01DE0E069B860208CB88176
:107A700094F824003D4610B184F83CA001E084F85D
:107A80003C60204609F04EF848B185F81480042186
:107A9000204601F08DFF38B984F831A002E00420BF
:107AA00084F83100C4F84492A07878B13A4604F1E1
:107AB0005400D4F8441272DF00287FF416AF94F813
:107AC000301094F8540073DF0028F6D1616B11B1C7
:107AD00094F831008847002007E784F83150F5E733
:107AE00070B5104C104D236803EB83025B1C03F050
:107AF0000703236005EB8202838C53810223D38129
:107B0000141D146100249481012414720C781471E2
:107B10004978517100891080937008F02FFD002082
:107B200070BD0000FC25002058310020B0F8441042
:107B30000089002201F012B8B0F854100089002228
:107B400001F00CB80389A3F57F41FF3905D0B0F8E7
:107B500044100122184601F001B80820704703893B
:107B6000A3F57F41FF3905D0B0F854100122184623
:107B700000F0F4BF0820704770B50E4604001546AB
:107B80002CD0104602F0F8FE50B3268125B305F143
:107B9000080104F11C0001F03DF805F1120104F1A7
:107BA000260001F037F805F11C0104F1300001F066
:107BB00031F805F1260104F13A0001F02BF84420D8
:107BC000298E015305F1360104F14A0001F022F833
:107BD000B5F84000A4F85400002070BD0E2070BD20
:107BE000072070BD70B50D46040041D0EDB3286884
:107BF000D8B35C212046FEF752FC1E4800210160EC
:107C000041604FF6FF7020812868206068686060DE
:107C1000A868E060E86820610120A07541F61101C4
:107C2000A18284F83C0042F646216187A077891E34
:107C3000A18384F84C00491CA4F84A1084F8280059
:107C4000891CE18484F83200491C218684F84800AC
:107C500042F60211A4F8461084F85800A4F8561011
:107C600004F11400BDE8704000E001E000F0DCB970
:107C70000E2070BD5831002008B504228DF8002078
:107C80008DF801106946FFF72BFF08BD0A4B10B5B0
:107C90001A680A4C02EB8201521C02F0070204EB44
:107CA00081011A60C28D8A80008908800120887055
:107CB00008F064FC002010BDFC2500205831002095
:107CC00010B50A46014610460A8894B0112A3ED0E3
:107CD000362A0DD0382A06D0392A2CD114B0BDE866
:107CE000104001F06BBB14B0BDE8104008F046BC7A
:107CF00004228DF80020CA890A31D2B10A88C38DC6
:107D00009A4205D190F828208DF80620C28C07E011
:107D1000038F9A420DD190F832208DF80620028E02
:107D2000ADF80420CA88ADF808208988012904D05C
:107D300009E008F023FC14B010BD9DF8091021F0F3
:107D400003018DF80910016868468847F1E7044689
:107D5000008989888842EED14FF6FF702081462144
:107D600004F11400FEF79BFB02208DF8000021684F
:107D700068468847DFE7F0B595B00C4607465021C6
:107D80006846FEF78CFB6088ADF8020001208DF894
:107D90000000207870BBA088A0F5C05111393AD1FD
:107DA000A079012837D100252BE005EBC50004EBB5
:107DB000400636F80E0FA0F52850443805281ED28C
:107DC000DFE800F003060F2E1900314604A814E086
:107DD00031460DF13E0000F01DFF7089ADF84800FE
:107DE0000DE031460DF12E0000F014FF7089ADF862
:107DF000380004E00FE0314609A800F00BFF6D1CCD
:107E0000EDB2207AA842D0D802A802F0B5FD10B198
:107E100000208DF8000039686846884715B0F0BD2D
:107E200031460DF11A00E8E708B505228DF800206B
:107E30008DF801106946FFF753FE08BD0A4B10B5D7
:107E40001A680A4C02EB8201521C02F0070204EB92
:107E500081011A60028F8A80008908800120887061
:107E600008F08CFB002010BDFC25002058310020BC
:107E700070B5040012D001461C221448FEF7F6FA31
:107E80001248134D0560206850B17ADF002806D1F2
:107E90002068016829604068686005E00E2070BDB8
:107EA0000B487BDF0028FAD108484FF6FF711438E1
:107EB000084A20F8041B0549343901600021FFF706
:107EC0002BF90028EBD0032070BD0000A82A002069
:107ED00028250020BD0A030010B5044600F09AF8DA
:107EE000002805D02146BDE81040024803F09FBAA3
:107EF00010BD0000D42A002070B515460E46044679
:107F000008F01CFE002809D0054800EB84008069B9
:107F10002A463146BDE8704001F076BD70BD0000D4
:107F2000C42A002010B5044600F074F8002805D0DB
:107F30002146BDE81040024803F079BA10BD0000A8
:107F4000D82A002070B50546002400F063F838B147
:107F50002946044803F06BFA08B1022400E001242A
:107F6000204670BDD02A002070B50546002400F0E0
:107F700051F838B12946044803F059FA08B10224EF
:107F800000E00124204670BDCC2A002010B5182145
:107F9000034803F027FA182800D0C0B210BD000033
:107FA000C42A002070B505460C46084608F0C6FDF8
:107FB00060B1284600F02EF840B10548294600EB94
:107FC0008400BDE87040183003F031BA002070BD65
:107FD000C42A002070B5054614460E46084608F02F
:107FE000ADFD002812D0284600F014F800280DD06E
:107FF0000748294600EB860018301CB1BDE87040E8
:1080000003F020BABDE8704003F0D1B970BD0000A4
:10801000C42A0020142801D30020704701460148DB
:1080200003F005BAC82A002070B540B10C4D29787C
:1080300039B1044607F086FB28B1002070BD0E2040
:1080400070BD082070BDE868062807D2054922687F
:1080500001EB8001401C0A60E860EEE7042070BD7F
:10806000302500203C2B002040B10549002201238F
:10807000CA600B70C1E90102104670470E207047BC
:108080003025002070B504002DD000292BD02048C9
:108090000078002827D020880D46112815D03028D8
:1080A00004D0322807D033281ED109E0211D2846EC
:1080B00005F04AFC18E0211D284605F07BFA13E084
:1080C000211D284605F072FB0EE0A088B5F8CA1203
:1080D000884209D1002085F8C70285F8C8024FF60A
:1080E000FF70A5F8CA0270BD95F8C8020028FAD042
:1080F00020883028F7D34F28F5D8A088B5F8CA12C1
:108100008842F0D12846BDE8704001F0D3B80000A5
:108110003025002048B1084A137843B1D26832B103
:1081200090F8C7222AB1112070470E20704708200E
:10813000704701F0BFB80000302500207CB505462F
:1081400008880C460930904201D90C207CBD684655
:108150006DDF0028FAD121880820685420881B216F
:10816000401C80B2208029542088401C80B220808E
:108170002844DDF801100160BDF8051081802088D9
:10818000801D80B220809DF80010490800D0012198
:1081900029542088401C208000207CBD38B50188EF
:1081A000264D0446212937D012DC2548254A1029BE
:1081B000A0EB02004FEAD0004FF0030202EB0040B8
:1081C0000ED0112931D1BDE838401FA104F088B983
:1081D0003B292BD0562928D18088132176DF15E042
:1081E0001DA104F07DF9072000F0ECFA08B1FEF7BC
:1081F00087FF1248A1886980001DFFF78BFF08B137
:10820000FEF77EFF6988174803F078FA00280CD043
:10821000BDE83840FEF774BF00200090A088694692
:108220008FDF002801D0FEF76BFF38BD4FF6FF70DF
:108230006880A088132176DFE8E70000182200207C
:10824000CC2D03002C2D0300446973636F6E6E65A3
:10825000637465642E000000436F6E6E6563746521
:10826000642E00009027002010B51A4C0188606829
:1082700010290ED011292BD1401E606028D1FEF7A5
:108280001AFD002824D02168002921D0BDE8104023
:108290000847D0B900210122084600F071FA08B160
:1082A00007280FD107220221012000F069FA08B146
:1082B000072807D104220221002000F061FA20B132
:1082C000072802D0216801B188476068401C6060BF
:1082D00010BD0000202500202DE9F04701883B4E0D
:1082E00040F2F3194FF6FF7510291BD011293ED02B
:1082F000122954D0502946D1C188F289841D914257
:1083000041D1618902293ED18688304602F02CFA9B
:10831000050038D004F10C0000F0F2F8A8B32946AB
:1083200030464EE0C17B8788044601292BD1A84600
:10833000284602F019FA050017D02F800020287275
:10834000234843464A460168C5F80A104068C5F804
:108350000E0004F1100105F10A0002F0C5FA68727E
:10836000F08900280FD129462AE0042013E08088F4
:1083700002F0FAF9040006D06068FEF74FFF08B17A
:1083800007F00EFC2580BDE8F087FFE76868FEF780
:1083900045FF0028F7D0BDE8F04707F001BC87880B
:1083A0000646384602F0E0F90400ECD02B464A4677
:1083B00006F1080104F10A0002F096FA6072214603
:1083C0003846BDE8F04700F04BBD0000A82A002069
:1083D000282500202DE9F04F0746858802883D4872
:1083E000012197B08346102A09D0112A49D01A2AB0
:1083F0006CD1387AB1EB101F45D2012244E0354CE4
:10840000083CA068C0430B9061680BA803F033F8E8
:108410000B990CA800F0BEFC2C220CA96846FEF7B4
:1084200025F80026E946A04610E000BF09EB46000B
:108430005FF00004B0F804A008EB84005146001D72
:1084400002F0B5FF641C1D2CF6D3761C0098B042D8
:10845000ECD8142D05D317B00420BDE8F04FFEF77B
:108460004FBE2946584602F0EDFF294608F10400A8
:1084700002F0E8FFF87B012828D016482946001DA5
:1084800015E029461AE000220221B1EB101F01D2AB
:10849000012600E000260F49083901F11000041DF3
:1084A000294682B102F0CEFF36B12946204617B0E8
:1084B000BDE8F04F02F0C6BF2946204617B0BDE820
:1084C000F04F02F074BF02F072FFF5E717B0BDE89D
:1084D000F08F0000CC2A002010B504460748007831
:1084E00000280AD0204601F06DFF204607F0A6FCC8
:1084F0002046BDE8104001F097BB10BD6C25002060
:10850000007800F0010070470149085C70470000E6
:10851000441103000649095C4FF0A040D0F8100553
:10852000C84010F0010000D0012080F00100704729
:10853000441103002DE9FC410646C0074FF0000539
:108540000ED0104F00240122385D00950023114603
:10855000019503F00BFD641C042CF4D300F046F8E5
:10856000B0070DD5074E0024361D0022305D0323D1
:1085700000951146019503F0F9FC641C042CF4D31A
:10858000BDE8FC814011030007490B5C4FF0A0419E
:10859000D1F804250120984020EA0203C1F80835EB
:1085A0001040C1F80C057047401103000249085CF7
:1085B000012103F06CBD0000401103000249085C7A
:1085C000002103F064BD0000401103000649095C6E
:1085D0004FF0A040D0F80405C84010F0010000D0D2
:1085E000012080F0010070474011030010B5002405
:1085F0002046FFF7DBFF641C042CF9D310BD10B537
:1086000000242046FFF7DAFF641C042CF9D310BDC8
:1086100010B50246064B4FF0FF3000215C5C9442DF
:1086200001D1084610BD491C0429F7D310BD000034
:108630004411030070B50C4E0C004FF00005306083
:108640000BD0012000F06AF808B1022004E00020FD
:1086500000F064F800B10B202070706810B9FEF7CC
:108660002AFB0546284670BD2025002010B50020B5
:1086700000F0E2F908B1062806D1012000F0DCF98B
:1086800008B1062800D1002010BD00002DE9F047F8
:108690000D468146FFF7BCFF0446042836D2DFF8BA
:1086A00074801B481C4EA8F10C0725B3012D0ED079
:1086B000022D2BD104EB440030444578002D25D009
:1086C000B968002922D02846BDE8F047084704EBE6
:1086D0004401755C0E44717849B10E4A4FF4004173
:1086E000093A8068FEF756FD08B987F80390B1781B
:1086F00008F80410E2E78068FEF790FD04EB4401FF
:10870000314418F804008D78A842D7D0BDE8F0872E
:10871000481103001C250020482A0020042801D20B
:10872000FFF7F8BE0020704713494FF6FF720E287E
:10873000098918D005DC04280BD00A281BD107F0C2
:1087400069BB0F2813D0102815D1914213D0FEF722
:10875000CFBB0A481321408876DF08280BD00028B9
:1087600009D0FEF7CDBC914205D002F053BD914235
:1087700001D008F0C7B87047202700201822002039
:1087800070B50023042810D20D4D00EB4004012ADF
:1087900002D101290CD00022094E00EB40003044E8
:1087A00061B1012906D0022906D00723184670BD01
:1087B0000E30C2B22A55F9E74270F7E78270F5E74A
:1087C000482A0020044A014600201279D20702D02C
:1087D000084600F04DB870471025002070B50646D9
:1087E0001E480024C0E90161B00720D50025012200
:1087F00011462846FFF7C4FF6D1C0446042D02D223
:10880000002CF4D013E094B940F2666204211448BD
:10881000FEF7F8FB04000AD1FEF7E2FB040006D1E4
:108820000F48104A0021001FFEF776FC0446F007AF
:1088300012D00120FFF77EFE74B909480A4A0021D0
:108840000C38FEF769FC040006D10548074A0121EF
:108850000838FEF761FC0446204670BD1025002054
:1088600054110300058B0200F1A90200E96E020019
:108870002DE9F05F6E4C054600266078B34618B1CE
:1088800084F801B002F09CF86A4F4FF47A694FF413
:10889000C87A4FF00108182D69D2DFE805F00C13F3
:1088A00013384754696E727B727BC58484848484D8
:1088B000B3B6B9BCC5C502F083F83868FEF7AEFCA4
:1088C00006465CE00020FFF781FE00284FF0000024
:1088D00008D0FFF76BFE022D02D14FF4E16008E0F3
:1088E000484606E0FFF76AFE022D01D1C82000E0ED
:1088F0005046410CC0034FF4FA72801841F1000158
:10890000257052000023FDF76DFD01462AE000208E
:10891000FFF75CFE00284FF0000004D0FFF746FE92
:108920004FF44870E5E7FFF749FEDFE70020FFF767
:108930004DFE00284FF0000002D0FFF737FECFE7D2
:10894000FFF73CFED4E70020FFF740FE00284FF081
:10895000000002D0FFF72AFE01E0FFF72FFE25708E
:1089600041F69A1100223868FEF714FC064646E0EC
:108970000020FFF709FE257008E0002051E0257077
:108980003DE084F801800120FFF7FEFD002240F663
:10899000CD41E8E784F801800120FFF7F5FD0022D2
:1089A0004FF48041DFE77868FEF738FC0646D5F1E2
:1089B000110000D02EB10220FFF7F8FD84F802B0BC
:1089C0001DE0012816D980B2C8214843C117C90348
:1089D00041EA5041C0034FF4FA72801841F100019E
:1089E00052000023FDF7FEFC014600227868FEF7E6
:1089F000D1FB06460220FFF7E1FD84F802803046F5
:108A0000BDE8F09F01F0DCFFB9E701F0D9FFB4E762
:108A100001F0D6FF04E001F0D3FF0020FFF7CEFD08
:108A20000120FFF7CBFDAAE7FFF7E9FDA7E700006C
:108A30001025002048110300012108F016B900009C
:108A40002DE9F8430546861C00208DF8000090466D
:108A50000F464FF001096846FEF7F0FB1B4C2068FB
:108A60003860D4E90001401AA16804F21C47081AD2
:108A70000EE00121384602F0F8FC02F0C7F9014689
:108A8000384602F0F2FCD4E90001401AA168081A45
:108A9000401C8642EDD8B8F1000F03D0052065F3E5
:108AA000891002E0062065F39F50A26821681140FA
:108AB00004EB8101C8602068304420609DF800000C
:108AC000FEF7E0FB4846BDE8F8830000343700209D
:108AD00030B482680468531C8360A154D0E9011249
:108AE0008A4202D330BC02F006BF30BC704700009F
:108AF000034803C8814201D101207047002070471C
:108B00003437002000780221FFF7C0BD1CB50446B1
:108B100001F07CFD00236A46092105F01BFB0528B6
:108B200005D10348012241792046FFF753FA1CBDC5
:108B3000402500201CB50021009142F6A621ADF889
:108B4000001001218DF80210034901AA0968019162
:108B50006946A0DF1CBD0000F011030070B50E4D8A
:108B60000E4E2C6804EB8403641C04F0070406EB2F
:108B700083032C6059810221D9811C1D1C610024B2
:108B80009C8101241C721A71120A5A711880997002
:108B900007F0F4FC002070BDFC25002058310020B7
:108BA00005494FF0FF32082841F8202002D308443D
:108BB00080F84820704700000C320020F0B54FF0DC
:108BC000FF3512B10023082601E008230C260C4CC7
:108BD00005E000BF54F823707F1C04D05B1CB34237
:108BE000F8D32846F0BD26185DB286F8305044F818
:108BF0002310002AF5D1E11881F84800F1E70000C0
:108C00000C3200200249084490F9300070470000FF
:108C10000C3200200A6802604A68426009890181BA
:108C2000704708B5024690F8C6020B4600EB80017B
:108C3000C1EB801002EB400092F8C52242B1521EF7
:108C4000D2B202EBC20100EB4102518A491C00E0A2
:108C5000C188ADF800100089ADF8020069461846D9
:108C60009DDF08BD70B504464FF6FF750A462846DD
:108C7000AC4209D14FF480742146104602F0B2FB99
:108C800080B2A0420BD070BDFF2CFCD8214610460C
:108C900002F098FB90F0010F01D0204670BD2846ED
:108CA00070BD000070B5084C050009D01034216873
:108CB000002907D008682060496828468847F6E7F9
:108CC0000834F4E770BD0000F8310020054A0121A6
:108CD00020B1012805D19170FFF7E4BF5170002049
:108CE000FAE77047F83100202DE9F05F2648416827
:108CF000F1B3DFF898B00E688146DBF80040876872
:108D00008078E11B21F07F45ED1CB0B9DFF8808051
:108D10004FF48030C8F84403C8F804031120FDF76D
:108D2000DDFC1120FDF7E5FC4FF0010AC8F800A0BA
:108D30002F2004F045F889F802A0B54200D235464C
:108D4000124BE8193C3320F07F401860DBF800102C
:108D50005A46091B21F07F41001B20F07F40C91CAF
:108D600081420FD9106818602F2004F029F800E024
:108D700004E0BDE8F05F1120FDF7C6BCBDE8F05F80
:108D800006F006BDBDE8F09F402600200415014016
:108D90000010014073B58CB00646002000900D987D
:108DA00080B100246D4621460DA802F040FB30B191
:108DB000009805EB400084800098401C0090641CE3
:108DC000142CF0D32C2269463046FDF74FFB0EB031
:108DD00070BD2DE9F04117880646B81D14460D46B2
:108DE000984202D90C20BDE8F0813188072206297B
:108DF0000AD34FF4486C4FF6FF73614501D999428D
:108E000002D17088062801D21046ECE7604501D9EE
:108E10009842F9D1994203D0984201D08142F3D8C7
:108E20000520E85520881221401C80B2208029545A
:108E30002088401C80B220804119308807F04CFD0A
:108E40002188084480B220804119708807F044FDD1
:108E50002188084420800020C5E7FEF751B90000B2
:108E600038B54A7A0F4B62B100220A72596900295B
:108E700006D001228DF80020ADF802006846884730
:108E800038BD0A7A62B19B684C6802461946204692
:108E9000FEF780F90028F3D0BDE8384006F080BE28
:108EA0005B68F1E7A82A0020F0B587B016460F46A8
:108EB00004461D4618220B496846FDF7D7FA0A48B2
:108EC0008DF80870ADF80240ADF80A608DF80C50CE
:108ED000017800222046FFF77DF8684600F094FBF9
:108EE00007B0F0BD5C130300DC25002070B5104E08
:108EF00005460C46307848B90E4A00210E48FEF768
:108F00000BF908B1FEF7FCF8012030700A48002286
:108F100065F30F0264F317424FF440410068FEF717
:108F200039F9002803D0BDE87040FEF7E9B870BDFC
:108F30007C25002039900200F412030070B588B03F
:108F40000646002005900690ADF81410ADF81610F6
:108F50000190029001AA05A9304690DF050021D0BA
:108F600003F0D2FE0346114811493246401AC108A7
:108F7000012000EB014004460E4903F0BCFABDF8A5
:108F8000042012B9BDF8060028B1BDF8063020460D
:108F900009A103F0B0FABDF808201AB1204616491D
:108FA00003F0A2FA08B0284670BD00004C2D030063
:108FB0002C2D0300541B03005468652072657175E5
:108FC00065737465642054582F5258207061636B28
:108FD0006574206C656E67746820697320746F6FA8
:108FE000206C6F6E672062792025752F2575206FA4
:108FF00063746574732E0000A01B030001460148D2
:10900000FEF7B9BE2027002070B5044609480121AB
:1090100002F046FABFF35F8F0025002808D12046F2
:1090200001F06EFE002803D1BFF35F8F0148056099
:1090300070BD00004C250020C0F3074180B2FDF751
:1090400077BD00007FB50C4610B1012004B070BDA3
:109050002079002638B141F61D5501281BD0022881
:1090600026D00F20F2E70220207102960396E068D6
:109070000190694601A806F0CBFA50B102988188A8
:10908000E18000882081BDF80010029806F03EFBC8
:10909000DCE70A20DAE70A4B6A460021A01D06F049
:1090A00073FA38B1064918398E61CE610A28CDD1DC
:1090B0002846CBE702488188019806F027FBF5E7B0
:1090C0006C2600202DE9F843054690F8C6020F46AD
:1090D00000EB8001C1EB801005EB400695F8C5421E
:1090E000914604EBC40006EB40013279601C0A3162
:1090F000904226D16B460022284601F017FC18B397
:1091000010E0401EA04201D1002004E004EBC400A6
:1091100006EB40001C30804602466B46284601F0B4
:1091200005FC30B100203870694648469EDFBDE836
:10913000F88395F8C5024146401C641C85F8C502B9
:10914000E4B23079A042DCD8012038700020EEE78C
:109150002DE9F0470025DFF88C803CE060680021B5
:1091600000EBC506012032789146FDF76CF9D4E991
:10917000062300EA020701EA030C57EA0C0728D08D
:1091800082438B434846C4E9062303F0DBFE327872
:109190008246914601200021FDF755F9D4E90423C8
:1091A00000EA020401EA03074A4650460021FDF79F
:1091B0004AF944404F403C430BD17078012801D01C
:1091C000012100E00021726881EA0A010AB14846E3
:1091D00090476D1CEDB298F8000044468542BDD31F
:1091E000BDE8F087202600202DE9F047894690F859
:1091F000C612904601EB8102C2EB811100EB4107E0
:10920000384606F09FFA06002FD0194CA0680628B1
:109210002BD2184D762205EBC0103946A0F80280FB
:10922000001DFDF723F90027B9F1000F04D0A06855
:1092300005EBC010077004E0A168022005EBC11126
:109240000870A06805EBC011401CCE67A060E16803
:1092500088420AD1002604E005EBC610C16F88479A
:10926000761CE0688642F7D3A760BDE8F08700006F
:1092700030250020542B002070B50E4690F8C61201
:10928000154601EB8102C2EB8111A0B000EB410059
:1092900006F058FA040009D07C2205496846FDF71B
:1092A000E5F8ADF8025068460196A04720B070BDC1
:1092B0007411030070B50E4604464FF43371FDF788
:1092C000EEF811480025A4F8CA62856084F8C952F6
:1092D0000E4884F8C65284F8C552006820602246C1
:1092E000012130469BDF0121112806D0002809D139
:1092F00084F8C71284F8C85203E084F8C71284F8CF
:10930000C812002070BD0000302500203C2B00203A
:1093100010B50021024802F0C3F880F3100010BD20
:10932000503B00200E4910B50A784C780023A24229
:1093300012D0521CD2B20A70022A00D10B70084A15
:109340000B780C3252F8232002608868104420F019
:109350007F408860012010BD0360002010BD000028
:109360004026002013460A460021FFF79DBD00005D
:109370002DE9F843104D0F4680461E46914669463A
:10938000286801F0E8FF040014D01C21FDF787F8DD
:1093900001202071C4F81490380BC4F80080C4E98F
:1093A00002606946286801F0F7FF06F059F80020CE
:1093B000BDE8F8830420FBE75014030010B594B017
:1093C000044603208DF80000C8890A3102282BD3F7
:1093D0000A88B4F84230801E9A4205D194F83C20A5
:1093E0008DF80620628F09E0B4F852309A421BD102
:1093F00094F84C208DF80620B4F84A20ADF80420EB
:109400008A798DF80820CA798DF80920E2688242AD
:1094100000D210460390206904900831039AFDF7AA
:1094200025F821686846884714B010BD10B5037848
:109430000022072B06D2DFE803F0050406102029DE
:1094400030000A7010BD01230B7003898B81838863
:10945000CB81C06888600A7410BD02220A7002893C
:109460008A818288CA81C2688A60807D062802D08B
:109470000020087410BD0120FBE703220A70C28897
:109480008A810289CA81C068886010BD04230B707C
:10949000C0888881CA818A6010BD0520087010BD0F
:1094A00070B5064D0646002455F8241009B1304623
:1094B0008847641C042CF7D370BD00000C340020D6
:1094C00030B50446006887B00D46806800281FD07C
:1094D00018216846FCF7E3FF0195A0680590207904
:1094E00010B1012810D107E001208DF8000020699B
:1094F0000290E068039005E002208DF80000E0682B
:10950000000302906069049020688168684688477B
:1095100007B030BD2DE9F04186B016460C008046FC
:1095200029D0112C27D0082C25D018216846FCF70B
:10953000B6FFADF80280404601F068F8ADF80400CF
:109540001B481C490027401AC5080D2C16D0204680
:1095500003F0DAFB0246012000EB054043461649C2
:1095600002F0C9FF07208DF8000002948DF80C70FE
:10957000684600F057F806B0BDE8F081022000EB25
:10958000054042460D4902F0AFFF03208DF8000070
:1095900026B13078C00701D0012000E002208DF80C
:1095A000080041F201108DF80C70ADF80A00DFE7F9
:1095B0007C2D03002C2D0300102503000024030044
:1095C00010B50446408801F021F8A08002480168E7
:1095D0002046BDE810400847482500202DE9F0410D
:1095E00007460024064E074D05E000BF56F824103C
:1095F00038468847641CE8788442F7DBBDE8F08190
:10960000EC3000206C25002010B50446408800F0A6
:10961000FDFFA080024801682046BDE810400847D1
:109620001013030001490968084700009C13030058
:1096300070B586B0044618216846FCF730FFA08953
:109640000125A0F54040ADF804002078324E0628F0
:1096500035D2DFE800F0340303032E4EA08900F07A
:109660008BF930B9E08943F6FE71A0F5404088429D
:1096700025D8A07B8DF808002078032811D0002081
:109680008DF80900A0680390606860B109208DF82A
:109690000000606804908DF81450684604F0ACFC3B
:1096A0000DE00120ECE708208DF800008DF8105047
:1096B000F3E7A08900F060F908B1E08930B1707873
:1096C000002801D004F0E2FD06B070BD606840B132
:1096D0000B208DF80000606802908DF80C507570BA
:1096E000DBE70A208DF80000BDF8040004F06CFEF2
:1096F000F5E7606858B114208DF8000060680290AA
:109700008DF80C504FF6FF70ADF80400C5E713203C
:109710008DF80000F6E700005825002038B5044613
:109720000E480078A8B1A4F57F40FF380FD06846F6
:1097300005F0C8FD78B10521017001210171C480D7
:10974000684605F0CDFD05F07DFE002038BD042003
:1097500038BD022038BD082038BD00007426002026
:109760000C4808B5007888B1684605F0ABFD78B1C3
:1097700006210170684605F0B3FD0748017809B17C
:109780000121017305F05EFE002008BD022008BD26
:10979000082008BD74260020D0340020F0B587B022
:1097A00014216846FCF77BFE2B4C207818B16846E4
:1097B000FFF776FE4EE0201D01F054FEB8BB4FF0DF
:1097C000102041690004026940694B1C01D100FB73
:1097D00002F1224800220161A1F54051C1602049F7
:1097E00002F01EFA002820D11F481C238C221D499C
:1097F000006801F09DFD04F091F9051E14D00228C7
:1098000012D000270126062D12D005A805F05AFD1A
:1098100088B106700C2D18D2DFE805F0170F170F6E
:1098200017161716171113110B2007B0F0BD11E012
:1098300026706760BBE70820F7E7077105E00321A2
:1098400000E00221017100E0067105A805F048FD65
:1098500005F0F8FD0020E8E7742600200C27002022
:10986000601403001C340020C813030038B5040042
:1098700014D0694605F0CCFEA0B1BDF8000000EBA5
:109880008001094800EB8100C16849B1A17A39B172
:10989000C168491EC1600020A07238BD052038BDD6
:1098A000062038BD0A2038BDA83400201FB501A904
:1098B000684605F069FE04B010BD07B513460A46B8
:1098C0006946002005F060FE0EBD07B513460A4646
:1098D0000021684605F058FE0EBD20B119B10068A0
:1098E000086000207047052070470000F8B50D465D
:1098F000040018D0BDB1694605F08AFEA8B1BDF8D4
:1099000000000B4900EB800001EB800001210C30CE
:10991000666801F0AAFD2E6060680C306860012066
:10992000A0720020F8BD0520F8BD0A20F8BD000097
:10993000A834002018B10323002207F0D9BA05206B
:1099400070470223002207F0D3BA0000084910B57F
:109950000A69042A0AD0074A096942F82100044822
:109960000121103001F081FD002010BD0C2010BD40
:10997000542600200C34002043F6FE71A0F5404030
:10998000884201D8012070470020704710B5044676
:109990000078182802D1FEF7F9FA207010BD10B532
:1099A00004460078182802D1FEF7F0FA207010BDA6
:1099B00070B50D460446B0F83812D0F834020122D2
:1099C000FDF785FE00B1057004F13C0204F50D7150
:1099D00004F1540072DF70BD70B5134600220546D5
:1099E000112900D10122074C33B12179FEF7F2FA97
:1099F00000226178284600E06178BDE87040FEF7FB
:109A0000E9BA0000E4250020F7B517460E0011D092
:109A10000098002560B100242146684601F007FD4A
:109A200018B1A0B23946B0476D1C641C142CF3D396
:109A30002846FEBD0020FEBD406805F063BC000066
:109A400070B508B1012070BD1B4C0025207B08B10A
:109A5000257301E000F0A4F8207808282AD2DFE876
:109A600000F02904080C10291422BDE8704000F011
:109A700025B8BDE8704000F081B8BDE8704000F046
:109A800063B8BDE8704000F03FB8062020706088E1
:109A9000094900EB8000283901EB80004068BDE8EF
:109AA000704004F01BB8072020706560BDE870406E
:109AB00004F022B80F2070BDD03400201149F0B45A
:109AC0008A1C00200346A1F128050C18A67A4EB185
:109AD000A37200EB800405EB8404E66816B9247CCD
:109AE000012C0AD0401C80B20228EED30B704B80B0
:109AF0004B60F0BC41F61D5070471080F0BC00F088
:109B00003DB80000D03400200C48418801EB8102B0
:109B1000A0F1280101EB8201CA6852B10521017050
:109B2000074802218180016800230122054801F0D5
:109B3000DBBF042202704968F6E70000D034002041
:109B40007C2600200C27002038B50A490848032449
:109B50000B684268898803EB810153880470DB1C21
:109B600000201B0400909B0B034802F011F938BD44
:109B7000D03400207C2600200C270020074910B597
:109B80004888091D05F094FD18B1BDE81040FFF7A5
:109B9000DBBFBDE81040FFF7B7BF0000D0340020A6
:109BA000F0B51F481F490125067802248B88A0F1D3
:109BB0002802082E19D2DFE806F00418181B222FFD
:109BC0002F170189491C01810021418080F80C1068
:109BD00001EB810312F8233043B100234418491CE0
:109BE00089B2A3720229F3D30570F0BD0123F5E712
:109BF00042685288D21C1A448A800470F0BD46889C
:109C00000D6806EB860602EB860256680E6055600C
:109C100013818C80062100E007210170F0BD000057
:109C2000D03400207C2600202DE9F04104468088B5
:109C30002188394E86B00746352937D0502923D0A0
:109C4000522902D054295DD102E000F0FDFF59E015
:109C5000182232496846FCF709FCADF80270384614
:109C600000F0D4FCADF8040000F09CF9002231793A
:109C70003846FEF7AFF90022F1783846FEF7AAF928
:109C80006846FFF79DFC3DE0207B01283AD1A07A91
:109C9000012837D12089A0F52451023932D1012180
:109CA000384601F025F806F0F1FE2BE04FF00008F1
:109CB00042467179FEF78EF9E288B2F5857F1DD0B4
:109CC00017481849401AC008022101EB004512B19B
:109CD000284615A10BE06289012A03D0284621A15C
:109CE00002F002FCA289012A04D028462CA102F02D
:109CF000FBFB03E0A07B00B10120804641463846D3
:109D000006F024FB00223549B078FEF7F5F806B0DE
:109D1000BDE8F04105F094BF402500204C1203003F
:109D2000342D03002C2D0300556E65787065637427
:109D300065642047415454207374617475732077AF
:109D400068696C652067657474696E672043415269
:109D500020636861722076616C75653A20307825E1
:109D6000780000004D756C7469706C65202825645E
:109D7000292043415220636861726163746572698E
:109D8000737469637320666F756E642C20757369D4
:109D90006E67207468652066697273742E00000017
:109DA000556E657870656374656420434152206325
:109DB0006861726163746572697374696320766146
:109DC0006C7565206C656E67746820282564292C85
:109DD0002073746F726520302E000000C97302007A
:109DE00070B504460078002814D1608800F02CFF7C
:109DF0006588284600F098F928B107480122C17803
:109E00002846FEF7E7F86088FEF780FEBDE8704060
:109E100006F03CBE70BD00004025002070B51A4C15
:109E200000252570FEF7B2F86070FEF7AFF8A0705D
:109E3000FEF7ACF8E070FEF7A9F82071FEF7A6F87F
:109E4000607162780121182A12D0A278182A0FD0E6
:109E5000E278182A0CD02279182A09D0182807D0BD
:109E600004F10C000560BFF35F8F2170002070BD0E
:109E70000648074A801AC00801EB0040054902F075
:109E80002FFB032070BD000040250020342D03006F
:109E90002C2D03006C1803007CB5044600780828BC
:109EA00037D1607A58BB207A1C4E4FF6FF750128D7
:109EB00011D0072802D008282BD121E0A08800F07B
:109EC000EFFA0446A84224D0012100F011FF2046F9
:109ED000FEF71CFE1DE0A0886A46012103F0AEFFDC
:109EE00068B90198007850B1A08800F0D9FAA8426A
:109EF0000FD00122F178FEF76DF805F0A1FE08E021
:109F0000F068012805D1BFF35F8F044900200C31B0
:109F10000860BDE87C4006F0B9BD00004025002087
:109F20002DE9F0418046024601200021FCF78BFA22
:109F30001A4F05460E467868FDF770F900280CD1D7
:109F4000174CD4E9062110462A4001EA06031A43B9
:109F500005D0A843B143C4E90601BDE8F0814046FD
:109F600002F0F0FF30B1D4E9040128433143C4E9E1
:109F7000040105E0D4E90410A943B043C4E9041086
:109F8000D4E9060128433143C4E90601A168786891
:109F9000BDE8F0410022FDF7FDB80000AC1303005E
:109FA000202600201CB5054AD2E90212CDE9001294
:109FB0000022694604F008F91CBD00006812030085
:109FC00003484FF6FF718180012101700020704726
:109FD000502500202DE9FC41804600F017FB0024AD
:109FE00003250127A0F57F412646FF3908D06A46A0
:109FF000082103F023FF18B90198841D868805689D
:10A0000032462B4621464046B1DF042804D00828BA
:10A0100004D00B2808D002E0112000E00020002F1F
:10A0200000D10B20BDE8FC810027A80701D5012540
:10A03000E6E7344303D0002426460325E0E706483C
:10A0400006494246401AC008012101EB004004497C
:10A0500002F04AFAE5E700003C2D03002C2D030036
:10A06000DC1A03002DE9FC41804600F0CFFAA0F590
:10A070007F410646FF390ED001252A466D1C002778
:10A08000ADB26B460821304603F022FF040006D033
:10A09000072C33D033E043F20200BDE8FC81019984
:10A0A00003230A1D0B604046891DB2DF040004D063
:10A0B0000C2C09D0052C09D009E0324608211046A5
:10A0C00003F07EFF04461AE0012700E00024082187
:10A0D000304603F06BFF70B102F016FE03460948EC
:10A0E00009493246401AC008012101EB00400749E6
:10A0F00002F001FA0324002FBFD100E00C24204617
:10A10000CBE700003C2D03002C2D03005C1A03005C
:10A1100004488088A0F57F41FF3901D005F09ABD41
:10A1200070470000502500200EB502A9019100F0F3
:10A130006DFA6A46012103F081FE08B100200EBDD0
:10A14000019800780EBD00002DE9F04107464FF65A
:10A15000FF761048B3DF78B102F0D6FD02460E4814
:10A160000E49401AC008012101EB00400C4902F0E1
:10A17000BBF90320BDE8F081064C43F20305A41EA1
:10A18000324661883846AFDFA842F3D16088401C70
:10A190006080F5E7522500203C2D03002C2D0300A4
:10A1A000101A03002DE9F04129492A4B0546808801
:10A1B000C91A0322DFF8A080C9080227A0F5285C8D
:10A1C000A8F5347602EB0144BCF1450C24D0A0F58F
:10A1D0002851463939D13078012836D10D20FEF783
:10A1E000F1FA08B1FCF78CFF377020461BA102F092
:10A1F00077F9297A204658F821201EA102F074F937
:10A200006A7A204623A102F06FF92A69204629A123
:10A21000BDE8F04102F068B97078012815D10E2030
:10A22000FEF7D0FA08B1FCF76BFF7770204629A142
:10A2300002F056F9297A204658F821200DA102F0A3
:10A2400053F96A7A204629A1E2E7BDE8F0810000CF
:10A25000CC2D03002C2D0300E82400204E65772030
:10A26000416C6572742073746174653A204F6E2E70
:10A2700000000000202043617465676F72793A2006
:10A2800020202020202020202020202020202020CE
:10A290002573000020204E756D626572206F662068
:10A2A0006E657720616C657274733A2020202020DF
:10A2B0002564000020205465787420537472696E00
:10A2C0006720496E666F726D6174696F6E3A202007
:10A2D00025730000556E7265616420416C6572746F
:10A2E0002073746174653A204F6E2E0020204E75E5
:10A2F0006D626572206F6620756E726561642061A3
:10A300006C657274733A202025640000428800EB6B
:10A3100082020C328A4201D9022070478188A1F55D
:10A320007F42FF3A03D0008808B100207047012027
:10A330007047884204D20068401C01D00120704759
:10A34000002070473EB5027802230C46B3EB520F53
:10A3500017D1B0F80110ADF80010C1788DF80210D7
:10A360008188ADF8041080798DF8060002AA01A951
:10A370002046FCF719FD032202A96846FCF7A1F864
:10A3800008B100203EBD01203EBD000070B50D4665
:10A390000446142810D2FDF73DFE68B1084904EBCD
:10A3A000840001EB4000D0F802102960C188A98028
:10A3B000007AA871002070BD43F2020070BD000059
:10A3C000542E002070B5018892B0102961D1011D72
:10A3D0002C226846FCF74AF89DF804004FF6FF76F9
:10A3E00003213446B1EB500F2BD003F0ABFE9DF8A8
:10A3F00004006D4640080ED001280CD0022820D160
:10A4000018E00D99281D1131FCF730FC18B100BF80
:10A41000BDF82C4015E00CAA0BA9072003F066FE3E
:10A420000028EED10DE00D99281D491CFFF78AFF89
:10A430000028EDD10CAA0BA9072003F057FE002835
:10A44000F1D1BDF80000B44200EB8001124820F8C1
:10A45000114000EB41000199C0F80210BDF808104E
:10A46000C1809DF80A10017213D0BDF80000ADF84C
:10A470002E000020ADF83040084E8DF82C000BADBA
:10A48000044600BF56F8241028468847641C022C56
:10A49000F8D312B070BD0000542E00207C120300CF
:10A4A0002DE9F0414FF6FF760546B04213D00B4F31
:10A4B000002400BF04EB840037F81000A84206D146
:10A4C0002046FDF7A7FD10B12046BDE8F081641CD1
:10A4D000A4B2142CEED33046F7E70000542E00202F
:10A4E0003EB50C46054603F02DFE0BE0BDF800001E
:10A4F000A04207D02846029900F00EF810B1BDF82E
:10A5000000003EBD01AA6946072003F0EFFD0028C8
:10A51000ECD14FF6FF703EBD2DE9F0410C460546EB
:10A5200000F1110701F111061022491C401CFBF734
:10A53000C8FF48B9681C00F032FA28B1601C00F06E
:10A540002EFA08B1012400E0002431463846FCF719
:10A550008DFB3B780222B2EB530F0CD00321B1EB01
:10A56000530F08D03378B2EB530F04D0B1EB530F35
:10A5700001D0012100E00021084201D18C4302D02A
:10A580000120BDE8F0810020FBE7018811B94218E5
:10A5900092780AB101207047491C0829F7D300209E
:10A5A000704710B50C460346FFF7EFFF00280AD0AE
:10A5B00018882188884205D10822A11C981CFBF725
:10A5C00080FF08B1002010BD012010BD142804D266
:10A5D000024A00EB800022F810107047542E002031
:10A5E00070B50546FFF75CFF0446284603F02AFCD9
:10A5F000002808D1142C06D2034B04EB84024FF63A
:10A60000FF7123F8121070BD542E002010B50446BF
:10A61000142808D2FDF7FEFC28B1044904EB84009D
:10A6200031F8100010BD4FF6FF7010BD542E002001
:10A630003EB5044603F086FD0EE001992046463102
:10A64000FFF7AFFF28B9019920462A31FFF7A9FF8C
:10A6500010B1BDF808003EBD6A4602A9072003F00C
:10A6600045FD0028E9D14FF6FF703EBD10B50A49FF
:10A6700041600A4800F0F6FE58B902F0CFFA0749E7
:10A680001C238C22087404488C39001F006800F0D9
:10A690004FFE002010BD0000541403007C35002044
:10A6A0002DE9F0412D4F002518B17D600120BDE856
:10A6B000F0810879012258B1294E01280CD0274C8D
:10A6C0004FF002080834022821D0032842D128E0A4
:10A6D0000A7103F011FA3BE05FF0000000EB80012B
:10A6E00016F82110022908D0401C80B20228F5D3A8
:10A6F0003A707D6041F61D50D9E700EB800006F806
:10A70000205006EB8000406803F0E8F920E00D716E
:10A71000A4F80480002301221248216801F0E4F922
:10A7200016E00D71206803F0D9F90D49236828312E
:10A73000498801EB810206EB8201D1F804C0C4F81C
:10A7400000C04B60A3880B81A4F8048006F8225057
:10A750000028ACD07D600E20A9E700007426002000
:10A76000A83400200C2700200146034802888A42B2
:10A7700000D0002070470000942A00202DE9FC5FE3
:10A780000E008346DDE90C47C6F10000984692466C
:10A79000814600D40846012503E000BF90FBFAF093
:10A7A0006D1C5045FADAA84500D9454624B1002E63
:10A7B00001DB780700D5641EB80702D5B8F1000F99
:10A7C0000AD0F80708D13CB1A54205D2202158464D
:10A7D000641EFEF77DF9F6E7002E02DA4E462D21C3
:10A7E00002E0780703D52B215846FEF771F907F0F0
:10A7F000030002280BD1B8F1000F08D13CB1A542EB
:10A8000005D230215846641EFEF762F9F6E7CDE91D
:10A810000047434652463146584606F0DDF8BDE84B
:10A82000FC9F000070B50D46044600684FF4887127
:10A8300002F08AFA4FF49071206802F085FA4FF422
:10A840009271206802F080FA4FF4A271206802F041
:10A850007BFA20681249C0F804132068690740F3A6
:10A860000730090E002806DA00F00F0000F1E020A2
:10A8700080F8141D03E000F1E02080F80014206847
:10A88000012140F3073000F01F0291404009800091
:10A8900000F1E020C0F88012C0F8001170BD000087
:10A8A00010030200024600201268530713D502F07D
:10A8B0000300012802D002280CD105E0C2F3831066
:10A8C0000B68801C184404E00223086803EB9252D2
:10A8D00010440860012070470248007A002800D028
:10A8E000012070477C350020F0B58488A51894427B
:10A8F00000D82246A41AC288D6189A4200D8134615
:10A90000D21A4B880788BB420CD34088834209D8AF
:10A910008888A04206D3A84204D8C888904201D3B0
:10A92000B04201D90020F0BD0120F0BD10B5098969
:10A930002AB1D088491C814218D1002010BD90F85E
:10A94000C62202EB8204C4EB821200EB420212899F
:10A950009142F2D0491C198090F8C61201EB810295
:10A96000C2EB811100EB4100008902E01980D08820
:10A97000401E5880012010BD018A71B1418B61B128
:10A98000818C51B1C18D41B1C18F31B1018E21B1E5
:10A99000B0F8400008B10120704700207047002146
:10A9A000425C0AB101207047491C1029F8D30020ED
:10A9B0007047800701D000207047012070470000D9
:10A9C0000A4810B5807860B1002401E0022C06D05E
:10A9D0002046FDF7EBFD641C042CF7D310BD0324C7
:10A9E000F6E7BDE81040FDF701BE0000102500208D
:10A9F00003480179C90702D00078FDF739BF7047D5
:10AA00001025002017210180418000210171417132
:10AA10001B218171C17170472DE9FE4F2E4F984661
:10AA200092460D00814601D000260DE0684600F0F8
:10AA300055FC6A460021484603F058F93878009ED4
:10AA400010B99DF8090098B152463146484605F0C4
:10AA500057FB0446014600224846FEF7BDFF0D2C79
:10AA600037D008DCA4B3082C33D00B2C09D130E04C
:10AA70000520BDE8FE8F112C1ED0A4F540500238F1
:10AA800027D0204602F040F90246144814494B46AC
:10AA9000401AC008012101EB0040124901F02BFDD2
:10AAA0005FF00305B8F1000F04D032462146484656
:10AAB000FEF730FD2846DCE72A46F9784846FDF7E0
:10AAC00089FA5246B9784846FDF784FA0025E9E745
:10AAD000FFE72546E6E70000E42500207C2D030083
:10AAE0002C2D0300B824030070B50E460C49154602
:10AAF00004460978FDF756FA00280FD0204603F0E7
:10AB00009BF800282A463146204603D0BDE8704015
:10AB100003F098B8BDE87040FEF724BC70BD00009B
:10AB2000DC25002070B5094D0646A978FDF73AFAF4
:10AB30000446E9783046FDF735FA014622463046AC
:10AB4000BDE870400123FFF767BF0000E425002047
:10AB50002DE9F047394E002780463D46DFF8E0906A
:10AB6000D6F804A057E003D00446D0F81C8035E0A6
:10AB700099F8002002EB4201521CD2B289F8002061
:10AB800009EBC10199F80230091D9A4201D189F8F7
:10AB9000005048680A780446012A12D0022A02D0DE
:10ABA000032A3BD108E005F05BFC00B101272574C6
:10ABB00034E00574C06900E070680028F9D1706065
:10ABC0002CE0207C50BB88686060C868A060086981
:10ABD000E0604869A061F07800B165606268B168C2
:10ABE000184B501A20F07F40984202D2A1680844C6
:10ABF00006E0881AA16820F07F40814202D9081A35
:10AC0000206000E0256065600120A560207420467A
:10AC1000E56105F007FCB8F10000A4D199F8001037
:10AC200099F801008142A3D117B97168514502D04A
:10AC30000120BDE8F0870020FBE70000402600204F
:10AC4000D8320020FFFF7F00F0B587B0054600270F
:10AC500018216846FBF723FCA5F57F40ADF80250AC
:10AC6000FF3825D02846FFF7B5F9040022D01B484D
:10AC70001B49401AC6080B2C22D0112C1ED0A4F55B
:10AC8000405002380ED0204602F03EF80246012025
:10AC900000EB06402B46134901F02DFC21462846C7
:10ACA00004F086FF10483A4681782846FDF792F96D
:10ACB00007B0F0BD0E208DF800000BE00127F1E792
:10ACC0000F208DF80000022000EB06402A460749BD
:10ACD00001F00AFC6846FEF773FCE3E7342D03003D
:10ACE0002C2D03003C19030040250020901903007F
:10ACF0000A4602494978FDF76DB900004025002059
:10AD00002DE9F041002786B080463E46FFF7AAF9BC
:10AD1000040022D0112C22D01B481C49401AC5081F
:10AD2000862C1ED0A4F5405002380ED0204601F0EB
:10AD3000EBFF0246012000EB0540434614A101F061
:10AD4000DAFB2146404604F033FF39464046FFF720
:10AD5000CFFF06B03046BDE8F0810126F5E70127B8
:10AD6000F3E718221A496846FBF780FB0220ADF88A
:10AD7000028000EB0540424616A101F0B5FB684693
:10AD8000FEF71EFCE1E70000342D03002C2D03002C
:10AD90006773636D5F6C6F63616C5F64625F636157
:10ADA0006368655F757064617465282920726574D5
:10ADB00075726E656420257320666F7220636F6EF6
:10ADC0006E5F68616E646C653A2025640000000067
:10ADD0001C120300466C6173682066756C6C2E2033
:10ADE000436F756C64206E6F742073746F7265208E
:10ADF0006461746120666F7220636F6E6E5F68615C
:10AE00006E646C653A202564000000002DE9FF4166
:10AE10000026234800F023FB2148001F074600F0CE
:10AE20001EFB204C60680090A56800E00098694611
:10AE3000284004EB80000C30FFF734FD0028F5D1EA
:10AE400001AA009901EA050304EB8303491CDB68AE
:10AE500042F82030401C00910228F2D3019800F003
:10AE6000030001280BD0022810D10198032101EB27
:10AE700090500099BDF80A6001EB900005E0019840
:10AE8000BDF80A60C0F3831008440090384600F013
:10AE9000E3FA08B10098606004B03046BDE8F08184
:10AEA0004C3B00203437002088B04FF40041002094
:10AEB00001F092FB08B1FCF723F901F0E9F9FCF786
:10AEC0003FF908B1FCF71CF94B490320FDF786FC5C
:10AED00008B1FCF715F969460020FDF7ABFB08B196
:10AEE000FCF70EF99DF80000022873D05FF0000512
:10AEF00001F088FC08B1FCF703F901F043FE08B14A
:10AF0000FCF7FEF8002469460120009401F0CAFC19
:10AF100008B1FCF7F5F8684601F044FD08B1FCF70C
:10AF2000EFF89DF8080035A120F00F00401C20F03C
:10AF3000F00010308DF80800132202A87CDF08B161
:10AF4000FCF7DEF84FF4C87000940194ADF80000EF
:10AF50004100ADF80440ADF80600ADF802106846B7
:10AF60007ADF08B1FCF7CCF80021294800F00DFB8E
:10AF700008B1FCF7C5F8FBF7B9FE2648FDF774F8F1
:10AF800008B1FCF7BDF8FBF73BFF1C216846FBF757
:10AF900086FA4FF42030CDE900404FF47020029043
:10AFA000012003268DF810008DF80C601A48ADF8CA
:10AFB0000E40CDE905406846FCF75AFF08B1FCF7A2
:10AFC0009FF803F047FA15481549401AC00806EBE8
:10AFD000004000E00DE013A101F082FA2846FBF7E3
:10AFE000BBFE00BF01F062F90028FBD101F01EFC9E
:10AFF000F8E701257CE70000298702004E6F7264A4
:10B0000069635F416C6572745F4E6F7469662E0090
:10B010007C270020FD8F02005B8E0200CC2D0300F8
:10B020002C2D0300416C657274204E6F7469666943
:10B03000636174696F6E20636C69656E74206578F6
:10B04000616D706C6520737461727465642E0000AC
:10B0500070B5144682880E4605462088111D0144AD
:10B06000921C994201D8FE2A01D90C2070BD521CB5
:10B0700032542088FF21401C80B220803154208827
:10B08000401C80B220808119288805F025FC218889
:10B09000084480B22080AA8842B1A96841B13044F6
:10B0A000FBF7E4F92088A98808442080002070BDBF
:10B0B000072070BD2DE9F047C5881E1DB6FBF5F7CA
:10B0C0008946B6FBF5F1044605FB176C4079166816
:10B0D0006843DDF820A0F718001F874200D9C61A80
:10B0E000166001E02468491E0029FBD1A5EB0C077E
:10B0F0008846B74216D818E004EB0C00001D09EB97
:10B100000803BAF1000F3A4602D00146184600E0A3
:10B110001946FBF7ABF92468F61B4FF0000CB84456
:10B12000B54201D9374600E02F46002EE4D1BDE8F4
:10B13000F087000030B5024651B101F06BFA0021F2
:10B14000074C08E034F821301568AB4202D1116099
:10B15000002030BD491C8142F4D3052030BD0000E1
:10B1600000000000BFF35F8F00F061B9F8B50F4633
:10B17000017814460546012901D1687830B120884C
:10B18000821C9A4232D8012902D006E00720F8BD7D
:10B1900069780144891C994228D8181A801E86B201
:10B1A000ADF800602188B81C084469467DDF00289E
:10B1B000EDD12978022904D06878BDF800209042AA
:10B1C00005D3BDF80000B04201D809200AE00820EC
:10B1D000012905D16978B14202D8ADF8001001E02B
:10B1E000ADF80060BDF80010FE2901D90C20F8BDB3
:10B1F0002288491CB9542188491C89B2218078547D
:10B200002088401C2080BDF80010084420800020C9
:10B21000F8BD000070B51A4B1A4C18481B1BDB0810
:10B2200001780324012204EB0344022913D00129ED
:10B2300019D002701448FCF785FC0546204613A17E
:10B2400001F04EF9002D17D0082D15D02846BDE885
:10B250007040FBF755BF02701120FDF7B3FA0546A9
:10B26000204611A1ECE7002101700748FCF75EFCC5
:10B270000546204612A1E3E770BD00001822002019
:10B28000CC2D03002C2D0300202700204E657720B5
:10B29000416C6572742053746174653A20456E6127
:10B2A000626C65642E0000004E657720416C65720B
:10B2B000742053746174653A204F66662E00000056
:10B2C0004E657720416C6572742053746174653AE1
:10B2D0002044697361626C65642E0000034A00219A
:10B2E0009268C0E90021816070470000E4250020D9
:10B2F00070B54FF6FF750E46A84201D1002000E060
:10B30000401C84B208E02146304600F090F808B1B5
:10B31000204670BD641CA4B2FF2CF4D9284670BD31
:10B3200010B5FAF7C2FF08B1002010BD112010BD02
:10B3300010B531B1B2FBF3F403FB14241CB10920A6
:10B3400010BD0E2010BD016000214160816082812E
:10B35000C381084610BD70B50C460546FAF75AFF82
:10B36000002802D021882868084470BD10B50A88DA
:10B3700049888A4203D1FAF78FFF012010BD0020CF
:10B3800010BD70B50C460546FAF769FF002802D0DB
:10B3900061882868084470BD10B50A8849888A42C7
:10B3A00003D1FAF753FF012010BD002010BD01F0BA
:10B3B0001F0301229A40D243490900EB8100114644
:10B3C00000F059B80A4601F01F030121994010B559
:10B3D00052090C4600EB820000F05DF8204000D0DE
:10B3E000012010BD2DE9F04180460D460024481E85
:10B3F000012101EB501716E058F82400C04390FAE1
:10B40000A0F0B0FA80F020280CD200EB4416AE4237
:10B4100008D231464046FFF7D5FF0028ECD1304630
:10B42000BDE8F081641CA742E6D82846F8E74A093F
:10B4300050F8220001F01F0201219140084000D085
:10B440000120704701F01F0301229A40490900EBD7
:10B450008100114600F029B8002100F017B8012141
:10B4600000F023B8012100F016B808B56A46FAF7D3
:10B4700068FF009808BD08B56A46FAF748FF0098CB
:10B4800008BD08B56A46FAF75CFF08BD08B56A460C
:10B49000FAF73DFF08BD08B56A46FAF72BFF08BD6D
:10B4A00008B56A46FAF71AFF08BD08B56A46FAF702
:10B4B00021FF009808BD08B56A46FAF74FFF0098CB
:10B4C00008BD38B5044600258DF800506846FBF7E6
:10B4D000B5FE21686268086890420ED9401E086077
:10B4E0000178238AE26801FB0325227A2168101A79
:10B4F000C0B20A79824200D208719DF80000FBF7C1
:10B50000C1FE284638BD38B5054600208DF800003C
:10B510000C466846FBF792FEE868298A201AB0FBC1
:10B52000F1F12A681068431C136001709DF8000057
:10B53000FBF7A8FE38BD10B530B1017A4268036848
:10B54000891AC9B21A6006E00E2010BD03681A6895
:10B55000541C1C601170491EC9B2F7D2006800214A
:10B560000171084610BDC20800F007030120895C84
:10B5700098400840704710B5C20800F00703885C87
:10B5800001249C402043885410BD10B560B1016176
:10B59000172120F8021B20F8021B1B2100F8021BB8
:10B5A000FFF730FA002010BD0E2010BDF0B58588E1
:10B5B00093B00C46002D39D1018800263F4F242935
:10B5C0003BD006DC102909D011290CD0232958D1F1
:10B5D0004FE03A290BD0552953D129E001462046A6
:10B5E00002F090F84DE0A01DFFF70CFA49E022466A
:10B5F000408934F8061F814200D808466080172829
:10B6000000D217206080106970B1607960B1D7E90D
:10B610000001CDE90301ADF80E506088ADF81000CF
:10B62000136903A9104698476671267113B0F0BDDF
:10B630000146204602F032F923E0011D2C2206A823
:10B64000FAF714FFBDF81800BDF81C2004EBC00188
:10B650004A732269AAB1D7E90423CDE90423ADF8DE
:10B660001200487B8DF814002269204604A99047F7
:10B6700007E0017A207B884200D201462846FDF788
:10B680005DFCA07A0028D1D0E1882846A5DF0125FD
:10B6900080B11128CAD001F037FB02460848094999
:10B6A00013B0401AC00805EB0040BDE8F04006A109
:10B6B00000F01ABFA672E572B8E70000841203001A
:10B6C0004C2D03002C2D030073645F626C655F6773
:10B6D000617474635F65786368616E67655F6D74DC
:10B6E000755F72657175657374282920726574754C
:10B6F000726E65642025732E0000000020B1027870
:10B70000DE2A03D0082070470E20704741800020B9
:10B71000704760B159B10278DE2A0AD009684160E9
:10B72000DE2101704FF6FF714180002070470E202E
:10B730007047082070477FB5054600294DD0002D81
:10B740004BD008780C46DE2847D1A888618888420B
:10B7500002D1204605F0F8F92888012825D00228D2
:10B760003BD011283AD0512837D135F8040F6188E1
:10B77000884232D1A978A81C02292ED1017A042945
:10B7800003D0062901D0052927D1002100910222EA
:10B790008DF8002001914FF4C07202910391ADF831
:10B7A0000420007A05280FD010E0297A20460129CC
:10B7B00013D1A988428891420FD10121017204B0AE
:10B7C000BDE8704005F0C0B9ADF80410288869469E
:10B7D000B0DF002801D0616888477FBDA8886188F4
:10B7E0008842FAD14FF6FF7060807FBD00F1804043
:10B7F0000068002800D00120704708B500F18040A3
:10B80000002101600068009008BD000070B50B4C7D
:10B81000207808B185250FE00020A06060602061DD
:10B82000E060074801F0AEFA054601F0F7F908B903
:10B8300001F090FA01202070284670BDF8310020F8
:10B84000CD8C020038B500258DF800506846FBF716
:10B85000F5FC074CE068401EE060E06810B901F0BC
:10B86000A1FAA5709DF80000FBF70CFD38BD0000A3
:10B87000F8310020F0B505460478154889B0164621
:10B8800040F82420124A0869121DA2F1080742F864
:10B890002400487F385520226846FAF7E7FD0494D3
:10B8A0002878385C48B10EB10A4A00E000226946A7
:10B8B000281D01F0F7FC09B0F0BD0EB1064A00E00A
:10B8C0000022694605F10C0001F0BEFBF3E7000021
:10B8D00008260020B5070300010603000FB408B5D1
:10B8E0000399002904D004AA00926A4600F00FF8D8
:10B8F00001B05DF814FB10B582680446002A05D03B
:10B90000D4E90403216898470020A06010BD2DE908
:10B91000FC4791460C00804676D014F8011B39B1E3
:10B9200025290ED04046FDF7D3F820780028F4D121
:10B9300098F80C00002867D04046BDE8FC47FFF7A8
:10B94000DABF0020012221782B291BD02D2902D01B
:10B95000302908D102E040F0010001E040F002008F
:10B96000641C002AEFD100252A290ED02178A1F1EC
:10B9700030020A2A11D205EB850201EB4205641C54
:10B98000303DF1E740F00400EAE7D9F800100B1D64
:10B99000C9F800300968641C0D44217800232E2961
:10B9A0000BD114F8011FA1F130020A2A05D203EBD2
:10B9B000830201EB4203303BF3E76C290DD0682989
:10B9C0000BD0692921D00BDC252918D0582931D07A
:10B9D00063290ED0642915D117E014F8011FECE794
:10B9E000702969D0732932D075291BD0782909D1E3
:10B9F00020E0D9F80000011DC9F800100178404688
:10BA0000FDF766F8641C90E76CE0D9F800100A1D99
:10BA1000C9F800200968CDE900500A224046FEF727
:10BA2000ADFEEFE7D9F800100A1DC9F8002009683B
:10BA30000A2206E0D9F800100A1DC9F8002009689A
:10BA40001022CDE90050404604F0C6FFDAE7D9F8ED
:10BA5000001000270A1DC9F800200E68C00705D194
:10BA600012E04046761C7F1CFDF732F83178002941
:10BA7000F7D104E0202140466D1EFDF729F8BD42B4
:10BA8000C0D9002DF6D1BDE74EB13046FAF712FD10
:10BA9000074604E0202140466D1EFDF719F8BD421F
:10BAA00006D9002DF6D103E04046761CFDF710F8CC
:10BAB00031780029F8D1A5E7D9F80000011DC9F8AF
:10BAC0000010056830214046FDF702F87821404615
:10BAD000FCF7FEFF08200021CDE9000103461022FB
