:020000040002F8
:1060000008540020C1630200C9630200CB63020090
:10601000CD630200CF630200D163020000000000E4
:10602000000000000000000000000000D363020038
:10603000D563020000000000D7630200D9630200AC
:1060400041670200DB630200E16A0200DB630200D9
:10605000DB630200DB63020079650200DB630200A0
:10606000DB630200DB630200DB630200DB63020030
:10607000DB630200DB630200DB630200DB63020020
:10608000DB63020099670200DB630200DB6302004E
:10609000BD670200DB630200C1670200DB63020030
:1060A000DB630200DB630200DB630200DB630200F0
:1060B000DB630200DB630200000000000000000060
:1060C000DB630200DB630200DB630200DB630200D0
:1060D000DB630200DB630200DB6302000000000000
:1060E00000000000000000000000000000000000B0
:1060F00000000000000000000000000000000000A0
:10610000000000000000000000000000000000008F
:10611000000000000000000000000000000000007F
:10612000000000000000000000000000000000006F
:10613000000000000000000000000000000000005F
:10614000000000000000000000000000000000004F
:10615000000000000000000000000000000000003F
:10616000000000000000000000000000000000002F
:10617000000000000000000000000000000000001F
:10618000000000000000000000000000000000000F
:1061900000000000000000000000000000000000FF
:1061A00000000000000000000000000000000000EF
:1061B00000000000000000000000000000000000DF
:1061C00000000000000000000000000000000000CF
:1061D00000000000000000000000000000000000BF
:1061E00000000000000000000000000000000000AF
:1061F000000000000000000000000000000000009F
:10620000DFF80CD000F07AF900480047E5A2020060
:106210000854002030B450E8012F93B2C4892344BD
:106220008489A34228BF1B1B0489A34202BFBFF37A
:106230002F8F002007E0C3EA020340E80134002C5E
:10624000E9D14FF001000A6030BC704750E8012FDF
:10625000C2EA024240E801210029F7D1704730B478
:1062600050E8022F1FFAA2F3C488A34202BFBFF373
:106270002F8F00200DE0C48923448489A34228BFC6
:106280001B1BC2EA034340E80234002CE8D14FF064
:1062900001000A6030BC704750E8022FC2EA224277
:1062A00040E802210029F7D17047034653E8022F46
:1062B000D988B2EB324F4FF0000017BF92B241EADB
:1062C000014142EA014104E05A68B2EB324F08BF93
:1062D000012043E80212002AE8D1704730B4044696
:1062E00054E8000F0D4644E80053002BF8D1156028
:1062F00030BC704730B4044654E8000F40EA010552
:1063000044E80053002BF7D1156030BC704730B41F
:10631000044654E8000F00EA010544E80053002B4E
:10632000F7D1156030BC704730B4044654E8000F14
:1063300080EA010544E80053002BF7D1156030BC1A
:10634000704730B4044654E8000F00EB010544E800
:106350000053002BF7D1156030BC704730B40446B1
:1063600054E8000FA0EB010544E80053002BF7D1DF
:10637000156030BC704770B404464FF0000054E81C
:10638000006F0D68AE4207BF44E80023012044E8D7
:1063900000630E60002B1CBF0020F0E770BC70474C
:1063A00030B4044654E8000F88422CBF451A054615
:1063B00044E80053002BF5D1156030BC7047000055
:1063C0000648804706480047FEE7FEE7FEE7FEE78F
:1063D000FEE7FEE7FEE7FEE7FEE7FEE7C567020031
:1063E000016202002DE9F05F0546002092469B46BF
:1063F00088460646814640241BE0284641464746DB
:10640000224600F06BF853465A46C01A914110D309
:1064100011461846224600F016F82D1A67EB0108BF
:106420004F4622460120002100F00DF817EB00092D
:106430004E41201EA4F10104DFDC484631462A46C5
:106440004346BDE8F09F202A04DB203A00FA02F11F
:10645000002070479140C2F1200320FA03F3194352
:1064600090407047004870472005030040EA010350
:106470009B0703D009E008C9121F08C0042AFAD2FA
:1064800003E011F8013B00F8013B521EF9D27047BE
:10649000D2B201E000F8012B491EFBD27047002266
:1064A000F6E710B513460A4604461946FFF7F0FF13
:1064B000204610BD421C10F8011B0029FBD1801A98
:1064C000704730B504460020034600E05B1C934251
:1064D00003D2E05CCD5C401BF8D030BD202A04DB49
:1064E000203A21FA02F00021704721FA02F3D0404D
:1064F000C2F120029140084319467047064C074DEF
:1065000006E0E06840F0010394E807009847103483
:10651000AC42F6D3FFF778FE9C190300BC190300C8
:1065200070B58C1810F8015B15F0070301D110F855
:10653000013B2A1106D110F8012B03E010F8016B82
:1065400001F8016B5B1EF9D12B0705D40023521E05
:106550000DD401F8013BFAE710F8013BCB1A921C6D
:1065600003E013F8015B01F8015B521EF9D5A1426B
:10657000D8D3002070BD00002DE9F04700268AB076
:10658000DFF85091B0464FF48075012437460696E7
:10659000284604F083FF38B1D9F80403204203D021
:1065A000284604F071FF26432D1D64007F1CADB208
:1065B000082FEDD34FF4BE74204604F06FFF48B1AE
:1065C000204604F061FF46F0004606AA01210020A3
:1065D00004F046FF404D16F0FF0F15D001270024B0
:1065E00037420DD009EB8401D1F81005D1F8101510
:1065F000C0F3042055F82420C1F3014102B19047B3
:106600007F00641C082CEBD3002E5FDA4FF0FF30C4
:10661000CDF8108054E0281910F8507F90F9000050
:1066200027F0C008401C3BD007A9404604F079F988
:1066300010B34FEA9719404601F05CFF55F82070FF
:106640001FB1B9F1030F03D006E0B9F1030F27D151
:1066500004A9404604F06DF94FF0A04101EB880019
:10666000D0F8000706A9C0F3014A404604F059F9E2
:1066700018B1BAF1020F03D012E0BAF1030F0FD133
:10668000B9F1030F08D1BAF1020F1DD00221404623
:1066900004F0CAFE761CF6B217B149464046B84728
:1066A000641C042CB7D3002E10D06A4601210020B0
:1066B00004F0D6FE06990098884207D00690049808
:1066C000002634460790A6E70321E0E70AB0BDE8BC
:1066D000F087000000600040BC2A002000F01F028C
:1066E000012191404009800000F1E020C0F88012B3
:1066F000704700F01F02012191404009800000F125
:10670000E020C0F80011704700F01F020121914005
:106710004009800000F1E020C0F8001270474907EE
:10672000090E002806DA00F00F0000F1E02080F8E2
:10673000141D704700F1E02080F80014704700003D
:1067400070B54FF48076304604F02EFA114CB50542
:1067500060B1304604F02FFA0120C5F808036079D3
:1067600020B9012060712168002088474FF48276AB
:10677000304604F019FA00280AD0304604F01BFA1B
:106780000220C5F808032168BDE8704001200847D1
:1067900070BD00000823002007480021C0F8401108
:1067A000C0F84411C0F84811C0F84C11C0F80011ED
:1067B000C0F8041108F06ABE0010014008F0B4BD32
:1067C00005F0F8BBF0B5B5480023021D0178101D97
:1067D00001254FF0805406290BD11678360708D1D1
:1067E0000678C6F30316032E06D0042E04D0052E19
:1067F00002D0062907D00EE0B4F82463A84FC6F3F0
:1068000004263E6002E01678360704D10678C6F307
:106810000316032E02D0062904D00FE0A24FA14E8A
:106820007E670EE01678360708D10678C6F30316A1
:10683000032E06D0042E04D0052E02D0062907D040
:106840000EE0D4F84462994FC6F342363E6002E04F
:106850001678360704D10678C6F30316032E02D045
:10686000062906D011E0924E376827F0807737600E
:106870000EE01678360708D10678C6F30316032E05
:1068800006D0042E04D0052E02D006290AD011E02D
:106890004FF08046C6F80C31C6F81031834E361FD3
:1068A000336002E01678360704D10678C6F3031683
:1068B000032E02D0062905D00CE07C4F0326643756
:1068C0003E600AE01678360704D10678C6F3031650
:1068D000032E02D006290DD014E0764F05263E6027
:1068E000744E78363560734E083633603F263F1D50
:1068F0003E6002E01678360704D10678C6F3031628
:10690000052E02D0062957D062E06B4E36686B4FD9
:106910003E60694E361D36683F1D3E60664E083645
:1069200036683F1D3E60644E0C3636683F1D3E6043
:10693000614E103636683F1D3E605F4E1436366835
:106940003F1D3E605C4E183636685C4F20373E6017
:10695000594E1C3636683F1D3E60574E203636680D
:106960003F1D3E60544E243636683F1D3E60524EF9
:10697000283636683F1D3E604F4E2C3636683F1D28
:106980003E604D4E303636684C4F40373E604A4E82
:10699000343636683F1D3E60474E383636683F1DF8
:1069A0003E60454E3C3636683F1D3E60424E4036A6
:1069B00036683F1D3E6002E01678360708D106783B
:1069C000C6F30316032E06D0042E04D0052E02D0E3
:1069D000062907D019E0D4F85812394A01F04F01BE
:1069E000116002E0117809070FD10078C0F303109D
:1069F000032803D0042801D0052806D131480168B6
:106A0000C90702D06FF001010160D4F830010628F7
:106A100008D1D4F83401062804D12B48016841F488
:106A20008061016022487438016841F4700101609E
:106A3000BFF34F8FBFF36F8F4FF01021D1F80002DB
:106A4000002803DBD1F80402002822DA1F4A15606F
:106A50001F480468002CFCD01524C1F800420568CA
:106A6000002DFCD0C1F8044201680029FCD013605D
:106A700001680029FCD0BFF34F8F0D48F038016842
:106A8000144A01F4E06111430160BFF34F8F00BF6E
:106A9000FDE7124910480860F0BD0000E00F00F06B
:106AA000403501400DF0ADBA00C007403C05004044
:106AB000FCED00E0105600400404001020C500402A
:106AC000E40E0040000400403C17004004E5014093
:106AD00000E401400400FA050090D00300240020E7
:106AE00001480068004700001023002002E008C8A9
:106AF000121F08C1002AFAD170477047002001E038
:106B000001C1121F002AFBD170470000012120287B
:106B100003DA81400548014003E0402802DA2038CA
:106B2000814009B10120704700207047FC06FFBD7D
:106B30002DE9F843804643F2020659B9694606F04A
:106B400031FDB04202D008B100F0BAF99DF8000062
:106B5000800744D40021404606F060FD05003ED089
:106B6000112D3CD01F482049401AC708022000EBD5
:106B700007440D2D0AD00B2D1DD0B5421FD11B4946
:106B800020464246BDE8F84304F08CBE204642460B
:106B9000174904F087FE1321404676DF00281ED0F7
:106BA00005F090FA024601B020464346BDE8F043A6
:106BB00010A104F07EBE204642461C49E2E728466A
:106BC00005F080FA0246012000EB0740434618A179
:106BD00004F06FFE2846BDE8F84300F071B9BDE847
:106BE000F8830000041A0300CC1903004C0C0300C6
:106BF000D80B030073645F626C655F6761705F64EC
:106C00006973636F6E6E656374282920726574758D
:106C1000726E6564202573206F6E20636F6E6E5FE9
:106C200068616E646C652025642E0000980C03007A
:106C3000417373657274696E672E20706D5F636F48
:106C40006E6E5F7365637572652829207265747551
:106C5000726E6564202573206F6E20636F6E6E5FA9
:106C600068616E646C652025642E000010B560B10B
:106C700059B102780B785208B2EB530F05D10622B6
:106C8000401C491CFFF71DFC08B1002010BD01206D
:106C900010BD800701D00020704701207047C368F5
:106CA0008B4206D811440069491E814201D8012057
:106CB00070470020704710B501220221002001F02A
:106CC000F9F908B1072810D107220221012001F0AB
:106CD000F1F908B1072808D100210A22084601F07D
:106CE000E9F908B1072800D1002010BD10B560B146
:106CF0000B480C49401AC008032101EB00400AA1CF
:106D000004F0CCFD07F0D6F903E003210A4800F0B7
:106D1000CEFC002803D0BDE8104000F0D1B810BD73
:106D20005C1A0300CC190300457261736520626F21
:106D30006E647321000000003824002070B58CB010
:106D400015460E4600236C46C3F10F01415CE15429
:106D50005B1C102BF8D30D2104F11000FFF79FFBF3
:106D60000020C0F10F02315C2244401C1174032842
:106D7000F7D3684646DF0020C0F10F01214491F8A7
:106D800020102954401C0328F6D30CB070BD0220FB
:106D900001F09AB80149C97800F03ABEDC2200201F
:106DA00070B50024064D06E06868012110F8340033
:106DB00005F0ECF9641C28788442F5D3002070BDFE
:106DC00018230020F8B515460C460646052A01D2C0
:106DD0000720F8BD05F0D6FA18B905F09BFA00288F
:106DE000F7D1124900224E600C708D60C1E9042277
:106DF000C1E906220E4D0DE006EBC40029680091A2
:106E000081788DF8011000780A4A694605F010FA79
:106E10000028DED1641EE4B2EED2BDE8F84004489A
:106E20000021054A001D00F057B80000182300207B
:106E300094010300399502000189020072B604F042
:106E4000DFFD00BF04F010FC0028FBD111481249FF
:106E5000401AC408012000EB044010A104F01EFDFC
:106E600011480068C00700D000BE022000EB0440BB
:106E70000EA104F013FDBFF34F8F0B48E4380168F7
:106E80000E4A01F4E06111430160BFF34F8F00BF70
:106E9000FDE700005C1A0300CC1903004661746131
:106EA0006C206572726F7200F0ED00E053797374BC
:106EB000656D207265736574000000000400FA05BA
:106EC0000EB500210091CDE901106A4644F201009F
:106ED000FFF7B4FF0EBD0000084B9B7823B12AB129
:106EE00020B10068037C1BB1082070470720704761
:106EF000002303744174426118467047882B0020B8
:106F000070B507F007FC104800240B210470447092
:106F10000E4D817014206C602C706C70FFF7DEFBDE
:106F200006211420FFF7FBFB1420FFF7E2FB0848C3
:106F3000046006211120FFF7F2FB0548001F0068DE
:106F4000A860002070BD0000882B0020382300209E
:106F5000081501402DE9FC47DFF8789099F80230D8
:106F600073B368B3052902D20720BDE8FC874369E3
:106F700033B3437C012B25D00027044600258846E7
:106F800016468DF80050684600F038F801A808F061
:106F900021FDC8B1012101700F4944600968C0E9B1
:106FA0000218C0E904769DF8040089F801009DF8F4
:106FB000000000F047F81420FFF7A6FB2846D4E7AE
:106FC0000820D2E70F46D8E704259DF8000000F01E
:106FD00039F8F3E7882B0020041501400649897829
:106FE00039B130B1416921B100210174022108F0A9
:106FF00029BA082070470000882B002030B5EFF335
:10700000108172B60D4A9468012324B103700029DF
:1070100000D162B630BD93604FF0E023D3F88051C9
:10702000074C25401560C3F88041D3F88441546073
:107030005A17C3F8842100220270E8E7942C00203C
:10704000FC06FFBD0B498A68002A11D000280FD129
:10705000EFF3108072B60B684FF0E022C2F80031F7
:107060004B68C2F8043100228A60002800D162B661
:1070700070470000942C00202DE9F0410646086876
:107080000C46411C4FF0A0474FF0010506D005FA11
:1070900000F1C7F80815206804F0B2F96068411CD7
:1070A00002D0002104F09AF93168A069C1F82405E2
:1070B000607D227D31681043C1F86C05D4E900126F
:1070C0003068C0F81425C0F80C15207D012815D1B2
:1070D000A068411C02D0002104F080F9E068411C46
:1070E00005D08540C7F80855E06804F089F9D4E96F
:1070F00002123068C0F80825C0F81015BDE8F0810C
:107100002DE9F041064608680C46411C4FF0A047A7
:107110004FF0010506D005FA00F1C7F80815206800
:1071200004F078F96068411C02D0002104F05FF996
:107130003168A069C1F82405607D217D326808436B
:10714000C2F86C05D4E900123068C0F80C15C0F81C
:107150001425207D012815D1A068411C02D00021F2
:1071600004F045F9E068411C05D08540C7F8085592
:10717000E06804F04FF9D4E902123068C0F808253D
:10718000C0F81015BDE8F08102F07CBF2DE9F04792
:10719000814605884A484FF000088AB00178424687
:1071A000284600F04DFC99F80500400701D4002165
:1071B00076E005F58077B8B201AB0122072105F032
:1071C00065FE04003F48404A4FF00101A0EB020079
:1071D0004FEAD00001EB00460AD0204604F072FFCF
:1071E000024630462B46394904F063FB214629E02C
:1071F000284602F063FC4FF6FF71044688422BD10B
:107200008A46029802F0C4FB0446504510D001465D
:10721000284602F033FC2846FFF7BCFDE0B92846BB
:1072200007F06EFC2846FFF7B5FD0028BFD013E03D
:1072300005F0F8FF0446504508D1304624A104F07B
:107240002DFB0421284607F089FCB0E701462846BB
:1072500002F014FC4FF00108B8B22246072105F0F5
:107260008DFE07001BD0862F1ED004F02BFF024698
:1072700030462B462349009404F023FB3946284628
:1072800007F06CFC0021484605F0F4FCB8F1000F53
:1072900002D0204602F0FCFB0AB0BDE8F0870121D5
:1072A000484605F0E7FCF7E71822174903A8FFF75F
:1072B000DDF8ADF80E5003A801F0B2FCEFE70000D6
:1072C000DC2200200C1A0300CC190300500F03002D
:1072D000436F756C64206E6F7420616C6C6F6361BA
:1072E0007465206E657720706565725F69642066DD
:1072F0006F7220696E636F6D696E6720626F6E6476
:107300002E000000FC0F03002C0103002DE9FC47B8
:10731000002517880646158090F82D0014468946EA
:1073200030B13A462146484600F0B4FB051E09D16B
:10733000B0784FF00C0A18B32088C846001DB84238
:1073400002D95046BDE8FC87684679DF0028F9D1AC
:107350002088032108F8001020881921401C80B2E1
:10736000208008F800102088401C80B2208000EBAC
:107370000801BDF8000008F04DFA2188084420807B
:10738000F0780222C8B1218896F9033001F1030C8C
:107390004846BC45D5D8425421884FF0010C491CC1
:1073A00089B2218000F801C02188491C89B221805E
:1073B00009F801302088401C20807068B8B121880D
:1073C00090F9003001F1030C4846BC45B9D842544D
:1073D00021880A22491C89B2218042542188491CF3
:1073E00089B2218009F801302088401C2080308932
:1073F00050B1CDE900474B460622022106F10800B4
:1074000008F000FB051E9DD1308A50B1CDE9004740
:107410004B460722032106F1100008F0F3FA051E7F
:1074200090D1308B50B1CDE900474B461522142145
:1074300006F1180008F0E6FA051E83D1306A30B173
:107440003B462246494601F014F9051EDBD1706A1D
:1074500030B13B462246494603F03CF8051ED2D1E6
:1074600096F82C0038B13B4622464946304607F094
:107470004FFC051EC7D1307838B13B4622464946FD
:10748000304603F0B5F8051EBDD128465AE718B5B9
:1074900004460020ADF8000013466A46204600F07E
:1074A00006F8002802D0BDF80000204418BD70B5D1
:1074B00088B182B10024158803E0065D641C344461
:1074C000A4B2A54203D8061976789E4201D08C4218
:1074D000F3D38C4201D3002070BDA11C1180005D4C
:1074E000401E80B270BD80F8301070472DE9F04723
:1074F0000D00044606D02CB195F87A00002601282C
:1075000003D006E00E20BDE8F08795F8980001282A
:1075100029D0D5F8A000042825D0D5F89C0004284F
:1075200021D04FF00109A6702C2205F17801201D11
:10753000FEF79CFF84F83060D5F8A4006063D5F8AE
:10754000A800A0634FF6FF70A4F8480204F50D7080
:10755000C4F84402C4F84A62A4F84E6284F8506247
:10756000207810B104E00720CDE7FF2084F8540014
:1075700004F15501C4F8341294F82400EE274FF0BA
:107580001F0801281FD0A4F8388200BF04F50E722E
:107590002846FFF7BBFE0028B5D115F13C0F18D0E7
:1075A00004F24311C4F83C1294F8240001280DD0D1
:1075B000A4F8408204F5107205F13C00FFF7A6FE26
:1075C0000028A0D109E0A4F83872DFE7A4F84072DF
:1075D000F0E7C4F83C62A4F8406284F85190208B34
:1075E000A4F8480084F83C90266484F850606069F0
:1075F00060644D4604F13C02002104F1540072DF46
:10760000002880D125707EE710B50288102A1BD093
:10761000112A20D0262A1DD1007A0C46012801D03B
:10762000022817D1A0780521401CB0FBF1F201FB24
:107630001201204600F03BF800280BD0A16B002976
:1076400008D0BDE810400847C27B012A02D18088DB
:10765000A1F8480210BD0C46002184F8521280881F
:10766000B4F848128842F5D120790028F2D10121DE
:10767000DFE7704710B5044690F8540074DF01202E
:1076800084F85202002084F8540284F85000062145
:10769000204601F099FC002808D1A178204600F08E
:1076A00006F810B1A16B01B18847002010BD2DE98B
:1076B000F05F044600780F4698B1A7700025C4F823
:1076C0004A52A4F84E5284F85052A079012608B1CB
:1076D000012F09D0E07980B1012F05D0022F03D00E
:1076E0000BE00820BDE8F09F616B21B184F8516286
:1076F0000820884701E084F8515204F24B21002011
:107700000A5C0AB1304603E0401C0628F8D300208A
:107710004FF002084FF0030B012F06D0022F0CD0C0
:10772000032F0FD0042F15D110E0A17929B194F8BF
:10773000241011B908B130460DE0E17911B108B15A
:10774000404608E0207A08B1584604E0607A08B163
:10775000042000E02846A070616B41B1032801D0ED
:10776000042804D1607910B194F85202A0B184F8D1
:10777000535204F13C0018210746FEF790FE04F135
:107780002C0084F83C60814605F078FE58B194F8EE
:107790002C0084F8510008E084F8545284F85362B5
:1077A00007208847E5E784F8516094F8240050B139
:1077B000484605F063FE20B194F8280084F8520092
:1077C00001E084F8526084F85050A27804F24A2113
:1077D00004F50D794FF0060A052A62D2DFE802F0BF
:1077E0007A030F22410084F83160C4F84452C4E99E
:1077F000101584F83C808020A4F8480053E084F8F9
:10780000318094F82420384612B10722027001E03A
:1078100080F800B0228A8281C4F844524160E16855
:10782000B96040E06069B860208BB88194F82400AA
:107830003D4610B184F83CA001E084F83C6020464D
:1078400008F0A4F850B185F814800421204601F016
:10785000BBFB30BB052184F8311020E084F831B047
:107860001DE0E069B860208CB88194F824003D46A2
:1078700010B184F83CA001E084F83C60204608F098
:1078800085F848B185F814800421204601F09CFB5E
:1078900038B984F831A002E0042084F83100C4F83B
:1078A0004492A07878B13A4604F15400D4F84412D6
:1078B00072DF00287FF416AF94F8301094F854006B
:1078C00073DF0028F6D1616B11B194F8310088475D
:1078D000002007E784F83150F5E7000070B5040098
:1078E00012D001461C221448FEF7C0FD1248134D69
:1078F0000560206850B17ADF002806D12068016851
:1079000029604068686005E00E2070BD0B487BDF91
:107910000028FAD108484FF6FF711438084A20F8B9
:10792000041B0549343901600021FFF7D5FA00280E
:10793000EBD0032070BD000030270020382200204B
:1079400025F9020010B5044600F09AF8002805D089
:107950002146BDE81040024802F047BF10BD0000BC
:107960005C27002070B515460E46044608F01AF84C
:10797000002809D0054800EB840080692A4631467A
:10798000BDE8704001F04CBB70BD00004C270020EA
:1079900010B5044600F074F8002805D02146BDE873
:1079A0001040024802F021BF10BD000060270020F7
:1079B00070B50546002400F063F838B12946044844
:1079C00002F013FF08B1022400E00124204670BD3C
:1079D0005827002070B50546002400F051F838B152
:1079E0002946044802F001FF08B1022400E0012406
:1079F000204670BD5427002010B51821034802F01E
:107A0000CFFE182800D0C0B210BD00004C270020C7
:107A100070B505460C46084607F0C4FF60B128461D
:107A200000F02EF840B10548294600EB8400BDE87F
:107A30007040183002F0D9BE002070BD4C270020E5
:107A400070B5054614460E46084607F0ABFF002801
:107A500012D0284600F014F800280DD00748294617
:107A600000EB860018301CB1BDE8704002F0C8BEC3
:107A7000BDE8704002F079BE70BD00004C270020C8
:107A8000142801D3002070470146014802F0ADBE22
:107A9000502700207CB5054608880C4609309042E6
:107AA00001D90C207CBD68466DDF0028FAD1218801
:107AB0000820685420881B21401C80B22080295453
:107AC0002088401C80B220802844DDF8011001602D
:107AD000BDF8051081802088801D80B220809DF82F
:107AE0000010490800D0012129542088401C208022
:107AF00000207CBD38B501880446212930D012DC35
:107B00001E481F4A1029A0EB02004FEAD0004FF098
:107B1000030202EB00400ED011292AD1BDE8384003
:107B200018A103F0BBBE3B2924D0562921D180885F
:107B3000132176DF0EE017A103F0B0FE072000F05E
:107B4000DBFA08B1FFF7BCF91548A1880180154898
:107B500002F0B2FF00280CD0BDE83840FFF7B0B902
:107B600000200090A08869468FDF002801D0FFF731
:107B7000A7F938BD8088132176DFEBE75C1A030094
:107B8000CC190300446973636F6E6E65637465643A
:107B90002E000000436F6E6E65637465642E0000F6
:107BA000182200202C24002010B51A4C018860688F
:107BB00010290ED011292BD1401E606028D1FFF76B
:107BC0007AF8002824D02168002921D0BDE810408F
:107BD0000847D0B900210122084600F06BFA08B12D
:107BE00007280FD107220221012000F063FA08B113
:107BF000072807D104220221002000F05BFA20B1FF
:107C0000072802D0216801B188476068401C606085
:107C100010BD0000302200202DE9F04701883B4EC6
:107C200040F2F3194FF6FF7510291BD011293ED0F1
:107C3000122954D0502946D1C188F289841D91421D
:107C400041D1618902293ED18688304601F0E4FFA6
:107C5000050038D004F10C0000F0F2F8A8B3294672
:107C600030464EE0C17B8788044601292BD1A846C7
:107C7000284601F0D1FF050017D02F800020287280
:107C8000234843464A460168C5F80A104068C5F8CB
:107C90000E0004F1100105F10A0002F07DF868728F
:107CA000F08900280FD129462AE0042013E08088BB
:107CB00001F0B2FF040006D06068FFF78FF908B149
:107CC00006F030FF2580BDE8F087FFE76868FFF722
:107CD00085F90028F7D0BDE8F04706F023BF878874
:107CE0000646384601F098FF0400ECD02B464A4681
:107CF00006F1080104F10A0002F04EF86072214614
:107D00003846BDE8F04700F0FBBC000030270020FB
:107D1000382200202DE9F04F0746858802883D482B
:107D2000012197B08346102A09D0112A49D01A2A76
:107D30006CD1387AB1EB101F45D2012244E0354CAA
:107D4000083CA068C0430B9061680BA802F071FD6D
:107D50000B990CA800F06EFC2C220CA96846FEF7CB
:107D600085FB0026E946A04610E000BF09EB46006F
:107D70005FF00004B0F804A008EB84005146001D39
:107D800002F0F3FC641C1D2CF6D3761C0098B04264
:107D9000ECD8142D05D317B00420BDE8F04FFFF741
:107DA0008FB82946584602F02BFD294608F10400F9
:107DB00002F026FDF87B012828D016482946001D30
:107DC00015E029461AE000220221B1EB101F01D272
:107DD000012600E000260F49083901F11000041DBA
:107DE000294682B102F00CFD36B12946204617B073
:107DF000BDE8F04F02F004BD2946204617B0BDE8AB
:107E0000F04F02F0B2BC02F0B0FCF5E717B0BDE8ED
:107E1000F08F00005427002010B504460748007872
:107E200000280AD0204601F025FD204606F0C8FFB4
:107E30002046BDE8104001F003BA10BD6C220020BE
:107E4000007800F0010070470149085C70470000AD
:107E5000ACFF02000649095C4FF0A040D0F81005C5
:107E6000C84010F0010000D0012080F001007047F0
:107E7000ACFF02002DE9FC410646C0074FF00005AB
:107E80000ED0104F00240122385D009500231146CA
:107E9000019503F049FA641C042CF4D300F046F871
:107EA000B0070DD5074E0024361D0022305D032398
:107EB00000951146019503F037FA641C042CF4D3A5
:107EC000BDE8FC81A8FF020007490B5C4FF0A04110
:107ED000D1F804250120984020EA0203C1F80835B2
:107EE0001040C1F80C057047A8FF02000249085C69
:107EF000012103F0AABA0000A8FF02000249085CB1
:107F0000002103F0A2BA0000A8FF02000649095CA4
:107F10004FF0A040D0F80405C84010F0010000D098
:107F2000012080F001007047A8FF020010B5002476
:107F30002046FFF7DBFF641C042CF9D310BD10B5FD
:107F400000242046FFF7DAFF641C042CF9D310BD8F
:107F500010B50246064B4FF0FF3000215C5C9442A6
:107F600001D1084610BD491C0429F7D310BD0000FB
:107F7000ACFF020070B50C4E0C004FF000053060F5
:107F80000BD0012000F06AF808B1022004E00020C4
:107F900000F064F800B10B202070706810B9FEF793
:107FA0008AFE0546284670BD3022002010B500200C
:107FB00000F0DCF908B1062806D1012000F0D6F95E
:107FC00008B1062800D1002010BD00002DE9F047BF
:107FD0000D468146FFF7BCFF0446042836D2DFF881
:107FE00074801B481C4EA8F10C0725B3012D0ED040
:107FF000022D2BD104EB440030444578002D25D0D0
:10800000B968002922D02846BDE8F047084704EBAC
:108010004401755C0E44717849B10E4A4FF4004139
:10802000093A8068FEF796FF08B987F80390B1789F
:1080300008F80410E2E78068FEF7D0FF04EB440183
:10804000314418F804008D78A842D7D0BDE8F087F5
:10805000B0FF02002C220020D0260020042801D2EC
:10806000FFF7F8BE002070470146104810B50088A1
:10807000042907D007290ED00A2915D1BDE81040E0
:1080800006F08ABE132176DF0CE000280CD0BDE894
:108090001040FEF715BFA0F57F41FF3904D1044819
:1080A000FFF7E8FA0828F0D110BD000018220020E0
:1080B0003824002070B50023042810D20D4D00EBA9
:1080C0004004012A02D101290CD00022094E00EB04
:1080D0004000304461B1012906D0022906D00723AF
:1080E000184670BD0E30C2B22A55F9E74270F7E764
:1080F0008270F5E7D0260020044A0146002012795C
:10810000D20702D0084600F04DB870472022002068
:1081100070B506461E480024C0E90161B00720D5AD
:108120000025012211462846FFF7C4FF6D1C0446B6
:10813000042D02D2002CF4D013E094B940F2666210
:1081400004211448FEF73EFE04000AD1FEF728FE83
:10815000040006D10F48104A0021001FFEF7BCFEA4
:108160000446F00712D00120FFF784FE74B90948D5
:108170000A4A00210C38FEF7AFFE040006D105487C
:10818000074A01210838FEF7A7FE0446204670BDC5
:1081900020220020BCFF0200398402002D9E020034
:1081A0008F6D02002DE9F05F6E4C05460026607869
:1081B000B34618B184F801B001F020FE6A4F4FF4C5
:1081C0007A694FF4C87A4FF00108182D69D2DFE8B8
:1081D00005F00C1313384754696E727B727BC584AB
:1081E00084848484B3B6B9BCC5C501F007FE386881
:1081F000FEF7F4FE06465CE00020FFF787FE00284D
:108200004FF0000008D0FFF771FE022D02D14FF4AD
:10821000E16008E0484606E0FFF770FE022D01D15C
:10822000C82000E05046410CC0034FF4FA72801899
:1082300041F10001257052000023FEF7D3F80146FA
:108240002AE00020FFF762FE00284FF0000004D073
:10825000FFF74CFE4FF44870E5E7FFF74FFEDFE70E
:108260000020FFF753FE00284FF0000002D0FFF778
:108270003DFECFE7FFF742FED4E70020FFF746FEC2
:1082800000284FF0000002D0FFF730FE01E0FFF7BA
:1082900035FE257041F69A1100223868FEF75AFE25
:1082A000064646E00020FFF70FFE257008E000209C
:1082B00051E025703DE084F801800120FFF704FEC5
:1082C000002240F6CD41E8E784F801800120FFF765
:1082D000FBFD00224FF48041DFE77868FEF77EFE69
:1082E0000646D5F1110000D02EB10220FFF7FEFDA9
:1082F00084F802B01DE0012816D980B2C821484395
:10830000C117C90341EA5041C0034FF4FA72801803
:1083100041F1000152000023FEF764F801460022FB
:108320007868FEF717FE06460220FFF7E7FD84F89F
:1083300002803046BDE8F09F01F060FDB9E701F032
:108340005DFDB4E701F05AFD04E001F057FD0020A7
:10835000FFF7D4FD0120FFF7D1FDAAE7FFF7EFFDFE
:10836000A7E7000020220020B0FF0200012107F053
:10837000B0BB00002DE9F8430546861C00208DF8AF
:10838000000090460F464FF001096846FEF736FEA2
:108390001B4C20683860D4E90001401AA16804F23F
:1083A0001C47081A0EE00121384602F03CFA01F0A1
:1083B0004BFF0146384602F036FAD4E90001401A74
:1083C000A168081A401C8642EDD8B8F1000F03D00E
:1083D000052065F3891002E0062065F39F50A2682E
:1083E0002168114004EB8101C8602068304420609E
:1083F0009DF80000FEF726FE4846BDE8F883000021
:10840000E42F002030B482680468531C8360A154B8
:10841000D0E901128A4202D330BC02F04ABC30BC1F
:1084200070470000034803C8814201D10120704712
:1084300000207047E42F002000780221FFF7C6BD1E
:108440001CB5044601F03AFB00236A46092104F0FA
:108450005FFE052805D10348012241792046FFF738
:10846000EFFA1CBD402200201CB50021009142F60D
:10847000A621ADF8001001218DF80210034901AAD0
:10848000096801916946A0DF1CBD0000DCFF020005
:1084900005494FF0FF32082841F8202002D3084454
:1084A00080F8482070470000BC2A0020F0B54FF04B
:1084B000FF3512B10023082601E008230C260C4CDE
:1084C00005E000BF54F823707F1C04D05B1CB3424E
:1084D000F8D32846F0BD26185DB286F8305044F82F
:1084E0002310002AF5D1E11881F84800F1E70000D7
:1084F000BC2A00200249084490F93000704700006F
:10850000BC2A002070B504464FF6FF750A4628467F
:10851000AC4209D14FF480742146104602F040F974
:1085200080B2A0420BD070BDFF2CFCD82146104673
:1085300002F026F990F0010F01D0204670BD2846C8
:1085400070BD000070B5084C050009D010342168DA
:10855000002907D008682060496828468847F6E760
:108560000834F4E770BD0000A82A0020054A012164
:1085700020B1012805D19170FFF7E4BF51700020B0
:10858000FAE77047A82A00202DE9F05F26484168E5
:10859000F1B3DFF898B00E688146DBF800408768D9
:1085A0008078E11B21F07F45ED1CB0B9DFF88080B9
:1085B0004FF48030C8F84403C8F804031120FEF7D4
:1085C0008DF81120FEF795F84FF0010AC8F800A0C9
:1085D0002F2003F0D3FD89F802A0B54200D2354622
:1085E000124BE8193C3320F07F401860DBF8001094
:1085F0005A46091B21F07F41001B20F07F40C91C17
:1086000081420FD9106818602F2003F0B7FD00E0F9
:1086100004E0BDE8F05F1120FEF776B8BDE8F05F3A
:1086200006F078B8BDE8F09F38230020041501401B
:108630000010014073B58CB00646002000900D98E4
:1086400080B100246D4621460DA802F0CEF830B16D
:10865000009805EB400084800098401C0090641C4A
:10866000142CF0D32C2269463046FDF7FFFE0EB0E5
:1086700070BD2DE9F04117880646B81D14460D4619
:10868000984202D90C20BDE8F081318807220629E2
:108690000AD34FF4486C4FF6FF73614501D99942F4
:1086A00002D17088062801D21046ECE7604501D956
:1086B0009842F9D1994203D0984201D08142F3D82F
:1086C0000520E85520881221401C80B220802954C2
:1086D0002088401C80B220804119308807F09AF829
:1086E0002188084480B220804119708807F092F8F0
:1086F0002188084420800020C5E7FEF7E1BB000088
:1087000038B54A7A0F4B62B100220A7259690029C2
:1087100006D001228DF80020ADF802006846884797
:1087200038BD0A7A62B19B684C68024619462046F9
:10873000FEF710FC0028F3D0BDE8384006F0F2B98F
:108740005B68F1E730270020F0B587B016460F468A
:1087500004461D4618220B496846FDF787FE0A4865
:108760008DF80870ADF80240ADF80A608DF80C5035
:10877000017800222046FFF763F9684600F050FABE
:1087800007B0F0BD44010300DC220020FEF7D0B9A1
:1087900070B588B00646002005900690ADF814101C
:1087A000ADF816100190029001AA05A9304690DF9D
:1087B000050021D003F086FC0346114811493246DA
:1087C000401AC108012000EB014004460E4903F0A5
:1087D00070F8BDF8042012B9BDF8060028B1BDF844
:1087E0000630204609A103F064F8BDF808201AB14C
:1087F0002046164903F056F808B0284670BD000020
:10880000E4190300CC1903000C0803005468652028
:108810007265717565737465642054582F525820C1
:108820007061636B6574206C656E67746820697332
:1088300020746F6F206C6F6E672062792025752F12
:108840002575206F63746574732E0000580803004B
:1088500070B504460948012102F000F8BFF35F8FAC
:108860000025002808D1204601F068FC002803D12B
:10887000BFF35F8F0148056070BD00004C220020EF
:108880007FB50C4610B1012004B070BD20790026E0
:1088900038B141F61D5501281BD0022826D00F20E3
:1088A000F2E70220207102960396E0680190694683
:1088B00001A805F08BFE50B102988188E180008804
:1088C0002081BDF80010029805F0FEFEDCE70A20CA
:1088D000DAE70A4B6A460021A01D05F033FE38B1E5
:1088E000064918398E61CE610A28CDD12846CBE7DA
:1088F00002488188019805F0E7FEF5E7642300202F
:108900002DE9F0470025DFF88C803CE0606800210D
:1089100000EBC506012032789146FDF794FDD4E9BD
:10892000062300EA020701EA030C57EA0C0728D0E5
:1089300082438B434846C4E9062303F0E1FC3278C6
:108940008246914601200021FDF77DFDD4E90423F4
:1089500000EA020401EA03074A4650460021FDF7F7
:1089600072FD44404F403C430BD17078012801D048
:10897000012100E00021726881EA0A010AB148463B
:1089800090476D1CEDB298F8000044468542BDD377
:10899000BDE8F0871823002010B50021024801F03F
:1089A0005DFF80F3100010BD003400200E4910B5AB
:1089B0000A784C780023A24212D0521CD2B20A701C
:1089C000022A00D10B70084A0B780C3252F823208F
:1089D00002608868104420F07F408860012010BD4C
:1089E0000360002010BD00003823002013460A4613
:1089F0000021FFF7A9BE00002DE9F843104D0F46F6
:108A000080461E4691466946286801F082FE0400B1
:108A100014D01C21FDF743FD01202071C4F81490EF
:108A2000380BC4F80080C4E902606946286801F088
:108A300091FE05F0F3FC0020BDE8F8830420FBE77D
:108A40003002030010B503780022072B06D2DFE8BE
:108A500003F005040610202930000A7010BD012320
:108A60000B7003898B818388CB81C06888600A740E
:108A700010BD02220A7002898A818288CA81C26876
:108A80008A60807D062802D00020087410BD012075
:108A9000FBE703220A70C2888A810289CA81C06802
:108AA000886010BD04230B70C0888881CA818A60E9
:108AB00010BD0520087010BD70B5064D0646002497
:108AC00055F8241009B130468847641C042CF7D3AC
:108AD00070BD0000BC2C002030B50446006887B093
:108AE0000D46806800281FD018216846FDF7D7FC86
:108AF0000195A0680590207910B1012810D107E0F8
:108B000001208DF8000020690290E068039005E0E4
:108B100002208DF80000E068000302906069049074
:108B2000206881686846884707B030BD2DE9F0416C
:108B300086B016460C00804629D0112C27D0082C70
:108B400025D018216846FDF7AAFCADF80280404602
:108B500000F0B4FFADF804001B481C490027401A80
:108B6000C5080D2C16D0204603F0ACFA02460120B1
:108B700000EB05404346164902F09BFE07208DF8A6
:108B8000000002948DF80C70684600F057F806B0AB
:108B9000BDE8F081022000EB054042460D4902F09D
:108BA00081FE03208DF8000026B13078C00701D087
:108BB000012000E002208DF8080041F201108DF83C
:108BC0000C70ADF80A00DFE7141A0300CC1903009B
:108BD000C8110300B810030010B50446408800F027
:108BE0006DFFA080024801682046BDE8104008479C
:108BF000482200202DE9F04107460024064E074D8B
:108C000005E000BF56F8241038468847641CE87811
:108C10008442F7DBBDE8F0815C2A00206C22002052
:108C200010B50446408800F049FFA0800248016862
:108C30002046BDE810400847F800030001490968D4
:108C4000084700008401030070B586B0044618216F
:108C50006846FDF724FCA0890125A0F54040ADF849
:108C600004002078324E062835D2DFE800F03403C5
:108C700003032E4EA08900F08BF930B9E08943F64A
:108C8000FE71A0F54040884225D8A07B8DF80800F1
:108C90002078032811D000208DF80900A0680390E7
:108CA000606860B109208DF80000606804908DF85C
:108CB0001450684604F07EF90DE00120ECE708202E
:108CC0008DF800008DF81050F3E7A08900F060F9EE
:108CD00008B1E08930B17078002801D004F0B4FA0E
:108CE00006B070BD606840B10B208DF80000606870
:108CF00002908DF80C507570DBE70A208DF80000AB
:108D0000BDF8040004F03EFBF5E7606858B114209C
:108D10008DF80000606802908DF80C504FF6FF70DF
:108D2000ADF80400C5E713208DF80000F6E7000059
:108D30005822002038B504460E480078A8B1A4F5A2
:108D40007F40FF380FD0684605F09AFA78B10521C8
:108D5000017001210171C480684605F09FFA05F099
:108D60004FFB002038BD042038BD022038BD08204C
:108D700038BD00006C2300200C4808B5007888B18D
:108D8000684605F07DFA78B106210170684605F065
:108D900085FA0748017809B10121017305F030FB1C
:108DA000002008BD022008BD082008BD6C2300205B
:108DB000802D0020F0B587B014216846FDF76FFBC9
:108DC0002B4C207818B16846FFF776FE4EE0201D48
:108DD00001F026FDB8BB4FF0102041690004026984
:108DE00040694B1C01D100FB02F1224800220161C5
:108DF000A1F54051C160204902F0F0F8002820D1CF
:108E00001F481C238C221D49006801F06FFC03F0F1
:108E100063FE051E14D0022812D000270126062D5D
:108E200012D005A805F02CFA88B106700C2D18D2C6
:108E3000DFE805F0170F170F171617161711131184
:108E40000B2007B0F0BD11E026706760BBE708207B
:108E5000F7E7077105E0032100E00221017100E05E
:108E6000067105A805F01AFA05F0CAFA0020E8E72D
:108E70006C2300200424002040020300CC2C00209E
:108E8000A801030038B5040014D0694605F09EFB24
:108E9000A0B1BDF8000000EB8001094800EB8100A3
:108EA000C16849B1A17A39B1C168491EC1600020C9
:108EB000A07238BD052038BD062038BD0A2038BD57
:108EC000582D00201FB501A9684605F03BFB04B0F2
:108ED00010BD07B513460A466946002005F032FB6F
:108EE0000EBD07B513460A460021684605F02AFB69
:108EF0000EBD20B119B10068086000207047052040
:108F000070470000F8B50D46040018D0BDB16946A1
:108F100005F05CFBA8B1BDF800000B4900EB800038
:108F200001EB800001210C30666801F07CFC2E60B2
:108F300060680C3068600120A0720020F8BD052038
:108F4000F8BD0A20F8BD0000582D002018B10323F9
:108F5000002206F001BF052070470223002206F020
:108F6000FBBE0000084910B50A69042A0AD0074A66
:108F7000096942F8210004480121103001F053FC36
:108F8000002010BD0C2010BD4C230020BC2C002064
:108F900043F6FE71A0F54040884201D80120704799
:108FA0000020704710B504460078182802D1FEF75B
:108FB00023FD207010BD10B504460078182802D19A
:108FC000FEF71AFD207010BD70B50D460446B0F8CE
:108FD0003812D0F834020122FEF759FA00B10570B8
:108FE00004F13C0204F50D7104F1540072DF70BD10
:108FF00070B5134600220546112900D10122074C05
:1090000033B12179FEF71CFD00226178284600E08B
:109010006178BDE87040FEF713BD0000E422002037
:10902000F7B517460E0011D00098002560B1002456
:109030002146684601F0D9FB18B1A0B23946B047C5
:109040006D1C641C142CF3D32846FEBD0020FEBD0D
:10905000406805F035B9000070B508B1012070BD59
:109060001B4C0025207B08B1257301E000F0A4F81B
:10907000207808282AD2DFE800F02904080C1029FB
:109080001422BDE8704000F025B8BDE8704000F043
:1090900081B8BDE8704000F063B8BDE8704000F0F2
:1090A0003FB8062020706088094900EB800028390D
:1090B00001EB80004068BDE8704003F0EDBC072084
:1090C00020706560BDE8704003F0F4BC0F2070BDF7
:1090D000802D00201149F0B48A1C00200346A1F124
:1090E00028050C18A67A4EB1A37200EB800405EB9C
:1090F0008404E66816B9247C012C0AD0401C80B296
:109100000228EED30B704B804B60F0BC41F61D5033
:1091100070471080F0BC00F03DB80000802D0020AA
:109120000C48418801EB8102A0F1280101EB82018A
:10913000CA6852B105210170074802218180016887
:1091400000230122054801F0ADBE042202704968E7
:10915000F6E70000802D0020742300200424002066
:1091600038B50A49084803240B684268898803EB2C
:10917000810153880470DB1C00201B0400909B0BB2
:10918000034801F0E3FF38BD802D00207423002048
:1091900004240020074910B54888091D05F066FA27
:1091A00018B1BDE81040FFF7DBBFBDE81040FFF786
:1091B000B7BF0000802D0020F0B51F481F490125D2
:1091C000067802248B88A0F12802082E19D2DFE845
:1091D00006F00418181B222F2F170189491C018142
:1091E0000021418080F80C1001EB810312F823303C
:1091F00043B100234418491C89B2A3720229F3D356
:109200000570F0BD0123F5E742685288D21C1A446C
:109210008A800470F0BD46880D6806EB860602EB76
:10922000860256680E60556013818C80062100E02E
:1092300007210170F0BD0000802D00207423002064
:109240002DE9F041044680882188394E86B00746D2
:10925000352937D0502923D0522902D054295DD145
:1092600002E000F00FFF59E0182232496846FDF78E
:10927000FDF8ADF80270384600F020FCADF80400AF
:1092800000F09CF9002231793846FEF7D9FB002224
:10929000F1783846FEF7D4FB6846FFF79DFC3DE0C9
:1092A000207B01283AD1A07A012837D12089A0F566
:1092B0002451023932D10121384600F037FF06F03F
:1092C00019FB2BE04FF0000842467179FEF7B8FB1E
:1092D000E288B2F5857F1DD017481849401AC008AA
:1092E000022101EB004512B1284615A10BE062896D
:1092F000012A03D0284621A102F0D4FAA289012A2A
:1093000004D028462CA102F0CDFA03E0A07B00B1E6
:10931000012080464146384605F0DAFF00223549F3
:10932000B078FEF71FFB06B0BDE8F04105F04ABC7F
:109330004022002038000300CC190300CC190300A0
:10934000556E657870656374656420474154542098
:10935000737461747573207768696C6520676574D0
:1093600074696E67204341522063686172207661A0
:109370006C75653A20307825780000004D756C7466
:1093800069706C6520282564292043415220636858
:109390006172616374657269737469637320666F67
:1093A000756E642C207573696E672074686520661D
:1093B000697273742E000000556E65787065637471
:1093C0006564204341522063686172616374657211
:1093D00069737469632076616C7565206C656E676E
:1093E000746820282564292C2073746F72652030DE
:1093F0002E0000008971020070B504460078002834
:1094000014D1608800F03EFE6588284600F098F987
:1094100028B107480122C1782846FEF711FB608871
:10942000FFF70EF8BDE8704006F064BA70BD0000AA
:109430004022002070B51A4C00252570FEF7DCFA9A
:109440006070FEF7D9FAA070FEF7D6FAE070FEF76A
:10945000D3FA2071FEF7D0FA607162780121182AE0
:1094600012D0A278182A0FD0E278182A0CD02279CC
:10947000182A09D0182807D004F10C000560BFF3A2
:109480005F8F2170002070BD0648074A801AC0080F
:1094900001EB0040054902F001FA032070BD000015
:1094A00040220020CC190300CC190300240503003E
:1094B0007CB504460078082837D1607A58BB207AFA
:1094C0001C4E4FF6FF75012811D0072802D008283E
:1094D0002BD121E0A08800F03BFA0446A84224D01A
:1094E000012100F023FE2046FEF7AAFF1DE0A08820
:1094F0006A46012103F080FC68B90198007850B1F8
:10950000A08800F025FAA8420FD00122F178FEF7DA
:1095100097FA05F057FB08E0F068012805D1BFF382
:109520005F8F044900200C310860BDE87C4006F0E4
:10953000E1B90000402200202DE9F04180460246BA
:1095400001200021FCF77FFF1A4F05460E46786880
:10955000FDF744FD00280CD1174CD4E90621104634
:109560002A4001EA06031A4305D0A843B143C4E9DF
:109570000601BDE8F081404602F0C2FE30B1D4E9F8
:10958000040128433143C4E9040105E0D4E904108F
:10959000A943B043C4E90410D4E906012843314388
:1095A000C4E90601A1687868BDE8F0410022FDF732
:1095B000D1BC000094010300182300201CB5054A0B
:1095C000D2E90212CDE900120022694603F0DAFD69
:1095D0001CBD00005400030003484FF6FF7181805A
:1095E0000121017000207047502200202DE9FC412C
:1095F000804600F063FA002403250127A0F57F418F
:109600002646FF3908D06A46082103F0F5FB18B951
:109610000198841D8688056832462B4621464046BF
:10962000B1DF042804D0082804D00B2808D002E0B9
:10963000112000E00020002F00D10B20BDE8FC81AC
:109640000027A80701D50125E6E7344303D000240D
:1096500026460325E0E7064806494246401AC00868
:10966000012101EB0040044902F01CF9E5E700008C
:10967000D4190300CC190300940703002DE9FC4121
:10968000804600F01BFAA0F57F410646FF390ED058
:1096900001252A466D1C0027ADB26B4608213046D5
:1096A00003F0F4FB040006D0072C33D033E043F280
:1096B0000200BDE8FC81019903230A1D0B604046AE
:1096C000891DB2DF040004D00C2C09D0052C09D070
:1096D00009E032460821104603F050FC04461AE027
:1096E000012700E000240821304603F03DFC70B162
:1096F00002F0E8FC0346094809493246401AC0080E
:10970000012101EB0040074902F0D3F80324002FA8
:10971000BFD100E00C242046CBE70000D4190300A1
:10972000CC1903001407030004488088A0F57F418A
:10973000FF3901D005F050BA7047000050220020D8
:109740000EB502A9019100F0B9F96A46012103F0B2
:1097500053FB08B100200EBD019800780EBD00003B
:109760002DE9F04107464FF6FF761048B3DF78B198
:1097700002F0A8FC02460E480E49401AC00801211A
:1097800001EB00400C4902F08DF80320BDE8F081A8
:10979000064C43F20305A41E324661883846AFDF0B
:1097A000A842F3D16088401C6080F5E75222002077
:1097B000D4190300CC190300C8060300428800EB4B
:1097C00082020C328A4201D9022070478188A1F5B9
:1097D0007F42FF3A03D0008808B100207047012083
:1097E0007047884204D20068401C01D001207047B5
:1097F000002070473EB5027802230C46B3EB520FAF
:1098000017D1B0F80110ADF80010C1788DF8021032
:109810008188ADF8041080798DF8060002AA01A9AC
:109820002046FDF78BFA032202A96846FCF749FEA1
:1098300008B100203EBD01203EBD000070B50D46C0
:109840000446142810D2FEF71BF968B1084904EB4E
:10985000840001EB4000D0F802102960C188A98083
:10986000007AA871002070BD43F2020070BD0000B4
:10987000C427002070B5018892B0102961D1011D64
:109880002C226846FCF7F2FD9DF804004FF6FF76A7
:1098900003213446B1EB500F2BD003F031FC9DF87F
:1098A00004006D4640080ED001280CD0022820D1BB
:1098B00018E00D99281D1131FDF7D8F918B100BF36
:1098C000BDF82C4015E00CAA0BA9072003F0ECFB17
:1098D0000028EED10DE00D99281D491CFFF78AFFE5
:1098E0000028EDD10CAA0BA9072003F0DDFB00280E
:1098F000F1D1BDF80000B44200EB8001124820F81D
:10990000114000EB41000199C0F80210BDF80810A9
:10991000C1809DF80A10017213D0BDF80000ADF8A7
:109920002E000020ADF83040084E8DF82C000BAD15
:10993000044600BF56F8241028468847641C022CB1
:10994000F8D312B070BD0000C427002068000300E7
:109950002DE9F0414FF6FF760546B04213D00B4F8C
:10996000002400BF04EB840037F81000A84206D1A1
:109970002046FEF785F810B12046BDE8F081641C52
:10998000A4B2142CEED33046F7E70000C427002021
:109990003EB50C46054603F0B3FB0BE0BDF80000F6
:1099A000A04207D02846029900F00EF810B1BDF889
:1099B00000003EBD01AA6946072003F075FB0028A0
:1099C000ECD14FF6FF703EBD2DE9F0410C46054647
:1099D00000F1110701F111061022491C401CFCF78F
:1099E00070FD48B9681C00F0F9F928B1601C00F05E
:1099F000F5F908B1012400E0002431463846FDF7AE
:109A000035F93B780222B2EB530F0CD00321B1EBB6
:109A1000530F08D03378B2EB530F04D0B1EB530F90
:109A200001D0012100E00021084201D18C4302D085
:109A30000120BDE8F0810020FBE7018811B9421840
:109A400092780AB101207047491C0829F7D30020F9
:109A5000704710B50C460346FFF7EFFF00280AD009
:109A600018882188884205D10822A11C981CFCF77F
:109A700028FD08B1002010BD012010BD142804D21B
:109A8000024A00EB800022F810107047C427002023
:109A900070B50546FFF75CFF0446284603F0B0F9B1
:109AA000002808D1142C06D2034B04EB84024FF695
:109AB000FF7123F8121070BDC427002010B50446B2
:109AC000142808D2FDF7DCFF28B1044904EB840018
:109AD00031F8100010BD4FF6FF7010BDC4270020F4
:109AE0003EB5044603F00CFB0EE0019920464631DA
:109AF000FFF7AFFF28B9019920462A31FFF7A9FFE8
:109B000010B1BDF808003EBD6A4602A9072003F067
:109B1000CBFA0028E9D14FF6FF703EBD10B50A49D7
:109B200041600A4800F07CFE58B902F055FA074936
:109B30001C238C22087404488C39001F006800F034
:109B4000D5FD002010BD0000340203002C2E0020A3
:109B50002DE9F0412D4F002518B17D600120BDE8B1
:109B6000F0810879012258B1294E01280CD0274CE8
:109B70004FF002080834022821D0032842D128E0FF
:109B80000A7102F097FF3BE05FF0000000EB8001FC
:109B900016F82110022908D0401C80B20228F5D303
:109BA0003A707D6041F61D50D9E700EB800006F861
:109BB000205006EB8000406802F06EFF20E00D713F
:109BC000A4F80480002301221248216801F06AF9F8
:109BD00016E00D71206802F05FFF0D4923682831FF
:109BE000498801EB810206EB8201D1F804C0C4F878
:109BF00000C04B60A3880B81A4F8048006F82250B3
:109C00000028ACD07D600E20A9E700006C23002066
:109C1000582D0020042400200146034802888A426F
:109C200000D00020704700001C2700202DE9FC5FB9
:109C30000E008346DDE90C47C6F1000098469246C7
:109C4000814600D40846012503E000BF90FBFAF0EE
:109C50006D1C5045FADAA84500D9454624B1002EBE
:109C600001DB780700D5641EB80702D5B8F1000FF4
:109C70000AD0F80708D13CB1A54205D220215846A8
:109C8000641EFEF7BFFBF6E7002E02DA4E462D21DA
:109C900002E0780703D52B215846FEF7B3FB07F007
:109CA000030002280BD1B8F1000F08D13CB1A54246
:109CB00005D230215846641EFEF7A4FBF6E7CDE935
:109CC0000047434652463146584605F0B9FDBDE8C7
:109CD000FC9F000070B50D46044600684FF4887183
:109CE00002F010FA4FF49071206802F00BFA4FF472
:109CF0009271206802F006FA4FF4A271206802F017
:109D000001FA20681249C0F804132068690740F37B
:109D10000730090E002806DA00F00F0000F1E020FD
:109D200080F8141D03E000F1E02080F800142068A2
:109D3000012140F3073000F01F02914040098000EC
:109D400000F1E020C0F88012C0F8001170BD0000E2
:109D500010030200024600201268530713D502F0D8
:109D60000300012802D002280CD105E0C2F38310C1
:109D70000B68801C184404E00223086803EB92522D
:109D800010440860012070470248007A002800D083
:109D9000012070472C2E0020F0B58488A51894422D
:109DA00000D82246A41AC288D6189A4200D8134670
:109DB000D21A4B880788BB420CD34088834209D80B
:109DC0008888A04206D3A84204D8C888904201D30C
:109DD000B04201D90020F0BD0120F0BD0021425C5D
:109DE0000AB101207047491C1029F8D300207047A0
:109DF000800701D000207047012070470A4810B545
:109E0000807860B1002401E0022C06D02046FEF7E5
:109E10006DF8641C042CF7D310BD0324F6E7BDE8ED
:109E20001040FEF783B8000020220020034801798B
:109E3000C90702D00078FEF7B5B97047202200208C
:109E40001721018041800021017141711B21817125
:109E5000C17170472DE9FE4F2E4F984692460D0076
:109E6000814601D000260DE0684600F015FC6A46E8
:109E70000021484602F018FF3878009E10B99DF87E
:109E8000090098B152463146484605F0FBF80446B1
:109E9000014600224846FFF7ABF80D2C37D008DC0E
:109EA000A4B3082C33D00B2C09D130E00520BDE839
:109EB000FE8F112C1ED0A4F54050023827D020462A
:109EC00002F000F90246144814494B46401AC008F3
:109ED000012101EB0040124901F0EBFC5FF00305AA
:109EE000B8F1000F04D0324621464846FEF71EFE68
:109EF0002846DCE72A46F9784846FDF7A1FD524698
:109F0000B9784846FDF79CFD0025E9E7FFE72546BF
:109F1000E6E70000E4220020141A0300CC19030035
:109F20007011030070B50E460C49154604460978B9
:109F3000FDF76EFD00280FD0204602F05BFE0028E2
:109F40002A463146204603D0BDE8704002F058BE94
:109F5000BDE87040FEF74ABD70BD0000DC22002065
:109F600070B5094D0646A978FDF752FD0446E9781B
:109F70003046FDF74DFD014622463046BDE87040B3
:109F80000123FFF767BF0000E42200202DE9F0471E
:109F9000394E002780463D46DFF8E090D6F804A011
:109FA00057E003D00446D0F81C8035E099F8002033
:109FB00002EB4201521CD2B289F8002009EBC10128
:109FC00099F80230091D9A4201D189F80050486879
:109FD0000A780446012A12D0022A02D0032A3BD171
:109FE00008E005F0FFF900B10127257434E005749D
:109FF000C06900E070680028F9D170602CE0207C16
:10A0000050BB88686060C868A0600869E060486903
:10A01000A061F07800B165606268B168184B501AB1
:10A0200020F07F40984202D2A168084406E0881AD6
:10A03000A16820F07F40814202D9081A206000E028
:10A04000256065600120A56020742046E56105F06B
:10A05000ABF9B8F10000A4D199F8001099F801000B
:10A060008142A3D117B97168514502D00120BDE8E2
:10A07000F0870020FBE7000038230020882B002019
:10A08000FFFF7F00F0B587B005460027182168461E
:10A09000FCF705FAA5F57F40ADF80250FF3825D052
:10A0A0002846FFF7A3FA040022D01B481B49401A98
:10A0B000C6080B2C22D0112C1ED0A4F5405002381B
:10A0C0000ED0204601F0FEFF0246012000EB0640C4
:10A0D0002B46134901F0EDFB2146284604F02AFDEA
:10A0E00010483A4681782846FDF7AAFC07B0F0BD33
:10A0F0000E208DF800000BE00127F1E70F208DF80E
:10A100000000022000EB06402A46074901F0CAFB86
:10A110006846FEF761FDE3E7CC190300CC190300A4
:10A12000F405030040220020480603000A460249C5
:10A130004978FDF785BC0000402200202DE9F04160
:10A14000002786B080463E46FFF798FA040022D0EA
:10A15000112C22D01B481C49401AC508862C1ED041
:10A16000A4F5405002380ED0204601F0ABFF024665
:10A17000012000EB0540434614A101F09AFB214663
:10A18000404604F0D7FC39464046FFF7CFFF06B003
:10A190003046BDE8F0810126F5E70127F3E71822F4
:10A1A0001A496846FCF762F90220ADF8028000EB1C
:10A1B0000540424616A101F075FB6846FEF70CFD0E
:10A1C000E1E70000CC190300CC1903006773636D4D
:10A1D0005F6C6F63616C5F64625F63616368655F3E
:10A1E00075706461746528292072657475726E6576
:10A1F0006420257320666F7220636F6E6E5F6861E6
:10A200006E646C653A2025640000000008000300BD
:10A21000466C6173682066756C6C2E20436F756C9C
:10A2200064206E6F742073746F7265206461746152
:10A2300020666F7220636F6E6E5F68616E646C651E
:10A240003A202564000000002DE9FF410026234844
:10A2500000F0E3FA2148001F074600F0DEFA204C28
:10A2600060680090A56800E000986946284004EB0B
:10A2700080000C30FFF76EFD0028F5D101AA00998F
:10A2800001EA050304EB8303491CDB6842F8203034
:10A29000401C00910228F2D3019800F0030001282D
:10A2A0000BD0022810D10198032101EB90500099A6
:10A2B000BDF80A6001EB900005E00198BDF80A6066
:10A2C000C0F3831008440090384600F0A3FA08B1A8
:10A2D0000098606004B03046BDE8F081FC33002097
:10A2E000E42F0020ACB04FF40041002001F052FBFD
:10A2F00008B1FCF7E5FD01F0A9F9FCF701FE08B192
:10A30000FCF7DEFD5F490320FDF702FF08B1FCF713
:10A31000D7FD69460020FDF72DFE08B1FCF7D0FD02
:10A320009DF8000002287CD05FF0000501F048FC99
:10A3300008B1FCF7C5FD01F003FE08B1FCF7C0FD54
:10A34000002469460120009401F08AFC08B1FCF762
:10A35000B7FD684601F004FD08B1FCF7B1FD9DF8BA
:10A36000080049A120F00F00401C20F0F000103040
:10A370008DF808000F2202A87CDF08B1FCF7A0FDD1
:10A3800000945020ADF80000A0200194ADF8020028
:10A39000ADF804404FF4C870ADF8060068467ADFA7
:10A3A00008B1FCF78DFD00213B4800F0CCFA08B164
:10A3B000FCF786FDAC216846FCF771F802208DF8A9
:10A3C000000001208DF802000621ADF810008DF884
:10A3D0007C008DF803104FF496703049229005915F
:10A3E00044F2506023902E4829902B486946203033
:10A3F000FDF77CF808B1FCF763FD27480121203008
:10A40000FDF771F82748009023486946143000F0A2
:10A410005EFB08B1FCF754FD1C216846FCF73FF8D1
:10A4200000E02CE04FF42030CDE900404FF47020E4
:10A4300002901D48059003261C488DF80C6006907C
:10A44000ADF80E408DF810406846FDF747FA08B1A8
:10A45000FCF736FD02F0DCFF15481649401AC0082B
:10A4600006EB004014A101F019FA2846FCF73EFC67
:10A4700001F0FAF80028FBD101F0B6FBF8E701255E
:10A4800054E70000698002004E6F726469635F5494
:10A49000656D706C61746500182400201A2200201C
:10A4A00029C802002DBC02007DC80200FB86020004
:10A4B0005C1A0300CC19030054656D706C617465FF
:10A4C000206578616D706C65207374617274656469
:10A4D0002E00000070B5144682880E46054620887E
:10A4E000111D0144921C994201D8FE2A01D90C2069
:10A4F00070BD521C32542088FF21401C80B2208045
:10A5000031542088401C80B220808119288805F0B1
:10A5100081F92188084480B22080AA8842B1A968C4
:10A5200041B13044FBF7A2FF2088A988084420806D
:10A53000002070BD072070BD2DE9F047C5881E1DA5
:10A54000B6FBF5F78946B6FBF5F1044605FB176C3B
:10A55000407916686843DDF820A0F718001F87428D
:10A5600000D9C61A166001E02468491E0029FBD1F3
:10A57000A5EB0C078846B74216D818E004EB0C0090
:10A58000001D09EB0803BAF1000F3A4602D001465C
:10A59000184600E01946FBF769FF2468F61B4FF0E8
:10A5A000000CB844B54201D9374600E02F46002ED2
:10A5B000E4D1BDE8F087000030B5024651B101F0AA
:10A5C00007FA0021074C08E034F821301568AB4247
:10A5D00002D11160002030BD491C8142F4D3052016
:10A5E00030BD000000000000BFF35F8F00F0FDB839
:10A5F000F8B50F46017814460546012901D168785F
:10A6000030B12088821C9A4232D8012902D006E05B
:10A610000720F8BD69780144891C994228D8181A86
:10A62000801E86B2ADF800602188B81C08446946D7
:10A630007DDF0028EDD12978022904D06878BDF8A3
:10A640000020904205D3BDF80000B04201D8092097
:10A650000AE00820012905D16978B14202D8ADF895
:10A66000001001E0ADF80060BDF80010FE2901D92E
:10A670000C20F8BD2288491CB9542188491C89B294
:10A68000218078542088401C2080BDF800100844A8
:10A6900020800020F8BD0000034A00219268C0E934
:10A6A0000021816070470000E422002070B54FF661
:10A6B000FF750E46A84201D1002000E0401C84B284
:10A6C00008E02146304600F090F808B1204670BD01
:10A6D000641CA4B2FF2CF4D9284670BD10B5FBF75A
:10A6E000E4FD08B1002010BD112010BD10B531B13E
:10A6F000B2FBF3F403FB14241CB1092010BD0E209F
:10A7000010BD01600021416081608281C3810846E3
:10A7100010BD70B50C460546FBF77CFD002802D045
:10A7200021882868084470BD10B50A8849888A4283
:10A7300003D1FBF7B1FD012010BD002010BD70B5A5
:10A740000C460546FBF78BFD002802D0618828687F
:10A75000084470BD10B50A8849888A4203D1FBF7C6
:10A7600075FD012010BD002010BD01F01F03012266
:10A770009A40D243490900EB8100114600F059B8D4
:10A780000A4601F01F030121994010B552090C46F9
:10A7900000EB820000F05DF8204000D0012010BDE9
:10A7A0002DE9F04180460D460024481E012101EBB1
:10A7B000501716E058F82400C04390FAA0F0B0FA01
:10A7C00080F020280CD200EB4416AE4208D231466D
:10A7D0004046FFF7D5FF0028ECD13046BDE8F081B8
:10A7E000641CA742E6D82846F8E74A0950F8220038
:10A7F00001F01F0201219140084000D00120704764
:10A8000001F01F0301229A40490900EB8100114623
:10A8100000F029B8002100F017B8012100F023B89A
:10A82000012100F016B808B56A46FBF78AFD0098CA
:10A8300008BD08B56A46FBF76AFD009808BD08B573
:10A840006A46FBF77EFD08BD08B56A46FBF75FFD6B
:10A8500008BD08B56A46FBF74DFD08BD08B56A4658
:10A86000FBF73CFD08BD08B56A46FBF743FD0098C1
:10A8700008BD08B56A46FBF771FD009808BD38B5FC
:10A88000044600258DF800506846FCF7B7FB2168A8
:10A890006268086890420ED9401E08600178238AD9
:10A8A000E26801FB0325227A2168101AC0B20A79F6
:10A8B000824200D208719DF80000FCF7C3FB2846D5
:10A8C00038BD38B5054600208DF800000C466846B6
:10A8D000FCF794FBE868298A201AB0FBF1F12A689A
:10A8E0001068431C136001709DF80000FCF7AAFB80
:10A8F00038BD10B530B1017A42680368891AC9B20F
:10A900001A6006E00E2010BD03681A68541C1C6013
:10A910001170491EC9B2F7D20068002101710846C2
:10A9200010BDC20800F007030120895C9840084070
:10A93000704710B5C20800F00703885C01249C40F2
:10A940002043885410BD10B560B10161172120F873
:10A95000021B20F8021B1B2100F8021BFFF770FAF4
:10A96000002010BD0E2010BDF0B5858893B00C46B8
:10A97000002D39D1018800263F4F24293BD006DC29
:10A98000102909D011290CD0232958D14FE03A2998
:10A990000BD0552953D129E00146204601F07CFF18
:10A9A0004DE0A01DFFF74CFA49E02246408934F8FB
:10A9B000061F814200D808466080172800D2172061
:10A9C0006080106970B1607960B1D7E90001CDE9AC
:10A9D0000301ADF80E506088ADF81000136903A9AB
:10A9E000104698476671267113B0F0BD01462046A7
:10A9F00001F0A6FF23E0011D2C2206A8FBF736FD7F
:10AA0000BDF81800BDF81C2004EBC0014A73226990
:10AA1000AAB1D7E90423CDE90423ADF81200487B9D
:10AA20008DF814002269204604A9904707E0017AB6
:10AA3000207B884200D201462846FDF7A9FEA07A75
:10AA40000028D1D0E1882846A5DF012580B1112852
:10AA5000CAD001F037FB02460848094913B0401A32
:10AA6000C00805EB0040BDE8F04006A100F01ABFA9
:10AA7000A672E572B8E7000070000300E419030055
:10AA8000CC19030073645F626C655F676174746303
:10AA90005F65786368616E67655F6D74755F726529
:10AAA000717565737428292072657475726E65649A
:10AAB0002025732E0000000020B10278DE2A03D08A
:10AAC000082070470E20704741800020704760B119
:10AAD00059B10278DE2A0AD009684160DE2101708E
:10AAE0004FF6FF714180002070470E20704708200C
:10AAF00070477FB5054600294DD0002D4BD0087812
:10AB00000C46DE2847D1A8886188884202D12046B9
:10AB100004F04EFF2888012825D002283BD01128B8
:10AB20003AD0512837D135F8040F6188884232D1A4
:10AB3000A978A81C02292ED1017A042903D006295C
:10AB400001D0052927D10021009102228DF8002093
:10AB500001914FF4C07202910391ADF80420007A84
:10AB600005280FD010E0297A2046012913D1A988A1
:10AB7000428891420FD10121017204B0BDE87040BA
:10AB800004F016BFADF8041028886946B0DF00282D
:10AB900001D0616888477FBDA88861888842FAD162
:10ABA0004FF6FF7060807FBD00F180400068002894
:10ABB00000D00120704708B500F1804000210160FD
:10ABC0000068009008BD000070B50B4C207808B1FB
:10ABD00085250FE00020A06060602061E0600748EC
:10ABE00001F0AEFA054601F0F7F908B901F090FA64
:10ABF00001202070284670BDA82A00206D85020023
:10AC000038B500258DF800506846FCF7F7F9074C79
:10AC1000E068401EE060E06810B901F0A1FAA5709C
:10AC20009DF80000FCF70EFA38BD0000A82A0020AD
:10AC3000F0B505460478154889B0164640F824203A
:10AC4000124A0869121DA2F1080742F82400487F41
:10AC5000385520226846FBF709FC04942878385CB4
:10AC600048B10EB10A4A00E000226946281D01F0F1
:10AC7000F7FC09B0F0BD0EB1064A00E000226946BB
:10AC800005F10C0001F0BEFBF3E7000000230020FB
:10AC9000F1F602003DF502000FB408B50399002952
:10ACA00004D004AA00926A4600F00FF801B05DF8E3
:10ACB00014FB10B582680446002A05D0D4E90403C9
:10ACC000216898470020A06010BD2DE9FC479146FF
:10ACD0000C00804676D014F8011B39B125290ED01E
:10ACE0004046FDF78FFB20780028F4D198F80C003F
:10ACF000002867D04046BDE8FC47FFF7DABF0020D8
:10AD0000012221782B291BD02D2902D0302908D1EE
:10AD100002E040F0010001E040F00200641C002A63
:10AD2000EFD100252A290ED02178A1F130020A2A7C
:10AD300011D205EB850201EB4205641C303DF1E7C1
:10AD400040F00400EAE7D9F800100B1DC9F8003004
:10AD50000968641C0D44217800232E290BD114F8B6
:10AD6000011FA1F130020A2A05D203EB830201EB95
:10AD70004203303BF3E76C290DD068290BD06929D9
:10AD800021D00BDC252918D0582931D063290ED0C9
:10AD9000642915D117E014F8011FECE7702969D078
:10ADA000732932D075291BD0782909D120E0D9F830
:10ADB0000000011DC9F8001001784046FDF722FB94
:10ADC000641C90E76CE0D9F800100A1DC9F8002057
:10ADD0000968CDE900500A224046FEF727FFEFE759
:10ADE000D9F800100A1DC9F8002009680A2206E0F7
:10ADF000D9F800100A1DC9F8002009681022CDE911
:10AE00000050404604F01CFDDAE7D9F80010002796
:10AE10000A1DC9F800200E68C00705D112E040469F
:10AE2000761C7F1CFDF7EEFA31780029F7D104E09B
:10AE3000202140466D1EFDF7E5FABD42C0D9002D28
:10AE4000F6D1BDE74EB13046FBF734FB074604E0D0
:10AE5000202140466D1EFDF7D5FABD4206D9002DD2
:10AE6000F6D103E04046761CFDF7CCFA3178002994
:10AE7000F8D1A5E7D9F80000011DC9F80010056850
:10AE800030214046FDF7BEFA78214046FDF7BAFA78
:10AE900008200021CDE90001034610222946B0E731
:10AEA000BDE8FC872DE9F843884605002C482D496C
:10AEB0009946A0EB01004FEAD0004FF00101164681
:10AEC00001EB004424D0286800282CD0002E34D078
:10AED000696840464FF010070A68511E11EA080FD2
:10AEE00011D1014672432846FBF7D9FE00282ED027
:10AEF00028684B463246046901B041462846A446BC
:10AF0000BDE8F04360472046174B18A2009722E0A7
:10AF10000E2000902046144B1EA220A100F0D1FC70
:10AF20000E20BDE8F8830820009020460E4B26A294
:10AF30001AA100F0C6FC0820F3E709200090204683
:10AF4000094B24A215A100F0BCFC0920E9E7064B3F
:10AF5000214A2046009711A100F0B3FC1020E0E741
:10AF60004C1A0300CC1903001B02030061646472D5
:10AF70005F69735F706167655F616C69676E656467
:10AF800028705F66732C20706167655F616464720E
:10AF900029000000705F66730000000025732063C5
:10AFA0006865636B206661696C656420696E202545
:10AFB00073282920776974682076616C7565203064
:10AFC0007825782E00000000705F66732D3E705F5C
:10AFD000617069006C656E003412030038B50300BF
:10AFE0001148124D4FF00E04A0EB05004FEAD000BF
:10AFF0004FF0010505EB004009D061B119600C6804
:10B0000001B0A446BDE83040114618466047084BE1
:10B0100008A2009402E0064B08A2009409A100F0E7
:10B0200050FC0E2038BD00004C1A0300CC19030060
:10B03000D0010300705F667300000000705F6170F4
:10B0400069000000257320636865636B2066616991
:10B050006C656420696E20257328292077697468DF
:10B060002076616C756520307825782E0000000010
:10B07000044801214174007A08B100207047012082
:10B08000704700002C2E0020012801D0032808D191
:10B090000449002201284A7400D00020087403F0FB
:10B0A0005FB970472C2E002070B50246022801D0EF
:10B0B000032A45D1234C207A002841D0012833D0DF
:10B0C000022831D120480023022A006802D0032A36
:10B0D0002AD11BE0E360017911B1012924D10DE0EF
:10B0E000D0E90565711B4FF48056B14200D331465B
:10B0F000294481614569A9420ED015E00169491CC6
:10B100000161426991420FD1237213E0E168491C49
:10B11000E160082908D9E3602372022A0AD00D21D0
:10B12000FDF7DAFC03F0C2F8607C28B1BDE870409E
:10B1300000F058BF0021F3E7BDE8704003F010B9FC
:10B1400070BD00002C2E00207C2300202DE9F84F3C
:10B1500090468A463A493B4A0500A1EB02014FEA74
:10B16000D1014FF00102DDF828901E464FF00E008D
:10B1700002EB01441AD0B8F1000F1CD02868002857
:10B1800022D00920002E29D069684968B6FBF1F267
:10B1900001FB1261002926D000902B4B20462BA2E8
:10B1A00035A100F08EFB0920BDE8F88F0090204605
:10B1B000254B3CA203E00090234B20463BA22EA14E
:10B1C00000F07FFB0E20EFE70820009020461E4B8A
:10B1D00038A229A100F075FB0820E5E70090204681
:10B1E000194B37A2DCE75046FBF753FD102798B107
:10B1F0004046FBF74EFDA0B1324651462846FBF7CC
:10B200004EFD98B1CDF80090286833464246C46898
:10B2100051462846A047C7E720460B4B29A2009776
:10B2200008E02046084B2DA2009703E0064B20467D
:10B2300033A2009710A100F044FB1020B4E70000F7
:10B240004C1A0300CC1903000802030021286C6586
:10B250006E202520705F66732D3E705F666C617393
:10B26000685F696E666F2D3E70726F6772616D5FA9
:10B27000756E697429000000257320636865636B2F
:10B28000206661696C656420696E20257328292019
:10B29000776974682076616C756520307825782E22
:10B2A00000000000705F667300000000705F737242
:10B2B00063000000705F66732D3E705F617069000F
:10B2C0006C656E00616464725F69735F616C69676D
:10B2D0006E65643332286465737429006164647236
:10B2E0005F69735F616C69676E65643332282875C6
:10B2F000696E7433325F7429705F73726329000062
:10B30000616464725F69735F77697468696E5F62B4
:10B310006F756E647328705F66732C206465737438
:10B320002C206C656E29000070B541EA4201DDE910
:10B3300004564FF0A04441EA830141EA052104EBA1
:10B34000800041EA0641C0F8001770BD70B541EABF
:10B350004201DDE904564FF0A04441EA830141EA8D
:10B36000052104EB800041EA0641C0F8001770BDDA
:10B3700070B541EA4201DDE904564FF0A04441EACC
:10B38000830141EA052104EB800041EA0641C0F84F
:10B39000001770BD70B541EA4201DDE904564FF077
:10B3A000A04441EA830141EA052104EB800041EA1F
:10B3B0000641C0F8001770BD1CB5002100910B4676
:10B3C00001220191FFF7D4FF1CBD1CB500210091A3
:10B3D0000B4601220191FFF7DDFF1CBD1CB50022C9
:10B3E0000B46009211460192FFF7C2FF1CBD1CB52F
:10B3F00000220B46009211460192FFF7CBFF1CBDC5
:10B400001CB5002100910B46012201911146FFF766
:10B41000AFFF1CBD1CB5002100910B46012201911C
:10B420001146FFF7B7FF1CBD4FF0A04202EB8000B2
:10B43000D0F8002722F44032C0F80027D0F80027C7
:10B4400042EA0141C0F80017704701224FF0A043C3
:10B45000824011B1C3F808257047C3F80C25704726
:10B4600018B5084B6C4601441B68009306E000BF0A
:10B4700054F82030D3F81035401C08C28142F7D868
:10B4800018BD000088010300034908B508440021E5
:10B4900001600068009008BD00600040024940580B
:10B4A000012800D0002070470060004030B5154AE8
:10B4B00001460020D2F8104423460AE0DB681D79DB
:10B4C000854205D1401C0A28F6DB4FF0FF3030BD25
:10B4D0001B68002BF2D1431CF9D0CB681871D2F84D
:10B4E000103443B1DB68CC681B682360D2F81024A9
:10B4F000D268116030BDC2F81014C96800220A6019
:10B5000030BD0000E42F0020F0B595B01C46154674
:10B510000F4608461A9E00F02DFB182109A8FAF7DD
:10B52000BEFF0E96CDE909540023082203A9384630
:10B5300000F035FB05980690BDF81000ADF81C0032
:10B54000BDF81200ADF81E0000208DF82100039810
:10B55000082600F00300012802D0022818D032E0AB
:10B5600003983346850AC0F3C2008DF82000039883
:10B570000FA9C0F38314A200384600F010FB09A8FD
:10B58000009006AB22460FA9284600F04FFA1AE0B9
:10B590000398840DC0F3C2008DF82000082C01D25E
:10B5A000254600E0082533462A460FA9384600F014
:10B5B000F6FA2E44641B09AB06AA29460FA800F030
:10B5C00093F9002CEAD1384600F0DAFA15B0F0BD54
:10B5D0007047012003F0D0BF084810B50178084A31
:10B5E000515C19B1001D01F0C7F802E00C3000F009
:10B5F000D5FFBDE81040002003F0BEBF902300201F
:10B60000FC22002008B5034A00924023024AFFF7BB
:10B610007BFF08BD85EB02004C2E00200A4A012961
:10B6200002EBC00007D0022907D0032907D0042964
:10B6300007D000207047022070470420704700792F
:10B640007047407970470000CC19030010B5FFF730
:10B65000C0FF04210348FFF729FF02490120C96800
:10B66000487110BDBC1903002DE9F04F8DB0FCF7F7
:10B67000D9FE18B100200DB0BDE8F08F7E4C4FF020
:10B68000000BC4F818B4BFF34F8F60680290A56830
:10B69000D846284004EB80000CE000BFD4F8180422
:10B6A00070B921680298814201D86160E2E72840C0
:10B6B00004EB80000C3002A9FEF74CFB0028EDD112
:10B6C000002005AA029901EA050304EB8303491C43
:10B6D000DB6842F82030401C02910228F2D3059822
:10B6E00000F00300022802D001284DD0AAE00598FE
:10B6F0005022810D8946B2EB905F00D850210E4652
:10B7000066F39F50059008315C4800F0EAF90700A5
:10B7100078D000F02FFA4346082205A9384600F0F9
:10B7200046FA029908F1080A2940681A8000001DAB
:10B73000864222D9504D0C3530B1C2B204EB8101A2
:10B74000301A90460C3104E02946F2B200259046AA
:10B750002846C6B25346384600F029FA0AEB0803D9
:10B7600025B132462946384600F021FA029909F1FE
:10B77000030001EB900002903BE004EB8101534693
:10B78000324638460C31EFE70598C0F3831006289F
:10B7900000D30620059960F38911C1F38310801C42
:10B7A00005918100354800F09CF907004AD000F06F
:10B7B000E1F94346082205A9384600F0F8F908F1F6
:10B7C000080800260FE00298434600EA0501401CE5
:10B7D00004EB81010290042238460C3100F0E7F9B5
:10B7E00008F10408761C0598C0F38310B042EAD82B
:10B7F00047B1D4F81054D4F8180478B1384600F0A2
:10B80000BFF934E01EE0E8684079012804D12A68D5
:10B810002846394612689047E8680568002DF2D13D
:10B82000384600F0ADF98DF800B06846FBF7E6FB4E
:10B83000D4F8180408B9029860609DF80000FBF77E
:10B8400001FC14E0D4F8104405E021682046896822
:10B850008847E0680468002CF7D109480949401A74
:10B86000C008022101EB004007A100F017F8FCF727
:10B87000D9FD80F00100FEE6E42F00207C1A0300D1
:10B880005C1A0300CC1903004261636B656E64733C
:10B8900020666C75736865640000000000231A461A
:10B8A00003F0D0BC08B5012300926A4603F0CAFC3D
:10B8B00008BD1CB5CDE9002302236A4603F0C2FC93
:10B8C0001CBD3EB5069C8DE81C0003236A4603F0B0
:10B8D000B9FC3EBD7FB5DDE908458DE83C00042399
:10B8E0006A4603F0AFFC7FBD2DE9F0470E46804667
:10B8F0001C46924608293ED894F80C9000202073EC
:10B900001946104602F064FC0025B54206D218F82C
:10B9100005201AA12046FFF7BFF903E019A1204630
:10B92000FFF7BAF96D1C082DEFD317A12046FFF7DA
:10B93000B3F90025B54210D218F80570FAF792FD58
:10B940000068C05D10F03E0F01D03A4600E02E22A4
:10B950000EA12046FFF7A0F903E00DA12046FFF756
:10B960009BF96D1C082DE5D301222146504602F0BB
:10B9700011FC84F80C90BDE8F087000020253032DF
:10B9800078000000202020007C00000025630000DB
:10B99000200000000B4810B5FF21816000210160EC
:10B9A0004160C0F81814C0F8141480F82014064838
:10B9B00000F0E4F8002803D1044800F039F9002031
:10B9C00010BD0000E42F00207C1A0300EC030300EC
:10B9D00002480349401AC008704700007C1A03005F
:10B9E000CC19030013B56846FEF7E6FD08B1002048
:10B9F0001CBD0248009950F831001CBDCC19030051
:10BA000070B509480125D0F8104480F8205407E0AB
:10BA1000E06845712168204649688847E068046805
:10BA2000002CF5D170BD0000E42F00202DE9FF4768
:10BA300081460C9D00200C462F7B287398461646A5
:10BA40002946184602F0C4FB072E42D2DFE806F072
:10BA500004090F161F2A360049462846FFF71CF92D
:10BA600037E0494628462268FFF716F931E0D4E965
:10BA7000002349462846FFF70FF92AE0A068009006
:10BA8000D4E9002349462846FFF706F921E0D4E926
:10BA90000201CDE90001D4E9002349462846FFF719
:10BAA000FBF816E004F1080007C88DE80700D4E9A8
:10BAB000002349462846FFF7EFF80AE004F10800A2
:10BAC0000FC88DE80F00D4E9002349462846FFF748
:10BAD000E3F800222946404602F05CFB2F73BDE8E4
