:020000040007F3
:106000008036002001630700096307000B63070067
:106010000D6307000F630700116307000000000015
:1060200000000000000000000000000013630700F3
:1060300015630700000000001763070019630700DD
:106040001B6307001B6307006D7707001B630700D6
:106050001B6307001B6307001B6307001B6307002C
:106060001B6307001B6307001B6307001B6307001C
:106070001B6307001B6307001B6307001B6307000C
:10608000797707001B6307001B6307001B6307008A
:106090001B6307001B6307001B6307001B630700EC
:1060A0001B6307001B6307001B6307001B630700DC
:1060B0001B6307001B6307000000000000000000D6
:1060C0001B6307001B6307001B6307001B630700BC
:1060D0007D7307001B6307001B63070000000000BF
:1060E00000000000000000000000000000000000B0
:1060F00000000000000000000000000000000000A0
:10610000000000000000000000000000000000008F
:10611000000000000000000000000000000000007F
:10612000000000000000000000000000000000006F
:10613000000000000000000000000000000000005F
:10614000000000000000000000000000000000004F
:10615000000000000000000000000000000000003F
:10616000000000000000000000000000000000002F
:10617000000000000000000000000000000000001F
:10618000000000000000000000000000000000000F
:1061900000000000000000000000000000000000FF
:1061A00000000000000000000000000000000000EF
:1061B00000000000000000000000000000000000DF
:1061C00000000000000000000000000000000000CF
:1061D00000000000000000000000000000000000BF
:1061E00000000000000000000000000000000000AF
:1061F000000000000000000000000000000000009F
:10620000DFF80CD000F0E4F800480047A98607004A
:106210008036002080F308888E46104730B404464C
:1062200054E8000F0D4644E80053002BF8D11560E8
:1062300030BC704730B4044654E8000F40EA010512
:1062400044E80053002BF7D1156030BC704730B4E0
:10625000044654E8000F00EA010544E80053002B0F
:10626000F7D1156030BC704730B4044654E8000FD5
:1062700080EA010544E80053002BF7D1156030BCDB
:10628000704730B4044654E8000F00EB010544E8C1
:106290000053002BF7D1156030BC704730B4044672
:1062A00054E8000FA0EB010544E80053002BF7D1A0
:1062B000156030BC704770B404464FF0000054E8DD
:1062C000006F0D68AE4207BF44E80023012044E898
:1062D00000630E60002B1CBF0020F0E770BC70470D
:1062E00030B4044654E8000F88422CBF451A0546D6
:1062F00044E80053002BF5D1156030BC7047000016
:106300000648804706480047FEE7FEE7FEE7FEE74F
:10631000FEE7FEE7FEE7FEE7FEE7FEE75174070053
:1063200001620700202A04DB203A00FA02F1002073
:1063300070479140C2F1200320FA03F319439040C3
:10634000704700000048704724D4070040EA01036A
:106350009B0703D009E008C9121F08C0042AFAD21B
:1063600003E011F8013B00F8013B521EF9D27047DF
:10637000D2B201E000F8012B491EFBD27047002287
:10638000F6E710B513460A4604461946FFF7F0FF34
:10639000204610BD421C10F8011B0029FBD1801AB9
:1063A000704730B504460020034600E05B1C934272
:1063B00003D2E05CCD5C401BF8D030BD034611F841
:1063C000012B00F8012B002AF9D118467047000074
:1063D000064C074D06E0E06840F0010394E8070032
:1063E00098471034AC42F6D3FFF70EFF04D90700EC
:1063F00024D907002DE9F0438BB01446129D15F9FE
:10640000046B00961F46804689462B46024621466D
:1064100002A800F082FC02A9129A084600F079FC5A
:10642000129B02AA4146404600F063FC129B02AA5E
:106430002146204600F05DFC2B464A463946384648
:10644000009600F06AFC129A394602A800F061FC3E
:1064500002A92B4642460846009600F05EFC02A9BF
:106460002B4622460846009600F057FC2B46424633
:1064700021462046009600F050FC129B22464946D9
:10648000484600F036FC2B4602AA414620460096BC
:1064900000F043FC129B22463946384600F029FCA6
:1064A0002B464A4639463846009600F036FC3246BE
:1064B00002A9204600F0F8FD0BB0BDE8F083F0B56E
:1064C000154689B01C4607460E461A4629466846B8
:1064D00000F01FFC23466A463946384600F009FCA6
:1064E00023462A466946684600F003FC23466A466E
:1064F0003146304600F0FDFB09B0F0BD8B18024478
:106500008B4200D1704713F8010D02F8010DF7E737
:106510002DE9F047B3F9024088461E4604F11F01F9
:106520002023073491FBF3F708234FFA87F994FBF4
:10653000F3F4944228BF14464946054600F06EFA2B
:1065400022464146FFF7DAFFB6F90230E4009C42EA
:106550001FD9E41A05EB87010022C4F120078D4200
:106560000ED324364A462946304600F062FA012806
:106570000FD04B4632462846BDE8F04700F0A0BD9C
:1065800051F8040D20FA04F313430B6000FA07F2EC
:10659000E5E7BDE8F0872DE9F04793F9006092B098
:1065A00004468946104631461546984600F056FA8C
:1065B000002840F091804246494602A800F0A9FB1D
:1065C000434602AA21460AA800F093FB02A9084606
:1065D000424600F09EFB43462A464946484600F0A4
:1065E00088FB08F1040742462946284600F091FB43
:1065F0003B462A4621462046009600F03EFA3B469E
:106600002A4629462846009600F037FA3B462A4695
:1066100021462846009600F080FB43462A46214644
:10662000204600F066FB3B4622462146284600965F
:1066300000F023FA3B4600962A462146204600F009
:106640001CFA2368DB074AD533463A4621462046E2
:1066500000F0B6F931468246204600F018FD06F1FA
:106660008043013B54F8230040EACA7044F82300F9
:1066700042462146284600F04CFB3B460AAA2946E2
:106680002846009600F049FB3B460AAA29462846C0
:10669000009600F042FB0AA908463B462A460096AF
:1066A00000F03BFB43460AAA2146204600F021FBAE
:1066B00002AA3B4610462146009600F02EFB3246C9
:1066C0002946204600F0F0FC4946284600F0ECFC44
:1066D00002A9484600F0E8FC12B0BDE8F087314658
:1066E000204600F0D4FCC3E70048704754D80700A8
:1066F0002DE9F04FEDB01F46DDF8D8810590B8F9CF
:10670000026098F9004020231F3696FBF3F676B21C
:1067100006F1FF3924AB002543F829506CAB03EB9D
:1067200089034CA88A469346394698F9012043F8D4
:10673000805C43F8605CFFF7E1FE98F9012054A803
:10674000B918FFF7DBFE21464CA800F087F9074691
:10675000002840F02E8154A800F080F90290002813
:1067600040F0298108F1240332464CA918460393CE
:1067700000F05FF9012840F02081324654A90398C7
:1067800000F057F90128069040F017811CAD0CAFBE
:106790003346039A54A9284600F088F9029B47F82B
:1067A00029305A46514638464346FFF7B1FE39462E
:1067B0003846039B00962A4600F0FBF90DF5B879A0
:1067C000039B00962A464CA914A800F0F2F9224631
:1067D0004846059900F068FCA30009EB030A0793FB
:1067E000059BA100591808F1440B504600F05CFCD1
:1067F000594634A800F058FCA3000BEB03013CA859
:1068000000F052FC08F10403494634AA28460094DB
:10681000049300F082FA53464A463CA934A8CDF8C6
:106820000080FFF7E7FD2346049A2946284600F03A
:106830003DF92A46514648464346FFF740FE029B33
:10684000CDE9083B059B31463846CDE90A3900F0D1
:10685000FFFB3146814614A800F0FAFB8145B8BF22
:1068600081461FFA89F909F1FF3B0FFA8BFB594664
:10687000384600F055FC5946071C14A818BF0127DC
:1068800000F04EFC002814BF022300231F430DF12B
:10689000200A22465AF8277024A8394600F004FC42
:1068A0000DF1B00BA300F918584600F0FDFB21468E
:1068B000284600F0B3F8A9F10209069B2B600FFAF5
:1068C00089F90DF1900AB9F1000F23DA2346049AF1
:1068D0002946284600F0EAF843462A4659465046DB
:1068E000FFF7EDFD32465146039800F0A2F801286B
:1068F00004D03346039A504600F0E2FB013C64B2F8
:106900004CAA23064BD5029BB3FA83F040096DB025
:10691000BDE8F08F43462A46D8F8A4705946504641
:10692000B84749460CA800F0FBFB4946071C14A8D1
:1069300018BF012700F0F4FB002814BF0223002336
:106940001F4308AB53F8277027B32246394634A8B3
:1069500000F0AAFB079B3CA8F91800F0A5FB4346F2
:106960002A463CA934A8FFF7AAFD049B009434AA48
:10697000514644A800F0D1F95B4652463CA934A8E0
:10698000CDF80080FFF736FD434644AA2946284645
:1069900000F0AFF909F1FF390FFA89F993E752F8DE
:1069A00024105AF824304B40029919430291013CBB
:1069B000A7E72846ABE73846A9E70298A7E7000013
:1069C000C3F10803DB0070B50133002403A500BF49
:1069D0005B1920C940CAAD1920C0184720C940CA58
:1069E000754120C020C940CA754120C020C940CA95
:1069F000754120C020C940CA754120C020C940CA85
:106A0000754120C020C940CA754120C020C940CA74
:106A1000754120C06441204670BD00BF002310B501
:106A20001C465AB2914200DC10BD40F823400133AD
:106A3000F7E710B5013A52B2130601D5002010BD98
:106A400050F8224051F822309C4205D802F1FF3222
:106A5000F2D24FF0FF30F2E70120F0E710B500234B
:106A60001A465CB2A14203DCB2FA82F0400910BDC2
:106A700050F8234001332243F3E770B59DF91040ED
:106A80001E4623460546FFF79BFF30B9224629469E
:106A90003046FFF7CEFF012807D02346324629466D
:106AA0002846BDE8704000F00BBB70BDF0B50F4646
:106AB000A1B006461946384615461C46FFF7CEFFDC
:106AC00020B13046FFF7AAFF21B0F0BD224639467B
:106AD000684600F0E9FA294608A800F0E5FA10A88F
:106AE0002146FFF79BFF012318A81093FFF796FF9D
:106AF000224608A96846FFF79CFF28B9224610A93C
:106B0000304600F0D1FADFE7009BDA0709D42146CE
:106B1000684600F0BCFA2246294610A800F0E0FBC7
:106B2000E6E7089BDB0707D4214608A800F0AFFA88
:106B30002246294618A8F1E7002823461CDD08AAAA
:106B40006946684600F0BCFA2146684600F09FFAA4
:106B5000224618A910A8FFF76CFF002805DA10A933
:106B600023462A460846FFF72BFF10A9234618AAFA
:106B7000084600F0A5FACEE708A96A46084600F0E4
:106B80009FFA214608A800F082FA224610A918A808
:106B9000FFF74FFF002805DA18A923462A460846C2
:106BA000FFF70EFF18A9234610AA084600F088FA3E
:106BB000BEE72DE9F04FB5B004AD9DF9F8401F4692
:106BC00081462346284600F0BAF824AB21463846D1
:106BD000CDE9023500F03CFAC0EB841005B26B42FF
:106BE00003F01F034FF0200695FBF6F676B205F092
:106BF0001F0814A858BFC3F100083146FFF70EFF65
:106C0000B8F1000F30B22DDD14AB002203EB800091
:106C1000C8F1200C1346A34219D327B27B0001937D
:106C200014AB03EB870704F1FF3834AB012603EB09
:106C30008808002D53DA34AB03EB8606224656F85B
:106C4000C81C484600F030FA35B0BDE8F08F57F860
:106C5000236006FA08F10A4340F8232026FA0CF2D2
:106C60000133D8E714AB2246394603EB800000F02D
:106C70001BFAD2E70FFA82FE5AF8C83C53F82EB03E
:106C800034AB03EB820252F8803CABEB03031B1ADC
:106C90009B4502D034BF012000205CF8C82C42F88C
:106CA0002E300131019B4AB29A42E3DB331A5E4235
:106CB000214614A85E4100F0EAF934AB03EB8403EB
:106CC000214653F8802C58F8803C384643EAC2737A
:106CD000013D48F8803C2DB200F0D9F9A9E734AB6A
:106CE0000021C6F1010C084603EB860A03EB8C0C6D
:106CF000D8E730B51C4691B0054693F90030684698
:106D000000F01DF8D4F8AC3069462846984711B019
:106D100030BD13460A46FFF7ECBF70B59DF9104031
:106D20001E462346054600F0CBF938B123463246CD
:106D300029462846BDE87040FFF742BE70BD2DE9E8
:106D4000F04F08B4F8CA04B451F8042BA3FB02892D
:106D500040F8048B4FF0000AE4FB629A4FF0000BFE
:106D6000E5FB62AB4FF0000CE6FB62BC4FF0000E9F
:106D7000E7FB62CE51F8042B4FF00008E3FB628979
:106D800040F8048BE4FB629AE5FB62ABE6FB62BC75
:106D9000E7FB62CE51F8042B4FF00008E3FB628959
:106DA00040F8048BE4FB629AE5FB62ABE6FB62BC55
:106DB000E7FB62CE51F8042B4FF00008E3FB628939
:106DC00040F8048BE4FB629AE5FB62ABE6FB62BC35
:106DD000E7FB62CE51F8042B4FF00008E3FB628919
:106DE00040F8048BE4FB629AE5FB62ABE6FB62BC15
:106DF000E7FB62CE40F8049B40F804AB40F804BBCC
:106E000040F804CB40F804EB0CBC052B00F01E81CD
:106E10000C68A0F11400A1F11401A2F1140252F8BF
:106E200004EB4FF0000550F8046BE4FB6E5652F88B
:106E300004EB50F8047BE4FB6E6752F804EB50F867
:106E4000048BE4FB6E7852F804EB50F8049BE4FBEF
:106E50006E8952F804EB50F804ABE4FB6E9AA0F193
:106E6000140052F8044B51F804EB4FF0000CE4FB13
:106E70006EC540F804CB51F804EBE4FB6E5640F8C5
:106E8000045B51F804EBE4FB6E6740F8046B51F8C7
:106E900004EBE4FB6E7840F8047B51F804EBE4FB70
:106EA0006E8940F8048B51F804EBE4FB6E9AA0E87D
:106EB0000006062B00F0CA800C68A0F11800A1F1B2
:106EC0001801A2F1180252F804EB4FF0000550F837
:106ED000046BE4FB6E5652F804EB50F8047BE4FBC1
:106EE0006E6752F804EB50F8048BE4FB6E7852F8AE
:106EF00004EB50F8049BE4FB6E8952F804EB50F865
:106F000004ABE4FB6E9A52F804EB50F804BBE4FBCC
:106F10006EABA0F1180052F8044B51F804EB4FF09F
:106F2000000CE4FB6EC540F804CB51F804EBE4FB25
:106F30006E5640F8045B51F804EBE4FB6E6740F8D2
:106F4000046B51F804EBE4FB6E7840F8047B51F8D5
:106F500004EBE4FB6E8940F8048B51F804EBE4FB8E
:106F60006E9A40F8049B51F804EBE4FB6EABA0E88A
:106F7000000C072B6AD008B40C68A0F11C00A1F12A
:106F80001C01A2F11C0252F804EB4FF0000550F86E
:106F9000046BE4FB6E5652F804EB50F8047BE4FB00
:106FA0006E6752F804EB50F8048BE4FB6E7852F8ED
:106FB00004EB50F8049BE4FB6E8952F804EB50F8A4
:106FC00004ABE4FB6E9A52F804EB50F804BBE4FB0C
:106FD0006EAB52F804EB50F804CBE4FB6EBCA0F1AE
:106FE0001C0052F8044B51F804EB4FF00003E4FB93
:106FF0006E3540F8043B51F804EBE4FB6E5640F864
:10700000045B51F804EBE4FB6E6740F8046B51F845
:1070100004EBE4FB6E7840F8047B51F804EBE4FBEE
:107020006E8940F8048B51F804EBE4FB6E9A40F84B
:10703000049B51F804EBE4FB6EAB40F804AB51F851
:1070400004EBE4FB6EBCA0E8001808BCBDE8F08FC0
:10705000013949B20A06CBB205D4013900EB8102ED
:107060005268002AF6D001335BB273B103F180425B
:10707000013A50F82220002022B9013B00EB4313D3
:1070800018B2704752080130F6E71846704700EB17
:1070900081010023884200D3704751F8042D43EA50
:1070A00052030B60D307F5E710B500235CB2A24290
:1070B00000DC10BD51F8234040F823400133F5E7D0
:1070C000C3F10803DB0070B50133002403A500BF42
:1070D0005B1920C940CAAD1B20C0184720C940CA4F
:1070E000B54120C020C940CAB54120C020C940CA0E
:1070F000B54120C020C940CAB54120C020C940CAFE
:10710000B54120C020C940CAB54120C020C940CAED
:10711000B54120C06441B4FA84F0400970BD00BF9D
:107120004A11012350F8220001F01F0103FA01F176
:1071300008407047F0B5082289B00C460646FFF7B4
:10714000B3FFCB6A03930B6B04934B6B05938B6B71
:107150000693CB6B0793002708236A466946684667
:10716000CDE901770097FFF72BFC082305466A4617
:1071700031463046FFF724FC236B0393636B049383
:10718000A36B0593E36B0544CDE906376A460823F4
:1071900069466846FFF714FC082305446A463146F1
:1071A0003046FFF70DFC236A0093636A0193A36ADC
:1071B0000293A36B0693E36B0793054408236A4687
:1071C00031463046CDE904770397FFF7F9FB636A50
:1071D0000093A36AA26B0193E36A02930492636B28
:1071E000E26B0393CDE90523236A07930544082343
:1071F0006A4631463046FFF7E3FBE36A0093236BB0
:107200000193636B0293236A0693A36A0793054471
:1072100008236A4631463046CDE904770397FFF7E5
:107220004FFF236B0093636B0193A36B0293E36B9C
:107230000393636A0693E36A07932D1A08236A4649
:1072400031463046CDE90477FFF73AFF636B009390
:10725000A36B0193E36B0293236A0393636A049322
:10726000A36ACDE90537236B07932D1A08236A46D5
:1072700031463046FFF724FFA36B0093E36BCDE963
:107280000137636A0393A36A0493E36ACDE9053780
:10729000636B07932D1A08236A4631463046FFF781
:1072A0000FFF2D1A0D4C0FD435B908223146204658
:1072B000FFF7BFFB01280FD0082322463146304696
:1072C000FFF7FEFE2D1AEFE708232246314630462F
:1072D000FFF776FB2D18F7D409B0F0BD58D807009A
:1072E00070B5036813F001050646144605D0134631
:1072F0000A460146FFF764FB054621463046FFF784
:10730000C6FE45B104F18042013A56F8223043F0FE
:10731000004346F8223070BD2DE9F0438BB004469F
:10732000154689460AAE1C22002103A8FFF729F85A
:10733000032346F8203D95F900802A464946204619
:107340002F1DFFF7E6FC3B46324621462046CDF88E
:107350000080FFF7E2FC2B464A4621462046FFF715
:10736000C8FCCDF800803B4605F18402214620464A
:10737000FFF783FB0BB0BDE8F08300002DE9F0417F
:10738000194E4FF48271D6F8040130B11748C26823
:10739000521CC260304603F093FB00254FF4A077E7
:1073A00007EB85018AB23046B258BAB189B203F010
:1073B00087FB0E48103000EB0514204605F066FBF5
:1073C000616819B1204605F0E7FA07E0A16811B13C
:1073D000204605F0E1FA206800B180476D1C022DBF
:1073E000DED3BDE8F0810000004002401000002024
:1073F00000F0D2B970B50E46144900EB400001EB25
:10740000C0051446E86A183520B101280FD00228BB
:1074100005D113E0284600F0F3F9A04201D2002480
:1074200011E022463146284600F022FA0BE02846B9
:1074300000F0E6F9A042F4D20446F2E731462846CD
:1074400000F0E9F90446204670BD0000F813002062
:10745000F0B5B5480023021D0178101D01254FF03D
:10746000805406290BD11678360708D10678C6F362
:107470000316032E06D0042E04D0052E02D00629B2
:1074800007D00EE0B4F82463A84FC6F304263E608C
:1074900002E01678360704D10678C6F30316032EE9
:1074A00002D0062904D00FE0A24FA14E7E670EE065
:1074B0001678360708D10678C6F30316032E06D0D1
:1074C000042E04D0052E02D0062907D00EE0D4F8F1
:1074D0004462994FC6F342363E6002E016783607A2
:1074E00004D10678C6F30316032E02D0062906D06F
:1074F00011E0924E376827F0807737600EE01678FB
:10750000360708D10678C6F30316032E06D0042EDC
:1075100004D0052E02D006290AD011E04FF0804693
:10752000C6F80C31C6F81031834E361F336002E0C6
:107530001678360704D10678C6F30316032E02D058
:10754000062905D00CE07C4F032664373E600AE034
:107550001678360704D10678C6F30316032E02D038
:1075600006290DD014E0764F05263E60744E78361D
:107570003560734E083633603F263F1D3E6002E0A3
:107580001678360704D10678C6F30316052E02D006
:10759000062957D062E06B4E36686B4F3E60694EED
:1075A000361D36683F1D3E60664E083636683F1D04
:1075B0003E60644E0C3636683F1D3E60614E1036AC
:1075C00036683F1D3E605F4E143636683F1D3E6094
:1075D0005C4E183636685C4F20373E60594E1C367C
:1075E00036683F1D3E60574E203636683F1D3E6070
:1075F000544E243636683F1D3E60524E283636685B
:107600003F1D3E604F4E2C3636683F1D3E604D4E4E
:10761000303636684C4F40373E604A4E3436366816
:107620003F1D3E60474E383636683F1D3E60454E32
:107630003C3636683F1D3E60424E403636683F1D40
:107640003E6002E01678360708D10678C6F30316C6
:10765000032E06D0042E04D0052E02D0062907D012
:1076600019E0D4F85812394A01F04F01116002E0D4
:10767000117809070FD10078C0F30310032803D055
:10768000042801D0052806D131480168C90702D075
:107690006FF001010160D4F83001062808D1D4F858
:1076A0003401062804D12B48016841F4806101604F
:1076B00022487438016841F470010160BFF34F8FB4
:1076C000BFF36F8F4FF01021D1F80002002803DBC9
:1076D000D1F80402002822DA1F4A15601F48046806
:1076E000002CFCD01524C1F800420568002DFCD008
:1076F000C1F8044201680029FCD013600168002928
:10770000FCD0BFF34F8F0D48F0380168144A01F4E4
:10771000E06111430160BFF34F8F00BFFDE71249E5
:1077200010480860F0BD0000E00F00F04035014057
:107730000DF0ADBA00C007403C050040FCED00E094
:10774000105600400404001020C50040E40E004024
:10775000000400403C17004004E5014000E4014003
:107760000400FA050090D0031801002001480068C9
:10777000004700009C000020064808B50021016079
:107780000068009003F074F802F0B2FE0028FBD10C
:1077900008BD00000001014010B5124C022020611C
:1077A000606111A0A06104F17800E0614FF4007005
:1077B00020620020A06260620BA1A164E06204F577
:1077C0001E71E1641021A065C4E91410E06509A1EF
:1077D000E01DFEF7F3FD08A12046FEF7EFFD202097
:1077E000A07110BDF81300205465726D696E616C54
:1077F00000000000525454005345474745520000D2
:107800000269C1688A4203D88068401A104400E0C7
:10781000501A401E70472DE9F047C4681746894644
:1078200006464FF000083069A04201D9051B02E06E
:10783000B168201A0D1AB0686D1E001BA84200D84E
:107840000546BD4200D33D4670682A46204449465D
:10785000FEF77CFDB0687F1B2C44A844A944A042DD
:1078600000D10024F460002FDDD14046BDE8F08750
:107870002DE9F04104468846D4E90207C51BE168BA
:10788000606816460844B54206D94146FEF75EFDDB
:10789000B819E060BDE8F0812A464146FEF756FD82
:1078A000761B08EB050132466068FEF74FFDE66087
:1078B000F0E702E008C8121F08C1002AFAD1704799
:1078C0007047002001E001C1121F002AFBD1704760
:1078D000800701D00020704701207047C3688B42A9
:1078E00006D811440069491E814201D80120704721
:1078F000002070472DE9F041DFF874804446D8F845
:107900004860D8F8245001F043FC216B08446A1AFF
:107910003144814200D10022082300F0A5FC06007A
:10792000144815494FF00107A0EB01004FEAD000C1
:1079300007EB004404D0204610A102F0F1FE14E051
:1079400001F026FC0022294600F030FA0346D8F860
:10795000282040469A4204D1C0E90737C8F8185099
:1079600003E020460C4902F0E6FE3046BDE8F08117
:10797000EC09002094D907003CD907004661696CE6
:10798000656420746F20636F7079206669726D770B
:107990006172652E0000000028D4070002460648E8
:1079A0000649401AC008012101EB004004A102F081
:1079B000BBFE03F00FFC000094D907003CD9070080
:1079C000526563656976656420616E206572726FC9
:1079D000723A203078253038782100002DE9F047C0
:1079E000244C8146924660880E4681423FD84FF62D
:1079F000FF77002000F076F822786078A18888422E
:107A000001DA401C00E00020C0B2904203D1002007
:107A100000F06AF829E065784FF000086078884245
:107A200001DA401C00E000206070002000F05CF8EB
:107A3000BD421AD0A068B9F1000F40F835A00DD0B2
:107A400066B16188E068324605FB01004946FEF7F1
:107A50007DFCA06800EBC500868003E000EBC5005C
:107A6000A0F804800020BDE8F0870420FBE709208F
:107A7000F9E70000A400002010B50E4C03E0401C04
:107A800000E00020207020786178814210D02278B8
:107A90006188E068A36802FB010003EBC20153F8B0
:107AA0003220898890472078A1888842E9DAE6E781
:107AB00010BD0000A400002030B5CB0008339DB2FB
:107AC00093074FF0000401D0072030BD044B9A60AB
:107AD0002A44DA605C701C7058809980002030BDA8
:107AE000A400002000F002B800F008B872B6024806
:107AF0000168491C01607047B40000200349086810
:107B0000401E086000D162B670470000B40000203B
:107B10002DE9F041064608680C46411C4FF0A0478D
:107B20004FF0010506D005FA00F1C7F808152068E6
:107B300002F001FC6068411C02D0002102F0F2FB5F
:107B40003168A069C1F82405607D217D3268084351
:107B5000C2F86C05D4E900123068C0F80C15C0F802
:107B60001425207D012815D1A068411C02D00021D8
:107B700002F0D8FBE068411C05D08540C7F80855E5
:107B8000E06802F0D8FBD4E902123068C0F808259A
:107B9000C0F81015BDE8F08170B518480146456A77
:107BA000C06A8C6CAC2801D024B106E0486B044458
:107BB0002D1A02E001F000FB04462A462146104837
:107BC000FEF7EFFBC0B100BF02F092FC0028FBD132
:107BD00001F0E8F82946204601F0CCFC040009D069
:107BE00008480949401AC008012101EB004007A1DB
:107BF00002F096FD204670BD0024FBE7EC09002052
:107C00000060070094D907003CD9070052657175E0
:107C100065737420746F20636F707920424C206606
:107C200061696C6564000000024900200870024828
:107C300001F02CBE0800002061BD07002DE9FC41C9
:107C40000646C0074FF000050ED0104F0024012259
:107C5000385D009500231146019502F036FB641C47
:107C6000042CF4D300F024F8B0070DD5074E0024FF
:107C7000361D0022305D032300951146019502F068
:107C800024FB641C042CF4D3BDE8FC8106D007005F
:107C90000249085C012102F058BB000006D0070031
:107CA0000249085C002102F050BB000006D007002A
:107CB00010B500242046FFF7EBFF641C042CF9D319
:107CC00010BD00002DE9F0470546861C90460F4682
:107CD0004FF001090020FFF705FF1B4C20683860BA
:107CE000D4E90001401AA16804F21C47081A0EE00A
:107CF0000121384600F092FD00F088FC014638462C
:107D000000F08CFDD4E90001401AA168081A401C5B
:107D10008642EDD8B8F1000F03D0052065F3891035
:107D200002E0062065F39F50A2682168114004EB31
:107D30008101C8602068304420600020FFF7D4FE35
:107D40004846BDE8F0870000D40F002010B5436816
:107D50009C18446021B905E013F8010B01F8010BF0
:107D6000521EF9D2012010BD30B482680468531C41
:107D70008360A154D0E901128A4202D330BC02F0E0
:107D800049B930BC70470000034803C8814201D1A3
:107D90000120704700207047D40F00200249CA6BB1
:107DA0004260096C81607047EC090020F0B54FF02B
:107DB000FF3622B11268D24300230A4D0DE032464D
:107DC000FAE7C45C62400824D70700D037462F404A
:107DD00087EA5202641EF7D15B1C8B42F1D3D04379
:107DE000F0BD00002083B8ED10B504460068401CCB
:107DF00007D0204604F016FA2168814201D1012003
:107E000010BD002010BDF0B5146906468DB0206885
:107E10001546271DE0B1022920D00A2000906B46AC
:107E200009AA304603F06BFF00280FD009A901A86A
:107E3000009A03F0EFFD01AE96E80F0005AE86E86C
:107E40000F00236869683A4605A898470DB0F0BD51
:107E50000DB03046BDE8F04003F050BE69463046F4
:107E600003F0E2FD0028F1D0236869683A466846CD
:107E700098470028EAD002980028F5D10198706050
:107E80000120E3E753685B7813F0C00303D0402B75
:107E900003D00020704700F003B8FFF7B4BF000024
:107EA0002DE9FF410B465168064614464878334D8C
:107EB00000F00F0210F0300055F8225006D01028C4
:107EC00006D0202808D0302856D13EE022694DE067
:107ED00061690120087047E0022B28D1042A26D8C6
:107EE0004FF0010869463046676903F09DFD0028A0
:107EF0001AD009E00B79226913FB00226846A847D3
:107F000070B13878401C3870029820B161683878B8
:107F10004A799042EED301987060029860BB02E00B
:107F20004FF00008F7E7404604B0BDE8F081D4E91F
:107F300004300F79027817FB023349798A421BD249
:107F4000521C02701A46616810E008786169072ABD
:107F5000087009D1606801792069FEF710FA60683D
:107F60002169806803F07BFD2269616804B03046B6
:107F7000AC46BDE8F04160470020D5E77CD3070060
:107F800005490A680AB1521E0A604169002901D0F8
:107F9000C0680847704700004800002010B5082856
:107FA0001BD2DFE800F004121A1A1A041A04012086
:107FB000FFF744FE0020FFF773FE0120FFF770FE7D
:107FC000BDE810400220FFF763BE0120FFF760FE0E
:107FD000BDE810400220FFF763BE10BD10B5044697
:107FE000032806D0042C04D0062C08D0072C08D176
:107FF00005E008494FF4701000F02EFD01E0FFF796
:1080000013FE05484168002903D02046BDE8104012
:10801000084710BD558307000800002010B504462E
:10802000062802D1002001F051FD04480168002912
:1080300003D02046BDE81040084710BD4400002092
:1080400070B5427805460C46012A09D00F48104900
:10805000401AC008022101EB00400EA102F064FBAF
:10806000287808280BD16088401E81B26180208862
:1080700000280AD0002908D16080032028702946F2
:108080002046BDE8704003F08DBE70BD9CD907004E
:108090003CD907004446552072657175657374209C
:1080A000636F6D706C6574656420776974682072A5
:1080B0006573756C743A20307825780010B500210E
:1080C000024800F0C1FB80F3100010BDF013002047
:1080D0002DE9FC4180461F4615460E4600240D48FA
:1080E00000F099FB38B11120BDE8FC8106EB0430AB
:1080F00002F09EFC641CAC42F8D1064800F082FB02
:10810000CDE90057334600220221404600F004F832
:108110000020E9E7B80000202DE9F04387B00446CD
:10812000DDE90E8980681D4616460F4600280BD0F3
:1081300018216846FEF723F902A88DF8007080E840
:108140006003A1686846884707B0BDE8F0830B2844
:1081500003D30B38C0B200F009B8704702490022BF
:1081600008780A70704700004C0000200149087030
:108170000B2070474C000020014901200870704717
:1081800008000020014901200870704740000020CD
:1081900070B50E468CB0202115460A460A9100F1B2
:1081A0006F01012402A800F0C1FF0AA91648CDE919
:1081B00000012B4632461549A0F5987000F0F6FEF6
:1081C000020013481349A0EB01004FEAD00506D086
:1081D000012000EB054010A102F0A6FA10E02022D9
:1081E00002A90948FEF7DDF858B1022000EB05406E
:1081F00016A102F095FA00BF02F07AF90028FBD12F
:1082000000240CB0204670BDF80D002048D00700B7
:1082100064D907003CD90700436F756C64206E6F0A
:10822000742072756E206861736820766572696665
:1082300069636174696F6E20286572725F636F6431
:10824000652030782578292E000000004861736889
:1082500020766572696669636174696F6E20666114
:10826000696C65642E0000002DE9F04781461D46CB
:1082700016468846494502D10020BDE8F087A8EBA4
:108280000900040B06F6FF704FF0000A070B00F020
:108290009DFDA54235D22C4633E0A74202D8BA460E
:1082A000354601E0A246250300225146484601F02A
:1082B00091F80028E1D1681E00F003002A1A00237B
:1082C00041464846D21C01F0CBF80028D5D10F48D2
:1082D000A7EB0A07761B016BA94429440163A84454
:1082E000002001F09BFB5FEA000A0AD00848094918
:1082F000401AC008012101EB004007A102F010FA6A
:1083000001E0002EC9D15046B7E70000EC0900207B
:1083100094D907003CD907004661696C65642074F4
:108320006F20777269746520696D61676520636F7E
:108330007079696E672070726F67726573732074ED
:108340006F2073657474696E677320706167652E42
:10835000000000000748084910B5401AC008032172
:1083600001EB004005A102F0DBF9BDE81040FFF78A
:108370005BBC000094D907003CD90700496E6163DB
:108380007469766974792074696D656F75742E00EF
:1083900001494160002070470CD207002DE9FC5FC5
:1083A0000E008346DDE90C47C6F100009846924670
:1083B000814600D40846012503E000BF90FBFAF097
:1083C0006D1C5045FADAA84500D9454624B1002E67
:1083D00001DB780700D5641EB80702D5B8F1000F9D
:1083E0000AD0F80708D13CB1A54205D22021584651
:1083F000641EFFF7B9FCF6E7002E02DA4E462D2187
:1084000002E0780703D52B215846FFF7ADFC07F0B3
:10841000030002280BD1B8F1000F08D13CB1A542EE
:1084200005D230215846641EFFF79EFCF6E7CDE9E1
:108430000047434652463146584604F083FCBDE8A7
:10844000FC9F000070B50D46044600684FF488712B
:1084500002F059FB4FF49071206802F054FB4FF486
:108460009271206802F04FFB4FF4A271206802F075
:108470004AFB20681249C0F804132068690740F3DA
:108480000730090E002806DA00F00F0000F1E020A6
:1084900080F8141D03E000F1E02080F8001420684B
:1084A000012140F3073000F01F0291404009800095
:1084B00000F1E020C0F88012C0F8001170BD00008B
:1084C00010030200024600201268530713D502F081
:1084D0000300012802D002280CD105E0C2F383106A
:1084E0000B68801C184404E00223086803EB9252D6
:1084F000104408600120704702480068002800D03E
:1085000001207047B800002038B54FF440521B4995
:10851000536800F500508B4204D044688C4201D16E
:10852000012400E000248B4226D143688B4223D1F2
:108530001178142901D9526900E000221049B2FBD8
:10854000F1F30278142A01D9406900E00020B0FB61
:10855000F1F0834203D001240AA2009002E000243B
:108560000AA200900B480C49401AC008032101EBF5
:1085700000400AA102F0E7F8204638BDDBE5B15122
:1085800040420F006D616A6F720000006D696E6F8E
:108590007200000064D907003CD90700536F66746D
:1085A00044657669636520757064617465206973DC
:1085B00020612025732076657273696F6E20757057
:1085C000646174652E2043757272656E743A20255D
:1085D000642E204E65773A2025642E0070B505463E
:1085E00008680C464A6886682846314603F058F900
:1085F0006068286104F10C00686170780221B1EBB9
:10860000901F01D1241D2C6170BD00002DE9FF4198
:108610000026234800F0FCF82148001F074600F020
:10862000F7F8204C60680090A56800E00098694663
:10863000284004EB80000C30FFF744FF0028F5D100
:1086400001AA009901EA050304EB8303491CDB68D6
:1086500042F82030401C00910228F2D3019800F02B
:10866000030001280BD0022810D10198032101EB4F
:1086700090500099BDF80A6001EB900005E0019868
:10868000BDF80A60C0F3831008440090384600F03B
:10869000BCF808B10098606004B03046BDE8F081D5
:1086A000EC130020D40F002010B500224FF48051AD
:1086B000104600F0F1F9D8B914480022C0F5FC21A9
:1086C00000F0EAF9A0B90021114802F09BF801F08E
:1086D00001FF10481049401AC108032000EB014077
:1086E00004460EA102F01CF80F4800F097FA08B1FA
:1086F000FFF754F920460DA102F012F800F002F93C
:10870000204611A102F00CF8002010BD0060070007
:10871000818A070094D907003CD90700496E736924
:108720006465206D61696E009D7F070061667465F8
:1087300072206E72665F626F6F746C6F61646572D7
:108740005F696E69740000004166746572206D6136
:10875000696E00002DE9F047C5881E1DB6FBF5F7D0
:108760008946B6FBF5F1044605FB176C407916689F
:108770006843DDF820A0F718001F874200D9C61A09
:10878000166001E02468491E0029FBD1A5EB0C0707
:108790008846B74216D818E004EB0C00001D09EB20
:1087A0000803BAF1000F3A4602D00146184600E02D
:1087B0001946FDF7CBFD2468F61B4FF0000CB844BA
:1087C000B54201D9374600E02F46002EE4D1BDE87E
:1087D000F087000030B5024651B102F031F80021B7
:1087E000074C08E034F821301568AB4202D1116023
:1087F000002030BD491C8142F4D3052030BD00006B
:1088000000000000002100F00FB8002100F012B8B5
:10881000012100F01EB8012100F011B808B56A4628
:10882000FDF72FFD009808BD08B56A46FDF70FFD5E
:10883000009808BD08B56A46FDF709FD08BD08B5F2
:108840006A46FDF7F7FC08BD08B56A46FDF7E6FC89
:1088500008BD08B56A46FDF7EDFC009808BD08B5EF
:108860006A46FDF71BFD009808BD70B5044600255B
:108870002846FFF737F921686268086890420ED9E8
:10888000401E08600178238AE26801FB0325227AF2
:108890002168101AC0B20A79824200D20871002001
:1088A000FFF722F9284670BD70B505460C4600203A
:1088B000FFF718F9E868298A201AB0FBF1F12A6855
:1088C0001068431C13600170BDE870400020FFF782
:1088D0000BB910B530B1017A42680368891AC9B280
:1088E0001A6006E00E2010BD03681A68541C1C6054
:1088F0001170491EC9B2F7D2006800210171084603
:1089000010BD000010B54FF0E0214FF0FF304FF4E4
:108910008054C1F88001C1F8800200F037FE48B1F0
:1089200009480A49401AC008012101EB004008A18A
:1089300001F0F6FE01F0DCFD0028FBD12046BDE889
:10894000104000F021B8000094D907003CD907007E
:108950004661696C65642072756E6E696E67206E23
:1089600072665F6466755F6D62725F6972715F6681
:108970006F72776172645F616464726573735F7351
:10898000657428290000000070B50646204888B0AC
:10899000C0F5FE21002200F07FF8021E4FF0FF35E7
:1089A00009D01C481C49401AC008012101EB0040B5
:1089B0001AA101F0B9FEEFF30580D6E90046C00523
:1089C000C00D4FF0000181F3148881F3108881F30A
:1089D000118881F3138813D020221E496846FDF7C1
:1089E000B5FC203C2022694620460696FDF7AEFCE9
:1089F0006FF0060229462046FDF70CFC08B070BD5A
:108A000008B0324629462046BDE87040FDF702BC5A
:108A10000060070094D907003CD90700436F756CCC
:108A200064206E6F742070726F7465637420626F5F
:108A30006F746C6F6164657220616E64207365741D
:108A400074696E67732070616765732C20307825B8
:108A5000782E000018D0070070B5084D04460E4669
:108A6000686804F013F8002C06D032462146686886
:108A7000BDE8704003F0FCBF70BD00001000002096
:108A80000348D0F804050349097B00EB01607047F7
:108A90000040024010000020F0B50A0502D1B0F5F8
:108AA000FE2F01D90720F0BD134D000B491E124FB8
:108AB00001222E1D103700EB113407F1040C17E0D2
:108AC0004309C3F1000100EB411E02FA0EF106D08A
:108AD000012B06D0022B06D0032B08D105E029601C
:108AE00005E0316003E0396001E0CCF80010401C83
:108AF000A042E5D90020F0BD0006004070B5274D2A
:108B000027482849EA6A401A0026C0082435012A65
:108B10000DD0A52A0ED0AA2A0FD0AC2A11D003213D
:108B200001EB004020A101F0FBFD002070BDFEF72D
:108B3000E1FE04E003F010FA05E0FFF72DF802462D
:108B400003E003F075FA024601261649144B012092
:108B5000591AC90800EB014422B1204619A1AB689B
:108B600001F0E9FD284600F037FB2349002008709A
:108B7000224800F053FF30B1204621A101F0D0FD82
:108B80000324204670BD0124002EFAD0012000F0FD
:108B9000E5FA0028F5D00224F3E70000EC090020F4
:108BA00094D907003CD907004E6F206669726D7733
:108BB00061726520746F2061637469766174652EDB
:108BC0000000000041637469766174696F6E20660D
:108BD00061696C65642077697468206572726F7270
:108BE000202564202862616E6B20636F64653A20E3
:108BF000307825782900000040000020858107009A
:108C0000436F756C64206E6F742077726974652091
:108C100073657474696E67732E0000002DE9F0416E
:108C20003B4F7860002000F037FE002861D1FFF74D
:108C300065FF3849384B0122C91AC908374D02EB84
:108C4000014420B1012839D0022852D11EE0344914
:108C50004FF4701601200A68D20301D5000408E021
:108C60002E49091D0A6812F0A90F04D0086800F007
:108C700056000860002000F071FA48B1286810F032
:108C8000B10F05D100F0E2FD90BB35E04FF4A02616
:108C900000F09CF8234A20211820FEF70DFF08B1B0
:108CA000FEF77CFE286810F0B10F03D0286800F0B2
:108CB0004E00286000F05CFCD0B904E0FEF7B4FF81
:108CC000204619A121E025493046FFF7C5FE24487A
:108CD00000F002FC60B900BF00F064F8FEF7CCFEC3
:108CE00001F006FC0028F7D120BF40BF20BFF3E70A
:108CF000FFE70320BDE8F08100203870194800F03C
:108D0000C5FDFFF7FFFD204617A101F009FDF0E7C3
:108D10000800002094D907003CD907001C0500403A
:108D2000000400403001002053686F756C64206EB1
:108D30006576657220636F6D6520686572653A209F
:108D4000416674657220626F6F746C6F61646572E6
:108D50005F72657365742829000000005583070061
:108D6000DD7F07007981070053686F756C64206EA2
:108D70006576657220636F6D6520686572653A205F
:108D80004166746572206E72665F626F6F746C6F9D
:108D9000616465725F6170705F73746172742829B9
:108DA0000000000010B501F0B5FE002803D0BDE8BA
:108DB000104004F0A3B810BD034A93680A46014668
:108DC0009860184603F054BE100000202DE9F041D1
:108DD0001A4E307800282ED101F09CFE1849194A0D
:108DE0000127891AC908032202EB014500281DD07A
:108DF000154804682846224614A101F095FCA4F504
:108E00004864962C00DA962404F078F82846224626
:108E100015A101F089FC21492046FFF7CDFF4FF055
:108E2000E0214FF48030C1F8000103E028461CA186
:108E300001F076FC3770BDE8F081000041000020B1
:108E40003CD907003CD90700040501405744542091
:108E5000656E61626C6564204352563A25642074E5
:108E600069636B73000000005374617274696E670C
:108E700020612074696D65722028256420746963FF
:108E80006B732920666F722066656564696E672062
:108E90007761746368646F672E00000039CF070044
:108EA000574454206973206E6F7420656E61626C44
:108EB0006564000040688068004710B5426808306B
:108EC000527900F0F7F8002010BD2DE9F04399B079
:108ED0001C4690460D460846DDF88090FFF7EAFFF5
:108EE0006E6807467079A04200D804462246414683
:108EF00011A800F01BF97279494601A800F0DAF8D0
:108F000001AB224611A905F108000097FDF7F0FB1F
:108F100018B1002019B0BDE8F08348F24250F9E7DB
:108F200070B516460C46054600F0E8F800280ED14C
:108F3000AA791946304600F0EEF8002807D13146EC
:108F40002046FFF7BAFF002801D10149216070BD1A
:108F50007052464D2DE9F84F6C460D46D4E90A682B
:108F60008246994617461049284600F0BBF800286B
:108F7000A54613D16868414640794200304600F06A
:108F8000CAF80028A54609D157B182B04B463A46E7
:108F9000294650460096FFF798FFA546BDE8F88F92
:108FA00048F21050A546F9E77052464D2DE9F041C0
:108FB0001D46DDE906871646044600F02DF8002818
:108FC0000DD12A463146204600F03CF8002806D153
:108FD0003A4641462046BDE8F04100F002B8BDE8FF
:108FE000F08170B515460E46044603F077FF002861
:108FF00007D13EB160682968C268914205D248F243
:10900000145070BD48F2135070BD83682A46314633
:109010002046BDE87040184710B550B161B14160BD
:10902000096804468847002802D1054820600020CE
:1090300010BD48F2015010BD48F2105010BD0000A4
:109040006E52464870B515460E46044603F046FF7C
:1090500000280BD146B155B160682A4631464368B5
:109060002046BDE87040184748F2105070BD0020FF
:1090700070BD00002DE9F0410B480C4D0C4F401B1A
:10908000C60801203870002406E000BF55F83400FF
:109090008047002805D1641CB442F7D30220387001
:1090A0000020BDE8F081000000000000000000008A
:1090B0004200002070B514460D46064600F036F812
:1090C000291930192246BDE8704000F02FB830B59C
:1090D0000C46054600F035F828192146BDE8304019
:1090E00000F02FB828B10068884205D048F24050FF
:1090F000704748F2105070470020704728B139B1CE
:109100000022C1E900201046704748F21050704715
:1091100048F21350704720B1914205D048F21150E7
:10912000704748F210507047002070470244521EAA
:1091300004E000BF11F8013B02F801398242F9D284
:1091400070470144491E05E002780B7800F8013BA6
:1091500001F801298142F7D27047000010B50A4C8E
:10916000216A01290BD160B1E06950B100F010F81B
:109170000022A169FEF71AFEE169814201D00020B8
:1091800010BD012010BD0000EC090020AFF30080ED
:109190004FF44050074A4168914207D18068411E10
:1091A000C1F30B01401A00F6FF7070474FF4805076
:1091B00070470000DBE5B15100B5FFF7E9FF054955
:1091C00089690A18401E0844C0F30B00101A00F603
:1091D000FF7000BDEC09002000210160416081604A
:1091E0000148016370470000EC0900202DE9F047B9
:1091F00099462E4C2E4F90460E46054600230121DF
:109200005BB1012B12D0022B1FD00020381AA0F521
:109210004050A8421CD201221BE0FFF7CDFFB8F15D
:10922000000F10D0216A0129F0D00CE0FFF7B0FF49
:10923000B9F1000F05D14FF440511E4A49689142DF
:1092400001D00121E2E70021E0E74FF48050DDE7A3
:10925000002242EA0600884305D0022B03D25B1CA1
:10926000DBB2022BCBD962B113481449401AC008B3
:10927000022101EB004012A101F052FA0420BDE8E6
:10928000F087022B02D300F0D9FB00E01BB10748A6
:109290001830FFF7A1FF0020206101206061034822
:1092A0002430FFF799FF00206562E8E7EC09002011
:1092B00000600700DBE5B15194D907003CD90700F5
:1092C00041626F7274696E672E2043616E6E6F74B7
:1092D00020666974206E6577206669726D776172A9
:1092E00065206F6E206465766963650070B504461D
:1092F0000078092811D2DFE800F0100510112510C0
:10930000381013000D461D490320C968884760695D
:1093100000F07CFCFEF71BFF687070BD084628E07B
:109320000D46A18A206900F02DFCFEF710FF687041
:109330002846FEF733FDE1680029EED02069BDE83C
:10934000704008470C460D490831081F00F07CFCAE
:10935000FEF7FDFE60700128DFD1002000F05EFB0B
:109360000028DAD00A20607070BD08464FF4807182
:10937000C160BDE87040FEF711BD00005000002044
:1093800070B5134A034605780124906C092D1DD24F
:10939000DFE805F01C051C0D111C161C0900184601
:1093A00001F058FD12E0184601F0BAFE0EE08860A8
:1093B000106D48600AE0184601F010FE044605E012
:1093C0008860106D48604FF48050C860204670BDC2
:1093D000EC09002013460A4610B501460B4800F080
:1093E00012FF04000CD00A480A492246401AC0085D
:1093F000022101EB004008A101F096F9204610BDC2
:1094000011480168491C0160F8E700001C010020B8
:1094100044D907003CD907006E72665F6673746FAB
:10942000726167655F65726173652829206661698D
:109430006C65642077697468206572726F72203081
:109440007825782E00000000480000200249002204
:10945000024800F0EEBE000018D207001C010020F8
:1094600038B5009313460A4601460B4800F00EFF3C
:1094700004000CD009480A492246401AC0080221BB
:1094800001EB004007A101F04FF9204638BD11481B
:109490000168491C0160F8E71C01002044D907005D
:1094A0003CD907006E72665F6673746F72616765A0
:1094B0005F77726974652829206661696C6564202C
:1094C00077697468206572726F7220307825782E03
:1094D000000000004800002070B5114908601148E4
:1094E0001149401AC508032000EB05400FA101F007
:1094F00017F90020FEF792FD114800F001FB04006F
:1095000008D0012000EB054022460EA101F00CF925
:10951000204670BDBDE87040094800F08DB80000DD
:109520004400002094D907003CD90700456E7465BB
:1095300072696E6720444655206D6F64652E000089
:109540001D800700436F756C64206E6F7420696E18
:109550006974616C697A6520444655207472616E45
:1095600073706F72743A20307825303878000000BC
:10957000002070471FB58908002201AB009283E8E4
:109580000700684618DF04B010BD00001FB5094A87
:109590004FF480541069D2E90612CDE90004CDE9F8
:1095A0000212684618DF072802D160040460002018
:1095B00004B010BD84D1070070B50E460178134C7D
:1095C000062901D0012901D1017C217021780125D2
:1095D000012911D0022913D00D480E49401AC008A4
:1095E000012101EB00400CA101F09AF8002020704D
:1095F00005207070284670BD3146FFF777FEF9E709
:109600003146FFF7BDFE0546F4E70000500000209C
:109610004CD907003CD90700496E76616C6964201B
:109620006F626A656374207479706520696E207258
:109630006571756573742E0010B5040011D000209B
:10964000FFF704FF00280BD100F074FA00F0A4FB30
:1096500048B10949081F00F0F7FA012803D0032098
:1096600010BD072010BD04480838C4600020FEF774
:109670007DFD002010BD00005800002010B581685D
:1096800089B10A4A1821FEF7A9F9040009D008484F
:109690000849401AC008022101EB004006A101F070
:1096A0003FF8204610BD072010BD0000D5960700EA
:1096B0004CD907003CD907005363686564756C6535
:1096C000722072616E206F7574206F6620737061F6
:1096D00063652100AFF3008030B587B004461822DF
:1096E0002C496846FCF732FE20788DF8000022787D
:1096F000294D0D2A35D2DFE802F0072D412D2D34FA
:109700002D252D21091C2900012018E04FF0805043
:10971000D0F800110191D0F804110291D0F80C1189
:1097200089020491D0F81011890203910069059013
:1097300024E06946204601F06FFD1FE0207C8DF893
:1097400004001BE0208AADF8040017E0E968072058
:10975000884713E069462046FFF72EFF70B907B02F
:1097600030BD0E480E49401AC008032101EB0040ED
:109770000CA100F0D9FF02208DF80100D4E90112FC
:10978000684690479DF801000128E8D0E968052067
:109790008847E4E7BCD10700500000204CD90700FF
:1097A0003CD90700496E76616C6964206F70636F05
:1097B00064652072656365697665643A2030782552
:1097C000782E0000F0B5521E87B00E4605464C1CA0
:1097D00097B218221C496846FCF7B8FD30788DF81E
:1097E000000001950C2826D2DFE800F0250D0625A3
:1097F00025250A1E182225222088288068801AE044
:109800002078049017E028886880207804902179D7
:10981000D4F8010061F31F6005900CE00494ADF8EA
:109820001470A868039009E0A889ADF8100002E060
:1098300020788DF81000A968204688476846FFF711
:109840001DFF07B0F0BD000064D3070006480749BC
:1098500010B5401AC008022101EB004004A100F03D
:109860005FFF002010BD00005CD907003CD9070055
:109870004E6F206164646974696F6E616C2064610D
:10988000746120657261736564000000014902F033
:1098900069BC000000F007002DE9F84FFFF7D6FD86
:1098A0000200374837494FF0010BA1EB00004FEAA7
:1098B000D00A0BEB0A4602D0304633A159E03D48AE
:1098C000FEF792FADFF8F0800546D8F80000FEF7C0
:1098D0008BFA2B4A2B4B0746A3EB02024FF00201F7
:1098E0004FEAD2023D4201EB024418D031485821E0
:1098F00081460246042002F09BFC4A464FF4AE79B2
:10990000009049465C2002F093FC01460098084212
:1099100005D12046294900F003FF4A4610E035B141
:109920004FF4AE7223492648FCF710FD26E06FB1D4
:10993000032101EB0A40234900F0F2FE4FF4AE721E
:109940001F48D8F80010FCF701FD0BE020461E4927
:1099500000F0E6FE4FF4AE711948FCF710FD18490F
:10996000C1F804B0002000F045F8020006D03046EF
:1099700016A100F0D9FE0320BDE8F88F0020FBE718
:109980003CD907005CD907006E72665F6466755F3C
:10999000666C6173685F696E697428292066616905
:1099A0006C65642077697468206572726F723A2002
:1099B0002578000000F0070080000020A4D50700F3
:1099C000EC09002048D50700E4D4070073657474DF
:1099D000696E67735F7772697465282920666169AB
:1099E0006C65642077697468206572726F723A20C2
:1099F0002578000010B50446064802F013FC05491E
:109A00002246A1F52E730860BDE81040024802F01E
:109A10001FBC0000EC09002000F0070070B50546EF
:109A20000020FFF7E7FF040003D10349284602F0B6
:109A300099FB204670BD0000EC09002010B54FF4E2
:109A400040541249606888421ED100230422104904
:109A5000201DFFF705FD58B10E480F49BDE8104025
:109A6000401AC008012101EB00400CA100F058BED3
:109A70001348016A012901D1002101628169A268AC
:109A80001144A1F58051816110BD0000DBE5B151A9
:109A9000F4D1070094D907003CD90700436F756CD7
:109AA00064206E6F7420696E76616C6964617465A0
:109AB00020536F66744465766963652E000000006C
:109AC000EC0900204FF48050704700002DE9F04170
:109AD00007460948094D401BC6080020044607E018
:109AE00005EBC400416838468847002802D1641C51
:109AF000B442F5D3BDE8F0812CD9070024D9070082
:109B00002DE9F04107460948094D401BC6080020D1
:109B1000044606E055F8341038468847002802D13C
:109B2000641CB442F6D3BDE8F08100002CD90700D4
:109B300024D9070030B50E4C0E4D91B0A06B30B15A
:109B400002F0D8FE18B1606A08B1012000E00020E0
:109B50002870FFF78FFA202207496846FFF7AAFA14
:109B600040236A4605490648FFF7DAF911B030BDCF
:109B7000EC09002084000020B8CF0700500D002021
:109B800060D007002DE9F041144C07460D46E06B0C
:109B9000A26B0126411991420BD911481149401A73
:109BA000C008012101EB00400FA100F0B9FD032620
:109BB00010E00A492A465C3108443946FCF7C6FBE6
:109BC000E06B064A2844E063403229463846FEF7F7
:109BD000EDF820643046BDE8F0810000EC0900207B
:109BE00064D907003CD90700496E697420636F6D22
:109BF0006D616E64206C6172676572207468616E5D
:109C00002065787065637465642E000070B505008A
:109C10004FF0010404D0B5F5807F03D904240CE093
:109C200003240AE006490020064E08702021306314
:109C300006F13800FCF7A3FBB563204670BD0000B9
:109C400084000020EC0900202DE9F0478046374CC5
:109C50003748384B0F460125C01AD4E90E12C00808
:109C6000AA4605EB00468A4205D0304632A100F0F4
:109C700057FD082557E0DFF8DC9099F8000030B177
:109C8000FFF79AFAC8F80000606A38604BE002F00B
:109C900031FE002842D0304890F89C1009B9017874
:109CA000B1B3041D0021C8F80010396090F89C3051
:109CB0000A462BB1284C90F83811A03404F19902CF
:109CC00094F8590002F096FC054601282BD1201D7E
:109CD00000F0C2F80546012825D189F800A03946D0
:109CE000201D03F089F8054601281CD1201D0125FF
:109CF0003C6803F0EBF8034600210A462046FFF7D4
:109D000075FA30B1304615A100F00AFD04250AE0CD
:109D100004E0FFF751FAC8F8000004E0304616A14D
:109D200000F0FEFC05252846BDE8F087EC09002080
:109D300064D907003CD907004578656375746520D0
:109D400077697468206661756C7479206F666673D4
:109D50006574000084000020480B002043616E27DA
:109D6000742066696E6420726F6F6D20666F72205A
:109D700075706461746500004661696C6564207487
:109D80006F206465636F646520696E69742070611B
:109D9000636B6574000000000148007870470000A4
:109DA000840000202DE9F04706462948284D8A46C0
:109DB00090F89C00012708B1A43500E008350A4658
:109DC00031462846FEF7E4F9224C4FF0000968B10D
:109DD00095F8550060B100F00101C0F340028846DB
:109DE0003346284601F0D6FE90B10DE0172719E062
:109DF0000120C4F82090E062284603F067F808B913
:109E0000FFF71CFE6868A060A06CC4E909A00DE023
:109E10000527B8F1000F05D0FFF754FEB04201D17D
:109E2000FFF70CFE0B482430FFF7D6F90948202134
:109E30003830FCF7A4FA0748FF22F4215C30FCF725
:109E400097FAC4F830903846A664BDE8F087000061
:109E5000480B0020EC0900202DE9F041044690F861
:109E600054102F482F4A0126801AC00806EB0045DF
:109E700041B194F8550040B1012806D0022804D021
:109E8000032802D0284628A144E094F86D00032856
:109E900005D028462AA100F043FC14263DE0207A94
:109EA00078B1204A1E4B02209A1AD208E16800EBD2
:109EB0000247342908D0384626A100F031FC11268B
:109EC0002BE0284628A125E0204602F0FDF890B1BD
:109ED0002078002894F8550018D0274988B1012827
:109EE0000FD06068C968884217D8384623A100F0AF
:109EF00017FC102611E0384625A100F011FC1226AF
:109F00000BE060688968884207D2EEE7012804D038
:109F1000284623A100F004FC0F263046BDE8F0815E
:109F20006CD907003CD90700496E76616C696420E2
:109F30006669726D7761726520747970652E0000B4
:109F4000496E76616C696420686173682074797009
:109F5000652E00004661756C74792048572076653F
:109F60007273696F6E2E00004E6F20485720766521
:109F70007273696F6E2E0000EC0900204657207640
:109F8000657273696F6E20746F6F206C6F772E002F
:109F9000534420726571206E6F74206D65742E00BD
:109FA00046572076657273696F6E206D69737369A9
:109FB0006E672E0070B5064604780C4888B01546CA
:109FC00040F82420094A0869121D42F82400202282
:109FD0006846FCF7BBF904940DB1054A00E0002285
:109FE0006946301D00F0D0FD08B070BD940000201F
:109FF000FDCB0700001D00F0FDBD0FB408B50399AF
:10A00000002904D004AA00926A4600F00FF801B0BB
:10A010005DF814FB10B582680446002A05D0D4E927
:10A020000403216898470020A06010BD2DE9FC477B
:10A0300091460C00804676D014F8011B39B12529D1
:10A040000ED04046FDF790FE20780028F4D198F815
:10A050000C00002867D04046BDE8FC47FFF7DABF98
:10A060000020012221782B291BD02D2902D0302954
:10A0700008D102E040F0010001E040F00200641C61
:10A08000002AEFD100252A290ED02178A1F1300233
:10A090000A2A11D205EB850201EB4205641C303D12
:10A0A000F1E740F00400EAE7D9F800100B1DC9F809
:10A0B00000300968641C0D44217800232E290BD13F
:10A0C00014F8011FA1F130020A2A05D203EB830222
:10A0D00001EB4203303BF3E76C290DD068290BD02C
:10A0E000692921D00BDC252918D0582931D06329C2
:10A0F0000ED0642915D117E014F8011FECE7702980
:10A1000069D0732932D075291BD0782909D120E074
:10A11000D9F80000011DC9F8001001784046FDF78C
:10A1200023FE641C90E76CE0D9F800100A1DC9F802
:10A1300000200968CDE900500A224046FEF72EF9BA
:10A14000EFE7D9F800100A1DC9F8002009680A22B3
:10A1500006E0D9F800100A1DC9F80020096810228D
:10A16000CDE90050404602F0EDFDDAE7D9F80010E5
:10A1700000270A1DC9F800200E68C00705D112E0AB
:10A180004046761C7F1CFDF7EFFD31780029F7D1A2
:10A1900004E0202140466D1EFDF7E6FDBD42C0D91A
:10A1A000002DF6D1BDE74EB13046FCF7F3F8074677
:10A1B00004E0202140466D1EFDF7D6FDBD4206D9C4
:10A1C000002DF6D103E04046761CFDF7CDFD317839
:10A1D0000029F8D1A5E7D9F80000011DC9F8001041
:10A1E000056830214046FDF7BFFD78214046FDF768
:10A1F000BBFD08200021CDE90001034610222946BD
:10A20000B0E7BDE8FC872DE9F041044640681546FB
:10A210001E4602680F466A432046FDF75FFB206832
:10A2200033462A46D0F810C039462046BDE8F041F2
:10A23000604701600B681146184700002DE9F041A6
:10A2400028B1016819B1C969BDE8F04108470D4D51
:10A250000D480024461B14270DE000BF04EB8400CA
:10A2600005EB8000016829B1C969884710B1012058
:10A27000BDE8F081641CB6FBF7F0A042EED80020E8
:10A28000F6E700001C010020300100202DE9F84312
:10A2900004461D4616460F460846DDF82080FDF7A9
:10A2A00017FB3046FDF714FB2A4639462046FDF7DA
:10A2B00015FBCDF8008020682B463246D0F80CC044
:10A2C00039462046E047BDE8F88370B541EA4201CF
:10A2D000DDE904564FF0A04441EA830141EA05213B
:10A2E00004EB800041EA0641C0F8001770BD70B56C
:10A2F00041EA4201DDE904564FF0A04441EA8301FE
:10A3000041EA052104EB800041EA0641C0F800174C
:10A3100070BD1CB5002100910B4601220191FFF791
:10A32000E6FF1CBD1CB500220B46009211460192AF
:10A33000FFF7DDFF1CBD1CB5002100910B4601227B
:10A3400001911146FFF7D3FF1CBD01224FF0A0433E
:10A35000824011B1C3F808257047C3F80C25704737
:10A3600030B5154A01460020D2F8104423460AE0D1
:10A37000DB681D79854205D1401C0A28F6DB4FF0C9
:10A38000FF3030BD1B68002BF2D1431CF9D0CB68E5
:10A390001871D2F8103443B1DB68CC681B682360B5
:10A3A000D2F81024D268116030BDC2F81014C96808
:10A3B00000220A6030BD0000D40F00207047FDF776
:10A3C00017B8704708B5034A00924023024A00F0CC
:10A3D00005F808BD15C107003C0E0020F0B595B08A
:10A3E0001C4615460F4608461A9E00F0FBFA182137
:10A3F00009A8FBF7C4FF0E96CDE9095400230822F3
:10A4000003A9384600F003FB05980690BDF810003C
:10A41000ADF81C00BDF81200ADF81E0000208DF84C
:10A4200021000398082600F00300012802D002282A
:10A4300018D032E003983346850AC0F3C2008DF885
:10A44000200003980FA9C0F38314A200384600F03F
:10A45000DEFA09A8009006AB22460FA9284600F0B4
:10A460001DFA1AE00398840DC0F3C2008DF8200095
:10A47000082C01D2254600E0082533462A460FA9BC
:10A48000384600F0C4FA2E44641B09AB06AA2946DC
:10A490000FA800F061F9002CEAD1384600F0A8FAC4
:10A4A00015B0F0BD0A4A012902EBC00007D002290D
:10A4B00007D0032907D0042907D0002070470220C5
:10A4C000704704207047007970474079704700005A
:10A4D0003CD9070010B5FFF772FF04210348FFF7CE
:10A4E0003FFF02490120C968487110BD2CD90700FF
:10A4F0002DE9F0478CB0FDF747FC18B100200CB0F7
:10A50000BDE8F0877D4C0020C4F81804BFF34F8FDE
:10A5100060680290A5684FF00008284004EB8000B6
:10A520000CE000BFD4F8180470B921680298814289
:10A5300001D86160E2E7284004EB80000C3002A9FA
:10A54000FDF7C0FF0028EDD1002003AA029901EA1F
:10A55000050304EB8303491CDB6842F82030401CF0
:10A5600002910228F2D3039800F00300022802D0DF
:10A5700001284DD0A7E003985022810D8946B2EB07
:10A58000905F00D850210E4666F39F50039008312B
:10A590005B4800F0DEF9070078D000F023FA43466C
:10A5A000082203A9384600F03AFA029908F1080A8D
:10A5B0002940681A8000001D864222D94F4D0C3573
:10A5C00030B1C2B204EB8101301A90460C3104E084
:10A5D0002946F2B2002590462846C6B25346384670
:10A5E00000F01DFA0AEB080325B132462946384629
:10A5F00000F015FA029909F1030001EB90000290B6
:10A600003BE004EB81015346324638460C31EFE71C
:10A610000398C0F38310062800D30620039960F343
:10A620008911C1F38310801C03918100344800F02C
:10A6300090F9070047D000F0D5F94346082203A956
:10A64000384600F0ECF908F1080800260FE00298FF
:10A65000434600EA0501401C04EB810102900422FC
:10A6600038460C3100F0DBF908F10408761C039839
:10A67000C0F38310B042EAD847B1D4F81054D4F8EC
:10A68000180478B1384600F0B3F931E01BE0E8680F
:10A690004079012804D12A68284639461268904733
:10A6A000E8680568002DF2D1384600F0A1F90020D5
:10A6B000FDF718FAD4F8180408B902986060002071
:10A6C000FDF712FA14E0D4F8104405E021682046A2
:10A6D00089688847E0680468002CF7D109480A496E
:10A6E000401AC008022101EB004008A100F018F850
:10A6F000FDF74AFB80F0010001E70000D40F0020C5
:10A70000B8D9070094D907003CD907004261636BB0
:10A71000656E647320666C75736865640000000084
:10A7200000231A4602F0A0B808B5012300926A4639
:10A7300002F09AF808BD1CB5CDE9002302236A4651
:10A7400002F092F81CBD3EB5069C8DE81C00032368
:10A750006A4602F089F83EBD2DE9F0470E46804674
:10A760001C46924608293ED894F80C90002020738D
:10A770001946104601F064FA0025B54206D218F8D1
:10A7800005201AA12046FFF738FC03E019A1204656
:10A79000FFF733FC6D1C082DEFD317A12046FFF700
:10A7A0002CFC0025B54210D218F80570FBF7CAFD45
:10A7B0000068C05D10F03E0F01D03A4600E02E2246
:10A7C0000EA12046FFF719FC03E00DA12046FFF77C
:10A7D00014FC6D1C082DE5D301222146504601F0E2
:10A7E000BBF984F80C90BDE8F087000020253032DA
:10A7F00078000000202020007C000000256300007D
:10A80000200000000B4810B5FF218160002101608D
:10A810004160C0F81814C0F8141480F820140648D9
:10A8200000F0E4F8002803D1044800F03BF90020D0
:10A8300010BD0000D40F0020B8D9070058D307007E
:10A8400002480349401AC00870470000A4D9070015
:10A850003CD9070013B56846FDF7BCFF08B10020DE
:10A860001CBD0248009950F831001CBD3CD90700BE
:10A8700070B509480125D0F8104480F8205407E04D
:10A88000E06845712168204649688847E0680468A7
:10A89000002CF5D170BD0000D40F00202DE9FF473A
:10A8A00081460C9D00200C462F7B28739846164647
:10A8B0002946184601F0C4F9072E42D2DFE806F017
:10A8C00004090F161F2A360049462846FFF795FB54
:10A8D00037E0494628462268FFF78FFB31E0D4E98C
:10A8E000002349462846FFF788FB2AE0A06800902D
:10A8F000D4E9002349462846FFF77FFB21E0D4E94D
:10A900000201CDE90001D4E9002349462846FFF7BA
:10A9100074FB16E004F1080007C88DE80700D4E9CD
:10A92000002349462846FFF768FB0AE004F10800C7
:10A930000FC88DE80F00D4E9002349462846FFF7E9
:10A940005CFB00222946404601F006F92F73BDE862
:10A95000FF872DE9F041058A80462D1F4819C01C4C
:10A96000B0FBF5F0C6B24046FDF77FFF041E19D0DC
:10A970000020207101206071E58000272546761EA9
:10A98000C4F800800BE04046FDF76FFF60B16179CD
:10A99000491C6171286005467F1CC0F80080B742E1
:10A9A000F1D32046BDE8F081204600F002F80020F7
:10A9B000F8E72DE9F041457901466B1E002201E0E0
:10A9C0000968521C9A42FBD30F680146002605E035
:10A9D00038460C68FDF768FF2146761CAE42F7D377
:10A9E000BDE8F0810121001DFDF718BFFDF771BF23
:10A9F00010B504460121001DFDF731FF10F0FF0FD7
:10AA000004D12046BDE81040FFF7D3BF10BD1CB5F0
:10AA100001920122009201AAFDF79CFE1CBD1CB50B
:10AA200001920022009201AAFDF794FE1CBD0000D5
:10AA3000094902220A60BFF36F8FBFF34F8F0A1DCF
:10AA4000106006480268002AFCD000200860BFF3AE
:10AA50006F8FBFF34F8F704704E5014000E4014062
:10AA600070B50E4C01232360BFF36F8FBFF34F8F80
:10AA700000230B4D08E000BF51F8236040F823602D
:10AA80002E68002EFCD05B1C9342F5D30020206082
:10AA9000BFF36F8FBFF34F8F70BD000004E501401F
:10AAA00000E401408268002191608268116182683F
:10AAB00051618268D160826851608068016070472E
:10AAC00008B5002242504058009008BD10B5144609
:10AAD00012680830202A02D248F2145010BD002219
:10AAE00001F016FC0028F9D120202060002010BDC4
:10AAF000083001F095BC083001F052BD40580028E4
:10AB000000D00120704708B5002242504058009004
:10AB100008BD000002480068002800D001207047EE
:10AB2000000401400121B1EB507F01D101207047A9
:10AB30000020704770B50D4601F0CEF804000FD02C
:10AB40000020FCF7CFFF207920B10020FCF7CCFFDC
:10AB5000112070BD0120256020710020FCF7C4FF8A
:10AB6000002070BD10B501F0B7F8002802D0002118
:10AB70000160017110BD00000149024802F056B8A1
:10AB8000180E0020002000402DE9F0410546164631
:10AB900000790F46154A00EBC00102EB810494F8DE
:10ABA000201011B10820BDE8F081114951F82010A2
:10ABB0002868FFF7BFFF08B11120F4E7394628469F
:10ABC000FCF7A6FF6660386920601EB1397F284611
:10ABD000FDF738FC28680821C0F800150020A061A6
:10ABE000E0610121606184F82010DCE7180E00208C
:10ABF000F8D107002DE9F05F044600790E4600EB1E
:10AC0000C001DFF8F0A017460AEB81053046FFF7D8
:10AC100089FFB0B168684FF000084FF4047910B1B3
:10AC20002168C1F80893A8694FF0000B80B1E8696A
:10AC300048B1686810B12068C0F804931120BDE8DD
:10AC4000F09F1020FBE7EF614FF001082E6102E05A
:10AC5000EE60C5E9067B00254FF488712068FFF798
:10AC600052FF4FF4A2712068FFF74DFF2068C0F833
:10AC70003465C0F838752068B8F1000F12D0D0F8EC
:10AC8000001241F02001C0F800122079D04600EBFC
:10AC9000C0010AEB8100406838B12068C0F8049315
:10ACA0002846CCE701210160EFE74FF4887A4FF4A2
:10ACB000A27951462068FFF721FF074649462068E0
:10ACC000FFF71CFF06464FF492712068FFF716FF4E
:10ACD000014647EA06000843EBD0227902EBC203A3
:10ACE00008EB8302C2F818B001B10325002ED7D0BB
:10ACF0000F25D5E7180E00202DE9F04704460E4633
:10AD00000079204900EBC00001EB80051746304672
:10AD1000FFF708FF30B1204600F036F820B11120CF
:10AD2000BDE8F0871020FBE76F61AE604FF49076CE
:10AD3000002731462068FFF7E6FE4FF4AC78414625
:10AD40002068FFF7E0FE2068AA686969C0F844251A
:10AD5000C0F84815206801218160686878B9B1465B
:10AD600049462068FFF7CAFE064641462068FFF7BD
:10AD7000C5FE0643F4D000B10F27002068613846B5
:10AD8000CEE70000180E00200079054900EBC00056
:10AD900001EB80004069002800D0012070470000CE
:10ADA000180E00202DE9F04704460079274900EBF2
:10ADB000C00001EB800720684FF00009C0F8009543
:10ADC000786880B120682249C0F808132068012102
:10ADD00040F3073000F01F0291404009800000F16D
:10ADE000E020C0F880112068D0F80C25D0F8148538
:10ADF000D0F80865D0F810554FF0FF31C0F80C15A9
:10AE0000C0F814152068C0F80815C0F81015501CBB
:10AE100002D01046FFF77DFAB8F1FF3F02D040465E
:10AE2000FFF777FA681C02D02846FFF772FA701C09
:10AE300002D03046FFF76DFA2068FFF793FE87F8DF
:10AE40002090C7F80490BDE8F0870000180E00209D
:10AE5000100302002DE9F8430D460646FEF79CFF5D
:10AE600001002C482C4A4FF00808A0EB02004FEAE2
:10AE7000D0004FF0010202EB004414D072690327A6
:10AE8000B2B126482649130515D0436DD1F808C044
:10AE9000134463450FD0204622A100BFFFF740FCBA
:10AEA0006F70BDE8F883204627A1FFF739FC16E054
:10AEB000204633A1F2E7B2F5805F05D9204637A1DD
:10AEC000FFF72EFC042023E0436D8F6803EB020C98
:10AED000BC4507D920463A490097FFF734FC85F86E
:10AEE0000180DEE74264C26C0365036382647069BB
:10AEF000002200F6FF70060B486831461844FEF742
:10AF000069FA0028CDD020462EA1FFF709FC0520C4
:10AF10006870C6E74CD907003CD90700EC0900204F
:10AF2000500000204F626A6563742073697A65205F
:10AF30006D757374206265207061676520616C694E
:10AF4000676E65640000000043616E6E6F7420637D
:10AF500072656174652064617461206F626A656303
:10AF60007420776974686F75742076616C696420E9
:10AF7000696E697420636F6D6D616E64000000001E
:10AF80004F626A6563742073697A652063616E6ECF
:10AF90006F7420626520302E00000000496E7661DB
:10AFA0006C69642073697A6520666F72206F626ACB
:10AFB0006563742028746F6F206C61726765290067
:10AFC00070D407004572617365206F70657261749B
:10AFD000696F6E206661696C6564000070B5124C23
:10AFE0000D46D4E914128B1A626C9A420DD00F48A8
:10AFF0000F49401AC008012101EB00400DA1FFF7E5
:10B000009AFB08206870012070BD00226264A26C67
:10B01000E2646165002100F021F80F490420C9684D
:10B020008847002070BD0000EC0900204CD90700C3
:10B030003CD90700496E76616C6964206461746173
:10B040002E2065787065637465643A2025642C2031
:10B05000676F743A202564005000002030B5044624
:10B0600087B00020FFF7EAF8012588B11A4A1821B5
:10B070002046FCF7B3FC020008D018481849401AD3
:10B08000C00805EB004017A1FFF74EFB07B030BD2D
:10B0900018221F496846FBF759F91E48026D1E48E1
:10B0A00081688A4210D14068FEF77CFE8DF801006D
:10B0B000FDF74DF88DF80100D4E90112684690477C
:10B0C0001648FEF7ABFCE1E78DF80150D4E9011218
:10B0D00068469047DAE700005DB007004CD90700EA
:10B0E0003CD907004661696C656420746F20736306
:10B0F000686564756C65206F626A65637420657845
:10B1000065637574653A20307825782E000000005C
:10B11000A4D10700EC09002050000020C9B10700AD
:10B1200070B50E460446FEF737FEA8B11C4DD5E9B2
:10B130001401401AA28A696C104488420ED9194839
:10B140001949401AC008012101EB004017A1FFF77F
:10B15000E7FA0320707070BD0820FBE71949286BDF
:10B1600049680844D4E90331FEF77AF920B1D4E9FB
:10B170000310BDE870400847A18A286B084A0844BC
:10B180002863A18A286D483208442865A18A20696D
:10B19000FCF70CFEA864B060286D706070BD000004
:10B1A000EC0900204CD907003CD90700577269749C
:10B1B00065207265717565737420746F6F206C6F94
:10B1C0006E6700005000002001490620C96808474A
:10B1D00050000020FFF74CFBFFF78AF90028FBD155
:10B1E0000A4E64254FF47A47741C3846A0476D1EFA
:10B1F000FAD1BFF34F8F06480168064A01F4E061B7
:10B2000011430160BFF34F8F00BFFDE700D007007F
:10B210000CED00E00400FA052DE9F0414FF4405236
:10B220000C46204E536801214FF0020CB34200D16E
:10B2300002211D4D2B6A012B00D1491C012767708B
:10B24000037C1BB10020012B09D01BE084F804C053
:10B25000E868A0601548E060C0F5FC200FE0D2F877
:10B2600004C0B4450ED120711078142801D950695A
:10B2700000E00020A0604FF48050E0609068206102
:10B28000BDE8F0818B4207D22771A868A060FDF766
:10B290007DFFE060A869F2E7FF212171A060E06016
:10B2A000EDE70000DBE5B151EC090020006007008C
:10B2B00070B5054609781A4801F074FA1949044630
:10B2C000012201F10800FEF795FE002C1FD116485F
:10B2D000FEF7FCFB124C2846D4E90112FEF772FA85
:10B2E0001248FDF7C2FA050011481249A0EB01000F
:10B2F0004FEAD0010CD0032000EB01402A460EA1FA
:10B30000FFF712FA0020ED1CC4E90150207070BD57
:10B31000BDE87040012000EB01400CA1FFF700BA2E
:10B32000F00600206000002024D90700A4D90700FF
:10B3300054D907003CD90700416C6C6F6361746598
:10B340006420627566666572202578004661696CC6
:10B35000656420746F20616C6C6F6361746520623A
:10B360007566666572000000011F0148FDF79CBA12
:10B37000A4D90700F8B50D4614460646694600F004
:10B3800057FA00280ED0009BFF2B0AD8581C834286
:10B3900007D869780222B2EB911F02D02979814245
:10B3A00001D20020F8BD2370611C3046009A00F0E5
:10B3B00069FBF8BD114600F0D6B8114600F0E3B8BD
:10B3C000F8B50C4615460646694600F031FA0028E5
:10B3D0000CD0009A501C904207D361780223B3EB43
:10B3E000911F02D02179814201D20020F8BD294667
:10B3F000304600F047FB009A0021A954F8BD2DE922
:10B40000FF410C468E6817460546694600F00CFB66
:10B4100000280ED0A06800280BD060783A46C0F310
:10B42000011002283146684606D000F0DBF8019989
:10B43000696004B0BDE8F08100F086F8F7E77CB5FC
:10B440000D461446694600F090F9002820D028796E
:10B45000082806D0042809D002280AD001280CD0D8
:10B4600015E0DDE90001C4E900010AE00098206070
:10B4700006E0009800B2208002E0009840B2207000
:10B48000C117DDE9002350405940084301D0002096
:10B490007CBD01207CBD7CB50D461446694600F09C
:10B4A000A2F9002820D02879082807D000210428F4
:10B4B00009D002280AD001280CD014E0DDE90001EF
:10B4C000C4E9000109E00098206006E0009880B21D
:10B4D000208002E00098C0B22070DDE900235040D7
:10B4E0005940084301D000207CBD01207CBD7CB5C3
:10B4F0000D461446694600F076F9002821D02979D6
:10B50000082908D00098C21704290BD002290DD0B1
:10B5100001290ED014E0DDE90002C4E90002014671
:10B52000134609E0C3170146206005E001B22180FF
:10B5300001E041B22170CB1741405340194301D083
:10B5400000207CBD01207CBD70B50D46064614462A
:10B550001146284600F083FA224629463046BDE8C7
:10B56000704000F03FB838B50C460422694600F040
:10B5700089FA002806D09DF80310009861F31F6037
:10B580002060012038BD1CB50C460822694600F039
:10B5900079FA002824D09DF801109DF800209DF82C
:10B5A0000230080E42EA012242EA034240EA134016
:10B5B0009DF803309DF8041040EA132008439DF8DD
:10B5C000051042EA036240EA01209DF8061040EAB5
:10B5D00001409DF8071040EA0160C4E90020012005
:10B5E0001CBD00002DE9F04F04469DB000200090E6
:10B5F000064601904FF0FF3A0AA800F051F94FF0CB
:10B60000010BE94682E012AB05AA06A9204600F02C
:10B61000C9F850B10AA8059900F053F960B10B9828
:10B62000407810F0300F53D060E09DF848000028BB
:10B6300070D11DB0BDE8F08F0598B04242D30B9D8C
:10B640000AAE0B98407800F00F00082812D0304660
:10B6500000F04EF90B98A842F3D156460599B14235
:10B6600030D3D4F8088009919DF8181008910E99EC
:10B670000D6820E00B980678F0E729680F682FB175
:10B68000DDE9083229462046B84711E0119489685F
:10B69000DDE90872097891420CD1294617A8FCF718
:10B6A0009DFF85F80CB017AA39461198FCF7EAFB04
:10B6B0000028BED0AD6815B1A1684145DDD0A168B4
:10B6C000414523D19DF81810204600F017FA1BE0E1
:10B6D0000C9840280AD200F01F010BFA01F00C99D7
:10B6E0004A0959F82230034349F82230E5682DB160
:10B6F0000AAB9DF8182020460599A8470AAA9DF88C
:10B7000018102046FCF7BEFB002892D0A068002845
:10B710007FF479AFDDE90B0445780AA800F0E8F87A
:10B720000028F7D115F0300F03D10B98007800B145
:10B73000641CC4B10020494605E000BF51F8202038
:10B74000521C0ED1401CB0EB541FF7D3600959F8BE
:10B75000201004F01F00C0F120022AFA02F08142FA
:10B7600001D0002065E7012063E71CB50C4669465F
:10B7700000F039F8002814D0DDE90002C10709D033
:10B7800051084FEA30006FEA00026FEA0100C4E995
:10B79000002004E051084FEA3000C4E900014FF0F6
:10B7A00001001CBDF8B507460020187008700E4651
:10B7B00010601C4615466946384600F039F801000D
:10B7C0004FF0010009D0009959B1C80828600098CD
:10B7D00000F0070030700120F8BDB96809B1002001
:10B7E000F8BD2070FBE72DE9F84300268846814626
:10B7F0003446354604E0402E02D30020BDE8F883ED
:10B800006946484600F06AF90028F7D09DF80070B4
:10B81000324607F07F00C10FFAF784FD2943044345
:10B82000F61D0D463806E6D4C8E900410120E5E7DB
:10B83000F8B50E460746694600F050F900280AD0D0
:10B840009DF80040200616D5072504F07F0403E08C
:10B85000202D01D30020F8BD6946384600F03EF99E
:10B860000028F8D09DF8001001F07F00A8400443A4
:10B87000ED1D0806ECD401203460F8BD5968064A75
:10B880008968914206D1D0E90110044A401E491C42
:10B89000C2E901107047000094D007008400002026
:10B8A000C26000230160C0E901138B781A44026171
:10B8B00091F903301A4442610878002800D0012031
:10B8C000704770B545680E46044660680178B1421D
:10B8D00006D1407800F00F00082801D0012070BD8B
:10B8E000204600F005F86068A842EED1002070BD47
:10B8F00030B541680A785AB101F10C0343600A7B04
:10B9000042B14C780A79C4F30115032D07D00BE03E
:10B91000002030BDC2680168FFF7C2FFF8E75D781C
:10B92000C5F30115032D07D00225B5EB141F09D16E
:10B930004C7914FB02F209E08D7804690022641B43
:10B94000046103E0B5EB941F00D10422497811F0A3
:10B95000300F02D18168491C81609C7801692144C3
:10B960001144016193F9032011444161012030BD6C
:10B9700030B54168002487B0497801F00F02082AE9
:10B9800011D08A091ED00222B2EB911F09D102699F
:10B99000C1F301110229146001D0032901D14069CA
:10B9A000047007B030BD0069056808E02C732946B3
:10B9B0006846FCF713FE6846FFF7DAFFAD68002D16
:10B9C000F4D1EEE7C1F30111012912D00229E6D02A
:10B9D0000329E4D04268517801F00F0107290BD008
:10B9E000916881B11279006907B0BDE83040FAF77B
:10B9F000ADBC41690C70EDE70169906807B0BDE826
:10BA0000304000F02CB81179006907B0BDE8304033
:10BA1000FAF7B5BC10B5034B002408C080E8160047
:10BA200010BD00004D7D070038B50D46044669463F
:10BA3000FFF7FEFE00280BD0D4E90002D4E9021380
:10BA4000C5E90002C5E902130098814201D2002035
:10BA500038BDA860A168081AA060012038BD00B5F3
:10BA60000A4687B001466846FFF71AFF002807D04C
:10BA70006846FFF77DFF6846FFF73AFF0028F7D1D9
:10BA800007B000BD7FB514460546A9B9124A28681B
:10BA9000904208D110E0102269462846FFF7F2FFD5
:10BAA000002807D0103C102CF5D8224669462846BD
:10BAB000FFF7E8FF04B070BDA868A04201D20020E3
:10BAC000F8E72B682246284698470028F2D0A86855
:10BAD000001BA8600120EDE74D7D070010B504466E
