:020000040002F8
:10600000B04C0020F9620200016302000363020049
:10601000056302000763020009630200000000003C
:106020000000000000000000000000000B63020000
:106030000D630200000000000F6302001163020004
:1060400089650200136302002969020013630200DC
:106050001363020013630200C163020013630200B2
:106060001363020013630200136302001363020050
:106070001363020013630200136302001363020040
:1060800013630200E1650200136302001363020060
:106090000566020013630200096602001363020032
:1060A0001363020013630200136302001363020010
:1060B00013630200136302000000000000000000F0
:1060C00013630200136302001363020013630200F0
:1060D0001363020013630200136302000000000058
:1060E00000000000000000000000000000000000B0
:1060F00000000000000000000000000000000000A0
:10610000000000000000000000000000000000008F
:10611000000000000000000000000000000000007F
:10612000000000000000000000000000000000006F
:10613000000000000000000000000000000000005F
:10614000000000000000000000000000000000004F
:10615000000000000000000000000000000000003F
:10616000000000000000000000000000000000002F
:10617000000000000000000000000000000000001F
:10618000000000000000000000000000000000000F
:1061900000000000000000000000000000000000FF
:1061A00000000000000000000000000000000000EF
:1061B00000000000000000000000000000000000DF
:1061C00000000000000000000000000000000000CF
:1061D00000000000000000000000000000000000BF
:1061E00000000000000000000000000000000000AF
:1061F000000000000000000000000000000000009F
:10620000DFF80CD000F0CAF8004800477D8002009B
:10621000B04C002030B4044654E8000F0D4644E86A
:106220000053002BF8D1156030BC704730B40446E1
:1062300054E8000F40EA010544E80053002BF7D171
:10624000156030BC704730B4044654E8000F00EAD3
:10625000010544E80053002BF7D1156030BC7047AE
:1062600030B4044654E8000F80EA010544E80053C6
:10627000002BF7D1156030BC704730B4044654E8A9
:10628000000F00EB010544E80053002BF7D1156027
:1062900030BC704730B4044654E8000FA0EB010551
:1062A00044E80053002BF7D1156030BC704770B440
:1062B00004464FF0000054E8006F0D68AE4207BF7F
:1062C00044E80023012044E800630E60002B1CBF5B
:1062D0000020F0E770BC704730B4044654E8000F6B
:1062E00088422CBF451A054644E80053002BF5D1DF
:1062F000156030BC704700000648804706480047DC
:10630000FEE7FEE7FEE7FEE7FEE7FEE7FEE7FEE765
:10631000FEE7FEE70D66020001620200202A04DBB0
:10632000203A00FA02F1002070479140C2F12003A8
:1063300020FA03F31943904070470000004870476B
:1063400068AF020040EA01039B0703D009E008C9D7
:10635000121F08C0042AFAD203E011F8013B00F82A
:10636000013B521EF9D27047D2B201E000F8012B76
:10637000491EFBD270470022F6E710B513460A46C5
:1063800004461946FFF7F0FF204610BD421C10F8E6
:10639000011B0029FBD1801A70470000064C074DF5
:1063A00006E0E06840F0010394E8070098471034E5
:1063B000AC42F6D3FFF728FF6CB602008CB60200A1
:1063C0002DE9F04700268AB0DFF85091B0464FF42F
:1063D0008075012437460696284602F007FC38B13E
:1063E000D9F80403204203D0284602F0F5FB2643E7
:1063F0002D1D64007F1CADB2082FEDD34FF4BE7489
:10640000204602F0F3FB48B1204602F0E5FB46F0DF
:10641000004606AA0121002002F0CAFB404D16F0FA
:10642000FF0F15D00127002437420DD009EB84015E
:10643000D1F81005D1F81015C0F3042055F8242028
:10644000C1F3014102B190477F00641C082CEBD3DB
:10645000002E5FDA4FF0FF30CDF8108054E028199D
:1064600010F8507F90F9000027F0C008401C3BD086
:1064700007A9404602F03FF810B34FEA971940468B
:1064800001F034F955F820701FB1B9F1030F03D0B2
:1064900006E0B9F1030F27D104A9404602F033F812
:1064A0004FF0A04101EB8800D0F8000706A9C0F327
:1064B000014A404602F01FF818B1BAF1020F03D0AA
:1064C00012E0BAF1030F0FD1B9F1030F08D1BAF1FD
:1064D000020F1DD00221404602F04EFB761CF6B2A0
:1064E00017B149464046B847641C042CB7D3002E68
:1064F00010D06A460121002002F05AFB069900984C
:10650000884207D006900498002634460790A6E7F4
:106510000321E0E70AB0BDE8F0870000006000401A
:106520000025002000F01F02012191404009800059
:1065300000F1E020C0F88012704700F01F02012136
:1065400091404009800000F1E020C0F80011704740
:1065500000F01F02012191404009800000F1E0207D
:10656000C0F8001270474907090E002806DA00F04B
:106570000F0000F1E02080F8141D704700F1E020CA
:1065800080F800147047000070B54FF480763046F4
:1065900002F0F4F8114CB50560B1304602F0F5F8A0
:1065A0000120C5F80803607920B9012060712168D5
:1065B000002088474FF48276304602F0DFF800284A
:1065C0000AD0304602F0E1F80220C5F8080321683D
:1065D000BDE870400120084770BD0000E82200209F
:1065E00007480021C0F84011C0F84411C0F8481114
:1065F000C0F84C11C0F80011C0F8041104F034B810
:106600000010014003F07EBF03F040B8F0B5B5487C
:106610000023021D0178101D01254FF0805406292A
:106620000BD11678360708D10678C6F30316032E69
:1066300006D0042E04D0052E02D0062907D00EE085
:10664000B4F82463A84FC6F304263E6002E016782F
:10665000360704D10678C6F30316032E02D00629A6
:1066600004D00FE0A24FA14E7E670EE016783607E9
:1066700008D10678C6F30316032E06D0042E04D0E4
:10668000052E02D0062907D00EE0D4F84462994FB7
:10669000C6F342363E6002E01678360704D106782B
:1066A000C6F30316032E02D0062906D011E0924E3F
:1066B000376827F0807737600EE01678360708D104
:1066C0000678C6F30316032E06D0042E04D0052E3A
:1066D00002D006290AD011E04FF08046C6F80C31EE
:1066E000C6F81031834E361F336002E01678360745
:1066F00004D10678C6F30316032E02D0062905D06E
:106700000CE07C4F032664373E600AE016783607BB
:1067100004D10678C6F30316032E02D006290DD045
:1067200014E0764F05263E60744E78363560734E21
:10673000083633603F263F1D3E6002E0167836077C
:1067400004D10678C6F30316052E02D0062957D0C9
:1067500062E06B4E36686B4F3E60694E361D3668A0
:106760003F1D3E60664E083636683F1D3E60644EF3
:106770000C3636683F1D3E60614E103636683F1D50
:106780003E605F4E143636683F1D3E605C4E1836E4
:1067900036685C4F20373E60594E1C3636683F1DC8
:1067A0003E60574E203636683F1D3E60544E2436BC
:1067B00036683F1D3E60524E283636683F1D3E60AB
:1067C0004F4E2C3636683F1D3E604D4E3036366893
:1067D0004C4F40373E604A4E343636683F1D3E606F
:1067E000474E383636683F1D3E60454E3C3636686B
:1067F0003F1D3E60424E403636683F1D3E6002E01F
:106800001678360708D10678C6F30316032E06D08D
:10681000042E04D0052E02D0062907D019E0D4F8A2
:106820005812394A01F04F01116002E0117809074E
:106830000FD10078C0F30310032803D0042801D03F
:10684000052806D131480168C90702D06FF001015F
:106850000160D4F83001062808D1D4F834010628A4
:1068600004D12B48016841F48061016022487438EA
:10687000016841F470010160BFF34F8FBFF36F8F68
:106880004FF01021D1F80002002803DBD1F80402F8
:10689000002822DA1F4A15601F480468002CFCD02B
:1068A0001524C1F800420568002DFCD0C1F804424F
:1068B00001680029FCD0136001680029FCD0BFF3F7
:1068C0004F8F0D48F0380168144A01F4E06111431C
:1068D0000160BFF34F8F00BFFDE712491048086009
:1068E000F0BD0000E00F00F0403501400DF0ADBA02
:1068F00000C007403C050040FCED00E010560040A1
:106900000404001020C50040E40E004000040040D4
:106910003C17004004E5014000E401400400FA0592
:106920000090D003A8230020014800680047000021
:10693000F022002002E008C8121F08C1002AFAD184
:1069400070477047002001E001C1121F002AFBD1EF
:10695000704700000121202803DA814005480140EA
:1069600003E0402802DA2038814009B10120704755
:1069700000207047FC06FFBD30B52548A5B03C217E
:10698000006824902348807C8DF892006846FFF7C9
:10699000F2FC02208DF8000001248DF80240062050
:1069A0008DF803003C210FA8FFF7E5FC24A81A4D41
:1069B0001490ADF84C402A1D6846296800F04AFA48
:1069C00008B100F0E3F8144A0FA80C32A96800F0EF
:1069D00041FA08B100F0DAF818211EA8FFF7CBFC45
:1069E00000208DF88D408DF87840ADF884001F9020
:1069F0008DF88C004020084920901EAAA1F10C00BF
:106A000072DF002801D000F0C1F825B030BD0000D1
:106A10003CAC0200AC230020C4220020064810B584
:106A20000121007873DF08B100F0B0F8BDE8104034
:106A3000002000F079BD0000B822002070B50024CD
:106A4000084D05E0686810F8340002F0FDFE641C93
:106A500028788442F6D304484068BDE8704000F0CE
:106A600023B90000F82200207CAC020070B500249D
:106A7000064D06E06868012110F8340002F008FFB6
:106A8000641C28788442F5D3002070BDF8220020D1
:106A9000F8B515460C460646052A01D20720F8BD72
:106AA00002F0F2FF18B902F0B7FF0028F7D112493F
:106AB00000224E600C708D60C1E90422C1E90622FB
:106AC0000E4D0DE006EBC4002968009181788DF829
:106AD000011000780A4A694602F02CFF0028DED136
:106AE000641EE4B2EED2BDE8F84004480021054A35
:106AF000001D00F057B80000F82200207CAC020016
:106B00003D7C0200517B020072B602F00FFB00BF19
:106B100002F052F90028FBD111481249401AC4086A
:106B2000012000EB044010A102F060FA1148006857
:106B3000C00700D000BE022000EB04400EA102F00E
:106B400055FABFF34F8F0B48E43801680E4A01F441
:106B5000E06111430160BFF34F8F00BFFDE700000C
:106B6000DCB602009CB60200466174616C2065725E
:106B7000726F7200F0ED00E053797374656D2072EE
:106B800065736574000000000400FA050EB500216D
:106B90000091CDE901106A4644F20100FFF7B4FF0D
:106BA0000EBD0000084B9B7823B12AB120B10068CC
:106BB000037C1BB108207047072070470023037433
:106BC0004174426118467047CC25002070B503F02F
:106BD000F3FA104800240B21047044700E4D8170AC
:106BE00014206C602C706C70FFF79CFC0621142044
:106BF000FFF7B9FC1420FFF7A0FC08480460062149
:106C00001120FFF7B0FC0548001F0068A8600020B5
:106C100070BD0000CC25002018230020081501407D
:106C20002DE9FC47DFF8789099F8023073B368B328
:106C3000052902D20720BDE8FC87436933B3437CB2
:106C4000012B25D0002704460025884616468DF8DE
:106C50000050684600F038F801A803F06FFFC8B193
:106C6000012101700F4944600968C0E90218C0E9B8
:106C700004769DF8040089F801009DF8000000F0FA
:106C800047F81420FFF764FC2846D4E70820D2E731
:106C90000F46D8E704259DF8000000F039F8F3E727
:106CA000CC250020041501400649897839B130B15E
:106CB000416921B100210174022103F0B1BC082017
:106CC00070470000CC25002030B5EFF3108172B67C
:106CD0000D4A9468012324B10370002900D162B6E3
:106CE00030BD93604FF0E023D3F88051074C25402E
:106CF0001560C3F88041D3F8844154605A17C3F833
:106D0000842100220270E8E7D8260020FC06FFBD9F
:106D10000B498A68002A11D000280FD1EFF31080A8
:106D200072B60B684FF0E022C2F800314B68C2F82F
:106D3000043100228A60002800D162B6704700004A
:106D4000D82600202DE9F041064608680C46411C73
:106D50004FF0A0474FF0010506D005FA00F1C7F843
:106D60000815206801F0F4FE6068411C02D0002183
:106D700001F0DCFE3168A069C1F82405607D227D48
:106D800031681043C1F86C05D4E900123068C0F8CE
:106D90001425C0F80C15207D012815D1A068411CD0
:106DA00002D0002101F0C2FEE068411C05D0854000
:106DB000C7F80855E06801F0CBFED4E9021230684C
:106DC000C0F80825C0F81015BDE8F0812DE9F041A4
:106DD000064608680C46411C4FF0A0474FF00105DD
:106DE00006D005FA00F1C7F80815206801F0BAFED0
:106DF0006068411C02D0002101F0A1FE3168A06949
:106E0000C1F82405607D217D32680843C2F86C0515
:106E1000D4E900123068C0F80C15C0F81425207DA4
:106E2000012815D1A068411C02D0002101F087FE85
:106E3000E068411C05D08540C7F80855E06801F0BE
:106E400091FED4E902123068C0F80825C0F8101588
:106E5000BDE8F0812DE9FC4700251788064615801E
:106E600090F82D001446894630B13A4621464846EE
:106E700000F0E6F8051E09D1B0784FF00C0A18B3FF
:106E80002088C846001DB84202D95046BDE8FC879C
:106E9000684679DF0028F9D12088032108F800101E
:106EA00020881921401C80B2208008F8001020881A
:106EB000401C80B2208000EB0801BDF8000003F008
:106EC00097FD218808442080F0780222C8B12188EB
:106ED00096F9033001F1030C4846BC45D5D842541D
:106EE00021884FF0010C491C89B2218000F801C0B3
:106EF0002188491C89B2218009F801302088401C72
:106F000020807068B8B1218890F9003001F1030C3D
:106F10004846BC45B9D8425421880A22491C89B246
:106F2000218042542188491C89B2218009F801300E
:106F30002088401C2080308950B1CDE900474B4665
:106F40000622022106F1080003F010FE051E9DD165
:106F5000308A50B1CDE900474B460722032106F1A4
:106F6000100003F003FE051E90D1308B50B1CDE927
:106F700000474B461522142106F1180003F0F6FDD8
:106F8000051E83D1306A30B13B462246494600F0A7
:106F900014FD051EDBD1706A30B13B4622464946DE
:106FA00001F032F9051ED2D196F82C0038B13B46DB
:106FB00022464946304603F0CBF9051EC7D130784A
:106FC00038B13B4622464946304601F0A7F9051E36
:106FD000BDD128465AE7000070B5040012D0014622
:106FE0001C221448FFF7AEF91248134D05602068C3
:106FF00050B17ADF002806D1206801682960406816
:10700000686005E00E2070BD0B487BDF0028FAD1D8
:1070100008484FF6FF711438084A20F8041B054948
:10702000343901600021FFF7BDFD0028EBD00320BB
:1070300070BD000058240020D4220020B1AA020014
:107040007CB5054608880C460930904201D90C20D1
:107050007CBD68466DDF0028FAD12188082068547D
:1070600020881B21401C80B2208029542088401C8D
:1070700080B220802844DDF801100160BDF80510C1
:1070800081802088801D80B220809DF800104908F2
:1070900000D0012129542088401C208000207CBD84
:1070A000F8B5334D018804466E8821294BD015DC94
:1070B0003048314A1029A0EB02004FEAD0004FF0CF
:1070C000030202EB004013D011292AD0132943D127
:1070D00000231A46852130467FDF1CE03B2942D041
:1070E00052293AD0562937D18088132176DF12E011
:1070F00022A101F07BFF012000F016FA002000F031
:107100000BFAA1886980204801F0C0FA08B1FFF7A6
:107110003DFDFFF7ABFC00281ED0BDE8F840FFF7AF
:1071200035BD1AA101F062FF012000F0F5F94FF61C
:10713000FF706880FFF782FC08B1FFF727FDBDE80C
:10714000F840FFF76BBC00200090A08869468FDFF5
:10715000002801D0FFF71AFDF8BD00231A46194692
:107160003046B1DFD7E78088132176DFD3E7000010
:10717000B8220020DCB602009CB60200436F6E6E9F
:107180006563746564000000D8230020446973635C
:107190006F6E6E6563746564000000002DE9F04752
:1071A00001883B4E40F2F3194FF6FF7510291BD0B2
:1071B00011293ED0122954D0502946D1C188F289D4
:1071C000841D914241D1618902293ED18688304691
:1071D00000F076FD050038D004F10C0000F06EF9E7
:1071E000A8B3294630464EE0C17B87880446012972
:1071F0002BD1A846284600F063FD050017D02F804C
:1072000000202872234843464A460168C5F80A1000
:107210004068C5F80E0004F1100105F10A0000F005
:1072200007FE6872F08900280FD129462AE0042061
:1072300013E0808800F044FD040006D06068FFF78A
:1072400033FD08B103F05CF82580BDE8F087FFE767
:107250006868FFF729FD0028F7D0BDE8F04703F084
:107260004FB887880646384600F02AFD0400ECD067
:107270002B464A4606F1080104F10A0000F0D8FD49
:10728000607221463846BDE8F04700F0DDBB0000E3
:1072900058240020D42200202DE9F04F074685888D
:1072A00002883D48012197B08346102A09D0112A4F
:1072B00049D01A2A6CD1387AB1EB101F45D201227D
:1072C00044E0354C083CA068C0430B9061680BA8B3
:1072D00001F0A3F80B990CA800F050FB2C220CA98C
:1072E0006846FFF72FF80026E946A04610E000BFE9
:1072F00009EB46005FF00004B0F804A008EB84003E
:107300005146001D01F05DF8641C1D2CF6D3761C5F
:107310000098B042ECD8142D05D317B00420BDE876
:10732000F04FFFF733BC2946584601F060F8294674
:1073300008F1040001F05BF8F87B012828D016481A
:107340002946001D15E029461AE000220221B1EB72
:10735000101F01D2012600E000260F49083901F173
:107360001000041D294682B101F041F836B12946CA
:10737000204617B0BDE8F04F01F039B82946204645
:1073800017B0BDE8F04F01F01CB801F01AF8F5E7AE
:1073900017B0BDE8F08F00007C24002030B58DB020
:1073A00004462E4B086860610FCB08AD85E80F00DE
:1073B00004F1120108A862DF00284CD1A07C8DF8EE
:1073C000320041F22350ADF8300022460CA90120D2
:1073D000A8DF00283FD120216846FEF7CCFF41F20C
:1073E0002450ADF80000A07C8DF8020001259DF826
:1073F0000D00ADF8065040F012008DF81150ADF8B8
:1074000004508DF80D008DF81350208804F10A0205
:10741000694600F073F900281DD120216846FEF767
:10742000AAFF41F22550ADF80000A07C8DF80200C3
:107430009DF80D00ADF8065040F00A008DF811508F
:10744000ADF804508DF80D008DF812502088A21C64
:10745000694600F053F90DB030BD000060AC020089
:1074600030B40288502A10D1034630F8062F4C88D9
:10747000A2420AD14289012A07D14C69002C04D0CA
:10748000027B9888A44630BC604730BC704707B583
:1074900086B0012200230093ADF8102001930293DF
:1074A00003938DF802204989ADF8001008A90391D3
:1074B00004A902916946AEDF09B000BD007800F072
:1074C000010070472DE9FC410646C0074FF000055A
:1074D0000ED0104F00240122385D00950023114684
:1074E000019501F0C9FA641C042CF4D300F024F8CF
:1074F000B0070DD5074E0024361D0022305D032352
:1075000000951146019501F0B7FA641C042CF4D3E0
:10751000BDE8FC8140AC02000249085C012101F099
:107520003CBB000040AC02000249085C002101F0B5
:1075300034BB000040AC020010B500242046FFF729
:10754000EBFF641C042CF9D310BD00002DE9F843B7
:107550000546861C00208DF8000090460F464FF02F
:1075600001096846FFF7B0FB1B4C20683860D4E97E
:107570000001401AA16804F21C47081A0EE001211C
:10758000384600F044FF00F02BFD0146384600F07D
:107590003EFFD4E90001401AA168081A401C864247
:1075A000EDD8B8F1000F03D0052065F3891002E093
:1075B000062065F39F50A2682168114004EB810109
:1075C000C8602068304420609DF80000FFF7A0FBF1
:1075D0004846BDE8F88300008828002030B482685F
:1075E0000468531C8360A154D0E901128A4202D37B
:1075F00030BC01F048B930BC70470000034803C8F4
:10760000814201D101207047002070478828002066
:1076100010B50C460D281BD110481149401AC0085E
:10762000032101EB00400FA101F0E0FC15482246C8
:1076300013494088FFF72BFF00280DD0A0F54051DB
:10764000023909D0082807D043F20141884203D00B
:10765000BDE81040FFF79ABA10BD0000DCB602008A
:107660009CB6020053656E6420627574746F6E2060
:107670007374617465206368616E67652E00000035
:10768000AC230020B822002005494FF0FF32082823
:1076900041F8202002D3084480F8482070470000B9
:1076A00000250020F0B54FF0FF3512B10023082669
:1076B00001E008230C260C4C05E000BF54F82370B1
:1076C0007F1C04D05B1CB342F8D32846F0BD2618BB
:1076D0005DB286F8305044F82310002AF5D1E11845
:1076E00081F84800F1E70000002500200249084425
:1076F00090F9300070470000002500202DE9F0438C
:107700008146887891B090460C4600B901208DF8EA
:107710003E002088ADF83C0000250095607C69465D
:1077200002F05AFE6E46A07C711C02F055FEE07B12
:1077300000289DF8020002D040F0080001E020F08F
:1077400008008DF80200217C11B140F0100001E02A
:1077500020F010008DF80200217B11B140F00100F3
:1077600001E020F001008DF80200217D09B1022125
:1077700000E0012161F342008DF802001C2102A803
:10778000FEF7F9FD607BC10601D4800617D50E9582
:107790000EAFE07C791C02F01FFE9DF838000797C1
:1077A00020F00F00401C20F0F00010308DF8380061
:1077B0009DF83A0020F00600801C8DF83A00607BAE
:1077C0008DF80800A07B8DF80900142109A8FEF7A8
:1077D000D2FD0FA8CDE90906A088ADF83000A06859
:1077E00020B1E088ADF82C00A0680D90A06998B396
:1077F00001950088ADF81000A06901AD01A940888D
:10780000ADF81200A069406806950390A069007B5E
:1078100002F0E2FDA069691C407B02F0DDFDA06979
:10782000807A00289DF8060002D040F0080001E0B0
:1078300020F008008DF80600A169C97A11B140F066
:10784000100001E020F010008DF80600A169097A0F
:1078500019B140F0010002E00DE020F001008DF8C8
:107860000600A169897B09B1022100E0012161F3D1
:1078700042008DF80600E06900B10590434609AA70
:1078800002A94846AADF11B0BDE8F08370B5084CE4
:10789000050009D010342168002907D0086820604D
:1078A000496828468847F6E70834F4E770BD0000C9
:1078B000EC240020054A012120B1012805D1917056
:1078C000FFF7E4BF51700020FAE77047EC24002076
:1078D0002DE9F05F26484168F1B3DFF898B00E68F3
:1078E0008146DBF8004087688078E11B21F07F4506
:1078F000ED1CB0B9DFF880804FF48030C8F8440345
:10790000C8F804031120FEF70DFE1120FEF715FE46
:107910004FF0010AC8F800A02F2001F08DFF89F870
:1079200002A0B54200D23546124BE8193C3320F094
:107930007F401860DBF800105A46091B21F07F4198
:10794000001B20F07F40C91C81420FD910681860CD
:107950002F2001F071FF00E004E0BDE8F05F11208E
:10796000FEF7F6BDBDE8F05F02F026BCBDE8F09F73
:1079700018230020041501400010014073B58CB09D
:107980000646002000900D9880B100246D462146E7
:107990000DA800F021FD30B1009805EB4000848077
:1079A0000098401C0090641C142CF0D32C226946D3
:1079B0003046FEF7C7FC0EB070BD2DE9F0411788C8
:1079C0000646B81D14460D46984202D90C20BDE863
:1079D000F0813188072206290AD34FF4486C4FF60C
:1079E000FF73614501D9994202D17088062801D2FE
:1079F0001046ECE7604501D99842F9D1994203D08D
:107A0000984201D08142F3D80520E8552088122100
:107A1000401C80B2208029542088401C80B22080E5
:107A20004119308802F0E4FF2188084480B22080A8
:107A30004119708802F0DCFF218808442080002072
:107A4000C5E7FFF7A3B8000038B54A7A0F4B62B11B
:107A500000220A725969002906D001228DF80020FF
:107A6000ADF802006846884738BD0A7A62B19B6863
:107A70004C68024619462046FFF7D2F80028F3D09A
:107A8000BDE8384002F03CBC5B68F1E758240020B8
:107A900070B588B00646002005900690ADF8141029
:107AA000ADF816100190029001AA05A9304690DFAA
:107AB000050021D001F064FE034611481149324609
:107AC000401AC108012000EB014004460E4901F0B4
:107AD00098FABDF8042012B9BDF8060028B1BDF827
:107AE0000630204609A101F08CFABDF808201AB131
:107AF0002046164901F07EFA08B0284670BD000005
:107B00009CB602009CB602006CAF0200546865206F
:107B10007265717565737465642054582F525820CE
:107B20007061636B6574206C656E6774682069733F
:107B300020746F6F206C6F6E672062792025752F1F
:107B40002575206F63746574732E0000B8AF020052
:107B50002DE9F0470025DFF88C803CE060680021CB
:107B600000EBC506012032789146FEF7D7FBD4E939
:107B7000062300EA020701EA030C57EA0C0728D0A3
:107B800082438B434846C4E9062301F03BFF327829
:107B90008246914601200021FEF7C0FBD4E9042370
:107BA00000EA020401EA03074A4650460021FEF7B4
:107BB000B5FB44404F403C430BD17078012801D0C5
:107BC000012100E00021726881EA0A010AB14846F9
:107BD00090476D1CEDB298F8000044468542BDD335
:107BE000BDE8F087F822002010B50021024800F01F
:107BF0001FFC80F3100010BDA42C00200E4910B50E
:107C00000A784C780023A24212D0521CD2B20A70D9
:107C1000022A00D10B70084A0B780C3252F823204C
:107C200002608868104420F07F408860012010BD09
:107C30000360002010BD0000182300202DE9F04152
:107C40008046024601200021FEF768FB1A4F0546D8
:107C50000E467868FFF728F800280CD1174CD4E9B5
:107C6000062110462A4001EA06031A4305D0A8431C
:107C7000B143C4E90601BDE8F081404601F0C2FE0F
:107C800030B1D4E9040128433143C4E9040105E0DB
:107C9000D4E90410A943B043C4E90410D4E90601AF
:107CA00028433143C4E90601A1687868BDE8F04182
:107CB0000022FEF7B5BF00007CAC0200F8220020D5
:107CC0000146034802888A4200D000207047000025
:107CD000442400202DE9FC5F0E008346DDE90C47BB
:107CE000C6F1000098469246814600D40846012518
:107CF00003E000BF90FBFAF06D1C5045FADAA8458E
:107D000000D9454624B1002E01DB780700D5641E5A
:107D1000B80702D5B8F1000F0AD0F80708D13CB176
:107D2000A54205D220215846641EFFF757FCF6E70E
:107D3000002E02DA4E462D2102E0780703D52B21D2
:107D40005846FFF74BFC07F0030002280BD1B8F1AF
:107D5000000F08D13CB1A54205D230215846641E1F
:107D6000FFF73CFCF6E7CDE9004743465246314673
:107D7000584602F043FEBDE8FC9F000070B50D467A
:107D8000044600684FF4887101F01AFD4FF49071B9
:107D9000206801F015FD4FF49271206801F010FD8C
:107DA0004FF4A271206801F00BFD20681249C0F861
:107DB00004132068690740F30730090E002806DA2B
:107DC00000F00F0000F1E02080F8141D03E000F146
:107DD000E02080F800142068012140F3073000F013
:107DE0001F0291404009800000F1E020C0F880129D
:107DF000C0F8001170BD0000100302000246002010
:107E00001268530713D502F00300012802D002289C
:107E10000CD105E0C2F383100B68801C184404E009
:107E20000223086803EB9252104408600120704757
:107E3000F0B58488A518944200D82246A41AC288B6
:107E4000D6189A4200D81346D21A4B880788BB42EC
:107E50000CD34088834209D88888A04206D3A84220
:107E600004D8C888904201D3B04201D90020F0BDA7
:107E70000120F0BD0B480C4910B5401AC008032181
:107E800001EB00444FF0020022B1FFF74DFB20460A
:107E900006A103E0FFF740FB204609A1BDE8104022
:107EA00001F0A4B8DCB602009CB60200526563651E
:107EB00069766564204C4544204F4E210000000047
:107EC0005265636569766564204C4544204F46469B
:107ED00021000000172101804180002101714171C2
:107EE0001B218171C17170472DE9F047394E002780
:107EF00080463D46DFF8E090D6F804A057E003D076
:107F00000446D0F81C8035E099F8002002EB4201CD
:107F1000521CD2B289F8002009EBC10199F8023055
:107F2000091D9A4201D189F8005048680A78044630
:107F3000012A12D0022A02D0032A3BD108E002F023
:107F40003FFB00B10127257434E00574C06900E0EF
:107F500070680028F9D170602CE0207C50BB8868E4
:107F60006060C868A0600869E0604869A061F07856
:107F700000B165606268B168184B501A20F07F400C
:107F8000984202D2A168084406E0881AA16820F04D
:107F90007F40814202D9081A206000E025606560B8
:107FA0000120A56020742046E56102F0EBFAB8F1EB
:107FB0000000A4D199F8001099F801008142A3D1E2
:107FC00017B97168514502D00120BDE8F087002043
:107FD000FBE7000018230020CC250020FFFF7F00D6
:107FE0002DE9FF410026234800F00EFA2148001F2A
:107FF000074600F009FA204C60680090A56800E090
:1080000000986946284004EB80000C30FFF7F6FE2C
:108010000028F5D101AA009901EA050304EB8303C6
:10802000491CDB6842F82030401C00910228F2D342
:10803000019800F0030001280BD0022810D101980C
:10804000032101EB90500099BDF80A6001EB90000C
:1080500005E00198BDF80A60C0F383100844009061
:10806000384600F0CEF908B10098606004B03046A0
:10807000BDE8F081A02C00208828002088B04FF4B3
:108080000041002001F01CF808B1FEF77FFD00F070
:1080900085FE0120FFF716FAFEF798FD08B1FEF7FE
:1080A00075FD40F2666201214748FEF7F1FC08B118
:1080B000FEF76CFD01F01AF908B1FEF767FD01F05B
:1080C000ABFA08B1FEF762FD002469460120009476
:1080D00001F05CF908B1FEF759FD684601F0D6F9E8
:1080E00008B1FEF753FD9DF8080038A120F00F00FD
:1080F000401C20F0F00010308DF80800042202A887
:108100007CDF08B1FEF742FD00945020ADF800007E
:10811000A0200194ADF80200ADF804404FF4C870FF
:10812000ADF8060068467ADF08B1FEF72FFD0021A2
:10813000284800F0F2F908B1FEF728FD264801A909
:10814000CDE900402348143000F0ABFA08B1FEF747
:108150001DFD224800901F4869461838FFF71EF998
:1081600008B1FEF713FDFEF707FC1C216846FEF779
:1081700002F94FF42020CDE9004080100290184809
:108180000590032517488DF80C500690ADF80E4069
:108190008DF810406846FEF71FFF08B1FEF7F6FCA9
:1081A00011481249401AC00805EB004010A100F028
:1081B0001DFFFEF733FC00BF00F0FEFD0028FBD1E1
:1081C00001F0A8F8F8E70000BC22002058585858E1
:1081D00000000000C423002059930200757E0200B5
:1081E0002D9F0200437A0200DCB602009CB602001A
:1081F000426C696E6B79206578616D706C65207377
:108200007461727465642E0070B5144682880E46DF
:1082100005462088111D0144921C994201D8FE2A6E
:1082200001D90C2070BD521C32542088FF21401C03
:1082300080B2208031542088401C80B22080811977
:10824000288802F0D5FB2188084480B22080AA88C3
:1082500042B1A96841B13044FEF774F82088A9887A
:1082600008442080002070BD072070BD2DE9F04734
:10827000C5881E1DB6FBF5F78946B6FBF5F1044629
:1082800005FB176C407916686843DDF820A0F718E5
:10829000001F874200D9C61A166001E02468491EF3
:1082A0000029FBD1A5EB0C078846B74216D818E089
:1082B00004EB0C00001D09EB0803BAF1000F3A466D
:1082C00002D00146184600E01946FEF73BF8246844
:1082D000F61B4FF0000CB844B54201D9374600E018
:1082E0002F46002EE4D1BDE8F087000030B50246ED
:1082F00051B100F003FF0021074C08E034F82130B1
:108300001568AB4202D11160002030BD491C81428A
:10831000F4D3052030BD000000000000F8B50F4682
:10832000017814460546012901D1687830B12088CA
:10833000821C9A4232D8012902D006E00720F8BDFB
:1083400069780144891C994228D8181A801E86B27F
:10835000ADF800602188B81C084469467DDF00281C
:10836000EDD12978022904D06878BDF80020904228
:1083700005D3BDF80000B04201D809200AE008206A
:10838000012905D16978B14202D8ADF8001001E0A9
:10839000ADF80060BDF80010FE2901D90C20F8BD31
:1083A0002288491CB9542188491C89B221807854FB
:1083B0002088401C2080BDF8001008442080002048
:1083C000F8BD01F01F0301229A40D243490900EB96
:1083D0008100114600F021B84A0950F8220001F04E
:1083E0001F0201219140084000D00120704701F098
:1083F0001F0301229A40490900EB8100114600F059
:108400001CB8002100F00FB8012100F016B808B523
:108410006A46FDF732FF009808BD08B56A46FDF7C9
:1084200012FF009808BD08B56A46FDF70CFF08BDAD
:1084300008B56A46FDF7EEFE08BD08B56A46FDF7C9
:10844000F5FE009808BD08B56A46FDF723FF0098C1
:1084500008BD38B5044600258DF800506846FEF783
:1084600033FC21686268086890420ED9401E08609B
:108470000178238AE26801FB0325227A2168101A19
:10848000C0B20A79824200D208719DF80000FEF75E
:108490003FFC284638BD38B5054600208DF8000061
:1084A0000C466846FEF710FCE868298A201AB0FBE3
:1084B000F1F12A681068431C136001709DF80000F8
:1084C000FEF726FC38BD10B530B1017A426803686A
:1084D000891AC9B21A6006E00E2010BD03681A6836
:1084E000541C1C601170491EC9B2F7D200680021EB
:1084F0000171084610BDC20800F007030120895C25
:1085000098400840704710B5C20800F00703885C27
:1085100001249C402043885410BD10B560B1016116
:10852000172120F8021B20F8021B1B2100F8021B58
:10853000FFF7D0FC002010BD0E2010BDF0B58588DF
:1085400093B00C46002D39D1018800263F4F2429D5
:108550003BD006DC102909D011290CD0232958D191
:108560004FE03A290BD0552953D129E00146204646
:1085700001F0EAFC4DE0A01DFFF7ACFC49E022460B
:10858000408934F8061F814200D8084660801728C9
:1085900000D217206080106970B1607960B1D7E9AE
:1085A0000001CDE90301ADF80E506088ADF8100070
:1085B000136903A9104698476671267113B0F0BD80
:1085C0000146204601F014FD23E0011D2C2206A8DF
:1085D000FDF7B8FEBDF81800BDF81C2004EBC00183
:1085E0004A732269AAB1D7E90423CDE90423ADF87F
:1085F0001200487B8DF814002269204604A9904798
:1086000007E0017A207B884200D201462846FFF726
:108610003FFAA07A0028D1D0E1882846A5DF0125BD
:1086200080B11128CAD001F0ABF8024608480949C8
:1086300013B0401AC00805EB0040BDE8F04006A1A9
:1086400000F0D8BCA672E572B8E7000048AC0200A2
:108650009CB602009CB6020073645F626C655F6743
:10866000617474635F65786368616E67655F6D747C
:10867000755F7265717565737428292072657475EC
:10868000726E65642025732E0000000020B1027810
:10869000DE2A03D0082070470E207047418000205A
:1086A000704760B159B10278DE2A0AD0096841608A
:1086B000DE2101704FF6FF714180002070470E20CF
:1086C0007047082070477FB5054600294DD0002D22
:1086D0004BD008780C46DE2847D1A88861888842AC
:1086E00002D1204602F018FA2888012825D0022855
:1086F0003BD011283AD0512837D135F8040F618882
:10870000884232D1A978A81C02292ED1017A0429E5
:1087100003D0062901D0052927D10021009102228A
:108720008DF8002001914FF4C07202910391ADF8D1
:108730000420007A05280FD010E0297A204601296C
:1087400013D1A988428891420FD10121017204B04E
:10875000BDE8704002F0E0B9ADF804102888694621
:10876000B0DF002801D0616888477FBDA888618894
:108770008842FAD14FF6FF7060807FBD00F18040E3
:108780000068002800D00120704708B500F1804043
:10879000002101600068009008BD000070B50B4C1E
:1087A000207808B185250FE00020A060606020617E
:1087B000E060074801F022F8054600F079FF08B9AB
:1087C00001F004F801202070284670BDEC24002040
:1087D000B578020038B500258DF800506846FEF7E0
:1087E00073FA074CE068401EE060E06810B901F0E1
:1087F00015F8A5709DF80000FEF78AFA38BD000054
:10880000EC240020F0B505460478154889B01646DA
:1088100040F82420124A0869121DA2F1080742F804
:108820002400487F385520226846FDF78BFD0494CC
:108830002878385C48B10EB10A4A00E00022694647
:10884000281D01F08FFA09B0F0BD0EB1064A00E014
:108850000022694605F10C0001F056F9F3E700002B
:10886000E0220020CDA8020019A702000FB408B52D
:108870000399002904D004AA00926A4600F00FF878
:1088800001B05DF814FB10B582680446002A05D0DB
:10889000D4E90403216898470020A06010BD2DE9A9
:1088A000FC4791460C00804676D014F8011B39B184
:1088B00025290ED04046FEF791FE20780028F4D1FD
:1088C00098F80C00002867D04046BDE8FC47FFF749
:1088D000DABF0020012221782B291BD02D2902D0BC
:1088E000302908D102E040F0010001E040F0020030
:1088F000641C002AEFD100252A290ED02178A1F18D
:1089000030020A2A11D205EB850201EB4205641CF4
:10891000303DF1E740F00400EAE7D9F800100B1D04
:10892000C9F800300968641C0D44217800232E2901
:108930000BD114F8011FA1F130020A2A05D203EB72
:10894000830201EB4203303BF3E76C290DD0682929
:108950000BD0692921D00BDC252918D0582931D01A
:1089600063290ED0642915D117E014F8011FECE734
:10897000702969D0732932D075291BD0782909D183
:1089800020E0D9F80000011DC9F800100178404628
:10899000FEF724FE641C90E76CE0D9F800100A1D75
:1089A000C9F800200968CDE900500A224046FFF7C7
:1089B00091F9EFE7D9F800100A1DC9F800200968FD
:1089C0000A2206E0D9F800100A1DC9F8002009683B
:1089D0001022CDE90050404602F010F8DAE7D9F84D
:1089E000001000270A1DC9F800200E68C00705D135
:1089F00012E04046761C7F1CFEF7F0FD317800291E
:108A0000F7D104E0202140466D1EFEF7E7FDBD4290
:108A1000C0D9002DF6D1BDE74EB13046FDF7B6FC0A
:108A2000074604E0202140466D1EFEF7D7FDBD42FB
:108A300006D9002DF6D103E04046761CFEF7CEFDA8
:108A400031780029F8D1A5E7D9F80000011DC9F84F
:108A50000010056830214046FEF7C0FD78214046F1
:108A6000FEF7BCFD08200021CDE9000103461022DD
:108A70002946B0E7BDE8FC8770B541EA4201DDE96F
:108A800004564FF0A04441EA830141EA052104EB7A
:108A9000800041EA0641C0F8001770BD70B541EA98
:108AA0004201DDE904564FF0A04441EA830141EA66
:108AB000052104EB800041EA0641C0F8001770BDB3
:108AC00070B541EA4201DDE904564FF0A04441EAA5
:108AD000830141EA052104EB800041EA0641C0F828
:108AE000001770BD70B541EA4201DDE904564FF050
:108AF000A04441EA830141EA052104EB800041EAF8
:108B00000641C0F8001770BD1CB5002100910B464E
:108B100001220191FFF7D4FF1CBD1CB5002100917B
:108B20000B4601220191FFF7DDFF1CBD1CB50022A1
:108B30000B46009211460192FFF7C2FF1CBD1CB507
:108B400000220B46009211460192FFF7CBFF1CBD9D
:108B50001CB5002100910B46012201911146FFF73F
:108B6000AFFF1CBD1CB5002100910B4601220191F5
:108B70001146FFF7B7FF1CBD4FF0A04202EB80008B
:108B8000D0F8002722F44032C0F80027D0F80027A0
:108B900042EA0141C0F80017704701224FF0A0439C
:108BA000824011B1C3F808257047C3F80C257047FF
:108BB00018B5084B6C4601441B68009306E000BFE3
:108BC00054F82030D3F81035401C08C28142F7D841
:108BD00018BD000070AC0200034908B5084400212C
:108BE00001600068009008BD0060004002494058E4
:108BF000012800D0002070470060004030B5154AC1
:108C000001460020D2F8104423460AE0DB681D79B3
:108C1000854205D1401C0A28F6DB4FF0FF3030BDFD
:108C20001B68002BF2D1431CF9D0CB681871D2F825
:108C3000103443B1DB68CC681B682360D2F8102481
:108C4000D268116030BDC2F81014C96800220A60F1
:108C500030BD000088280020F0B595B01C461546B0
:108C60000F4608461A9E00F01BFB182109A8FDF7C5
:108C700082FB0E96CDE909540023082203A9384649
:108C800000F023FB05980690BDF81000ADF81C001D
:108C9000BDF81200ADF81E0000208DF821000398E9
:108CA000082600F00300012802D0022818D032E084
:108CB00003983346850AC0F3C2008DF8200003985C
:108CC0000FA9C0F38314A200384600F0FEFA09A8E9
:108CD000009006AB22460FA9284600F03DFA1AE0A4
:108CE0000398840DC0F3C2008DF82000082C01D237
:108CF000254600E0082533462A460FA9384600F0ED
:108D0000E4FA2E44641B09AB06AA29460FA800F01A
:108D100081F9002CEAD1384600F0C8FA15B0F0BD50
:108D20007047012001F016BD084810B50178084AC7
:108D3000515C19B1001D01F0A1F802E00C3000F007
:108D4000AFFFBDE81040002001F004BD3823002033
:108D5000DC22002008B5034A00924023024AFFF7B4
:108D60007BFF08BD11A30200F02600200A4A01295A
:108D700002EBC00007D0022907D0032907D004293D
:108D800007D0002070470220704704207047007908
:108D900070474079704700009CB6020010B5FFF79D
:108DA000C0FF04210348FFF729FF02490120C968D9
:108DB000487110BD8CB602002DE9F04F8DB0FEF762
:108DC0001DFC18B100200DB0BDE8F08F7E4C4FF0B7
:108DD000000BC4F818B4BFF34F8F60680290A56809
:108DE000D846284004EB80000CE000BFD4F81804FB
:108DF00070B921680298814201D86160E2E7284099
:108E000004EB80000C3002A9FEF7F8FF0028EDD13A
:108E1000002005AA029901EA050304EB8303491C1B
:108E2000DB6842F82030401C02910228F2D30598FA
:108E300000F00300022802D001284DD0AAE00598D6
:108E40005022810D8946B2EB905F00D850210E462A
:108E500066F39F50059008315C4800F0D8F9070090
:108E600078D000F01DFA4346082205A9384600F0E4
:108E700034FA029908F1080A2940681A8000001D96
:108E8000864222D9504D0C3530B1C2B204EB81017B
:108E9000301A90460C3104E02946F2B20025904683
:108EA0002846C6B25346384600F017FA0AEB0803C4
:108EB00025B132462946384600F00FFA029909F1E9
:108EC000030001EB900002903BE004EB810153466C
:108ED000324638460C31EFE70598C0F38310062878
:108EE00000D30620059960F38911C1F38310801C1B
:108EF00005918100354800F08AF907004AD000F05A
:108F0000CFF94346082205A9384600F0E6F908F1F2
:108F1000080800260FE00298434600EA0501401CBD
:108F200004EB81010290042238460C3100F0D5F99F
:108F300008F10408761C0598C0F38310B042EAD803
:108F400047B1D4F81054D4F8180478B1384600F07A
:108F5000ADF934E01EE0E8684079012804D12A68C0
:108F60002846394612689047E8680568002DF2D116
:108F7000384600F09BF98DF800B06846FDF7A4FE76
:108F8000D4F8180408B9029860609DF80000FDF755
:108F9000BFFE14E0D4F8104405E02168204689683B
:108FA0008847E0680468002CF7D109480949401A4D
:108FB000C008022101EB004007A100F017F8FEF7FE
:108FC0001DFB80F00100FEE688280020FCB60200B0
:108FD000DCB602009CB602004261636B656E64738E
:108FE00020666C75736865640000000000231A46F3
:108FF00001F042BA08B5012300926A4601F03CFA3A
:1090000008BD1CB5CDE9002302236A4601F034FAFD
:109010001CBD00002DE9F0470E4680461C469246D6
:1090200008293ED894F80C90002020731946104669
:1090300001F06AF80025B54206D218F805201AA1F9
:109040002046FFF713FC03E019A12046FFF70EFCB2
:109050006D1C082DEFD317A12046FFF707FC002554
:10906000B54210D218F80570FDF768F90068C05DC8
:1090700010F03E0F01D03A4600E02E220EA120460D
:10908000FFF7F4FB03E00DA12046FFF7EFFB6D1C9B
:10909000082DE5D301222146504601F017F884F847
:1090A0000C90BDE8F08700002025303278000000E9
:1090B000202020007C00000025630000200000002C
:1090C0000B4810B5FF218160002101604160C0F8AC
:1090D0001814C0F8141480F82014064800F0E4F8BE
:1090E000002803D1044800F039F9002010BD000029
:1090F00088280020FCB6020034AE02000248034972
:10910000401AC00870470000FCB602009CB602007E
:1091100013B56846FFF7EAF808B100201CBD024805
:10912000009950F831001CBD9CB6020070B509488A
:109130000125D0F8104480F8205407E0E06845711C
:109140002168204649688847E0680468002CF5D10A
:1091500070BD0000882800202DE9FF4781460C9D46
:1091600000200C462F7B2873984616462946184641
:1091700000F0CAFF072E42D2DFE806F004090F16FE
:109180001F2A360049462846FFF770FB37E049465C
:1091900028462268FFF76AFB31E0D4E900234946FC
:1091A0002846FFF763FB2AE0A0680090D4E900237B
:1091B00049462846FFF75AFB21E0D4E90201CDE9F0
:1091C0000001D4E9002349462846FFF74FFB16E08B
:1091D00004F1080007C88DE80700D4E900234946D8
:1091E0002846FFF743FB0AE004F108000FC88DE8AA
:1091F0000F00D4E9002349462846FFF737FB002239
:109200002946404600F062FF2F73BDE8FF872DE935
:10921000F041058A80462D1F4819C01CB0FBF5F0AF
:10922000C6B24046FFF715F9041E19D00020207180
:1092300001206071E58000272546761EC4F8008075
:109240000BE04046FFF705F960B16179491C617197
:10925000286005467F1CC0F80080B742F1D3204645
:10926000BDE8F081204600F002F80020F8E72DE983
:10927000F041457901466B1E002201E00968521C4D
:109280009A42FBD30F680146002605E038460C6879
:10929000FFF701F92146761CAE42F7D3BDE8F08115
:1092A0000121001DFFF7B3B8FFF70DB910B5044653
:1092B0000121001DFFF7C7F810F0FF0F04D1204671
:1092C000BDE81040FFF7D3BF10BD1CB501920122CD
:1092D000009201AAFEF7CAFF1CBD1CB50192002234
:1092E000009201AAFEF7C2FF1CBD0000064910B59E
:1092F00000204870091D0860BFF35F8F03490448D0
:1093000000F0FAF9002010BD2C230020C0AC0200B0
:10931000E426002008B500208DF800006846FDF71F
:10932000D3FCF1EE100A20F09F00E1EE100ABFF32B
:109330005F8F08494020C1F880029DF80000FDF7CA
:10934000E7FC00F0B5F908B141DF08BD20BF40BF20
:1093500020BF08BD04E000E0FDF718BC82680021D2
:10936000916082681161826851618268D16082680F
:10937000516080680160704720B10349096801604D
:10938000002070470E207047B8AE0200FEB50246BE
:109390000E460846FFF7F0FF002868D1002400942D
:1093A0000194012706208DF80020ADF804000294F6
:1093B0008DF8027069462020326869DF2C492D4AF9
:1093C000891AC908012202EB014530B100F0D8F931
:1093D000024628462849FFF70DFE00948DF80170DB
:1093E0008DF80240019402948DF8034069464020B4
:1093F000326869DF30B100F0C3F9024628461F49E0
:10940000FFF7F8FD00940A208DF800000194029403
:1094100069460120326869DF30B100F0B1F90246D7
:1094200028461749FFF7E6FD4FF4B060009001941D
:1094300002946946A120326869DF30B100F0A0F9DA
:10944000024628460F49FFF7D5FD00940194029487
:109450008DF800406946A020326869DF30B100F025
:109460008FF9024628460849FFF7C4FD0020FEBDDB
:10947000ECB602009CB6020058B50200A0B502008E
:10948000B8B4020004B5020064B402002DE9F04152
:109490000546076860DF804619491A482A68081A95
:1094A000C608BA4219D9022000EB064416A120468C
:1094B000FFF79CFD20463A461FA12B68FFF7A1FD50
:1094C0004FF08050D0F80C012968800200F1005064
:1094D000421A204625A1FFF78DFDB8F100004FF09C
:1094E00001040AD000F04CF9024604EB06402AA120
:1094F000FFF780FD4046BDE8F0812F480470F9E792
:10950000ECB602009CB60200496E7375666669632C
:1095100069656E742052414D20616C6C6F6361749B
:10952000656420666F722074686520536F667444AA
:1095300065766963652E00004368616E6765207417
:1095400068652052414D207374617274206C6F63A2
:109550006174696F6E2066726F6D20307825782097
:10956000746F20307825782E000000004D617869F6
:109570006D756D2052414D2073697A6520666F725A
:10958000206170706C69636174696F6E206973200B
:10959000307825782E00000073645F626C655F652B
:1095A0006E61626C6528292072657475726E6564DF
:1095B0002025732E00000000A723002030B514489A
:1095C00091B00078002820D05FF03405ADF840500D
:1095D00010A903A861DF30B1052816D011B0BDE88D
:1095E0003040FDF7D3BA03AC0A49684600F084F86E
:1095F00007E000BFD0E9002120469047684600F010
:1096000092F802980028E1D0F4E711B030BD0000D4
:10961000A7230020BCAE02007CB5194C207808B10D
:1096200008207CBD0120A070002000F03BFE112826
:1096300019D0002000F04EFE12480026006801906C
:109640008DF800606846FDF73FFB0F4901A810DF69
:1096500005000AD0002020709DF80000FDF758FB9F
:109660002DB128467CBD00207CBD0120F3E7A6700B
:10967000667000F0D5FE012000F02CFEF3E700003C
:10968000A423002050AE0200096B02000EB507496A
:10969000684600F031F805E0D0E9001088476846D8
:1096A00000F041F802980028F6D10EBD6CAE020021
:1096B0000148007870470000A42300201FB56846C9
:1096C0004BDF30B1052814D004B0BDE81040FDF7E1
:1096D0005DBA084901A800F00FF806E0D0E90021C2
:1096E0000098904701A800F01EF803980028E6D0E3
:1096F000F4E71FBDD8AE0200016009684160AFF316
:10970000008010B5D0E900215368994201D10021B1
:1097100004E0D1E90034A34202D01946816010BDB3
:1097200008314160F0E7816800290BD00268926837
:109730000A44826041684B689A4203D10831416013
:10974000FFF7DFBF704700000C4A10B502F59473B5
:109750000EE0991AC91001EBD171491002EBC10159
:109760000C68844201D90B4602E005D201F10802DF
:109770009A42EED3002010BD486810BDE0AC020054
:1097800000B5FFF7E1FF002800D1014800BD00004F
:10979000CCAC02004058002800D00120704708B52A
:1097A000002242504058009008BDD0F80403084001
:1097B00000D0012070474058002800D00120704799
:1097C00008B5002242504058009008BD0948006882
:1097D000012110F0010F08D14FF0E020C02280F8E5
:1097E0000024C0F88012C0F800110349012008606D
:1097F0007047000000E100E01805004006490246FD
:1098000000200B790BB1852070470A6001220A7194
:1098100000224A7170470000E8220020044901201C
:10982000086004480168C1F300410029FAD170477B
:109830000C00004018040040002802D001498001BB
:109840000847704791AC020010B5044600F026FCB2
:1098500028B12046BDE810400021FFF78DB9204611
:1098600000F028FC00280FD02046FDF73FFF074AF4
:1098700002EB8001D1F8103523F00103C1F8103557
:1098800001218140C2F8081310BD000000600040B3
:109890002DE9F0418846054600F000FC234E0028E3
:1098A00028461AD0FDF722FF304490F8480080097E
:1098B000032802D001280ED007E04FF0A040D0F8D6
:1098C0001005E84010F0010F05D003212846BDE83F
:1098D000F041FFF751B90221F8E700F0EBFB002857
:1098E00022D02846FDF702FF04464FF4807000EBBB
:1098F00084000F4F81B207EB8400D0F8102542F0AE
:109900000102C0F810250846FFF766F9B8F1000F0C
:109910000AD02846FDF7EAFE56F82000002803D0BA
:109920000120A040C7F80403BDE8F0810025002015
:10993000006000402DE9FC41DFF8BC80044608EBE4
:109940000400002790F930001346C0170E46401C53
:1099500001D008274CE0B0781946C0F340022046F9
:10996000FDF7A0FE0546401C41D0B078410719D450
:10997000C0070AD04FF0A04000EB8401D1F80007E7
:1099800020F00200C1F8000707E0002173782046AC
:1099900000910A460191FFF781F81749204654319A
:1099A000FEF7B1FDB078800718D51448317800EB88
:1099B0008500D0F81025124B1A40C0F810254FF43E
:1099C000F8524FF4403302EA042203EA01410A4309
:1099D000D0F810150A43C0F8102509E008EB05007F
:1099E000327810F8481F41EA8211017000E0042724
:1099F0003846BDE8FC8100000025002000600040E2
:109A0000FFE0FCFF4FF0A041D1F81015C14011F06C
:109A1000010000D00120704770B5184D95F858002E
:109A200008B1082070BD0020411E2A18401CC0B299
:109A300082F830102028F8D300242046FDF724FEB9
:109A4000641CE4B20C2CF8D300240D49C0206C65D2
:109A500081F8000401264020891FC1F88002C1F866
:109A600000014FF4BE70FFF7B7F80649F007C1F8E0
:109A7000040385F85860204670BD000000250020D2
:109A800006E000E000600040034890F8580000281D
:109A900000D0012070470000002500200121B1EB1B
:109AA000507F01D1012070470020704738B50D4626
:109AB00000F076FB040014D000208DF8000068460A
:109AC000FDF702F9207928B19DF80000FDF720F993
:109AD000112038BD0120256020719DF80000FDF7A0
:109AE00017F9002038BD10B500F05AFB002802D04D
:109AF00000210160017110BD0149024800F052BE11
:109B00005C250020002000402DE9F0410546007949
:109B100016460F4600EB40012D4A01EBC00102EB57
:109B2000810494F82A1011B10820BDE8F081294978
:109B300051F820102868FFF7B9FF08B11120F4E7A9
:109B400039462846FDF7FEF8666038692060300027
:109B50004FF001062FD03F7F4FF48E712868FFF73A
:109B60001EFE4FF4A2712868FFF719FE28681A49F3
:109B7000C0F8041328684FEA471140F30730002863
:109B800006DA00F00F0000F1E02080F8141D03E079
:109B900000F1E02080F80014286840F3073000F05E
:109BA0001F0206FA02F14009800000F1E020C0F82F
:109BB0008012C0F8001128680421C0F800150020A8
:109BC000A061E06184F8290044F8140FA675ACE7A1
:109BD0005C25002074AC0200800002002DE9F047F3
:109BE000054600790B4600EB400101EBC00023491C
:109BF00001EB8004284600F043F810B11120BDE8C5
:109C0000F0874FF00008C4F82080A360626184F8F8
:109C100028804FF48E76474631462868FFF7BFFD0F
:109C200028684FF00109C0F808902146286800F024
:109C300055FD606800BBD5F800A00EE094F8280040
:109C400008B10F2716E031465046FFF7A3FD002864
:109C5000F4D02146504600F041FD216A60698142FE
:109C6000F1D331462868FFF795FD0028F9D0286820
:109C7000C0F80C90C4F814803846C0E75C2500207A
:109C8000007900EB400101EBC000044901EB8000CA
:109C90004069002800D00120704700005C250020AA
:109CA0002DE9F047044600794FF0000900EB400130
:109CB00001EBC000254901EB80072068C0F8009542
:109CC000786880B120682249C0F808132068012113
:109CD00040F3073000F01F0291404009800000F17E
:109CE000E020C0F880112068D0F80C25D0F8148549
:109CF000D0F80865D0F810554FF0FF31C0F81415B2
:109D0000C0F80C152068C0F80815C0F81015501CD4
:109D100002D01046FEF7F8FEB8F1FF3F02D04046F1
:109D2000FEF7F2FE681C02D02846FEF7EDFE701C1E
:109D300002D03046FEF7E8FE2068FFF7D4FE87F831
:109D40002A90C7F80490BDE8F08700005C25002049
:109D5000840202000149024800F0D0BD882500209D
:109D6000002000402DE9F0410546164600790F46D7
:109D7000154A00EBC00102EB810494F8201011B1E8
:109D80000820BDE8F081114951F820102868FFF73C
:109D90008DFE08B11120F4E739462846FDF716F884
:109DA0006660386920601EB1397F2846FDF7E6FFFE
:109DB00028680821C0F800150020A061E061012199
:109DC000606184F82010DCE78825002078AC020070
:109DD0002DE9F04704460E460079204900EBC0000B
:109DE00001EB800517463046FFF758FE30B120469C
:109DF00000F036F820B11120BDE8F0871020FBE715
:109E00006F61AE604FF49076002731462068FFF70F
:109E1000D7FC4FF4AC7841462068FFF7D1FC2068AE
:109E2000AA686969C0F84425C0F84815206801216E
:109E30008160686878B9B14649462068FFF7BBFC85
:109E4000064641462068FFF7B6FC0643F4D000B151
:109E50000F27002068613846CEE7000088250020E3
:109E60000079054900EBC00001EB80004069002843
:109E700000D0012070470000882500202DE9F04720
:109E800004460079274900EBC00001EB80072068F9
:109E90004FF00009C0F80095786880B12068224929
:109EA000C0F808132068012140F3073000F01F02BA
:109EB00091404009800000F1E020C0F88011206846
:109EC000D0F80C25D0F81485D0F80865D0F81055D6
:109ED0004FF0FF31C0F80C15C0F814152068C0F819
:109EE0000815C0F81015501C02D01046FEF715FEDC
:109EF000B8F1FF3F02D04046FEF70FFE681C02D0CB
:109F00002846FEF70AFE701C02D03046FEF705FE1A
:109F10002068FFF7E8FD87F82090C7F80490BDE8B7
:109F2000F087000088250020100302000078002838
:109F300007D104483B21408876DF002801D0FCF798
:109F400025BE7047B822002070B58D88027900EBDD
:109F5000C5042273C97BA41D012902D0022904D1A2
:109F600001E0008800E040882080218860888142EC
:109F700011D92846A5DF0126B0B1112816D0FFF768
:109F8000FFFB02460B480C49401AC00806EB004094
:109F90000AA1FFF72FF8A179E079814208D9284674
:109FA000BDE87040FDF774BD6671F4E72671F2E715
:109FB00070BD00009CB602009CB6020073645F6234
:109FC0006C655F67617474635F65786368616E6711
:109FD000655F6D74755F726571756573742829208E
:109FE00072657475726E65642025732E0000000022
:109FF0007CB506468D88C88806EBC504A41D1728C5
:10A0000000D217202188814200D8084660800020B5
:10A01000207121882846B5DF60B1FFF7B1FB024609
:10A020000F481049401AC008012101EB00400EA161
:10A03000FEF7E0FF6079002810D1306900280DD0CC
:10A040001549D1E90201CDE90001ADF8025060885F
:10A05000ADF8040032696946304690477CBD000087
:10A060009CB602009CB6020073645F626C655F6719
:10A07000617474735F65786368616E67655F6D7442
:10A08000755F7265706C7928292072657475726EBF
:10A0900065642025732E000048AC02000449084482
:10A0A00090F93000082801DB01207047002070473C
:10A0B000002500200449084490F93000082801D206
:10A0C00001207047002070470025002010B50C4685
:10A0D000017A052908D0407A38B1084808A10268F9
:10A0E0002046FEF7C3FB00E01AB106A12046FEF7AA
:10A0F000BDFB2046BDE81040FEF7C5BB8023002015
:10A10000257300000D0A000038B5C3880D460446CB
:10A1100033B114A0009015A216A12846FEF7A6FBA5
:10A12000217A05291CD0607A48B1A088FEF71EFE6E
:10A13000164951F8202016A12846FEF797FBA08863
:10A140000021FEF7E5FF03461049207A143951F843
:10A15000202001B02846BDE830400EA1FEF786BBA6
:10A1600038BD00001B5B306D000000001B5B313B05
:10A1700033316D0025734C6F67732064726F70709C
:10A180006564202825642925730D0A00802300209A
:10A19000257300003C25733E2025733A2000000003
:10A1A0000349884201D103487047002070470000EE
:10A1B00000200040F022002070B5012670044FF00E
:10A1C000E0210025C1F88001084C4010C4F8480384
:10A1D000C4F8080366602F20FFF72EFBA660044C2E
:10A1E0002F20A560FFF728FBA57070BD001001406F
:10A1F0001823002070B5054688690C4600284FF4E6
:10A20000847128460AD0FFF7CAFAD5F81805626AA1
:10A21000E1688854606A401C606270BDFFF7BFFA55
:10A22000D5F8180570BD1FB501238DF80030CDE9B4
:10A230000121D0E90012684690471FBD1FB50123D8
:10A240008DF800308DF808100192D0E900126846B0
:10A2500090471FBD38B50021012548B101280CD019
:10A26000032809D1FFF7B2FABDE83840FEF7B2BAC9
:10A270004FF0E020C0F8805138BD8DF800106846DE
:10A28000FCF722FD064C207808B9FEF787FAE06853
:10A29000401CE060A5709DF80000FCF739FD38BD5A
:10A2A000EC2400203EB5044609496846FFF724FA2D
:10A2B00008E000BFD0E900212046904730B1684651
:10A2C000FFF731FA02980028F4D13EBD11203EBDBF
:10A2D00054AE02003EB5044608496846FFF70CFA42
:10A2E00007E000BFD0E90021204690476846FFF70D
:10A2F0001AFA02980028F5D13EBD000060AE0200B7
:10A3000002498969002900D0084770475824002075
:10A3100070B50D4C0020D2B22070201D0B4D03787B
:10A32000EB5C1BB1001DFFF753FD02E00C30FFF7A3
:10A3300055FC08B1FCF72AFC6078002802D021788F
:10A340000029FAD070BD000034230020DC22002058
:10A350002DE9F0410746806A14468846C8B30025B7
:10A3600031E000BFB96A05EB450001EB8006B0881B
:10A37000801CFE2802D90C20BDE8F0812288401CF8
:10A3800008F8020020881622401C80B2208008F8BD
:10A3900000202088401C80B2208000EB080130881B
:10A3A00000F026FB2188084480B22080B28842B1A8
:10A3B000B16871B14044FBF7C5FF2088B1880844FB
:10A3C00020806D1CEDB297F82C00A842CAD800205E
:10A3D000D2E7FFE70720CFE70A78062822F0FF023E
:10A3E0000A7010D2DFE800F0030507090B0D00200A
:10A3F00008E0112006E0212004E0312002E01220D4
:10A4000000E0222008707047002805D10349012090
:10A4100048700020FDF73ABA70470000EC24002095
:10A4200010B51620FCF796FAA0B1114890F8000478
:10A430004009082811D20121814011F0EC0F0CD005
:10A440000C4882684FF480016AB1016841F48001D0
:10A45000016010BD42F2010001E042F20200BDE8DD
:10A460001040FCF793BB4FF0E020C0F8001110BD86
:10A4700016E000E0D82600202DE9F84F204D924646
:10A48000894606469846012269461846AF68FDF798
:10A490005DF858B3009800210446801C09E000BF15
:10A4A00000EA07035AF8212005EB8303401C491CEE
:10A4B000DA604145F4D34FEA164AFDF795FB4AEAC4
:10A4C0000041601C384005EB80003C4005EB8402F5
:10A4D000C160D06866F3C50068F3891069F39F20F6
:10A4E00020F00300401C20F00400D06095F8200408
:10A4F00002E000BFFEF760FC0028FBD1BDE8F88F4A
:10A50000882800202DE9F84F1D4C00256846D4E925
:10A5100001A6FDF773FB002738B30023009A61689A
:10A520001CE0D1F800C00846944503D9ACEB020208
:10A530000A6015E0A2EB0C0263440760D0F80CC07F
:10A54000C1698146BCF1000F08D006EB030828F072
:10A550007F48C0E9018CC9F81C5005460029E0D1AC
:10A5600028466160FDF7C0FC03E02846FDF7BCFC0F
:10A5700010B15046FDF7ACF9E770BDE8F88F000068
:10A58000182300200D4B10B5596831B102680C68D2
:10A59000A24204D8A21A0A60C161586010BD0B46DD
:10A5A00003E00B46C969121B21B10C689442F8D331
:10A5B000A41A0C600260C161D86110BD182300208C
:10A5C0002DE9F041144E77683D462C4603E0844265
:10A5D00004D02546E469002CF9D11BE0D4B1A54292
:10A5E0000BD1F869706040B90C49012088600021E6
:10A5F000B160F0702F20FFF71FF92168E069E86172
:10A6000010B10268114401607068874202D00120D5
:10A61000BDE8F0810020FBE7182300200010014076
:10A620007CB5064600240D468DF800406846FCF7D0
:10A630004BFB01A800F082FA70B105700949466031
:10A640009DF8040048709DF80000FCF761FB1420A1
:10A65000FBF77EFF20467CBD04249DF80000FCF73C
:10A6600057FBF7E7CC2500202DE9F041194D6C6828
:10A67000002C2CD0184800270068A968B846401A5A
:10A6800020F07F462068B0420CD82146361A074495
:10A69000E469087C20B181F810808869496988479D
:10A6A000002CEFD129786878814206D1401CC0B2D5
:10A6B0006870022801D185F80180064869780C305D
:10A6C00040F82170BDE8F0411420FBF741BFBDE820
:10A6D000F0810000182300200415014070B50C46DD
:10A6E00005464FF48E71FFF75AF8216AA068415C65
:10A6F000206A401C2062C5F81C1570BD1FB50022E1
:10A700008DF800200291816801914261D0E9001228
:10A71000684690471FBD00001FB50A4601788DF8B6
:10A72000001041680191017A8DF80810C06803900B
:10A73000044850F82210001F50F822206846904725
:10A740001FBD0000E422002001490120087070476D
:10A750003423002010B588B0044620220E496846F4
:10A76000FBF7F0FD06200090C01F019002900390BF
:10A770004FF0EB7006900CB1084A00E000226946E9
:10A780000748FEF73FF808B1FCF700FA0448001F3D
:10A79000447008B010BD000014AE020049A70200CA
:10A7A000382300202DE9FF470C4605464FF4007181
:10A7B000FEF7FBFF01274FF40178002618B34FF492
:10A7C000927949462846FEF7E5FFE0B1494628461A
:10A7D000FEF7E5FFC5F8088394F8290000B96F601B
:10A7E00002208DF80000D5F88004C5F8800403909D
:10A7F000A0690290E0680190A661E661D4E90012C8
:10A800006846904728E004212846FEF7CEFF18B39B
:10A810004FF484712846FEF7BDFFE8B12146284673
:10A82000FFF7E8FC616AA069884215D1E06938B198
:10A83000E268616AA0612069E6616662E06008E042
:10A8400094F8290000B96F60C5F80883A661E26832
:10A85000616A2046FFF7E7FC4FF48E7841462846B0
:10A86000FEF798FF78B1206A6169884202D294F8B5
:10A87000280020B341462846FEF791FF616911B1D7
:10A880002046FFF73BFF4FF4A27841462846FEF7EB
:10A8900081FF002818D041462846FEF780FF94F833
:10A8A000290000B12F60A06900280DD0A661E268E0
:10A8B000616A04B02046BDE8F047FFF7B4BC21460A
:10A8C0002846FFF70BFFDEE7BDE8FF871FB50A4606
:10A8D00001788DF8001041680191017A8DF8081017
:10A8E000C0680390044850F82210001F50F822203E
:10A8F000684690471FBD0000E42200202DE9FF417B
:10A900000C464FF4927705463946FEF754FF002671
:10A91000C0B139462846FEF753FF02208DF80000EB
:10A92000D5F88004C5F880040390D5F83C058DF86F
:10A930000800E0680190A661E661D4E9001268466B
:10A94000904723E04FF4887739462846FEF733FFD7
:10A95000E0B139462846FEF733FFD5F83C15A0692B
:10A96000884213D1E06960B1E268D5F8000220F0B6
:10A970002000C5F80002E069A0612069E661E0609E
:10A9800001E0A661E2682046FFF758FC4FF4A27789
:10A9900039462846FEF70FFF60B139462846FEF7D4
:10A9A0000FFFA06930B1A661D5F83C152046E268DA
:10A9B000FFF744FC4FF4907739462846FEF7FBFE3C
:10A9C000002813D039462846FEF7FAFE60690028B1
:10A9D0000CD0D5F84C058DF800608DF80800A06803
:10A9E00001906661D4E9001268469047BDE8FF8196
:10A9F0000870000A48700220704700002DE9F05FDF
:10AA00008346DDE90A4A994690460D4608460127E5
:10AA100003E000BFB0FBF8F07F1C4045FAD2B94517
:10AA200000D94F465FEACA7012D18CB15FEA8A70D2
:10AA300002D5B9F1000F01D0202607E0302605E04D
:10AA400031465846641EFCF7C9FD0CB1A742F7D346
:10AA50005FF00106B9F1010F02D9A9F1010903E084
:10AA6000B5FBF6F0404502D306FB08F6F2E7DFF847
:10AA70003C9000BFB5FBF6F000FB165519F800102E
:10AA80005846FCF7ABFDB6FBF8F6002EF2D15FEAB4
:10AA9000CA7009D0002C07D0A74205D22021584601
:10AAA000641EFCF79BFDF5E7BDE8F09F96AC020045
:10AAB000F8B5054680B2FDF703F9040013D0154E32
:10AAC000207A0027317B88420ED2A8B204F10A0115
:10AAD00075DF28B1112806D0BDE8F840FFF710BC9B
:10AAE000207A401C2072F8BD2772307C38B1A8B2A1
:10AAF0003B2176DF18B1082801D0FFF701FC71690E
:10AB00000029F0D08DF80070ADF8025068468847F3
:10AB1000F8BD00005824002030B40446007A002814
:10AB20000AD06088002166DF28B1112802D0616850
:10AB300030BC08470120207230BC70470A494A786F
:10AB40008B78521CD2B2934200D100220B789342F0
:10AB500001D1002070470270487800EB400001EB03
:10AB6000C000001D70470000CC2500202DE9FC41ED
:10AB70001646DDE90854CDE900541F4680460222FE
:10AB800000F00CF8002807D1CDE900543B46102214
:10AB90003146404600F002F8BDE8FC812DE9FC5F3B
:10ABA0000026DDE90C4B994692468E468046278862
:10ABB000354630E0D8F80400002200EB85006946F5
:10ABC0000068019001A864DF002830D19DF80000E2
:10ABD00050451FD10EB1002100E002212288084417
:10ABE0001118594522D846B9521C90B2208009F854
:10ABF00000E02088401C20800126218801A801EB6C
:10AC00000902694664DF002811D120889DF80010F0
:10AC1000084420806D1CB8F80000A842CADC56B178
:10AC20002088C01B401E80B2FF2802D90C20BDE83E
:10AC3000FC9F09F807000020F9E700002315000039
:10AC4000111213140D0E0F10770A000000000000FF
:10AC5000770A0000000000007ADA0000000000001F
:10AC600023D1BCEA5F782315DEEF1212000000004A
:10AC700000000050F99A0200559D020003000000F8
:10AC8000AC250020000000000000000000000000D3
:10AC90000338FDD8704730313233343536373839E0
:10ACA000414243444546000000000000000000000F
:10ACB0000000000000000000000000000000000094
:10ACC000A8AC0200C0AC020004000000556E6B6E20
:10ACD0006F776E206572726F7220636F646500001B
:10ACE0000000000088B302000100000034B202003E
:10ACF0000200000028B0020003000000A8B2020019
:10AD000004000000FCB2020005000000DCB10200FB
:10AD10000600000078B1020007000000E4B2020063
:10AD200008000000F0B102000900000054B2020067
:10AD30000A00000070B302000B00000010B0020017
:10AD40000C00000008B202000D000000D8B30200A1
:10AD50000E000000D4B202000F00000010B3020089
:10AD60001000000044B3020011000000ECB3020028
:10AD700012000000C0B30200130000005CB3020028
:10AD80008000000090B1020081000000CCB0020001
:10AD9000820000008CB00200830000006CB0020052
:10ADA00084000000A8B0020085000000B4B10200D9
:10ADB00086000000BCB202009000000058B1020002
:10ADC000910000004CB00200920000001CB2020092
:10ADD0000082000024B302000182000070B2020071
:10ADE000028200008CB2020000840000E8B0020081
:10ADF0000184000094B302000284000030B102001C
:10AE0000038400000CB10200558D0200298D020060
:10AE1000218D0200FFFFFFFFFFFFFFFFFFFFFFFF8E
:10AE2000FFFFFFFF00000000000000000000D6014F
:10AE300006010000F02700207F000000702800209D
:10AE40000000000000000000000000000000000002
:10AE50000100000740AE020050AE020008000000F2
:10AE600078AE020088AE02000800000088AE020042
:10AE700098AE02000800000058B7020060B7020058
:10AE8000000000000000000048B7020058B70200B0
:10AE9000000000000000000010B7020018B7020018
:10AEA00018B7020028B7020028B7020038B702001E
:10AEB00038B7020040B70200B822002098AE020066
:10AEC000B8AE02000800000040B7020048B7020018
:10AED0000000000000000000C8AE0200D8AE020072
:10AEE0000800000000404040404040404040414198
:10AEF000414141404040404040404040404040404F
:10AF000040404040400502020202020202020202E8
:10AF100002020202022020202020202020202002E5
:10AF20000202020202029090909090901010101075
:10AF30001010101010101010101010101010101011
:10AF400002020202020288888888888808080808A5
:10AF50000808080808080808080808080808080871
:10AF60000202020240000000E5AE020073645F626C
:10AF70006C655F6761705F646174615F6C656E676B
:10AF800074685F7570646174652829202872657122
:10AF90007565737429206F6E20636F6E6E656374C0
:10AFA000696F6E20307825782072657475726E65D1
:10AFB000642025732E000000546865207265717549
:10AFC000657374656420636F6D62696E6174696F27
:10AFD0006E206F6620545820616E64205258207095
:10AFE00061636B6574206C656E6774687320697348
:10AFF00020746F6F206C6F6E67206279202575203A
:10B000006D6963726F7365636F6E64732E00000009
:10B010004E52465F4552524F525F494E56414C493F
:10B02000445F4441544100004E52465F4552524FE6
:10B03000525F534F46544445564943455F4E4F5423
:10B040005F454E41424C4544000000004E52465F71
:10B050004552524F525F464541545552455F4E4FFF
:10B06000545F454E41424C45440000004E52465FFD
:10B070004552524F525F4D555445585F554E4C4FB7
:10B08000434B5F4641494C45440000004E52465FE9
:10B090004552524F525F4D555445585F4C4F434BAC
:10B0A0005F4641494C4544004E52465F4552524F1F
:10B0B000525F4D555445585F434F4E445F494E498A
:10B0C000545F4641494C4544000000004E52465FE3
:10B0D0004552524F525F4D555445585F494E495461
:10B0E0005F4641494C4544004E52465F4552524FDF
:10B0F000525F424C455F495053505F52585F504B2E
:10B10000545F5452554E4341544544004E52465F9D
:10B110004552524F525F424C455F495053505F5029
:10B120004545525F52454A4543544544000000009E
:10B130004E52465F4552524F525F424C455F495016
:10B1400053505F4C494E4B5F444953434F4E4E451D
:10B1500043544544000000004E52465F4552524F52
:10B16000525F4150495F4E4F545F494D504C454DE1
:10B17000454E5445440000004E52465F4552524FE2
:10B18000525F4E4F545F535550504F5254454400F8
:10B190004E52465F4552524F525F4D4F44554C45BB
:10B1A0005F4E4F545F494E495449414C495A4544BA
:10B1B000000000004E52465F4552524F525F4D4FC5
:10B1C00044554C455F414C52454144595F494E49B5
:10B1D0005449414C495A4544000000004E52465FD4
:10B1E0004552524F525F4E4F545F464F554E4400AA
:10B1F0004E52465F4552524F525F494E56414C495E
:10B20000445F5354415445004E52465F4552524F9D
:10B21000525F444154415F53495A45004E52465F84
:10B220004552524F525F494F5F50454E44494E4739
:10B23000000000004E52465F4552524F525F535637
:10B24000435F48414E444C45525F4D495353494E2C
:10B25000470000004E52465F4552524F525F494EE2
:10B2600056414C49445F4C454E475448000000004D
:10B270004E52465F4552524F525F4452565F5457AA
:10B28000495F4552525F414E41434B004E52465F2B
:10B290004552524F525F4452565F5457495F455290
:10B2A000525F444E41434B004E52465F4552524F0F
:10B2B000525F494E5445524E414C00004E52465F3B
:10B2C0004552524F525F53544F524147455F465586
:10B2D0004C4C00004E52465F4552524F525F4E5505
:10B2E0004C4C00004E52465F4552524F525F494E01
:10B2F00056414C49445F504152414D004E52465FC9
:10B300004552524F525F4E4F5F4D454D0000000079
:10B310004E52465F4552524F525F464F5242494449
:10B3200044454E004E52465F4552524F525F445282
:10B33000565F5457495F4552525F4F5645525255DA
:10B340004E0000004E52465F4552524F525F494EEA
:10B3500056414C49445F4144445200004E52465FBE
:10B360004552524F525F5245534F55524345530039
:10B370004E52465F4552524F525F494E56414C49DC
:10B38000445F464C414753004E52465F535543433A
:10B39000455353004E52465F4552524F525F424C06
:10B3A000455F495053505F4348414E4E454C5F41C5
:10B3B0004C52454144595F4558495354530000008D
:10B3C0004E52465F4552524F525F434F4E4E5F437F
:10B3D0004F554E54000000004E52465F4552524FAA
:10B3E000525F54494D454F55540000004E52465F40
:10B3F0004552524F525F4255535900007761726E69
:10B40000696E670064656275670000001B5B313B15
:10B4100033306D001B5B306D000000001B5B313B67
:10B4200033316D001B5B313B33326D001B5B313BB5
:10B4300033336D001B5B313B33346D001B5B313BA1
:10B4400033356D001B5B313B33366D001B5B313B8D
:10B4500033376D00696E666F000000006572726FB1
:10B460007200000073645F626C655F6366675F73A0
:10B47000657428292072657475726E656420257361
:10B48000207768656E20617474656D7074696E678D
:10B4900020746F2073657420424C455F47415454BB
:10B4A000535F4346475F534552564943455F4348C0
:10B4B000414E4745442E000073645F626C655F63D4
:10B4C00066675F73657428292072657475726E658E
:10B4D00064202573207768656E20617474656D70D3
:10B4E00074696E6720746F2073657420424C455FE9
:10B4F000434F4D4D4F4E5F4346475F56535F555543
:10B5000049442E0073645F626C655F6366675F73B6
:10B51000657428292072657475726E6564202573C0
:10B52000207768656E20617474656D7074696E67EC
:10B5300020746F2073657420424C455F474154541A
:10B54000535F4346475F415454525F5441425F53F7
:10B55000495A452E0000000073645F626C655F63AA
:10B5600066675F73657428292072657475726E65ED
:10B5700064202573207768656E20617474656D7032
:10B5800074696E6720746F2073657420424C455F48
:10B59000434F4E4E5F4346475F4741502E000000E9
:10B5A00073645F626C655F6366675F7365742829A7
:10B5B0002072657475726E656420257320776865E6
:10B5C0006E20617474656D7074696E6720746F208D
:10B5D00073657420424C455F4741505F4346475F67
:10B5E000524F4C455F434F554E542E006E72665F6E
:10B5F000626C655F6761747400000000636C6F6368
:10B600006B000000434C4F434B0000004750494F34
:10B610005445000050525300554152540000000060
:10B6200055415254450000007077725F6D676D742C
:10B6300000000000756172745F6C6F675F62616328
:10B640006B656E6400000000617070006E72665F72
:10B65000736468006E72665F7364685F626C650035
:10B660006E72665F7364685F736F630060B7020039
:10B67000B8220020F40000003469020054B802002F
:10B68000AC230020042900004469020008AE020037
:10B690000000000034B602004C230020ECB502008C
:10B6A00000000303FCB502000000000004B6020025
:10B6B000000000000CB602000000000014B60200FA
:10B6C0000000000018B602000000000020B60200D2
:10B6D0000000000028B602000000000048B602008A
:10B6E000000003034CB602000000030354B602003E
:10B6F0000000030360B60200000003035C23002087
:10B70000542300205C230020302700201800000074
:10B7100099720200000000003D850200C423002051
:10B720009D7102000000000061740200AC23002043
:10B73000C7860200D8230020A1700200000000008C
:10B7400009A4020000000000BD95020000000000F6
:10B75000BD9602000000000055A20200000000009B
:10B76000FF00FFFF0D00030011760200E42300201C
:10B770001F000000032400201F0000000000000044
:10B7800000000000000000000000000000000000B9
:10B7900000000000000000000000000000000000A9
:10B7A0000000000000000000000000000000000099
:10B7B0000000000000000000000000000000000089
:10B7C0000000000000000000000000000000000079
:10B7D0000000000000000000000000000000000069
:10B7E0000000000000200040000000000020004099
:10B7F0000000000000000000FF000000000000004A
:10B800000000000000000000000000000000000038
:10B8100000000000000000005CB40200FCB3020065
:10B8200054B4020004B4020014B402000CB40200C8
:10B830001CB4020024B402002CB4020034B4020090
:10B840003CB4020044B402004CB40200000000000A
:04B850000090D00391
:040000050002620192
:00000001FF
